:020000040800F2
:10000000000E002029020008F3190008F11800086A
:10001000F119000883040008811E00080000000098
:10002000000000000000000000000000151C000897
:100030006105000800000000B11B0008171C000843
:10004000430200084302000843020008430200087C
:10005000430200084302000843020008430200086C
:10006000430200084302000843020008430200085C
:10007000D9040008430200084302000843020008B4
:10008000430200084302000843020008430200083C
:1000900085040008430200084302000843020008E8
:1000A000430200084302000843020008430200081C
:1000B000430200084302000843020008430200080C
:1000C00043020008430200084302000843020008FC
:1000D000430200084302000843020008CD1D000847
:1000E00043020008430200084302000843020008DC
:1000F00043020008430200084302000843020008CC
:1001000043020008430200084302000843020008BB
:1001100043020008430200084302000843020008AB
:10012000430200084302000843020008430200089B
:10013000430200084302000843020008430200088B
:10014000430200084302000843020008430200087B
:10015000430200084302000843020008430200086B
:10016000430200084302000843020008430200085B
:100170004302000843020008430200080000000098
:10018000430200084302000800F002F800F03CF8C7
:100190000AA090E8000C82448344AAF10107DA45E2
:1001A00001D100F031F8AFF2090EBAE80F0013F0F8
:1001B000010F18BFFB1A43F001031847941F0000FA
:1001C000B41F0000103A24BF78C878C1FAD852078B
:1001D00024BF30C830C144BF04680C6070470000C1
:1001E0000023002400250026103A28BF78C1FBD840
:1001F000520728BF30C148BF0B6070471FB501F0E0
:1002000091FF1FBD10B510BD00F001F91146FFF7B9
:10021000F5FF01F085FE00F01FF903B4FFF7F2FFD0
:1002200003BC00F027F9000009488047094800474F
:10023000FEE7FEE7FEE7FEE7FEE7FEE7FEE7FEE796
:10024000FEE7FEE704480549054A064B70470000F3
:10025000B11C00088901000800080020000E0020E1
:10026000000A0020000A002053EA020C00F0698016
:100270002DE9F04B4FF00006002B1FBFB3FA83F5BA
:1002800003FA05F424FA05F65E4012BF1643B2FAEB
:1002900082F502FA05F4C5F120051EBF22FA05FC1D
:1002A00044EA0C04203556EA044C4FEA144418BFC3
:1002B000641C4FF000084FF00009904271EB030CF2
:1002C00039D3002919BFB1FA81F701FA07F6B0FA5C
:1002D00080F700FA07F6C7F120071EBF20FA07FCD7
:1002E00046EA0C062037B6FBF4FCA7EB0507103FE7
:1002F00007F01F0BCBF120060CFA0BFB2CFA06F6CD
:1003000044BFB3460026202FA4BF5E464FF0000B2B
:100310005BEA060C08BF4FF0010B19EB0B09ABFBB6
:10032000027C48EB0608C01B06FB02CC0BFB03CC8F
:1003300071EB0C01C1E70B46024641464846BDE859
:10034000F08B13B54FF000004FF00001AFF30080C9
:10035000BDE81C40704710B5203AC0F00B80B1E8F2
:100360001850203AA0E81850B1E81850A0E81850EA
:10037000BFF4F5AF5FEA027C24BFB1E81850A0E8F3
:10038000185044BF18C918C0BDE810405FEA827C0D
:1003900024BF51F8043B40F8043B08BF7047D20724
:1003A00028BF31F8023B48BF11F8012B28BF20F8C5
:1003B000023B48BF00F8012B70474FF0000200B528
:1003C000134694469646203922BFA0E80C50A0E878
:1003D0000C50B1F12001BFF4F7AF090728BFA0E826
:1003E0000C5048BF0CC05DF804EB890028BF40F8F2
:1003F000042B08BF704748BF20F8022B11F0804F34
:1004000018BF00F8012B704770477047704775465A
:1004100000F02CF8AE4605006946534620F0070070
:10042000854618B020B5FFF70DFFBDE820404FF01E
:1004300000064FF000074FF000084FF0000B21F0CE
:100440000701AC46ACE8C009ACE8C009ACE8C0099B
:10045000ACE8C0098D46704710B50446AFF3008084
:100460002046BDE81040FFF7D8BE000000487047A6
:10047000A007002001491820ABBEFEE726000200BD
:100480007047FEE7014800F0E0B90000540000208A
:1004900038B50E4C4FF4007525600025A560E56069
:1004A000082525610A4C050A25706070080AA070AD
:1004B000E170100A20716271180AA071E3716B4635
:1004C00022460249034800F060F838BDA802002027
:1004D0002D00002054000020014800F0E1BB000086
:1004E000C000002001681823CAB2103AB2FBF3F230
:1004F000054B6FF30901032A9B5CC36500D9091DF5
:1005000081650846704700002E21000810B501469D
:1005100000208B698A6A4FF0C07453B1B3F5005F55
:1005200015D072B1012A0CD0022A0AD0032A09D1AF
:1005300004E01AB1012A06D0022A03D1C96AC9010E
:1005400000D5012010BDC96AA142FAD010BD002A11
:10055000F7D0012AF2D0022AF3D0032AF3D010BD3B
:10056000704772B6FEE790F82020012A07D0022AD1
:1005700005D0416A41F48021416201207047006842
:1005800042690A43426100207047F0B590F820505C
:100590000468A468012D05D0022D03D0416A41F4FE
:1005A000802153E014F0406F01D1E5004BD5C4F336
:1005B0000164022C03D9416A41F4000146E001259F
:1005C000A5401D608D684FF4C0739DB1CE68354362
:1005D0004E6845EAC605066803EB0417F5514FF46B
:1005E000C275076805EB04150E697E51097D012966
:1005F00005D009E00E88CD6845EA4655EBE701686D
:100600004E5946F480764E511179D2F805504FF488
:10061000C67641EA0525016806EB04168D5111786E
:10062000D2F801204FF4C47541EA0221026805EBBB
:1006300004155151006803EB0411425842F00102C5
:1006400042500020F0BD416A41F400114162012096
:10065000F0BD000010B590F82020012A07D0022A32
:1006600005D0416A41F480214162012010BD3B4820
:10067000D0F8002242F00102C0F80022D0F8002297
:1006800022F47C52C0F80022D0F800224B6A42EAE1
:100690000322C0F800220A7D02F01F0301229A40C3
:1006A000D0F81C329343C0F81C32CB69B3B9D0F8F0
:1006B0000C329343C0F80C328C894B6864F31F43AF
:1006C0004C6900EBC404C4F840320C890B6864F335
:1006D0001F434C6900EBC404C4F84432CB69012BBE
:1006E00016D1D0F80C321343C0F80C320C884B688A
:1006F00064F31F434C6900EBC404C4F840320C8916
:10070000CB6864F31F434C6900EBC404C4F8443263
:100710008B69002BD0F804320ED01343C0F804329A
:100720000B69002BD0F8143208D01343C0F81432F0
:10073000096A012904D008E09343EFE79343F5E702
:10074000D0F81C121143C0F81C12D0F8001221F08E
:100750000101C0F80012002010BD0000006400403C
:10076000704730B590F82040012C05D0022C03D002
:10077000416A41F480215DE00468002955D0246974
:10078000A40754D04FF4D874056804EB01142D5914
:1007900015F00405956005682D594ED0ED0855609B
:1007A00005682C5904F00204D4604FF4DA7405682B
:1007B00004EB01142D5905F00F05156105682D593D
:1007C000C5F30725956105682C59240C54614FF435
:1007D000DC72046802EB0112A4581C700468A4586F
:1007E000240A5C700468A458240C9C700468A25805
:1007F000120EDA704FF4DE72046802EB0112A45894
:100800001C710468A458240A5C710468A458240C60
:100810009C710468A258120EDA71006881B10169F6
:1008200041F020010161002030BDE468A8E7416A81
:1008300041F400114162012030BD6D0D1560AFE73C
:10084000C16841F02001C160EDE72DE9F05F054688
:10085000006800244669D0F804908768D0F80CB08E
:10086000D0F810A0D0F81880F10748D0F90714D0BC
:1008700001218160B80703D5284600F00AFA0CE090
:10088000780702D54FF4006407E0380702D54FF42B
:10089000805402E0284600F0FBF9F80516D52968D7
:1008A0004FF480708860B80503D5284600F0F3F94E
:1008B0000CE0780502D544F4005407E0380502D571
:1008C00044F4804402E0284600F0E4F9F80316D529
:1008D00029684FF480308860B80303D5284600F0BB
:1008E000DCF90CE0780302D544F4004407E0380357
:1008F00002D544F4803402E0284600F0CDF93007F8
:1009000007D55FEACB6004D52968102044F4007451
:10091000C86070074FF0080707D55FEA0B7004D571
:100920002868C760284600F057F9B00706D5286840
:10093000C068800702D0284600F050F9700607D53D
:100940005FEACA6004D52968102044F48064086115
:10095000B00607D55FEA0A7004D528680761284603
:1009600000F066F9F00606D528680069800702D015
:10097000284600F05EF9B00308D55FEAC96005D5E6
:10098000296810204860284600F054F9F00307D584
:100990005FEA097004D528684760284600F07EF9B0
:1009A000300446D55FEA497040D5F00504D55FEACA
:1009B000C87001D044F00104B00504D55FEA887026
:1009C00001D544F00204700504D55FEA487001D5F2
:1009D00044F00404300529D518F0700F26D008F033
:1009E0007000402815D006DC102809D020280AD035
:1009F000302816D10AE050280ED0602811D10EE020
:100A000044F008040DE044F010040AE044F020042F
:100A100007E044F0400404E044F0800401E044F4C2
:100A200080742868816921F070018161296804203F
:100A30004860002C05D0686A204368622846FFF7AA
:100A40008FFEBDE8F09F70B5040003D094F820003D
:100A500010B104E0012070BD204600F081F820684C
:100A6000016841F00101016000F05EFB05460526CA
:100A700004E000F059FB401B0A2811D820684068A8
:100A8000C007F6D02068016821F00201016000F083
:100A90004BFB05460BE000F047FB401B0A2806D93C
:100AA000606A40F40030606284F82060D2E7206819
:100AB00040688007EFD4207E0128206801683DD07F
:100AC00021F080010160607E01282068016838D033
:100AD00021F040010160A07E01282068016833D028
:100AE00021F020010160E07E0128206801682ED0FD
:100AF00041F010010160207F01282068016829D0A1
:100B000021F008010160607F01282068016824D07D
:100B100021F004010160D4E902010843D4E9041280
:100B2000114308436168491E08432168C8610020D9
:100B30006062012084F82000002070BD41F0800137
:100B4000C0E741F04001C5E741F02001CAE721F0CC
:100B50001001CFE741F00801D4E741F00401D9E7E3
:100B600010B586B0044614216846FFF726FC1749E5
:100B70002068884227D116480021026842F000729E
:100B80000260006800F0007005901148103802689B
:100B900042F0080202600068022200F0080005909E
:100BA0000320CDE90210CDE9000209200490694636
:100BB000084800F0C1F900221146142000F022FB81
:100BC000142000F011FB06B010BD000000640040CE
:100BD00040380240000C02407047000030B589B038
:100BE00007AB6A460021FFF7BCFD0098A0F2012088
:100BF000062816D80C4CC0B20C4D2070C0EBC000BB
:100C000005EB800007A901F069F9207805F1C4021D
:100C1000C0EBC00005EB800102EB80001C22FFF757
:100C20009AFB09B030BD00002C00002020010020FC
:100C3000704770477047000070B5044690F8200078
:100C4000012804D0606A40F40020606218E00220AD
:100C500084F820002068016821F00101016000F0A3
:100C600063FA05460EE000BF00F05EFA401B0A285A
:100C700008D9606A40F400306062052084F82000E2
:100C8000012070BD20684068C007EDD1606270BD72
:100C90007047704770477047704770477047000053
:100CA0002DE9F84304464FF00009CDF80090634861
:100CB0004FF41651A56D0068B0FBF1F72E6894F85B
:100CC0005C10082000FA01F131420FD021680A6857
:100CD00052070BD50A6822F004020A6094F85C10EF
:100CE0008840A860606D40F00100606594F85C1079
:100CF0004FF0010808FA01F0304208D02168496934
:100D0000090604D5A860606D40F00200606594F8A3
:100D10005C1004208840304208D0216809688907A7
:100D200004D5A860606D40F00400606594F85C1024
:100D300010208840304218D021680968090714D56E
:100D4000A86020680168490304D50068000308D53D
:100D5000A16C07E00168C90503D4016821F008010E
:100D60000160216C09B12046884794F85C1020206E
:100D70008840304231D021680968C9062DD5A86065
:100D800094F8350005282068016806D0490347D546
:100D9000006800031DD4616C1CE021F016010160A5
:100DA0002068416921F080014161206C08B9A06C84
:100DB00020B12068016821F00801016094F85C10FE
:100DC0003F208840A86084F8358084F83490216DF5
:100DD0001FE0E16B09B120468847606D00282BD0E9
:100DE000606DC00714D0052084F8350020680168C4
:100DF00021F0010101600098401C0090B84203D826
:100E000020680068C007F6D184F8358084F83490F3
:100E1000E16C002910D001B02046BDE8F04308473E
:100E20000168C905D5D4016821F01001016084F87A
:100E3000358084F83490CCE7BDE8F88328000020A2
:100E40002DE9F041044600F06FF906465CB102203E
:100E500084F83500002584F834502068016821F0BA
:100E6000010101600DE00120BDE8F08100F05CF9B6
:100E7000801B052805D920206065032084F83500F3
:100E8000F2E720680068C007F0D1226811682048A6
:100E90000140D4E901031843D4E90336334318432E
:100EA00063691843A3691843E3691843236A184325
:100EB0000843616A042903D1D4E90B131943084399
:100EC000106020684069666A20F0070130460E43D2
:100ED000012704280CD1A06A0643E06A40B12046ED
:100EE000FFF714FB20B14020606584F83570BAE745
:100EF000206846612046FFF7F5FA94F85C203F2110
:100F000091408160656584F835700020ACE7000091
:100F10003F8010F070B5044600F006F90546601CED
:100F200002D004480078044400F0FEF8401BA042C0
:100F3000FAD370BD1C0000202DE9F84FDFF8BCA1EA
:100F40000022012503264FF00F090AF1040BAAF134
:100F5000040E00BF0B6805FA02F42340A34270D1CF
:100F60000F7907F00307012F01D0022F16D18768F0
:100F70004FEA420806FA08FC27EA0C07D1F80CC031
:100F80000CFA08FC4CEA070CC0F808C04768A743F5
:100F90000C79C4F3001494403C4344600C79E4435E
:100FA000A4070AD0C4684FEA420C06FA0CF7BC4307
:100FB0008F6807FA0CF72743C7600C7904F0030425
:100FC000022C12D1D40800EB840CDCF82040570727
:100FD000FF0E09FA07F824EA0804D1F8108008FA8D
:100FE00007F848EA0408CCF8208004684FEA420C6D
:100FF00006FA0CF7BC430F7907F0030707FA0CF762
:10100000274307604C6814F4403F70D03C4C27687D
:1010100047F480472760246822F0030704F48044E3
:101020000094384C07EB040CDCF8084897074FEAAB
:10103000177809FA08F7BC43334FB84202D10027AA
:1010400024E054E0314FB84201D101271EE0304F77
:10105000B84201D1022719E02E4FB84201D103272F
:1010600014E02D4FB84201D104270FE02B4FB842B6
:1010700001D105270AE02A4FB84201D1062705E031
:10108000284FB84201D1072700E0082707FA08F7E0
:101090002743CCF80878DAF800405746D1F804C066
:1010A0009C435FEACC2C00D51C433C60DBF800403D
:1010B0005F46D1F804C09C435FEA8C2C00D51C43EA
:1010C0003C60DEF800407746D1F804C09C435FEAFC
:1010D0008C3C00D51C433C60084F083F3C68D1F86D
:1010E00004C09C435FEACC3C00D51C433C60521CCE
:1010F000102AFFF42FAFBDE8F88F0000083C014034
:101100004438024000300140000002400004024028
:1011100000080240000C024000100240001402408F
:1011200000180240001C024001488068704700001F
:101130001C000020024881680278114481607047D9
:101140001C0000200B4810B5016841F400710160DB
:10115000016841F480610160016841F480710160BF
:10116000032000F06FF80F2000F006F800F024F8DC
:10117000002010BD003C024070B50D4D04464FF4F8
:101180007A712878B1FBF0F00A490968B1FBF0F0F8
:1011900000F00CFB48B9102C07D200222146501E4B
:1011A00000F030F800206C6070BD012070BD0000C0
:1011B0001C000020280000200A4808B5016841F4FE
:1011C00080410160006800F4804000900548001FE5
:1011D000016841F080510160006800F0805000908B
:1011E00008BD000044380240002809DB00F01F025F
:1011F000012191404009800000F1E020C0F8001179
:1012000070470000F0B40E4B1B680C46C3F302237A
:10121000C3F10705042D00D90425191D072901D2A2
:10122000002300E0DB1E012606FA05F1491E2140DD
:1012300099409E40761E16403143F0BC00F021BE1E
:101240000CED00E0064900F0070208684FF6FF03C6
:10125000184040EA0220034A10430860704700002B
:101260000CED00E00000FA052DE9F0470E46050000
:1012700065D0DFF81481D8F80000F7B200F007005D
:10128000B04207D288F80070D8F8000000F00700DC
:10129000B04254D128683D4C810712D5400703D590
:1012A000206840F4E05020602878000703D52068CB
:1012B00040F4604020602068A96820F0F0000843F6
:1012C00020602878C0072DD0304968680839012887
:1012D00012D0022813D0032811D0096889070029E9
:1012E0002DDA216821F0030101432160FFF71CFF83
:1012F000814641F2883A0EE009688903EFE7096800
:101300008901ECE7FFF710FFA0EB0901514502D975
:101310000320BDE8F0872068696800F00C00B0EB9E
:10132000810FEFD1D8F80010404601F00701B1421B
:1013300007D90770006800F00700B04201D0012013
:10134000E7E72878400705D52068E96820F4E050F1
:10135000084320602878000706D52068296920F412
:10136000604040EAC100206000F038F82168084A77
:10137000C1F30311515CC840064908600648006883
:10138000FFF7FAFE0020C4E7003C024008380240A4
:1013900036210008280000202000002004480549CC
:1013A00000680968044AC1F38221515CC840704753
:1013B000280000200838024046210008044805495A
:1013C00000680968044AC1F34231515CC840704763
:1013D000280000200838024046210008154810B5B2
:1013E000006810F00C02144813D01449042A0FD0DE
:1013F000082A0ED10F4C241F2268236802F03F02F6
:101400005B0207D52068C0F38810A0FB010106E04D
:10141000084610BD2168C1F38811A1FB000100231B
:10142000FEF722FF2168C1F30141491C4900B0FBCE
:10143000F1F010BD083802400024F40040787D012E
:101440002DE9F84F04006ED02078DFF84C93C007E8
:10145000A9F104054AD009F104000168C1F3810132
:10146000012908D00068C0F3810002280AD1D9F808
:101470000000400206D52868800337D56068002840
:10148000E1D033E06068B0F5803F10D0B0F5A02F18
:10149000286810D020F480302860286820F480204C
:1014A00028606068A8B1FFF73FFE06460DE0286897
:1014B00040F48030F4E740F480202860F7E700BF74
:1014C000FFF732FE801B642873D828688003F7D5A5
:1014D0000CE0FFF729FE064605E000BFFFF724FEFB
:1014E000801B6428F0D828688003F7D42078DFF8C0
:1014F000AC8280074FF0000A3ED5A748001D016866
:1015000011F00C0F08D00068C0F3810002280BD145
:10151000D9F80000400207D42868800716D5E06893
:10152000012800D112E033E1E068B8B10120C8F829
:101530000000FFF7F9FD064605E000BFFFF7F4FDE8
:10154000801B0228C0D828688007F7D52868216941
:1015500020F0F80040EAC10028600DE0C8F800A0C3
:10156000FFF7E2FD064604E0FFF7DEFD801B0228E0
:101570001FD828688007F7D42078000722D5864F27
:1015800087486169703771B101210160FFF7CCFDB7
:10159000064604E0FFF7C8FD801B022809D838681A
:1015A0008007F7D50EE0C0F800A0FFF7BDFD0646A6
:1015B00005E082E0FFF7B8FD801B02287DD838687F
:1015C0008007F7D42078400768D5DFF8CCB1002732
:1015D0000BF13C0BDBF80000C0000BD4DBF8001073
:1015E00041F08051CBF80010DBF80000012700F03B
:1015F000805000906B4E3068C00510D4306840F4C5
:1016000080703060FFF790FD009005E0FFF78CFDE3
:101610000099401A022850D83068C005F6D55E4EB1
:10162000A0686C3601280FD00528306810D020F053
:1016300001003060306820F004003060A068B8B16C
:10164000FFF772FD00900FE0306840F00100F4E712
:1016500040F004003060F7E7FFF766FD0099411A9B
:1016600041F28830814266D830688007F4D50EE0B8
:10167000FFF75AFD009007E0FFF756FD0099411A69
:1016800041F28830814256D830688007F4D42FB1B7
:10169000DBF8001021F08051CBF80010A069C8B32E
:1016A0003D49091D0968C1F3810102294AD0022878
:1016B000504607D0C8F8600000E03CE0FFF734FD7A
:1016C00004463BE04746C8F86000FFF72DFD06469C
:1016D00005E000BFFFF728FD801B02282BD82868F3
:1016E0008001F7D4D4E907010843A16A2E4A4908CA
:1016F00002EB0141626A41EA8211084394F82C101E
:1017000040EA0161C9F8001001203866FFF70CFDBE
:10171000044606E03EE000BFFFF706FD001B02287E
:1017200009D828688001F7D534E000BFFFF7FCFC3A
:10173000001B022802D90320BDE8F88F2868800129
:10174000F4D427E00128F7D0D9F80000E26900F4CA
:10175000800191421CD1226A00F03F01914217D1D1
:1017600047F6C071626A0140B1EB821F10D1A26AD4
:101770004FF0FF3300F4403103EB5202B1EB024F64
:1017800006D194F82C1000F07060B0EB016F01D01E
:101790000120D1E70020CFE7043802400000474293
:1017A000800E4742007000400000FFFF10B5401E51
:1017B000B0F1807F01D3012010BD4FF0E0246061C3
:1017C0000F21601700F05DFB0020A0610720206161
:1017D000002010BD70B5040004D094F83D00002531
:1017E00010B106E0012070BD84F83C50204600F0A6
:1017F00023F8242084F83D002068C16821F40051BA
:10180000C160204600F05CFA2068016921F4904133
:1018100001612068416921F02A0141612068C168A5
:1018200041F40051C1602564202084F83D0084F813
:101830003E00002070BD000070B586B00646142141
:101840006846FEF7BAFD25493068884243D12448EE
:101850000025016841F480210160006800F48020C7
:1018600005901F481038016841F0040101600068CC
:10187000694600F0040005904FF44060009002209B
:10188000CDE9010503200390072004901548FFF7D8
:1018900053FB164C144820604FF00060C4E901056A
:1018A0004014C4E9035080106561C4E906504FF448
:1018B0004030C4E908052046FFF7C2FA08B1FEF738
:1018C00050FEB463002211462720A663FFF79AFC5E
:1018D0002720FFF789FC06B070BD000000480040DB
:1018E000403802400008024028600240C00000204A
:1018F000FEE700000F4810B50D490160032141606B
:1019000000214FF410228160C0E903124FF400124D
:101910004261017641768176C17601774177FFF7A2
:1019200092F8002803D0BDE81040FEF71ABE10BDA3
:101930000064004054000020094808B5016841F4E3
:10194000001101600068002200F4001000901146B0
:101950000C20FFF757FCBDE808400C20FFF744BC03
:1019600030380240114808B5016841F001010160BA
:10197000016801F001010091016841F00801016076
:10198000016801F008010091016841F00401016063
:10199000016801F004010091016841F080010160DB
:1019A000006800F08000009008BD00003038024060
:1019B0000D4810B50B4901600C49416000214FF4FE
:1019C00080628160C0E903120C22C0E90521C16177
:1019D000FFF700FF002803D0BDE81040FEF7C1BDAF
:1019E00010BD0000004800407C000020A0860100DF
:1019F000FEE7FEE7A0B1D0ED101AC0ED111A90ED90
:101A00000F1A80ED101AC0ED060A80ED070A30EEBD
:101A1000C00A80ED0F0A017829B101293BD078E096
:101A20009FED3D0A7047D0ED010A60EE801AC0EDCF
:101A3000091AD0ED0A0A90ED022A42EE000A30EEB1
:101A4000410AC0ED0A0A90ED0D2A80ED0E2A90EDB4
:101A50000C2A80ED0D2A80ED0C0A90ED031A21EE80
:101A6000001A80ED0B1A90ED050AF4EEC00AF1EEB3
:101A700010FA09DCB1EE400AF4EEC00AF1EE10FAF9
:101A800002D390ED0A0A01E080ED0A0A31EE800AE5
:101A900030EE010A2BE070EE410A90ED012A20EEB3
:101AA000822A80ED092AD0ED020A60EE800AC0ED9C
:101AB0000A0AD0ED0D2A72EE200AC0ED0E2AD0EDF2
:101AC0000C2AC0ED0D2AF0EE002A01EE620A30EE7B
:101AD000210A80ED0C0A90ED031A21EE000A80ED38
:101AE0000B0A30EE800AD0ED080A30EE200A80EDB5
:101AF000080AD0ED040AB4EEE00AF1EE10FA06DCB2
:101B0000F1EE600AB4EEE00AF1EE10FA01D2C0ED97
:101B1000080A90ED080A704700000000002828D04D
:101B2000002A26D0017092ED001A80ED011A92ED84
:101B3000011A80ED021A92ED021A80ED031A80ED6F
:101B4000040A9FED0C0AC0ED050A80ED0E0A80ED37
:101B50000D0A80ED0C0A80ED080A80ED0B0A80ED7D
:101B60000A0A80ED090A80ED110A80ED100A80ED65
:101B70000F0A7047000000000B4AC0EBC00110B50F
:101B800002EB8101F0EE400A11ED040A00EBC00106
:101B90000648B8EEC00A00EBC104A4F14800FFF704
:101BA00029FF14ED0A0A10BDE40100200005002001
:101BB0007047000030B5144B1C68656945F040055E
:101BC00065611B68DC6844F01004DC600F4B1C6826
:101BD000256825F0010525601C682568ED07F7D10B
:101BE0001D680B4CAC601C68E060186801611868E7
:101BF00042601868016841F480210160186801683A
:101C000041F00101016030BD7C000020C0000020D7
:101C1000044800407047FFF78DBA000030B593B01C
:101C200030216846FEF7C9FB14210CA8FEF7C5FB5E
:101C30001D480025016841F080510160006800F0F6
:101C4000805011901948016841F48041016000689A
:101C5000022400F480401190012003901020049091
:101C6000009406940820CDE90750A820CDE9090486
:101C700004200B906846FFF7E3FB08B172B6FEE75D
:101C80000CA90F2081E831004FF4A0500F904FF4C1
:101C90008050109005210CA8FFF7E6FA002801D02B
:101CA00072B6FEE713B030BD40380240007000400D
:101CB0000248016841F470010160704788ED00E05E
:101CC00070B5044600680169E26821F4405111438F
:101CD00001612169A068E269084361691143084311
:101CE0002168CA6849F20C639A430243CA602068BB
:101CF0004169A26921F44071114341613149206871
:101D0000884202D03049884202D1FFF757FB01E0F8
:101D1000FFF744FBE2690023192164253226B2F55E
:101D2000004F626828D0A0FB0101930F9200FEF7DC
:101D30009BFA0146B0FBF5F06FF01802504301EB3F
:101D4000800006EB0010B0FBF5F000F0F002B1FBF4
:101D5000F5F002EB0012B1FBF5F06FF018035843F9
:101D600001EB800006EB0010B0FBF5F000F00F0077
:101D700021681044886070BDA0FB010192185B418E
:101D8000FEF772FA0146B0FBF5F00201B1FBF5F087
:101D90006FF01803584301EB800006EBC000B0FB66
:101DA000F5F000F0F80002EB4002B1FBF5F058430B
:101DB00001EB800006EBC000B0FBF5F000F007007F
:101DC000D6E700000010014000140140264818B476
:101DD00000680168890604D501684068009018BC55
:101DE000704722490968C906F9D501684068204A48
:101DF0000090106801684FF024030C031D4904682B
:101E000024F00104046016D410684468C4F124046A
:101E1000A4B20C8043601068016841F400210160A5
:101E20001068016841F001010160122CD7D11249FC
:101E300001F1160015E014686068C0F1240080B25A
:101E4000088063600D498B6A23F400238B6211685C
:101E50000A6842F001020A601228C0D1064901F165
:101E60003A0018BC00F004B97C0000200048004093
:101E7000C000002050000020400700200060024009
:101E8000FEE70907090E002804DB00F1E02080F8D6
:101E90000014704700F00F0000F1E02080F8141DDE
:101EA0007047000000B58BB000200121CDE906018C
:101EB000089100900190029003900590049069466B
:101EC0000548FEF7C7FB0448FEF7B6FE02210248AC
:101ED000FEF749FB0BB000BD5400002010B5B0F96F
:101EE000003003810A8852BA02804C88D31A64BA3F
:101EF00044808C88B3F5805F64BA8480897981716D
:101F0000016901DD491E03E013F5805F01DA491C18
:101F1000016102EB4131828A891AC16010BD000063
:101F20002DED028BFFF70EF9FFF778FEFFF71AFD94
:101F3000FFF702FDFFF7DEFCFFF73AFDFFF7B2FF08
:101F400000F038F800F08CF8174D184C9FED188A07
:101F5000A888C00001B22180E888B0EE480AC0001D
:101F600002B2628028885318C00000B2A0801E18F8
:101F7000A6608E1A0644511A0144C01AE660C4E9EC
:101F800004100120FFF7F8FDFDEEC00A00231A46F9
:101F900010EE900A1946A06100B2FEF779FA02200D
:101FA000FEF7B8FFD4E70000400700200000002043
:101FB00000409C452DE9F041234D00242DED048B7C
:101FC00005F510769FED218ADFED218A9FED219A9C
:101FD000DFED219A04EBC40705EBC700F0EE480AD9
:101FE000B0EE680A1D4A0021FFF798FD1B4A06EB78
:101FF000C700F0EE490AB0EE690A0C320021FFF783
:102000008DFD641C042CE5DB5FF0040404EBC407C5
:1020100005EBC700F0EE480AB0EE680A0F4A00214F
:10202000FFF77CFD0D4A06EBC700F0EE490AB0EE63
:10203000690A0C320021FFF771FD641C072CE5DBF7
:10204000BDEC048BBDE8F081C00200200080BB45E0
:1020500000401C46000096430000C84338000020A2
:1020600002492422A1F12400FFF7A4BD7A07002031
:10207000F0B5002855D0002953D00278437842EAC1
:102080000322C2F30A020A8043788478DB0843EA19
:102090004413C3F30A034B808478C578A40944EA47
:1020A0008504057944EA8524C4F30A048C80057903
:1020B00046796D0845EAC615C5F30A05CD8046790F
:1020C000C6F301168E724679B609CE728679C77943
:1020D00046EA07268E81067A477A46EA0726CE81A7
:1020E000867AC77A46EA07260E82067B8E74467B7E
:1020F000CE74867BC77B46EA07268E82067C407CB0
:10210000A2F580620A80A3F580634B80A4F5806409
:1021100046EA00208C80A5F58065CD80A0F5806022
:102120000881F0BD4FF04070E1EE100A70470006E4
:10213000101600061016000000000000000001024A
:102140000304060708090000000001020304000060
:10215000702100080000002054000000C4010008A5
:10216000C421000854000020AC0D0000E00100086C
:10217000000000000000000000000000000000005F
:10218000000000000000000000000000010000004E
:1021900010000000000000000024F4000000000017
:1021A000000000000000000000002041CDCCCC3D2C
:1021B00000000000CDCC4C3E000000000000803F3D
:0421C000000000001B
:040000050800018965
:00000001FF
