:020000040800F2
:10000000B05A0120F5020008374D0008D70A000851
:10001000354D000815080008F952000800000000DE
:100020000000000000000000000000003D02000889
:100030002D08000800000000910200089D4F0008F4
:100040000F0300080F0300080F0300080F03000848
:100050000F0300080F0300080F0300080F03000838
:100060000F0300080F030008310800080F03000801
:100070000F0300080F0300080F0300080F03000818
:100080000F0300080F0300080F0300080F03000808
:100090000F0300080F0300080F0300080F030008F8
:1000A0000F0300080F0300080F0300080F030008E8
:1000B0000F0300080D5000080F0300080F0300088D
:1000C0000F0300080F0300080F0300080F030008C8
:1000D0000F0300085D5100080F0300080F0300081C
:1000E0000F0300080F0300080F0300080F030008A8
:1000F0000F0300080F0300080F0300080F03000898
:100100000F0300080F0300080F0300080F03000887
:100110000F0300080F0300080F0300080F03000877
:100120000F0300080F0300080F0300080F03000867
:100130000F0300080F0300080F0300080F03000857
:100140000F0300080F0300080F0300080F03000847
:100150000F0300080F0300080F0300080F03000837
:100160000F0300080F0300080F0300080F03000827
:100170000F0300080F0300080F0300080F03000817
:100180000F0300080F03000800F002F800F047F822
:100190000AA090E8000C82448344AAF10107DA45E2
:1001A00001D100F03CF8AFF2090EBAE80F0013F0ED
:1001B000010F18BFFB1A43F0010318478491000098
:1001C000A4910000103A24BF78C878C1FAD8520729
:1001D00024BF30C830C144BF04680C6070470000C1
:1001E0000023002400250026103A28BF78C1FBD840
:1001F000520728BF30C148BF0B607047642900F028
:100200000581782900F03E81732900F03B820020AF
:1002100070471FB507F088FC1FBD10B510BD00F07A
:10022000C6FA1146FFF7F5FF05F072F900F0E4FA9F
:1002300003B4FFF7F2FF03BC05F05FF82A4B19681F
:100240000868B0E8F04F80F30988BFF36F8F4FF074
:10025000000080F311887047000000000648006825
:10026000006880F3088862B661B6BFF34F8FBFF3B2
:100270006F8F00DF00BF00BF08ED00E0DFF80C006B
:10028000016841F470010160704700BF88ED00E033
:10029000EFF30980BFF36F8F134B1A681EF0100F36
:1002A00008BF20ED108A20E9F04F106008B44FF02D
:1002B000500080F31188BFF34F8FBFF36F8F06F0AC
:1002C00025FB4FF0000080F3118808BC196808680E
:1002D000B0E8F04F1EF0100F08BFB0EC108A80F3AA
:1002E0000988BFF36F8F7047AC000020EFF30580E3
:1002F000704700000948804709480047FEE7FEE7CD
:10030000FEE7FEE7FEE7FEE7FEE7FEE7FEE7FEE7C5
:1003100004480549054A064B70470000B14F0008E4
:1003200089010008B0540120B05A0120B0560120C4
:10033000B0560120704700000FB4044910B503AA5D
:10034000029800F0A3F910BC5DF814FB74000020C3
:100350002DE9F0410E460446002020622046E16867
:10036000884730B3252805D0D4E901219047206A79
:10037000401CF2E7E168204600278847050018D0B6
:10038000A5F14100192802D820354FF40067324604
:10039000294620462760FFF731FF40B1012804D0ED
:1003A000F61D26F007060836D8E7361DD6E728469C
:1003B000DAE7206ABDE8F08170B50C460546012AEF
:1003C00005D02878800600D5EA69002302E00123E1
:1003D00005E05B1C934202D2E05C0028F9D1A869D9
:1003E000E618C01AA861286A184428622846AFF3A4
:1003F000008004E0D5E9012114F8010B9047B442D4
:10040000F8D32846AFF3008070BD00002DE9F0411D
:100410000646002410687529314616A510D0AFF3A2
:100420000080002802DA404213A507E031688A07FD
:1004300001D512A502E0490704D511A5012401E068
:10044000AFF3008000210A2206F1240709E0B0FB87
:10045000F2FCB0FBF2F302FB1C003030785418467B
:10046000491C0028F3D123462A463046BDE8F04116
:1004700000F085B8000000002D0000002B000000F7
:100480002000000070B504460D4621461068AFF309
:1004900000802188090502D50F4A7A4402E00E4AFD
:1004A0007A440E32002104F1240305E000F00F0627
:1004B0000009965D5E54491C0028F7D1207800237E
:1004C000000704D5702D02D009B102231132204655
:1004D000BDE8704000F053B87A8E0000032A40F265
:1004E000308010F0030C00F0158011F8013BBCF1D6
:1004F000020F624498BF11F801CB00F8013B38BFEE
:1005000011F8013BA2F1040298BF00F801CB38BFFB
:1005100000F8013B11F0030300F0CA80083AC0F074
:10052000088051F8043B083A51F804CBA0E80810C1
:10053000F5E7121D5CBF51F8043B40F8043BAFF3F4
:100540000080D20724BF11F8013B11F801CB48BF4E
:1005500011F8012B24BF00F8013B00F801CB48BF84
:1005600000F8012B704702F0FF0343EA032242EA3E
:10057000024200F0D1B870477047704770472DE9CC
:10058000F0470D4699469246044600F1240801685A
:10059000880604D5E06921F01001216000E0012007
:1005A000A84201DD471B00E00027A1697A1902EB90
:1005B0000900081AA0612078C00602D42046AFF3D3
:1005C0000080002608E0D4E901211AF806009047CF
:1005D000206A401C761C20624E45F4DB2078C00661
:1005E0000AD52046AFF3008006E0D4E9012130208F
:1005F0009047206A401C2062381EA7F10107F4DCF6
:1006000007E0D4E9012118F805009047206A401C52
:100610002062281EA5F10105F3DC2046AFF300801F
:100620002078000602D50220BDE8F0870120FBE714
:1006300001694A1C02610878704700B58FB0CDE9A6
:1006400001310021059105497944CDE90310114696
:100650006846FFF77DFE0FB000BD0000E5FFFFFF1D
:1006600010B5436913B1AFF3008001E0FFF7A4FEBA
:10067000012010BD127800F124010A7000224A7096
:100680000122EDE711684FF0FF32E9E7074B70B543
:100690000D467B44FFF7D1FF0446284600F05CF886
:1006A00010B14FF0FF3070BD204670BD674E0000A6
:1006B00010B5203AC0F00B80B1E81850203AA0E8FD
:1006C0001850B1E81850A0E81850BFF4F5AF5FEA31
:1006D000027C24BFB1E81850A0E8185044BF18C9E4
:1006E00018C0BDE810405FEA827C24BF51F8043B8B
:1006F00040F8043B08BF7047D20728BF31F8023BDF
:1007000048BF11F8012B28BF20F8023B48BF00F872
:10071000012B70474FF000020429C0F0128010F046
:10072000030C00F01F80CCF1040CBCF1020F18BFC9
:1007300000F8012BA8BF20F8022BA1EB0C0100F060
:1007400011B85FEAC17C24BF00F8012B00F8012B2F
:1007500048BF00F8012B7047007B00F08000704715
:100760004FF0000200B5134694469646203922BF4A
:10077000A0E80C50A0E80C50B1F12001BFF4F7AF95
:10078000090728BFA0E80C5048BF0CC05DF804EB77
:10079000890028BF40F8042B08BF704748BF20F8E5
:1007A000022B11F0804F18BF00F8012B70477546DF
:1007B00000F02CF8AE4605006946534620F00700CD
:1007C000854618B020B5FFF7A3FDBDE820404FF0E7
:1007D00000064FF000074FF000084FF0000B21F02B
:1007E0000701AC46ACE8C009ACE8C009ACE8C009F8
:1007F000ACE8C0098D46704710B50446AFF30080E1
:100800002046BDE81040FFF713BD000000487047C8
:100810004C540120FEE700000348002202604260C1
:100820005321312004F00CBC600000207047000010
:1008300008B5142004F0B4FD10210C4800F042F972
:1008400080B90B486A460121006806F045F948B1B5
:10085000009838B107494FF080500860BFF34F8FC0
:10086000BFF36F8F102000F02FF808BD001002407A
:100870001000002004ED00E03EB500F02DF901214C
:10088000880304F0B9FA0421084604F009FB10209B
:10089000002500908DF804500C208DF805000124EF
:1008A0008DF80640684600F015F80A208DF808001B
:1008B00006208DF809008DF80A508DF80B4002A82B
:1008C00004F03AFA3EBD000001490860704700009C
:1008D000143C014030B51A4A8379016853B3136858
:1008E0008B431360111D0B680468A3430B600179EF
:1008F00011440B68046823430B60114B08331968DB
:100900000468A14319601C1D21680568A943216082
:100910004179102905D011440A68006802430A6031
:1009200030BD1968026811431960216800680143ED
:10093000216030BD0079104402688A43026030BDF6
:10094000003C01408000A0F1C0400029016802D0B5
:1009500041F0010101E0024A1140016070470000CE
:10096000FEFF0F0010B5D0E901121143D0E90323B7
:100970001A4311434269114382691143C269114309
:10098000026A1143426A1143826A1143C26A1143E7
:10099000026B114302689200A2F1C04211608168AB
:1009A000082907D101688900A1F1C0410A6842F015
:1009B00040020A60416BD1E9002342EA03128B68CE
:1009C0008C891B0243EA04431A430B8A42EA03520E
:1009D0000B7D896942EA03620A4301688900A1F13B
:1009E000C0414A60C16AB1F5804F08D000686FF01D
:1009F00070418000A0F1C040C0F8041110BD816BAF
:100A0000D1E9002342EA03128B680C8A1B0243EAF5
:100A100004531A430B7D896942EA036200680A4362
:100A20008000A0F1C040C0F8042110BDF0B5002244
:100A300001274FF0030C0B6807FA02F52B40AB427D
:100A40002CD1066853000CFA03F4A64306600E7915
:100A5000D0F800E09E4046EA0E0606600E79012EB0
:100A600001D0022E12D18668A64386604E79D0F856
:100A700008E09E4046EA0E0686604668AE43466041
:100A800045688E799640B6B235434560C568A54342
:100A9000C560CC799C40C3681C43C460521C102ABA
:100AA000C9D3F0BD4B07DB0E9A40C90810B500EB67
:100AB0008100016A0F249C40A1430162016A114335
:100AC000016210BD0246002012690A4200D00120D6
:100AD000704701837047FEE71CB50121112004F027
:100AE00067F91C20009000208DF8040003208DF889
:100AF000050001248DF8074069460648FFF796FF78
:100B000002208DF80700009469460348FFF78EFF26
:100B10001CBD000000100240000002402DE9F04121
:100B20002E4C2F4F2F4D012608B1267001E0207862
:100B3000A0B110212846FFF7C5FFB0B10821284613
:100B4000FFF7C0FF88B104212846FFF7BBFF60B163
:100B500001213846FFF7B6FF012806D010212846AC
:100B6000FFF7B0FF012824D035E00A2004F0E2FBB3
:100B70000020207010212846FFF7A4FF80B1082133
:100B80002846FFF79FFF70B104212846FFF79AFF20
:100B900058B101213846FFF795FF012807D01AE028
:100BA0000120BDE8F0810220FBE70320F9E70420E3
:100BB000F7E708212846FFF785FF01280BD104211C
:100BC0002846FFF77FFF012805D101213846FFF7AE
:100BD00079FF00B926700020E3E700006C000020D8
:100BE00000000240001002402DE9F043184F064675
:100BF000002438887D884543B888A0F5D041043961
:100C000002D1B879012808D00021084603F0CEFEB1
:100C100004F060F84FF0D84016E00020B8714FF0B3
:100C20002A09A7F80A904FF02B08A7F80C80014674
:100C300003F0BCFE0120B871A7F80A80A7F80C9059
:100C4000E6E7A0F88060641CAC42FAD3BDE8F0830C
:100C5000280100202DE9F04F4A492A232B248988B6
:100C600045F2105A4FF4305B4FF4285E4FF448754C
:100C70004FF0F00C49F241394FF4A07745F21036AD
:100C80004FF4F07280B13F484FF00108494580F8B9
:100C900006800780A0F802C001D0B1423ED12C25C9
:100CA00005814381848157E036484FF0000849456B
:100CB00080F80680A0F800C0478006D0A1F5D04C8F
:100CC000BCF1040C01D0B1420CD12C25058143812B
:100CD000A1F5D0438481043B01D0B14244D10780C7
:100CE000428041E0514507D1A0F808B0A0F80AE0E1
:100CF0004FF42C5181810EE0A1F5C856633E06D019
:100D00002221018120214181212181812CE02C217E
:100D10000181448183810280458025E0A1F5D04C8A
:100D2000BCF1040C09D051450BD1A0F808B0A0F8D3
:100D30000AE04FF42C53838121E02C250581448166
:100D400009E0A1F5C85CBCF1630C12D02223038139
:100D50002123438120238381A1F5D043043B01D08B
:100D6000B14201D102804780BDE8F04F002003F07E
:100D70001BBD4FF02C0CA0F808C043818481058076
:100D80004280E9E7280100202DE9FE4F0026A2EB72
:100D9000000882465F1A701E35468946B8F1000F7A
:100DA00002DD4FF0010102E003D14FF0000101919B
:100DB00002E0C8F100080190002F02DD4FF00100B1
:100DC00002E003D14FF00000009002E0C7F10007FD
:100DD00000904046B84501DD044600E03C46601CFA
:100DE0004FF0000B029015E01FFA89F11FFA8AF00C
:100DF00000F016F846443D44A64202DD0199361B38
:100E00008A44A54202DD00992D1B89440BF10100A3
:100E10001FFA80FB02998B45E6DDBDE8FE8F0000DE
:100E200000B503F0C3FD03F055FF03484FF0D84170
:100E30000088A1F8800000BD68000020F0B51C46C5
:100E400015460E4607460B46FFF79EFF3A462346D9
:100E500031461046FFF798FF23462A461946384682
:100E6000FFF792FF2A4623463146BDE8F040104680
:100E7000FFF78ABF2DE9F043414D91460C460246EB
:100E8000060AA9882846A1F5134340894FEA142889
:100E9000413B16D0A1F5A643103B12D0B3F5007329
:100EA00013D02E46A1F5C857B3793688B61A761EE8
:100EB000633F23D0A1F5D047043F3AD0012B4DD05A
:100EC0004DE003F0FAFE304639E003F0F6FE30461E
:100ED00003F0E7FE6889401C80B203F0EEFED0B25A
:100EE00003F0DFFEA88903F0E8FE404603F0D9FED8
:100EF000A889401C80B203F0E0FE2BE003B9B2B237
:100F000003F0DBFE160A304603F0CBFED0B203F04E
:100F1000C8FE304603F0C5FED0B203F0C2FEA88979
:100F200003F0CBFE404603F0BCFEE0B203F0B9FE96
:100F30000DE0012B00D1B2B203F0BFFE100A03F0A6
:100F4000B0FED0B203F0ADFEA88903F0B6FE404675
:100F500003F0A7FEE0B203F0A4FE07E0B2B2114630
:100F600003F0C2FEA889214603F0BEFE4FF0D84030
:100F7000298920F87E1FA0F80290BDE8F0830000C8
:100F8000280100202DE9F843204D1F468046AB88FC
:100F9000089EA3F5D040043802D1A879012807D0D3
:100FA000A2EB0800401C85B20C464FF0D84929E05E
:100FB0002B880846991A0024AC713A462A24A3EBE0
:100FC00008036C812B27491E5B1EAF8189B29BB23F
:100FD0000096FFF7D7FF0120A8716F81AC81BDE8B3
:100FE000F8832146404603F0E1FC03F073FE002045
:100FF000494603E0A1F88060401C80B2A842F9D3C2
:10100000641CA4B2BC42ECD9E9E70000280100202E
:101010002DE9F04FA1B0002401217A201F9403F0A4
:10102000C7FE0121084603F0CFFE4FF400400090B8
:1010300001208DF804008DF8064002208DF805008F
:1010400001208DF807006946FE48FFF7EFFC4CF2DF
:101050003370009002208DF804008DF806400320C4
:101060008DF8050001208DF807006946F648FFF766
:10107000DDFC4FF68070009002208DF804008DF8A2
:10108000064003208DF805000120F04D8DF8070083
:1010900069462846FFF7CAFCA814009002208DF884
:1010A00004008DF8064003208DF805000120E84E6D
:1010B0008DF8070069463046FFF7B8FCA814009089
:1010C00002208DF804008DF8064003208DF80500FD
:1010D0000120E04F8DF8070069463846FFF7A6FC6F
:1010E0000C220021D848FFF7DDFC0C220121D64854
:1010F000FFF7D8FC0C220421D348FFF7D3FC0C22C5
:101100000521D148FFF7CEFC0C220821CE48FFF77D
:10111000C9FC0C220921CC48FFF7C4FC0C220A218F
:10112000C948FFF7BFFC0C220E21C748FFF7BAFCE5
:101130000C220F21C448FFF7B5FC0C2207212846DA
:10114000FFF7B0FC0C2208212846FFF7ABFC0C226D
:1011500009212846FFF7A6FC0C220A212846FFF7A2
:10116000A1FC0C220B212846FFF79CFC0C22114607
:101170002846FFF797FC0C220D212846FFF792FC2A
:101180000C220E212846FFF78DFC0C220F21284649
:10119000FFF788FC0C2211463046FFF783FC0C2237
:1011A00011463846FFF77EFC0F20CDE911043C20A4
:1011B000CDE91304159409201694CDE917400820B1
:1011C000CDE919401B941C940620CDE902041D941E
:1011D0001E941020CDE9044006940002CDE90A4097
:1011E000089407948000CDE90C40099411A8CDE93A
:1011F0000E4018A8109002A8FFF7B4FB01210620AA
:10120000FFF7A0FB322004F095F80121002003F045
:101210006BFD322004F08EF8002003F092FA8E4A23
:101220004FF0204A4FF6FF7B908049F2413545F25E
:10123000103645F2105441F6631846F60407FF28AD
:1012400004D3584502D0B0F5134F74D1D32003F026
:1012500034FD03F06CFA908003F069FA908003F09B
:1012600066FA0BEA0020D946908003F060FA918874
:1012700008439080A8425ED0BF2003F01EFD03F01B
:1012800056FA908003F053FA908003F050FA908061
:1012900003F04DFA09EA0020908003F048FA9188A3
:1012A00008439080B84246D0D42003F006FD03F0F6
:1012B0003EFA908003F03BFA908003F038FA09EA96
:1012C0000020908003F033FA918808439080B04268
:1012D00031D04FF45A4003F0F0FC03F028FA90802C
:1012E0004FF45B4003F0E9FC03F021FA09EA002027
:1012F00090804FF45C4003F0E0FC03F018FA918812
:1013000008439080B0F5004F39D0A04213D0A120FF
:1013100003F0D3FC03F00BFA908003F008FA09EA1B
:101320000020908003F003FA91880843A0F5AE41B5
:101330009080613920D080B2A84205D0B04203D05D
:10134000A04201D040451CD1DAF81C11504621F0D2
:101350000F01CAF81C11DAF81C1121F47061CAF8E7
:101360001C11DAF81C1141F00301CAF81C11DAF85B
:101370001C1141F4007121E0A2F80480E4E794809C
:10138000E2E7B84203D0A0F54541053918D1DAF8B3
:101390001C11504621F00F01CAF81C11DAF81C117B
:1013A00021F47061CAF81C11DAF81C1141F00A012D
:1013B000CAF81C11DAF81C1141F44061C0F81C1184
:1013C0009146918825A0FEF7B7FFB9F80400A8421E
:1013D0007DD1CF2003F071FC002003F062FCC1201E
:1013E00003F05FFC302003F05CFCED2003F065FCB3
:1013F000642003F056FC032003F053FC122003F09A
:1014000050FC812003F04DFCE82003F056FC8520C1
:1014100003F047FC102003F044FC7A2003F041FC69
:10142000CB2003F04AFC392003F03BFC2C2003F0D6
:1014300038FC002003F035FC342003F032FC02209D
:1014400014E0000000040240000C024000100240C2
:10145000001402400018024028010020204C4344A0
:101460002049443A25780D0A0000000003F019FCD9
:10147000F72003F022FC202003F013FCEA2003F005
:101480001CFC002003F00DFC002003F00AFCC0202F
:1014900003F013FC1B2003F004FCC12003F00DFC3F
:1014A000012003F0FEFBC52003F007FC302003F011
:1014B000F8FB302003F0F5FBC72003F0FEFBB7205C
:1014C00003F0EFFB362003F0F8FB482000E0A7E034
:1014D00003F0E7FB3A2003F0F0FB552003F0E1FBBB
:1014E000B12003F0EAFB002003F0DBFB1A2003F03D
:1014F000D8FBB62003F0E1FB0A2003F0D2FBA220C8
:1015000003F0CFFBF22003F0D8FB002003F0C9FB6F
:10151000262003F0D2FB012003F0C3FBE02003F000
:10152000CCFB0F2003F0BDFB2A2003F0BAFB2820E0
:1015300003F0B7FB082003F0B4FB0E2003F0B1FB6F
:10154000082003F0AEFB542003F0ABFBA92003F00E
:10155000A8FB432003F0A5FB0A2003F0A2FB0F2009
:1015600003F09FFB002003F09CFB002003F099FB9D
:10157000002003F096FB002003F093FBE12003F032
:101580009CFB002003F08DFB152003F08AFB172045
:1015900003F087FB072003F084FB112003F081FB9D
:1015A000062003F07EFB2B2003F07BFB562003F08C
:1015B00078FB3C2003F075FB052003F072FB102044
:1015C00003F06FFB0F2003F06CFB3F2003F069FB7F
:1015D0003F2003F066FB0F2003F063FB2B2003F09A
:1015E0006CFB002003F05DFB002003F05AFB0120A0
:1015F00003F057FB3F2003F054FB2A2003F05DFB70
:10160000002003F04EFB002003F04BFB002003F012
:1016100048FBEF2003F045FB112003F04EFBA5E053
:10162000B8427CD1112003F048FB142003F082FE65
:10163000D02003F042FB072003F033FB422003F0ED
:1016400030FB1D2003F02DFBD12003F036FB0020E2
:1016500003F027FB1A2003F024FB092003F021FBF1
:10166000D22003F02AFB012003F01BFB222003F011
:1016700018FBC02003F021FB102003F012FB3B20DD
:1016800003F00FFB002003F00CFB022003F009FB2A
:10169000112003F006FBC52003F00FFB032003F02D
:1016A00000FBC82003F009FB002003F0FAFA252014
:1016B00003F0F7FA212003F0F4FA052003F0F1FA21
:1016C000002003F0EEFA0A2003F0EBFA652003F0A5
:1016D000E8FA252003F0E5FA772003F0E2FA50203B
:1016E00003F0DFFA0F2003F0DCFA002003F0D9FA50
:1016F000F82003F0E2FA012003F0D3FAFE2003F011
:10170000DCFA002003F0CDFA022003F0CAFA202010
:1017100003F0D3FA362003F0D0FA082000E02BE0E3
:1017200003F0BFFA3A2003F0C8FA552003F0B9FAE3
:101730002B2003F0C2FA002003F0B3FA002003F0DC
:10174000B0FA012003F0ADFA3F2003F0AAFA2A20F4
:1017500003F0B3FA002003F0A4FA002003F0A1FA8A
:10176000012003F09EFADF2003F09BFA782003F0BB
:10177000E1FD292001F0FBBEB0427CD1ED2003F059
:101780009CFA012003F08DFAFE2003F08AFAEE2085
:1017900003F093FADE2003F084FA212003F081FAAB
:1017A000F12003F08AFA012003F07BFADF2003F036
:1017B00084FA102003F075FAC42003F07EFA8F201B
:1017C00003F06FFAC62003F078FA002003F069FAFC
:1017D000E22003F066FAE22003F063FAE22003F06D
:1017E00060FABF2003F069FAAA2003F05AFAB02089
:1017F00003F063FA0D2003F054FA002003F051FACD
:101800000D2003F04EFA002003F04BFA112003F0F4
:1018100048FA002003F045FA192003F042FA0020AC
:1018200003F03FFA212003F03CFA002003F039FADC
:101830002D2003F036FA002003F033FA3D2003F0A8
:1018400030FA002003F02DFA5D2003F02AFA002080
:1018500003F027FA5D2003F024FA002003F021FAB8
:10186000B12003F02AFA802003F01BFA002003F0D5
:1018700018FA8B2000E0FCE303F013FA002003F0D9
:1018800010FA962003F00DFA002003F00AFAB220B5
:1018900003F013FA002003F004FA002003F001FA29
:1018A000022003F0FEF9002003F0FBF9032003F00F
:1018B000F8F9002003F0F5F9B32003F0FEF9002059
:1018C00003F0EFF9002003F0ECF9002003F0E9F950
:1018D000002003F0E6F9002003F0E3F9002003F014
:1018E000E0F9002003F0DDF9002003F0DAF9002030
:1018F00003F0D7F9002003F0D4F9002003F0D1F968
:10190000002003F0CEF9002003F0CBF9002003F013
:10191000C8F9002003F0C5F9002003F0C2F9002047
:1019200003F0BFF9002003F0BCF9002003F0B9F97F
:10193000002003F0B6F9002003F0B3F9002003F013
:10194000B0F9002003F0ADF9002003F0AAF9B420AB
:1019500003F0B3F98B2003F0A4F9002003F0A1F900
:10196000962003F09EF9002003F09BF9A12003F0DC
:1019700098F9002003F095F9B52003F09EF90220B4
:1019800003F08FF9002003F08CF9032003F089F9AC
:10199000002003F086F9042003F083F9002003F00F
:1019A00080F9B62003F089F9002003F07AF90020CD
:1019B00003F077F9B72003F080F9002003F071F904
:1019C000002003F06EF93F2003F06BF9002003F0D4
:1019D00068F95E2003F065F9002003F062F96420E5
:1019E00003F05FF9002003F05CF98C2003F059F953
:1019F000002003F056F9AC2003F053F9002003F067
:101A000050F9DC2003F04DF9002003F04AF9702072
:101A100003F047F9002003F044F9902003F041F966
:101A2000002003F03EF9EB2003F03BF9002003F027
:101A300038F9DC2003F035F9002003F032F9B82042
:101A400003F03BF9002003F02CF9002003F029F902
:101A5000002003F026F9002003F023F9002003F012
:101A600020F9002003F01DF9002003F01AF90020EE
:101A700003F017F9BA2003F020F9242003F011F93C
:101A8000002003F00EF9002003F00BF9002003F012
:101A900008F9C12003F011F9202003F002F9002019
:101AA00003F0FFF8542003F0FCF8002003F0F9F8ED
:101AB000FF2003F0F6F8002003F0F3F8C22003F053
:101AC000FCF80A2003F0EDF8002003F0EAF8042007
:101AD00003F0E7F8002003F0E4F8C32003F0EDF88A
:101AE0003C2003F0DEF8002003F0DBF83A2003F09E
:101AF000D8F8002003F0D5F8392003F0D2F8002000
:101B000003F0CFF8372003F0CCF8002003F0C9F839
:101B10003C2003F0C6F8002003F0C3F8362003F0A1
:101B2000C0F8002003F0BDF8322003F0BAF800201E
:101B300003F0B7F82F2003F0B4F8002003F0B1F859
:101B40002C2003F0AEF8002003F0ABF8292003F0BE
:101B5000A8F8002003F0A5F8262003F0A2F8002042
:101B600003F09FF8242003F09CF8002003F099F87C
:101B7000242003F096F8002003F093F8232003F0CC
:101B800090F8002003F08DF83C2003F08AF8002044
:101B900003F087F8362003F084F8002003F081F882
:101BA000322003F07EF8002003F07BF82F2003F0B2
:101BB00078F8002003F075F82C2003F072F800206C
:101BC00003F06FF8292003F06CF8002003F069F8A7
:101BD000262003F066F8002003F063F8242003F0C9
:101BE00060F8002003F05DF8242003F05AF800208C
:101BF00003F057F8232003F054F8002003F051F8C5
:101C0000C42003F05AF8622003F04BF8002003F0E0
:101C100048F8052003F045F8002003F042F884203E
:101C200003F03FF8002003F03CF8F02003F039F80F
:101C3000002003F036F8182003F033F8002003F0FA
:101C400030F8A42003F02DF8002003F02AF8182023
:101C500003F027F8002003F024F8502003F021F8C7
:101C6000002003F01EF80C2003F01BF8002003F006
:101C700018F8172003F015F8002003F012F895204B
:101C800003F00FF8002003F00CF8F32003F009F83C
:101C9000002003F006F8E62003F003F8002003F02C
:101CA00000F8C52003F009F8322002F0FAFF002006
:101CB00002F0F7FF442002F0F4FF002002F0F1FFF1
:101CC000652002F0EEFF002002F0EBFF762002F02C
:101CD000E8FF002002F0E5FF882002F0E2FF00208C
:101CE00002F0DFFFC62002F0E8FF202002F0D9FF5B
:101CF000002002F0D6FF172002F0D3FF002002F0F0
:101D0000D0FF012002F0CDFF002002F0CAFFC72063
:101D100002F0D3FF002002F0C4FF002002F0C1FF58
:101D2000002002F0BEFF002002F0BBFFC82002F03E
:101D3000C4FF002002F0B5FF002002F0B2FF002037
:101D400002F0AFFF002002F0ACFFC92002F0B5FFA7
:101D5000002002F0A6FF002002F0A3FF002002F006
:101D6000A0FF002002F09DFF002002F09AFF00205B
:101D700002F097FF002002F094FF002002F091FF94
:101D8000002002F08EFF002002F08BFF002002F006
:101D900088FF002002F085FF002002F082FF002073
:101DA00002F07FFF002002F07CFF002002F079FFAC
:101DB000E02002F082FF162002F073FF002002F004
:101DC00070FF1C2002F06DFF002002F06AFF21204E
:101DD00002F067FF002002F064FF362002F061FF8E
:101DE000002002F05EFF462002F05BFF002002F0C0
:101DF00058FF522002F055FF002002F052FF6420ED
:101E000002F04FFF002002F04CFF7A2002F049FF61
:101E1000002002F046FF8B2002F043FF002002F07A
:101E200040FF992002F03DFF002002F03AFFA82079
:101E300002F037FF002002F034FFB92002F031FF3A
:101E4000002002F02EFFC42002F02BFF002002F041
:101E500028FFCA2002F025FF002002F022FFD22036
:101E600002F01FFF002002F01CFFD92002F019FF32
:101E7000002002F016FFE02002F013FF002002F025
:101E800010FFF32002F00DFF002002F00AFFE12016
:101E900002F013FF162002F004FF002002F001FF01
:101EA0001C2002F0FEFE002002F0FBFE222002F0C9
:101EB000F8FE002002F0F5FE362002F0F2FE0020CF
:101EC00002F0EFFE452002F0ECFE002002F0E9FEF9
:101ED000522002F0E6FE002002F0E3FE642002F051
:101EE000E0FE002002F0DDFE7A2002F0DAFE0020A3
:101EF00002F0D7FE8B2002F0D4FE002002F0D1FECB
:101F0000992002F0CEFE002002F0CBFEA82002F0C5
:101F1000C8FE002002F0C5FEB92002F0C2FE00207B
:101F200002F0BFFEC42002F0BCFE002002F0B9FEA9
:101F3000CA2002F0B6FE002002F0B3FED22002F06A
:101F4000B0FE002002F0ADFED82002F0AAFE002074
:101F500002F0A7FEE02002F0A4FE002002F0A1FEA5
:101F6000F32002F09EFE002002F09BFEE22002F031
:101F7000A4FE052002F095FE002002F092FE0B2048
:101F800002F08FFE002002F08CFE1B2002F089FE82
:101F9000002002F086FE342002F083FE002002F0D2
:101FA00080FE442002F07DFE002002F07AFE4F20E9
:101FB00002F077FE002002F074FE612002F071FE54
:101FC000002002F06EFE792002F06BFE002002F08D
:101FD00068FE882002F065FE002002F062FE972075
:101FE00002F05FFE002002F05CFEA62002F059FE27
:101FF000002002F056FEB72002F053FE002002F04F
:1020000050FEC22002F04DFE002002F04AFEC72022
:1020100002F047FE002002F044FED12002F041FE13
:10202000002002F03EFED62002F03BFE002002F02F
:1020300038FEDD2002F035FE002002F032FEF320F3
:1020400002F02FFE002002F02CFEE32002F035FE0D
:10205000052002F026FE002002F023FE0A2002F0F6
:1020600020FE002002F01DFE1C2002F01AFE0020BF
:1020700000E0FDE202F015FE332002F012FE002027
:1020800002F00FFE442002F00CFE002002F009FED8
:10209000502002F006FE002002F003FE622002F053
:1020A00000FE002002F0FDFD782002F0FAFD002085
:1020B00002F0F7FD882002F0F4FD002002F0F1FDAF
:1020C000972002F0EEFD002002F0EBFDA62002F0CA
:1020D000E8FD002002F0E5FDB72002F0E2FD00205F
:1020E00002F0DFFDC22002F0DCFD002002F0D9FD8D
:1020F000C72002F0D6FD002002F0D3FDD12002F06F
:10210000D0FD002002F0CDFDD52002F0CAFD002058
:1021100002F0C7FDDD2002F0C4FD002002F0C1FD89
:10212000F32002F0BEFD002002F0BBFDE42002F02F
:10213000C4FD012002F0B5FD002002F0B2FD012037
:1021400002F0AFFD002002F0ACFD022002F0A9FD7C
:10215000002002F0A6FD2A2002F0A3FD002002F0DC
:10216000A0FD3C2002F09DFD002002F09AFD4B20D6
:1021700002F097FD002002F094FD5D2002F091FD39
:10218000002002F08EFD742002F08BFD002002F092
:1021900088FD842002F085FD002002F082FD93205E
:1021A00002F07FFD002002F07CFDA22002F079FD0C
:1021B000002002F076FDB32002F073FD002002F053
:1021C00070FDBE2002F06DFD002002F06AFDC4200B
:1021D00002F067FD002002F064FDCD2002F061FDF9
:1021E000002002F05EFDD32002F05BFD002002F033
:1021F00058FDDD2002F055FD002002F052FDF320D5
:1022000002F04FFD002002F04CFDE52002F055FDEC
:10221000002002F046FD002002F043FD002002F005
:1022200040FD002002F03DFD022002F03AFD0020BA
:1022300002F037FD292002F034FD002002F031FDCC
:102240003C2002F02EFD002002F02BFD4B2002F07E
:1022500028FD002002F025FD5D2002F022FD002077
:1022600002F01FFD742002F01CFD002002F019FD99
:10227000842002F016FD002002F013FD932002F0EE
:1022800010FD002002F00DFDA22002F00AFD00204A
:1022900002F007FDB32002F004FD002002F001FD72
:1022A000BE2002F0FEFC002002F0FBFCC42002F085
:1022B000F8FC002002F0F5FCCD2002F0F2FC00203A
:1022C00002F0EFFCD32002F0ECFC002002F0E9FC6D
:1022D000DC2002F0E6FC002002F0E3FCF32002F038
:1022E000E0FC002002F0DDFCE62002F0E6FC11201C
:1022F00002F0D7FC002002F0D4FC342002F0D1FC24
:10230000002002F0CEFC562002F0CBFC002002F0B0
:10231000C8FC762002F0C5FC002002F0C2FC772049
:1023200002F0BFFC002002F0BCFC662002F0B9FC09
:10233000002002F0B6FC882002F0B3FC002002F07E
:10234000B0FC992002F0ADFC002002F0AAFCBB20FA
:1023500002F0A7FC002002F0A4FC992002F0A1FCEE
:10236000002002F09EFC662002F09BFC002002F0A0
:1023700098FC552002F095FC002002F092FC5520BC
:1023800002F08FFC002002F08CFC452002F089FC5A
:10239000002002F086FC432002F083FC002002F0C3
:1023A00080FC442002F07DFC002002F07AFCE72053
:1023B00002F083FC322002F074FC002002F071FC79
:1023C000552002F06EFC002002F06BFC762002F03B
:1023D00068FC002002F065FC662002F062FC002030
:1023E00002F05FFC672002F05CFC002002F059FC68
:1023F000672002F056FC002002F053FC872002F018
:1024000050FC002002F04DFC992002F04AFC002014
:1024100002F047FCBB2002F044FC002002F041FC2B
:10242000992002F03EFC002002F03BFC772002F0F5
:1024300038FC002002F035FC442002F032FC002081
:1024400002F02FFC562002F02CFC002002F029FCA8
:10245000232002F026FC002002F023FC332002F0AF
:1024600020FC002002F01DFC452002F01AFC002098
:1024700002F017FCE82002F020FC002002F011FC22
:10248000002002F00EFC992002F00BFC002002F06C
:1024900008FC872002F005FC002002F002FC8820E6
:1024A00002F0FFFB002002F0FCFB772002F0F9FBBA
:1024B000002002F0F6FB662002F0F3FB002002F0A1
:1024C000F0FB882002F0EDFB002002F0EAFBAA20DE
:1024D00002F0E7FB002002F0E4FBBB2002F0E1FB8E
:1024E000002002F0DEFB992002F0DBFB002002F06E
:1024F000D8FB662002F0D5FB002002F0D2FB55206D
:1025000002F0CFFB002002F0CCFB552002F0C9FB0B
:10251000002002F0C6FB442002F0C3FB002002F0C2
:10252000C0FB442002F0BDFB002002F0BAFB5520A6
:1025300002F0B7FB002002F0B4FBE92002F0BDFB83
:10254000AA2002F0AEFB002002F0ABFB002002F05C
:10255000A8FB002002F0A5FB002002F0AEFBAA20A1
:1025600002F09FFBCF2002F0A8FB002002F099FBB5
:10257000002002F096FB002002F093FB002002F006
:1025800090FB002002F08DFB002002F08AFB00206F
:1025900002F087FB002002F084FB002002F081FBA8
:1025A000002002F07EFB002002F07BFB002002F006
:1025B00078FB002002F075FB002002F072FB002087
:1025C00002F06FFB002002F06CFB002002F069FBC0
:1025D000F02002F072FB002002F063FB502002F0BA
:1025E00060FB002002F05DFB002002F05AFB00209F
:1025F00002F057FBF32002F060FB002002F051FBD9
:10260000F92002F05AFB062002F04BFB102002F0EA
:1026100048FB292002F045FB002002F042FB3A2053
:1026200002F04BFB552002F03CFB112002F045FB71
:10263000642002F07FFE292002F03FFB352002F0EB
:102640003CFB002002F02DFB512002F036FBFF2066
:1026500002F027FB532002F030FB2C2002F021FB7C
:10266000552002F02AFB822002F01BFB2C20FCE309
:10267000A0427DD14FF470435521184602F034FB3F
:102680004FF20104AA21204602F02EFB651C5221C4
:10269000284602F029FBA61C0821304602F024FB44
:1026A000E71C0121384602F01FFB0D214FF430409A
:1026B00002F01AFB0D214BF2010002F015FB0D2177
:1026C0004BF2020002F010FB4FF436483421404632
:1026D00002F00AFB34214BF2016002F005FB3421C9
:1026E0004BF2026002F000FB4FF431490D214846E5
:1026F00002F0FAFA4BF2011A0D21504602F0F4FAF8
:102700000D214BF2021002F0EFFA34214FF4374062
:1027100002F0EAFA34214BF2017002F0E5FA3421BA
:102720004BF2027002F0E0FA00214FF4324002F066
:10273000DBFA00214BF2012002F0D6FA00214BF225
:10274000022002F0D1FA24214FF4384002F0CCFAF2
:1027500024214BF6010002F0C7FA24214BF60200B7
:1027600002F0C2FA01214FF43F4002F0BDFA00E04E
:10277000FEE30F214FF4334002F0B6FA0F214BF283
:10278000013002F0B1FA0F214BF2023002F0ACFA44
:1027900034214FF4394002F0A7FA34214BF60110EE
:1027A00002F0A2FA34214BF6021002F09DFA082141
:1027B0004FF4354002F098FA08214BF2015002F034
:1027C00093FA08214BF2025002F08EFA03214FF4E3
:1027D000424002F089FA24214FF43A4002F084FA90
:1027E00024214BF6012002F07FFA24214BF602202F
:1027F00002F07AFA00214FF43C4002F075FA782199
:102800004BF6014002F070FA00214BF6024002F054
:102810006BFA00214FF43D4002F066FA78214BF646
:10282000015002F061FA00214BF6025002F05CFA0E
:1028300000214FF43E4002F057FA64214BF601604C
:1028400002F052FA00214FF4514002F04DFA3321C8
:102850004DF2011002F048FA00214DF2021002F090
:1028600043FA34214DF2031002F03EFA00214DF2FA
:10287000041002F039FA3A214DF2051002F034FA50
:1028800000214DF2061002F02FFA4A214DF20710F6
:1028900002F02AFA00214DF2081002F025FA5C211C
:1028A0004DF2091002F020FA00214DF20A1002F058
:1028B0001BFA81214DF20B1002F016FA00214DF2A5
:1028C0000C1002F011FAA6214DF20D1002F00CFAD4
:1028D00000214DF20E1002F007FAE5214DF20F1023
:1028E00002F002FA01214DF2101002F0FDF913215D
:1028F0004DF2111002F0F8F901214DF2121002F020
:10290000F3F954214DF2131002F0EEF901214DF2CA
:10291000141002F0E9F982214DF2151002F0E4F9E9
:1029200001214DF2161002F0DFF9CA214DF2171005
:1029300002F0DAF902214DF2181002F0D5F9002167
:102940004DF2191002F0D0F902214DF21A1002F0E6
:10295000CBF901214DF21B1002F0C6F902214DF214
:102960001C1002F0C1F934214DF21D1002F0BCF927
:1029700002214DF21E1002F0B7F967214DF21F102F
:1029800002F0B2F902214DF2201002F0ADF98421DB
:102990004DF2211002F0A8F902214DF2221002F0AE
:1029A000A3F9A4214DF2231002F09EF902214DF269
:1029B000241002F099F9B7214DF2251002F094F994
:1029C00002214DF2261002F08FF9CF214DF227108F
:1029D00002F08AF902214DF2281002F085F9DE2179
:1029E0004DF2291002F080F902214DF22A1002F076
:1029F0007BF9F2214DF22B1002F076F902214DF213
:102A00002C1002F071F9FE214DF22D1002F06CF93C
:102A100003214DF22E1002F067F910214DF22F1014
:102A200002F062F903214DF2301002F05DF933211A
:102A30004DF2311002F058F903214DF2321002F03C
:102A400053F96D214DF2331002F04EF900214FF48D
:102A5000524002F049F933214DF2012002F044F9CD
:102A600000214DF2022002F03FF934214DF2032003
:102A700002F03AF900214DF2042002F035F93A2132
:102A80004DF2052002F030F900214DF2062002F04F
:102A90002BF94A214DF2072002F026F900214DF2D0
:102AA000082002F021F95C214DF2092002F01CF906
:102AB00000214DF20A2002F017F981214DF20B207E
:102AC00002F012F900214DF20C2002F00DF9A621BE
:102AD0004DF20D2002F008F900214DF20E2002F017
:102AE00003F9E5214DF20F2002F0FEF801214DF22D
:102AF000102002F0F9F813214DF2112002F0F4F841
:102B000001214DF2122002F0EFF854214DF2132072
:102B100002F0EAF801214DF2142002F0E5F88221DA
:102B20004DF2152002F0E0F801214DF2162002F0DE
:102B3000DBF8CA214DF2172002F0D6F802214DF23F
:102B4000182002F0D1F800214DF2192002F0CCF843
:102B500002214DF21A2002F0C7F801214DF21B208C
:102B600002F0C2F802214DF21C2002F0BDF834211F
:102B70004DF21D2002F0B8F802214DF21E2002F0A5
:102B8000B3F867214DF21F2002F0AEF802214DF29A
:102B9000202002F0A9F884214DF2212002F0A4F8AF
:102BA00002214DF2222002F09FF8A4214DF22320B1
:102BB00002F09AF802214DF2242002F095F8B72194
:102BC0004DF2252002F090F802214DF2262002F06D
:102BD0008BF8CF214DF2272002F086F802214DF22A
:102BE000282002F081F8DE214DF2292002F07CF845
:102BF00002214DF22A2002F077F8F2214DF22B202B
:102C000002F072F802214DF22C2002F06DF8FE2144
:102C10004DF22D2002F068F803214DF22E2002F033
:102C200063F810214DF22F2002F05EF803214DF2DF
:102C3000302002F059F833214DF2312002F054F8DF
:102C400003214DF2322002F04FF86D214DF2332076
:102C500002F04AF800214FF4534002F045F83321C6
:102C60004DF2013002F040F800214DF2023002F046
:102C70003BF834214DF2033002F036F800214DF2DA
:102C8000043002F031F83A214DF2053002F02CF810
:102C900000214DF2063002F027F84A214DF20730AC
:102CA00002F022F800214DF2083002F01DF85C21FC
:102CB0004DF2093002F018F800214DF20A3002F00E
:102CC00013F881214DF20B3002F00EF800214DF285
:102CD0000C3002F009F8A6214DF20D3002F004F894
:102CE00000214DF20E3001F0FFFFE5214DF20F30D3
:102CF00001F0FAFF01214DF2103001F0F5FF132130
:102D00004DF2113001F0F0FF01214DF2123001F0CF
:102D1000EBFF54214DF2133001F0E6FF01214DF29B
:102D2000143001F0E1FF82214DF2153001F0DCFF9B
:102D300001214DF2163001F0D7FFCA214DF21730B4
:102D400001F0D2FF02214DF2183001F0CDFF002139
:102D50004DF2193001F0C8FF02214DF21A3001F096
:102D6000C3FF01214DF21B3001F0BEFF02214DF2E5
:102D70001C3001F0B9FF34214DF21D3001F0B4FFD9
:102D800002214DF21E3001F0AFFF67214DF21F30DE
:102D900001F0AAFF02214DF2203001F0A5FF8421AD
:102DA0004DF2213001F0A0FF02214DF2223001F05E
:102DB0009BFFA4214DF2233001F096FF02214DF23A
:102DC000243001F091FFB7214DF2253001F08CFF46
:102DD00002214DF2263001F087FFCF214DF227303E
:102DE00001F082FF02214DF2283001F07DFFDE214B
:102DF0004DF2293001F078FF02214DF22A3001F026
:102E000073FFF2214DF22B3001F06EFF02214DF2E3
:102E10002C3001F069FFFE214DF22D3001F064FFEE
:102E200003214DF22E3001F05FFF10214DF22F30C3
:102E300001F05AFF03214DF2303001F055FF3321EC
:102E40004DF2313001F050FF03214DF2323001F0EC
:102E50004BFF6D214DF2333001F046FF00214FF45E
:102E6000544001F041FF332100E080E34DF2014086
:102E700001F03AFF00214DF2024001F035FF34210C
:102E80004DF2034001F030FF00214DF2044001F00B
:102E90002BFF3A214DF2054001F026FF00214DF2B3
:102EA000064001F021FF4A214DF2074001F01CFFCE
:102EB00000214DF2084001F017FF5C214DF209405E
:102EC00001F012FF00214DF20A4001F00DFF8121B7
:102ED0004DF20B4001F008FF00214DF20C4001F0D3
:102EE00003FFA6214DF20D4001F0FEFE00214DF240
:102EF0000E4001F0F9FEE5214DF20F4001F0F4FE25
:102F000001214DF2104001F0EFFE13214DF211406E
:102F100001F0EAFE01214DF2124001F0E5FE5421DC
:102F20004DF2134001F0E0FE01214DF2144001F09A
:102F3000DBFE82214DF2154001F0D6FE01214DF25B
:102F4000164001F0D1FECA214DF2174001F0CCFE2F
:102F500002214DF2184001F0C7FE00214DF2194048
:102F600001F0C2FE02214DF21A4001F0BDFE00E068
:102F700000E301214DF21B4001F0B6FE02214DF2AB
:102F80001C4001F0B1FE34214DF21D4001F0ACFEB9
:102F900002214DF21E4001F0A7FE67214DF21F40B5
:102FA00001F0A2FE02214DF2204001F09DFE84219D
:102FB0004DF2214001F098FE02214DF2224001F035
:102FC00093FEA4214DF2234001F08EFE02214DF22A
:102FD000244001F089FEB7214DF2254001F084FE26
:102FE00002214DF2264001F07FFECF214DF2274015
:102FF00001F07AFE02214DF2284001F075FEDE213B
:103000004DF2294001F070FE02214DF22A4001F0FC
:103010006BFEF2214DF22B4001F066FE02214DF2D3
:103020002C4001F061FEFE214DF22D4001F05CFECE
:1030300003214DF22E4001F057FE10214DF22F409A
:1030400001F052FE03214DF2304001F04DFE3321DC
:103050004DF2314001F048FE03214DF2324001F0C3
:1030600043FE6D214DF2334001F03EFE00214FF44E
:10307000554001F039FE33214DF2015001F034FE8C
:1030800000214DF2025001F02FFE34214DF2035089
:1030900001F02AFE00214DF2045001F025FE3A21F4
:1030A0004DF2055001F020FE00214DF2065001F0D6
:1030B0001BFE4A214DF2075001F016FE00214DF291
:1030C000085001F011FE5C214DF2095001F00CFE98
:1030D00000214DF20A5001F007FE81214DF20B5004
:1030E00001F002FE00214DF20C5001F0FDFDA62181
:1030F0004DF20D5001F0F8FD00214DF20E5001F09F
:10310000F3FDE5214DF20F5001F0EEFD01214DF2EE
:10311000105001F0E9FD13214DF2115001F0E4FDD2
:1031200001214DF2125001F0DFFD54214DF21350F8
:1031300001F0DAFD01214DF2145001F0D5FD82219C
:103140004DF2155001F0D0FD01214DF2165001F065
:10315000CBFDCA214DF2175001F0C6FD02214DF200
:10316000185001F0C1FD00214DF2195001F0BCFDD5
:1031700002214DF21A5001F0B7FD01214DF21B5012
:1031800001F0B2FD02214DF21C5001F0ADFD3421E1
:103190004DF21D5001F0A8FD02214DF21E5001F02C
:1031A000A3FD67214DF21F5001F09EFD02214DF25B
:1031B000205001F099FD84214DF2215001F094FD41
:1031C00002214DF2225001F08FFDA4214DF2235037
:1031D00001F08AFD02214DF2245001F085FDB72156
:1031E0004DF2255001F080FD02214DF2265001F0F4
:1031F0007BFDCF214DF2275001F076FD02214DF2EB
:10320000285001F071FDDE214DF2295001F06CFDD6
:1032100002214DF22A5001F067FDF2214DF22B50B0
:1032200001F062FD02214DF22C5001F05DFDFE2106
:103230004DF22D5001F058FD03214DF22E5001F0BA
:1032400053FD10214DF22F5001F04EFD03214DF2A0
:10325000305001F049FD33214DF2315001F044FD71
:1032600003214DF2325001F03FFD6D214DF23350FC
:1032700001F03AFD00214FF4564001F035FD3321B5
:103280004DF2016001F030FD00214DF2026001F0CD
:103290002BFD34214DF2036001F026FD00214DF29B
:1032A000046001F021FD3A214DF2056001F01CFDA2
:1032B00000214DF2066001F017FD4A214DF2076032
:1032C00001F012FD00214DF2086001F00DFD5C21BE
:1032D0004DF2096001F008FD00214DF20A6001F095
:1032E00003FD81214DF20B6001F0FEFC00214DF247
:1032F0000C6001F0F9FCA6214DF20D6001F0F4FC28
:1033000000214DF20E6001F0EFFCE5214DF20F605F
:1033100001F0EAFC01214DF2106001F0E5FC1321FF
:103320004DF2116001F0E0FC01214DF2126001F05C
:10333000DBFC54214DF2136001F0D6FC01214DF26B
:10334000146001F0D1FC82214DF2156001F0CCFC3B
:1033500001214DF2166001F0C7FCCA214DF2176041
:1033600001F0C2FC02214DF2186001F0BDFC002109
:103370004DF2196001F0B8FC02214DF21A6001F023
:10338000B3FC01214DF21B6001F0AEFC02214DF2B5
:103390001C6001F0A9FC34214DF21D6001F0A4FC79
:1033A00002214DF21E6001F09FFC67214DF21F606B
:1033B00001F09AFC02214DF2206001F095FC84217D
:1033C0004DF2216001F090FC02214DF2226001F0EB
:1033D0008BFCA4214DF2236001F086FC02214DF20A
:1033E000246001F081FCB7214DF2256001F07CFCE6
:1033F00002214DF2266001F077FCCF214DF22760CB
:1034000001F072FC02214DF2286001F06DFCDE211A
:103410004DF2296001F068FC02214DF22A6001F0B2
:1034200063FCF2214DF22B6001F05EFC02214DF2B3
:103430002C6001F059FCFE214DF22D6001F054FC8E
:1034400003214DF22E6001F04FFC10214DF22F6050
:1034500001F04AFC03214DF2306001F045FC3321BC
:103460004DF2316001F040FC03214DF2326001F079
:103470003BFC6D214DF2336001F036FC55211846BE
:1034800001F032FCAA21204601F02EFC52212846F0
:1034900001F02AFC0821304601F026FC00213846C4
:1034A00001F022FCCC21484601F01EFC00215046D0
:1034B00001F01AFC0521404601F016FC70214FF482
:1034C000374001F011FC70214BF2017001F00CFC4F
:1034D00001214FF4384001F007FC03214BF60100B5
:1034E00001F002FC03214BF6020001F0FDFB032179
:1034F0004BF6030001F0F8FB02214FF43C4001F0D1
:10350000F3FB00214BF6014001F0EEFB00214BF6EE
:10351000024001F0E9FBD0214FF4494001F0E4FB07
:1035200002214CF6011001F0DFFB50214CF6021095
:1035300001F0DAFB50214CF6031001F0D5FB5021CD
:103540004CF6041001F0D0FB00214FF4545001F070
:10355000CBFB55214FF4685001F0C6FB4FF4885067
:1035600001F0ABFB782001F001FF4FF4245001F093
:10357000A4FBF3E0A0F513414FF480744FF4E0692D
:1035800040F2022A4FF4274625397CD040F20775D5
:10359000C91E79D04FF488774FF41C56083174D087
:1035A000113973D0A0F5A841083970D0A0F5A85101
:1035B0004FF4407705396BD0B1F5204169D0B1F5B2
:1035C000805167D0A0F58A4131397CD0091F7BD06A
:1035D0004045CED1E22001F070FB1D2001F061FBDF
:1035E000022001F05EFB042001F05BFB642001F08F
:1035F000BDFEE02001F061FB012001F052FB0A203A
:1036000001F098FEE02001F058FB032001F049FB97
:103610000C2001F08FFE012001F04FFB0A2001F089
:1036200089FEE62001F049FB2F2001F03AFBFF2044
:1036300001F037FBFF2001F034FBB02001F03DFB2F
:10364000202001F02EFB002001F02BFB032001F0D5
:1036500028FB40F21F3001F024FB012001F021FB88
:1036600040F2DF1001F01DFB002001F01AFBB42036
:1036700001F023FB042001F014FB40F21F4001F095
:1036800010FB002007E076E041E1F9E1A0E275E3FC
:10369000FEE3FEE3FEE301F004FB2E2001F001FB5C
:1036A000002001F0FEFA002001F0FBFA002001F0FA
:1036B000F8FA002001F0F5FAB62001F0FEFA022037
:1036C00001F0EFFA01E0E6E3E6E34FF4037001F006
:1036D000E8FA002001F0E5FA172001F0E2FA1520DF
:1036E00001F0DFFA002001F0DCFA002001F0D9FA45
:1036F000F02001F0E2FA032001F0D3FA292001F0D2
:10370000DCFAD02001F0D9FA002001F0CAFABE207C
:1037100001F0D3FA052001F0C4FAFE2001F0C1FA4D
:10372000012001F0BEFA002001F0BBFA002001F0F8
:10373000B8FA002001F0B5FAB82001F0BEFA032073
:1037400001F0AFFA012001F0ACFABA2001F0B5FAAD
:10375000012001F0A6FA642000F0FEFF0020FDF732
:1037600079FAFF490120C1F8BC025846FDF73CFA3E
:1037700021B0BDE8F08F47F6F001E52001F0B4FA82
:103780002146012001F0B0FA4946022001F0ACFACE
:1037900041F23001032001F0A7FA0021042001F0DA
:1037A000A3FA5146082001F09FFA0021092001F0F8
:1037B0009BFA00210A2001F097FA00210C2001F069
:1037C00093FA00210D2001F08FFA00210F2001F063
:1037D0008BFA0021102001F087FA0721112001F057
:1037E00083FA0021122001F07FFA0021132001F05A
:1037F0007BFA0021072001F077FA41F29061102056
:1038000001F072FA40F22721112001F06DFA9D219A
:10381000122001F069FA4FF4C851132001F064FA44
:103820002521292001F060FA0D212B2001F05CFAFE
:103830000721302001F058FA40F20331312001F025
:1038400053FA0321322001F04FFA40F206213520CD
:1038500001F04AFA0821362001F046FA40F206410A
:10386000372001F041FA4FF44171382001F03CFA61
:103870000721392001F038FA40F202613C2001F0C2
:1038800033FA08213D2001F02FFA0021502001F0E9
:103890002BFAEF21512001F027FA0021522001F0EC
:1038A00023FA40F23F11532001F01EFA3146602006
:1038B00001F01AFA0121612001F016FA00216A20B4
:1038C00001F012FA0021802001F00EFA002181207F
:1038D00001F00AFA0021822001F006FA002183207B
:1038E00001F002FA0021842001F0FEF90021852078
:1038F00001F0FAF91021902001F0F6F94FF4C061BF
:10390000922001F0F1F940F233110720FEE341F279
:103910008F01EC2001F0E8F941F23421EF2001F0B1
:10392000E3F92146012001F0DFF94946022001F0C8
:10393000DBF941F23001032001F0D6F90021042027
:1039400001F0D2F95146082001F0CEF900210920FA
:1039500001F0CAF900210A2001F0C6F901210C206A
:1039600001F0C2F900210D2001F0BEF900210F2065
:1039700001F0BAF90021102001F0B6F90721112059
:1039800001F0B2F90021122001F0AEF9002113205C
:1039900001F0AAF90121072001F0A6F9322001F077
:1039A000C9FC41F29041102001F09EF940F227211C
:1039B000112001F099F9322001F0BCFC8A2112207B
:1039C00001F092F9322001F0B5FC4FF4D0511320F0
:1039D00001F08AF90621292001F086F90D212B201A
:1039E00001F082F9322001F0A5FC0021202001F035
:1039F0007BF90021212001F077F9322001F09AFCB7
:103A00000021302001F070F940F20461312001F012
:103A10006BF940F20531322001F066F900213520C2
:103A200001F062F940F60941362001F05DF94FF4EA
:103A30000171372001F058F940F20131382001F0CE
:103A400053F92946392001F04FF900213C2001F0BB
:103A50004BF940F60A213D2001F046F9322001F0F1
:103A600069FC0021502001F03FF9EF21512001F0C5
:103A70003BF90021522001F037F940F23F114EE1AD
:103A80000021084601F030F92146012001F02CF90F
:103A90004946022001F028F941F23001032001F0EB
:103AA00023F90021042001F01FF95146082001F0FC
:103AB0001BF90021092001F017F900210A2001F06B
:103AC00013F901210C2001F00FF900210D2001F064
:103AD0000BF900210F2001F007F9322001F02AFC38
:103AE00040F20111072001F0FFF8322001F022FC22
:103AF0004FF48651102001F0F7F80721112001F052
:103B0000F3F83946122001F0EFF84FF4306113203A
:103B100001F0EAF80021292001F0E6F844F2100152
:103B20002B2001F0E1F80021502001F0DDF8EF2119
:103B3000512001F0D9F80021522001F0D5F840F2CF
:103B40003F11532001F0D0F83146602001F0CCF84D
:103B50000121612001F0C8F800216A2002E0000084
:103B60000080404201F0C0F80021802001F0BCF844
:103B70000021812001F0B8F80021822001F0B4F882
:103B80000021832001F0B0F80021842001F0ACF87E
:103B90000021852001F0A8F81021902001F0A4F860
:103BA0000021922001F0A0F80121932001F09CF85F
:103BB0003946952001F098F80021972001F094F8FB
:103BC0000021982001F090F840F27311072080E363
:103BD00041F21401E72001F087F82146012001F0AD
:103BE00083F84FF40071022001F07EF841F23801B1
:103BF000032001F079F85146082001F075F8002102
:103C0000092001F071F800210A2001F06DF800216F
:103C10000C2001F069F800210D2001F065F8002169
:103C20000F2001F061F80021102001F05DF807215C
:103C3000112001F059F80021122001F055F800215F
:103C4000132001F051F8C82001F074FB41F290619B
:103C5000102001F049F840F22721112001F044F82A
:103C6000322001F067FB0C21122001F03DF83220D8
:103C700001F060FB4FF40061132001F035F81121D1
:103C8000292001F031F80B212B2001F02DF83220F2
:103C900001F050FB0021202001F026F840F23F13F4
:103CA0001946212001F020F80021302001F01CF8F5
:103CB0004FF483742146312001F016F800213220A0
:103CC00001F012F84FF40171352001F00DF841F2C6
:103CD0000A61362001F008F82946372001F004F87F
:103CE0002146382001F000F82946392000F0FCFF79
:103CF00040F202413C2000F0F7FF40F60F413D202A
:103D000000F0F2FF0021502000F0EEFFEF215120E3
:103D100000F0EAFF0021522000F0E6FF1946532090
:103D200000F0E2FF3146602000F0DEFF012161205B
:103D300000F0DAFF00216A2000F0D6FF0021802089
:103D400000F0D2FF0021812000F0CEFF0021822070
:103D500000F0CAFF0021832000F0C6FF002184206C
:103D600000F0C2FF0021852000F0BEFF102190204E
:103D700000F0BAFF4FF4C0619220FCE3214601201D
:103D800000F0B2FF4946022000F0AEFF41F23001E0
:103D9000032000F0A9FF0021042000F0A5FF40F25D
:103DA0000721082000F0A0FF0021092000F09CFF5F
:103DB00000210A2000F098FF00210C2000F094FF61
:103DC00000210D2000F090FF00210F2000F08CFF5B
:103DD000142001F0AFFA41F2B061102000F084FF2E
:103DE0000121112000F080FF0121172000F07CFF4D
:103DF0004FF49C71122000F077FF4FF40061132004
:103E000000F072FF0921292000F06EFF09212A200D
:103E100000F06AFF0021A42000F066FF002150207E
:103E200000F062FFEF21512000F05EFF00215220E0
:103E300000F05AFF40F23F11532000F055FF314689
:103E4000602000F051FF0121612000F04DFF0021B2
:103E50006A2000F049FF0021802000F045FF00218A
:103E6000812000F041FF0021822000F03DFF002171
:103E7000832000F039FF0021842000F035FF00216D
:103E8000852000F031FF1321902000F02DFF04E089
:103E900016E022E11EE2E5E29AE30021922000F022
:103EA00023FF0321932000F01FFF3946952000F0E7
:103EB0001BFF40F27311072000F016FF322008E1CB
:103EC0000021072000F010FF322001F033FA4FF4F8
:103ED0008E71122000F008FF0121A42000F004FFE1
:103EE0000F21082000F000FF08210A2000F0FCFE4E
:103EF00008210D2000F0F8FE2B462946302000F066
:103F0000F3FE0721312000F0EFFE40F20361322082
:103F100000F0EAFE4D464946332000F0E5FE5146EA
:103F2000342000F0E1FE0221352000F0DDFE41F6F4
:103F30000F71362000F0D8FE1946372000F0D4FE6D
:103F40000021382000F0D0FE0021392000F0CCFE06
:103F500019463A2000F0C8FE00213B2000F0C4FEC4
:103F600007213C2000F0C0FE00213D2000F0BCFEF7
:103F7000322001F0DFF90121072000F0B5FE012118
:103F8000172000F0B1FE322001F0D4F94FF4BD51FA
:103F9000102000F0A9FE40F21721112000F0A4FE2D
:103FA0004FF48F71122000F09FFE4FF470611320C8
:103FB00000F09AFE00212A2000F096FE0A21292016
:103FC00000F092FE4FF49F71122000F08DFE002150
:103FD000502000F089FEEF21512000F085FE0021E5
:103FE000522000F081FE40F23F11532000F07CFE91
:103FF0003146602000F078FE0121612000F074FE5F
:1040000000216A2000F070FE0021802000F06CFE8C
:104010000021812000F068FE0021822000F064FE73
:104020000021832000F060FE0021842000F05CFE6F
:104030000021852000F058FE1321902000F054FE4E
:104040003946922000F050FE0521932000F04CFEEE
:104050000021952000F048FE0021972000F044FE4A
:104060000021982000F040FE2146012000F03CFE97
:104070002946022000F038FE41F23801032000F00A
:1040800033FE0021042000F02FFE00210C2000F060
:104090002BFE00210F2000F027FE0021202000F041
:1040A00023FE0021212000F01FFE2121072000F027
:1040B0001BFE142001F03EF96121072000F014FEE0
:1040C000142001F037F940F27311072000F00CFEC4
:1040D000142001F02FF9FFF741BB0021084600F042
:1040E00003FE0021084600F0FFFD0021084600F015
:1040F000FBFD0021084600F0F7FD0121A42000F09F
:10410000F3FD142001F016F9314600E0DDE06020F7
:1041100000F0EAFD55465146082000F0E5FD4FF459
:104120000571302000F0E0FD43F21571312000F000
:10413000DBFD40F20461322000F0D6FD40F616614E
:10414000332000F0D1FD42F21121342000F0CCFDEB
:104150004FF4A851352000F0C7FD48F20751362032
:1041600000F0C2FD41F20741372000F0BDFD41F2F1
:104170000341382000F0B8FD2021392000F0B4FDC3
:104180001A21902000F0B0FD0021102000F0ACFDBD
:104190000721112000F0A8FD0021122000F0A4FD4D
:1041A0000021132000F0A0FD142001F0C3F84FF40B
:1041B000E661102000F098FD40F23711112000F068
:1041C00093FD142001F0B6F84FF4DC71122000F0DA
:1041D0008BFD142001F0AEF84FF47061132000F055
:1041E00083FD80212A2000F07FFD4821292000F056
:1041F0007BFD142001F09EF82146012000F074FDA3
:104200004946022000F070FD41F23801032000F021
:104210006BFD2946082000F067FD00210A2000F010
:1042200063FD00210C2000F05FFD00210D2000F057
:104230005BFD30210E2000F057FD0021502000F0E2
:1042400053FDEF21512000F04FFD0021522000F0DE
:104250004BFD40F23F11532000F046FD31466020F7
:1042600000F042FD0121612000F03EFD00216A20A6
:1042700000F03AFD1121902000F036FD4FF4C061AE
:10428000922000F031FD40F20241932000F02CFD1D
:104290000221942000F028FD142001F04BF80121A8
:1042A000072000F021FD142001F044F861210720CF
:1042B00000F01AFD40F27311072000F015FD0021F7
:1042C000202000F011FD0021212000F00DFD222111
:1042D00000207AE10021084600F006FD0021084692
:1042E00000F002FD142001F025F80021084600F03E
:1042F000FBFC0021084600F0F7FC0021084600F016
:10430000F3FC0021084600F0EFFC0121A42000F09E
:10431000EBFC142001F00EF83146602000F0E4FCC4
:1043200040F60601082000F0DFFC40F20373194656
:10433000302000F0D9FC0121312000F0D5FC04210F
:10434000322000F0D1FC4FF48171332000F0CCFC1E
:104350003946342000F0C8FC40F20311352000F04B
:10436000C3FC1F21362000F0BFFC1946372000F0A7
:10437000BBFC0121382000F0B7FC0421392000F0FB
:10438000B3FC1521902000F0AFFC4FF482611020A7
:1043900000F0AAFC40F24721112000F0A5FC4FF4E8
:1043A000DE71122000F0A0FC4FF46061132000F0D9
:1043B0009BFC782000F0BEFF2146012000F094FC19
:1043C0004FF40071022000F08FFC41F23001032015
:1043D00000F08AFC08210A2000F086FC00210C2055
:1043E00000F082FC20210E2000F07EFC00210F2036
:1043F00000F07AFC0021202000F076FC0021212032
:1044000000F072FC3D212A2000F06EFC142000F028
:1044100091FF2D21292000F067FC0021502000F0A1
:1044200063FC4DF2EF01512000F05EFC00215220B0
:1044300000F05AFC40F23F11532000F055FC0021DF
:10444000612000F051FC00216A2000F04DFC39464B
:10445000922000F049FC0521932000F045FC214604
:10446000FFF7B4BB0121002000F03EFC0A2000F061
:1044700061FF41F22861102000F036FC0E2112206D
:1044800000F032FC40F63921132000F02DFC0A2008
:1044900000F050FF4021112000F026FC5021152093
:1044A00000F022FC0A2000F045FF1E21122000F03F
:1044B0001BFC0A2000F03EFF4FF4B151102000F029
:1044C00013FC42F63921132000F00EFC0A2000F004
:1044D00031FF2146012000F007FC3946022000F0A0
:1044E00003FC41F23801032000F0FEFB5146082096
:1044F00000F0FAFB08210A2000F0F6FB0021302032
:1045000000F0F2FB40F20241312000F0EDFB4FF4ED
:104510008371322000F0E8FB40F20351332000F0B9
:10452000E3FB4FF48271342000F0DEFB40F20131F6
:10453000352000F0D9FB2946362000F0D5FB40F2AB
:104540000531372000F0D0FB4FF40271382000F025
:10455000CBFB40F60B71392000F0C6FB0221412055
:1045600000F0C2FB3146602000F0BEFB012161205B
:1045700000F0BAFB00E0CDE04FF40471902000F0B1
:10458000B3FB4FF48571922000F0AEFB0421932021
:1045900000F0AAFB2146A02000F0A6FB0121072085
:1045A00000F0A2FB2121072000F09EFB2321072021
:1045B00000F09AFB3321072000F096FB40F2331104
:1045C000072000F091FB0021A02000F08DFB82E588
:1045D0003021152000F088FB10219A2000F084FB88
:1045E0002021112000F080FB43F22841102000F030
:1045F0007BFB0221122000F077FB41F238011320EF
:1046000000F072FB282000F095FE1221084600F011
:104610006BFB282000F08EFE43F22041102000F0BA
:1046200063FB43F23801132000F05EFB462000F0EC
:1046300081FE0021302000F057FB40F20241312082
:1046400000F052FB40F20731322000F04DFB4FF4F6
:104650004171332000F048FB0421342000F044FB7A
:1046600040F20141352000F03FFB2946362000F0A2
:104670003BFB40F20531372000F036FB4FF4C263BC
:104680001946382000F030FB1946392000F02CFB89
:104690002146012000F028FB3946022000F024FBCF
:1046A00041F23001032000F01FFB40F60801082012
:1046B00000F01AFB08210A2000F016FB31466020AA
:1046C00000F012FB0121612000F00EFB4FF49F71FE
:1046D000902000F009FB2146922000F005FB2146C6
:1046E000932000F001FB4FF44051A02000F0FCFAB1
:1046F0001021A32000F0F8FA0121072000F0F4FABD
:104700002121072000F0F0FA2321072000F0ECFA25
:104710003321072000F0E8FA40F23311A0E6034607
:10472000012000E05843491EC9B2FBD2704708B5CA
:104730004FF0D840B0F88000ADF80000BDF80000A0
:1047400008BD10B500F0B9FA052000F00FFEBDE875
:104750001040FFF7ECBF000010B50246BE2000F08D
:10476000ACFA052000F09DFA104603F0CCF89FED5E
:104770000C1B53EC112B03F0D9F803F097F880B21F
:1047800000F08FFA012000F08CFAFF2000F089FA87
:10479000002000F086FABDE81040002000F081BA49
:1047A0006666666666660440F0B57F4D002329465E
:1047B000AA79898846F6040741F66314012A01D0D4
:1047C0002AB11DE0B9421BD0A14202D118E0A1429A
:1047D00016D1082814D2DFE800F00406080A0C0EEF
:1047E000101206200CE007200AE0042008E0052053
:1047F00006E0012004E0002002E0032000E00220A7
:10480000A1F5134C45F2103245F21056BCF1410CA3
:1048100007D0B94205D0914203D0B14201D0A142A4
:104820007BD1082812D2DFE800F0110406080A0C38
:104830000E1080230AE0402308E0C02306E0202376
:1048400004E0602302E0A02300E0E023B14202D1B3
:104850004FF4585000E03620914205D0B14203D0C9
:10486000A14201D043F00803B94201D143F0020351
:10487000194600F039FAAA88A2420AD09806288878
:10488000698802D5884202D303E0884201D9298091
:1048900068806889B24241D100F00FFA002000F030
:1048A00000FA6889401C80B200F007FA002000F08E
:1048B000F8F96889801C80B200F0FFF92888401E52
:1048C000C0F30F2000F0EDF96889C01C80B200F041
:1048D000F4F92878401EC0B200F0E3F9A88900F08E
:1048E000ECF9002000F0DDF9A889401C80B200F04E
:1048F000E4F9002000F0D5F9A889801C80B200F00E
:10490000DCF96888401EC0F30F2000F0CAF9A889BE
:10491000C01C80B200F0D1F922E028E000F0CDF90F
:10492000002000F0BEF9002000F0BBF92888401EEE
:10493000C0F30F2000F0B5F92878401EC0B200F097
:10494000B0F9A88900F0B9F9002000F0AAF9002018
:1049500000F0A7F96888401EC0F30F2000F0A1F90D
:10496000A878BDE8F040401EC0B200F09AB908280F
:1049700012D2DFE800F0040608110A0C0E103023F2
:104980000AE0102308E0202306E0382304E028236F
:1049900002E0182300E00823BDE8F040032043F4C0
:1049A000805100F0A1B90000280100202DE9F0435A
:1049B000DFF844810C460246050AB8F80410404668
:1049C000A1F5134340894FEA1429413B17D0A1F5C3
:1049D000A643103B13D04646A1F5D047B37936889D
:1049E000B61A761E043F0ED0A1F5C857633F1ED0FD
:1049F000A1F5AA47103F57D0012B72D072E000F00A
:104A00005CF9284605E0012B00D1B2B200F055F95F
:104A1000100A00F046F9D0B200F043F9B8F80C00E3
:104A200000F04BF9484600F03CF9E0B22AE06BB3E5
:104A300000F043F9284600F034F9D0B200F031F923
:104A4000B8F80000401EC0F30F2000F02AF998F8D3
:104A50000000401EC0B200F024F9B8F80C0000F0CD
:104A60002CF9484600F01DF9E0B200F01AF9B8F848
:104A70000200401EC0F30F2000F013F998F8020066
:104A8000401EC0B2BDE8F04300F00BB9B2B200F076
:104A900014F9002000F005F9002000F002F9100AD6
:104AA00000F0FFF8D0B2D6E700F007F9284600F092
:104AB000F8F8B8F80A00401C80B200F0FEF8D0B256
:104AC00000F0EFF8B8F80C0000F0F7F8484600F0F6
:104AD000E8F8B8F80C00401C80B200F0EEF8A4E74B
:104AE000FFE7B2B2114600F0FFF8B8F80C0021461B
:104AF000BDE8F04300F0F8B8280100202DE9F84F98
:104B000082461F460C468B46580700D0012000EB1A
:104B1000D700790810FB01F0203AC0B202F0FF097B
:104B20000026009041E00C2F10D0102F12D0182F2B
:104B30003ED1204909EBC90001EB80004FF000088D
:104B4000855D28060AD51C4802880BE009EB490060
:104B50001A49F1E71A4901EB0910EFE70A9828B959
:104B60001548428821465046FCF784F96806050E30
:104B70001448641CA4B24088A04219D9A4EB0B00CD
:104B8000B84209D10AF101001FFA80FA0D485C46CB
:104B9000018851450CD906E008F1010000F0FF083A
:104BA000B8F1080FCDD3761CF6B200988642BAD37E
:104BB000BDE8F88F9685000868000020327B000869
:104BC000A67F0008280100202DE9F84F044600F0D8
:104BD000FF0810190D46DDE90A761FFA80FA581908
:104BE0001FFA80F94FF0000B11E0544502D3E81989
:104BF000444685B24D450FD23B4629462046CDF866
:104C000000B0FFF77BFF04EB570084B2761C3278CC
:104C1000A2F120005E28E8D9BDE8F88F2DE9FF4F0A
:104C200081B08046DDF83CA00E984FF000091F4689
:104C300093464C460AF0010546082BE0381B401EFF
:104C4000C1B20A20FFF76BFDBBFBF0F00A21B0FBFD
:104C5000F1F201FB1200B9F1000F05D1791E8C426F
:104C600002DA48B14FF001093030C2B206FB0480CD
:104C700080B200950E9B08E05FEA0A6006FB0480A4
:104C80000E9B80B200950AD530220299FFF736FFBD
:104C9000641CE4B2BC42D1D305B0BDE8F08F202241
:104CA000F3E701B5BDF80000ADF80000BDF8000065
:104CB0004FF0D841A1F8800008BD01B5BDF8000053
:104CC000ADF80000BDF800004FF0D841A1F87E001B
:104CD00008BD000003484FF0D8410089A1F87E00CC
:104CE00070470000280100204FF0D84222F87E0FC4
:104CF000518070477CB50121202000F059F8012037
:104D00008DF8040000228DF8062003218DF805108F
:104D1000074D4FF4C0648DF807000094694628469B
:104D2000FBF784FE21462846FBF7D3FE7CBD00003E
:104D300000140240FEE7704730B50F23C2780178B7
:104D40000125FAB1144A126801F1E02102F4E0628F
:104D5000C2F5E062C2F30722C2F10404D3404278F4
:104D6000A24084781C401443220181F8002400787A
:104D700000F01F018D404009800000F1E020C0F8E4
:104D8000005130BD01F01F0085404809800000F14E
:104D9000E020C0F8805130BD0CED00E0024908432E
:104DA00002490860704700000000FA050CED00E0C1
:104DB000044A0029116801D0014300E081431160D9
:104DC0007047000030380240044A0029116801D0C1
:104DD000014300E081431160704700003838024011
:104DE000044A0029116801D0014300E081431160A9
:104DF0007047000040380240044A0029116801D081
:104E0000014300E0814311607047000044380240D4
:104E100070B5204B1968204C11F00C0104D06610BD
:104E2000042903D0082903D004601BE0066019E0C0
:104E3000184A121F1168C1F38055116801F03F0133
:104E400015B1B6FBF1F101E0B4FBF1F114681268A1
:104E5000C4F388146143C2F30142521C5200B1FBF7
:104E6000F2F1016019680F2202EA11110B4A545C39
:104E70000168E14041601C68072505EA9424145D3F
:104E800021FA04F484601B6805EA5333D25CD140F4
:104E9000C16070BD083802400024F4007800002092
:104EA00010B58A0721F003040849120F21440F238B
:104EB000D1F8084893409C43C1F80848D1F8083815
:104EC00090400343C1F8083810BD00000030014095
:104ED0000CB50022274900920192086840F4803006
:104EE00008604FF4A043086800F400300190009877
:104EF000401C0090019810B900989842F3D10868BE
:104F0000800334D5012001901A484030026842F0F5
:104F1000805202601848026842F44042026015481C
:104F2000083002680260026842F4004202600268CF
:104F300042F4A0520260031F104A1A600A6842F04D
:104F400080720A600A689201FCD50D4940F2057230
:104F50000A60016821F003010160016841F002016B
:104F600001600168C1F381010229FAD10CBD0192EF
:104F70000CBD00000038024000700040085440079B
:104F8000003C02404FF0E0210428086903D020F0E3
:104F900004000861704740F00400FAE710B502F021
:104FA000C9F9012803D0BDE8104001F0B7BE10BD1B
:104FB000124810B5016841F47001016010480168A1
:104FC00041F0010101600E4A0021083211600268BF
:104FD0000C4B1A400260031D0B4A1A60026822F44F
:104FE0008022026006480C300160FFF771FF034920
:104FF0004FF000608039086010BD000088ED00E0CF
:1050000000380240FFFFF6FE1030002410B50A4CB5
:105010000121204600F04FF8012807D107490A680E
:105020004868521C40F100000A6048602046BDE814
:105030001040012100F032B8000400406000002060
:105040007FB50D46044601210220FFF7C9FE0194F9
:10505000ADF800500024104DADF80240ADF8084006
:105060006946284600F03CF801221146284600F027
:105070002EF80121284600F014F81D208DF80C00B0
:1050800001208DF80D008DF80E408DF80F0003A85B
:10509000FFF752FE7FBD000000040040C9430182BB
:1050A00070470029018802D041F0010101E021F0A0
:1050B00001010180704702460020138A92890B4249
:1050C00002EA010202D0002A00D001207047002A23
:1050D000828901D00A4300E08A4382817047000040
:1050E00030B50288164C174DA0420DD0A8420BD007
:1050F000B0F1804F08D0144B984205D0134B984222
:1051000002D0134B984203D122F070034A881A430D
:10511000104B984206D0104B984203D022F44073B3
:105120000A891A4302804A68C2620A880285A0423C
:1051300001D0A84201D1897A01860121818230BD46
:10514000000001400004014000040040000800404D
:10515000000C0040001000400014004070B5154CD9
:1051600040F22551204600F035F800280ED02046A8
:1051700000F0BEF8104AC1B21088030406D44404FB
:105180004FF0000306D50A2901D0138070BD40F40A
:1051900000400DE00D2909D0C0F30D04074D401C5F
:1051A00080B229551080C728EFD870BD40F48040E8
:1051B000108070BD001001407200002036010020F8
:1051C0000029818902D041F4005101E021F400510D
:1051D0008181704770B501F01F0501260024C1F3DD
:1051E000421306FA05F2012B0FD0022B0FD0838A4F
:1051F0004FEA11210088134206FA01F600EA060080
:1052000001D000B10124204670BD8389F0E7038AF4
:10521000EEE710B5C1F3421301F01F040121A140D4
:10522000012B07D0022B07D01430002A026805D0CA
:105230000A4304E00C30F8E71030F6E78A430260D6
:1052400010BD00007FB50446008A0D46C98820F4D1
:10525000405001432182A08941F20C618843A98812
:105260002A8911436A8902431143A181A08A20F44B
:105270004071A8890843A0826846FFF7C9FD1A4813
:10528000844202D01948844201D1039800E0029878
:10529000A189090400EBC00101EB0010296801D5C8
:1052A000490000E08900B0FBF1F06422B0FBF2F1AC
:1052B00009010B096FF018056B4300EB8300A3890C
:1052C0001D044FF0320306D503EBC000B0FBF2F033
:1052D00000F0070005E003EB0010B0FBF2F000F077
:1052E0000F00084320817FBD0010014000140140E1
:1052F0008088C0F308007047FEE7704710B5044689
:105300000420FFF73FFE0A484FF47A71047014FB43
:1053100001F1012242804FF0E020026942F00202D6
:1053200002614161016941F00101016110BD0000AC
:105330006E00002070B5044601F0FCFF01280CD07F
:10534000094D6888844203D3B4FBF0F001F0F2F811
:105350006888B4FBF0F100FB11444FF47A706043AD
:10536000BDE8704000F002B86E00002070B54FF04C
:10537000E02500216C69094AAB6912785043AA699B
:105380009A42FCD002D2A3EB020302E0A4EB020695
:105390003344194413468142F1D370BD6E0000209E
:1053A00070B5054600244FF47A7603E03046FFF7E7
:1053B000DDFF641CAC42F9D370BD00001CB51E4E6D
:1053C0001E4D306988B34FF0FF31012300911A461A
:1053D000072101F089FB0746014619A0FAF7ACFF47
:1053E00000211020CDE9000101233A466E21AE20B4
:1053F000FFF714FC641CD5F8A802E4B2B0B1002099
:10540000C5F8A8020E20B4FBF0F100FB11400A49D8
:1054100040F239131431E92231F82000832180B29F
:1054200000900620FBF7AEFDCBE701E00120E7E7A7
:105430000A2001F07FF8C4E700000020008042420B
:10544000CAC2BCFEB1EAD6BED7E9B5C4D6B53A25C4
:10545000640D0A001CB50025DFF85480154FA946DD
:105460004FF0100AD8F8100090B1002101F09CFA1A
:105470000446B0420CD0064631460FA0FAF75CFF56
:10548000CDE900A9012322466E21AE20FFF7C6FB1D
:105490006D1C15F0FF0505D1D7F8A40230B100202E
:1054A000C7F8A402322001F045F8DBE70120F7E756
:1054B0000000002000804242CAC2BCFEB1EAD6BE53
:1054C000D7E9B5C4D6B53A25640D0A000A4C20695F
:1054D00068B10020FBF722FB022802D0032806D186
:1054E00001E0022100E00421206901F09DFA0A2078
:1054F00001F020F8EBE700000000002003490A88D3
:105500005206FCD5C2B28A807047000000100140EC
:105510007CB54FF44070FFF741FCA820FFF7EEFE8A
:105520004FF4E13000F018FEFFF7E4FBFBF7D4FA8C
:10553000FBF7A2F9FBF76CFD002000F093F82A4D71
:105540004FF478401024288028A0CDE9004023465D
:10555000C8220A211E20FFF737FB29A0CDE9004011
:105560001E211023C8220846FFF72EFB29A0CDE9F3
:1055700000401023C82232211E20FFF725FB28A05F
:10558000CDE900401023C82246211E20FFF71CFB56
:1055900027A0CDE900401023C8225A211E20FFF782
:1055A00013FB002028804FF49D73EA2282210520FE
:1055B000FBF744FC1F20288020A0CDE900401023E9
:1055C000DC226E211E20FFF7FFFA21490120CDE9E0
:1055D0000001020200231FA1214801F07FFE01F01B
:1055E00041F900207CBD00006800002041544B20A0
:1055F00053544D3332463130332F343037000000AE
:105600004672656552544F53204578616D70203164
:10561000362D31004576656E742047726F757000C7
:1056200041544F4D40414C49454E54454B000000BC
:10563000323031362F31312F323500004576656EEC
:10564000742047726F75702056616C75653A300032
:105650000000002073746172745F7461736B0000EA
:10566000B560000870B504460B480C4E002150F898
:10567000240006EB84054200686900F02DF8064816
:105680000021183050F82420A86800F025F80120E7
:10569000311981F8200070BDF492000888000020C4
:1056A00010B50B4B0B4C002253F82030114604EB85
:1056B000800005E0446934F8114004B1521C491CD3
:1056C0008B42F7D864204243B2FBF3F0C0B210BD66
:1056D000F49200088800002001E000F8011B521E2F
:1056E000FBD270472DE9F041184E0F460446F5688D
:1056F0003068001D00F086FD38B9306890F82C1035
:1057000001208840316981433161601C07D137B184
:105710003168BDE8F0410E48091D00F0B9BD3068A0
:105720002C44AC424460316805D2306CBDE8F04195
:10573000091D00F095BDF06B091D00F091FDB06AE8
:10574000844200D2B462BDE8F0810000AC000020C9
:10575000100401202DE9F041054600F0A5FD2D4E75
:10576000B068401CB06030682B4F10B1706930B326
:105770002BE03560B068012827D1002404EB8400B9
:1057800007EB800000F05EFD641C202CF6D323485C
:1057900000F058FD2148143000F054FD1F48283017
:1057A00000F050FD1D483C3000F04CFD1B485030CF
:1057B00000F048FD1948F0631430306405E03068AB
:1057C000E96AC06A884200D83560706A0121401CCD
:1057D0007062A864E86A326981401143316100EB6C
:1057E000800007EB8000291D00F052FD00F098FDBD
:1057F000706900280CD03068E96AC06A884207D214
:1058000007494FF080500860BFF34F8FBFF36F8F91
:10581000BDE8F081AC00002040010120C003012060
:1058200004ED00E010B500F03FFD0E4C2068A0B97B
:105830000D4800F007FD0C48143000F003FD0A4845
:10584000E0601430206100221021052001F07CFA74
:10585000206010B105A100F039FEBDE8104000F055
:105860005FBD0000F000002024040120546D72513F
:105870000000000070B5124E124D1CE001F03EF821
:10588000306820B1002401F0CFFEA4B901E001246A
:10589000F9E700F009FDF068C468201D00F0B2FCD3
:1058A000A868401EA8606868401E686000F038FD67
:1058B000204600F052F868680028DFD170BD000073
:1058C000FC030120AC00002030B4026C0B46002A1F
:1058D0000BD0C1681144C1604468A14201D3016882
:1058E000C16030BC1846FAF7F9BD30BC70472DE9ED
:1058F000F041856B174604460026026C82B1C7B1A1
:10590000E068FAF7EBFDE168206C091AE1602268B3
:10591000914202D26168081AE060022F16D017E0A7
:105920002068A8B9606801F08DFD0646002060601F
:105930000EE0A068FAF7D2FD216CA0680844A060D0
:105940006168884204D32068A06001E005B16D1E43
:105950006D1CA5633046BDE8F08110B50446006BB0
:1059600000F010FD2046BDE8104000F00BBD000027
:1059700010484FF4A041420706D0C01D0D4920F049
:105980000700411AC1F5A0410B4A00230144C2E9B6
:1059900000030839103A21F0070111604B600B60D9
:1059A0000B1AC0E9001393604FF000405360D060C1
:1059B000704700004C04012020010020074E4FF0EA
:1059C0008054074DFFF756FF30680128FAD92C6044
:1059D000BFF34F8FBFF36F8FF4E70000400101204A
:1059E00004ED00E02DE9F047DDE909840E46174695
:1059F000824691009946089DA522206BFAF7B3FDD7
:105A00006FF00301206B01EB8701084420F00707CA
:105A1000780705D040F22B3219A11EA0FAF78CFCB2
:105A200000202218315C82F83410315C11B1401C26
:105A30001428F6D3002684F84760202D00D31F25B4
:105A4000E562C4E91456201D00F007FC04F11800BB
:105A500000F003FC2461C5F120006462A061A6652A
:105A6000E66584F860604A465146384600F00CFB13
:105A70002060B8F1000F01D0C8F80040BDE8F08701
:105A80002E2E5C4672656552544F535C7461736B85
:105A9000732E63004572726F723A25732C25640D64
:105AA0000A00000030B5114900E011460A68824240
:105AB000FBD34B685C18844203D1406818444860AB
:105AC000084643681C18944209D1084C103C2468CD
:105AD000A24209D052681A4442600A681268026001
