:020000040800F2
:10000000C005002001010008B31F00088D1D000875
:10001000B11F00088D0800089924000800000000A6
:10002000000000000000000000000000D51F0008D4
:100030008F08000800000000B51F0008D71F000847
:100040001B0100081B0100081B0100081B01000820
:100050001B0100081B0100081B0100081B01000810
:100060001B0100081B0100081B0100081B01000800
:100070001B0100081B0100081B0100081B010008F0
:100080001B0100081B0100081B0100081B010008E0
:100090001B0100081B0100081B0100081B010008D0
:1000A0001B0100083D2000081B0100081B0100087F
:1000B000492000081B010008000000001B01000887
:1000C0001B01000800000000000000001B010008E8
:1000D000000000008D2400081B0100080000000043
:1000E0001B0100081B0100081B010008DFF80CD0F1
:1000F00000F03CFB00480047312E0008C0050020FE
:100100000648804706480047FEE7FEE7FEE7FEE7B1
:10011000FEE7FEE7FEE7FEE7FEE7FEE73920000820
:10012000ED000008202A04DB203A21FA02F0002129
:10013000704721FA02F3D040C2F1200291400843F7
:1001400019467047D2B201E000F8012B491EFBD2DC
:1001500070470022F6E710B513460A4604461946D2
:10016000FFF7F0FF204610BDF0B480EA0102D40F83
:100170004200B2EB410F02D20246084611464A0045
:1001800042D0C30DDDB2C1F3C752AD1A202D35DA0E
:10019000C1F3160141F4000204B15242C5F1200638
:1001A00002FA06F12A411044B3EBD05F23D0C4B168
:1001B000012DA0EBC35009DCF0BC4FF0004202EA75
:1001C000C352DBB200F5000000F0E9B8400000F1D6
:1001D000807000EBC350A0F1807040EAD1704900FC
:1001E00009E0490841EAC071A0EBC35000F50000E6
:1001F000400800EBC350F0BC00F0C8B861420122D7
:1002000002EB4101001BF6E7F0BC704781F00041B2
:10021000AAE780F00040A7E780EA010210B502F0EB
:100220000043400022D04A001FD0010E01EB1261B2
:10023000C0F35600C2F3560240F4000042F400023C
:10024000A0FB022000047F39140400D0401C50EAB7
:10025000124001D44000491EC2B20C0604EBD0107B
:10026000401C4008802A02D003E0002010BD20F08E
:100270000100002900DA0020184310BD420005D01B
:10028000C0F3C7525242914201DC0020704700EB9C
:10029000C1507047C10F80EAE0700844CA07962336
:1002A000002100F07CB800F0004220F00040C10DB9
:1002B000C0F3160040F400007F2901DA00207047E7
:1002C000962903DCC1F19601C84001E096398840C7
:1002D000002AF4D04042704700F0004230F0004065
:1002E0000AD0C10D01F56071C0F3160042EA015158
:1002F000C20840071143704700200146704730B5DF
:100300000B46014600202022012409E021FA02F5D3
:100310009D4205D303FA02F5491B04FA02F528446D
:10032000151EA2F10102F1DC30BD2DE9F05F05469A
:10033000002092469B4688460646814640241BE0A4
:100340002846414647462246FFF7ECFE53465A46AA
:10035000C01A914110D311461846224600F018FAEF
:100360002D1A67EB01084F4622460120002100F0BC
:100370000FFA17EB00094E41201EA4F10104DFDC47
:10038000484631462A464346BDE8F09F0029A8BFAB
:100390007047401C490008BF20F00100704710B4AE
:1003A000B0FA80FC00FA0CF050EA010404BF10BC63
:1003B000704749B1CCF1200421FA04F411FA0CF190
:1003C00018BF012121430843A3EB0C01CB1D4FEAC9
:1003D00000614FEA102042BF002010BC704700EBC4
:1003E000C35010440029A4BF10BC7047401C4900F2
:1003F00008BF20F0010010BC70472DE9FE4F804679
:1004000081EA0300C00F0C46009021F0004123F068
:100410000045B8EB0200A94105D24046214690466E
:100420001C460B46024623F00040104347D0270DE0
:10043000C7F30A00C3F30A510290401A0190402802
:100440006BDAC3F3130040F4801B0098924620B18E
:100450000023D2EB030A63EB0B0B01985946C0F162
:100460004002504600F094F906460D465046594663
:10047000019A00F09CF910EB08006141002487EA22
:10048000115284EAE7731A4340D0009A62B3019A8A
:10049000012A4FEA075215DC001B61EB02014FF005
:1004A000004202EA0752CDE90042001C41F58011EA
:1004B00032462B4600F09CF903B0BDE8F08F404671
:1004C0002146F9E7001B61EB0201001C41F5801396
:1004D00000185B412018A2F5001747EB030140EA22
:1004E000D570B6196D4111E06D084FEA360645EA40
:1004F000C0754FEA0752001B61EB0201001C41F579
:10050000801149084FEA30000019514132462B460C
:1005100003B0BDE8F04F00F05CB900980122400044
:100520000023D0EB020263EBE073009821464FEA10
:10053000E074B8EB000061EB0401E9E783F00043ED
:100540005BE781F0004158E72DE9FE4F81EA0304A3
:1005500004F0004421F0004100944FF0000B23F020
:10056000004350EA01045ED052EA03045BD0C3F3B7
:100570000A54C1F30A552C44A4F2F3340194A0FBAD
:100580000254C1F3130141F48011C3F3130343F484
:10059000801301FB024400FB034E840A970A44EADD
:1005A000815447EA8357A4FB076802958D0A05FB2F
:1005B00007854FEA932C04FB0C542705029D4FEA54
:1005C000065847EA1637B5EB08056EEB070C870EA1
:1005D000920E47EA811742EA8312A7FB0201B6EBAB
:1005E0000B0164EB00042B0D43EA0C335E1844EB63
:1005F0001C50DA465146E7FB0201C5F313044FEAEB
:100600000B3343EA14534FEA0432019C43EA0603D6
:10061000A4F10C040294009CCDE900B400F0E8F8C9
:1006200003B0BDE8F08F00200146F9E72DE9F04D59
:1006300081EA030404F0004B21F0004514464FF01A
:10064000000A23F0004150EA050220D054EA0102DA
:100650001DD0C5F30A570246C5F31303C1F31300B7
:10066000C1F30A5640F4801543F48013A7EB060843
:10067000101BD64608F2FD3873EB050002D308F1D3
:10068000010801E092185B41B8F1000F03DA002085
:100690000146BDE8F08D00204FF4801106468446E7
:1006A0000EE0171B73EB050705D3121B63EB050365
:1006B00006434CEA010C49084FEA300092185B41AE
:1006C00050EA0107EDD152EA030012D082EA040099
:1006D00083EA0501084305D0101BAB4106D2012275
:1006E000002306E000224FF0004302E06FF0010219
:1006F00053101AEB06004CEB085110EB0A0041EBCB
:100700000B01BDE8F04D00F064B8C1F30A52C1F32B
:10071000130140F2FF3341F480119A4202DA0020C3
:100720000146704740F233439A42A2F2334202DC60
:100730005242FFF7F7BC00F02BB8000030B5041EA2
:1007400071F1000404DB4FF00044404264EB01010E
:10075000141E73F1000405DB1C464FF000435242A7
:1007600063EB0403994208BF904230BD064C074D2D
:1007700006E0E06840F0010394E807009847103471
:10078000AC42F6D3FFF7B6FCB82F0008D82F00080C
:10079000202A04DB203A00FA02F100207047914041
:1007A000C2F1200320FA03F3194390407047202A36
:1007B00006DBCB17203A41FA02F043EAE07306E089
:1007C00041FA02F3D040C2F1200291400843194699
:1007D000704710B5141E73F1000408DA401C41F193
:1007E000000192185B411A4301D120F0010010BDB5
:1007F0002DE9F04D92469B4611B1B1FA81F202E02B
:10080000B0FA80F220329046FFF7C2FF04460F464E
:1008100040EA0A0041EA0B0153465A46084313D006
:10082000114653EA010019D0C8F140025046FFF7C3
:1008300079FC05460E46504659464246FFF7A8FF4A
:10084000084305D0012004E020463946BDE8F08D7C
:100850000020054346EAE0762C4337430A986305B7
:10086000E40AA0EB08000022FD0A44EA47540A30DB
:1008700002D500200146E9E7010510196941DDE9CB
:10088000084500196941BDE8F04DA2E7FEE7704751
:1008900072B6FEE710B590F821100022022905D0AB
:1008A0000421816380F82020012010BD01680B68BD
:1008B00023F00E030B6001680B6823F001030B604B
:1008C00090F84030C46B012101FA03F3636080F8B3
:1008D000211080F82020104610BD000010B590F8BF
:1008E00021100024022903D00421816301243DE06A
:1008F00001680A6822F00E020A6001680A6822F0A4
:1009000001020A601A4A0168914201D1012121E0E5
:10091000174A1432914201D110211BE0144A2832A7
:10092000914201D1891515E0114A3C32914201D121
:1009300089140FE00E4A5032914202D14FF48031B7
:1009400008E00B4A6432914202D14FF4801101E079
:100950004FF08071064A083A5160012180F8211059
:10096000002180F82010416B01B18847204610BD5E
:100970000800024070B5044600F0F8F80546601C17
:1009800002D004480078044400F0F0F8401BA04274
:10099000FAD370BD040000202DE9F84FDFF89C91D8
:1009A000002409F1040A0AF1040B23460F270BF176
:1009B000040EBBE00125A5402A40AA4276D1DFF80B
:1009C00080C14E68A6EB0C0866452BD00DDC032ECB
:1009D00034D005DC36B3012E19D0022E2FD11BE006
:1009E000112E16D0122E2AD119E0B8F5881F19D071
:1009F00006DCB8F5803F15D0B8F5801F1FD111E097
:100A0000B8F5001F0ED0B8F5041F18D10AE0CB6866
:100A100015E0CB681B1D12E0CB6808330FE0CB68F4
:100A20000C330CE08B682BB1012B4FF0080303D083
:100A3000456104E0042302E0056100E00023FF2A91
:100A400001D8064601E000F104064FEA840501D909
:100A5000A5F12005D6F8008007FA05FC28EA0C0865
:100A600003FA05F548EA0508C6F800804D68ED0070
:100A70005BD5344DAE6946F00106AE61AD6924F038
:100A8000030605F0010500952F4D06EB050CDCF87B
:100A90000850A607360F07FA06F825EA0805DFF81A
:100AA000AC80404503D14FF0000810E03DE0DFF896
:100AB000A080404502D14FF0010808E0DFF89480A3
:100AC000404502D14FF0020801E04FF0030808FA58
:100AD00006F848EA0508CCF808804D68D9F80060A7
:100AE000ED034D4601D5164300E096432E604D6858
:100AF000DAF80060AD03554601D5164300E0964391
:100B00002E604D68DBF80060ED025D4601D51643AE
:100B100000E096432E604D68DEF80060AD02754639
:100B200001D5164300E096432E60641C0A6832FA31
:100B300004F57FF43FAFBDE8F88F000000040140EA
:100B400000001110001002400000014000080140A8
:100B5000000C0140001001408068084000D00120D6
:100B600070470AB1016170470904FBE701488068DA
:100B70007047000004000020024881680278114498
:100B80008160704704000020074810B5016841F0FB
:100B900010010160032000F075F80F2000F006F846
:100BA00000F024F8002010BD0020024070B50D4D6B
:100BB00004464FF47A712878B1FBF0F00A490968CD
:100BC000B1FBF0F000F0ECFA48B9102C07D200228B
:100BD0002146501E00F036F800206C6070BD0120E8
:100BE00070BD000004000020100000200C4808B573
:100BF000816941F001018161816901F00101009188
:100C0000C16941F08051C161C06900F0805000901D
:100C10000448416821F0E06141F00071416008BD85
:100C20000010024000000140002809DB00F01F0214
:100C3000012191404009800000F1E020C0F800113E
:100C400070470000F0B40E4B1B680C46C3F3022340
:100C5000C3F10705042D00D90425191D072901D268
:100C6000002300E0DB1E012606FA05F1491E2140A3
:100C700099409E40761E16403143F0BC01F01EBCE8
:100C80000CED00E0064900F0070208684FF6FF038C
:100C9000184040EA0220034A1043086070470000F1
:100CA0000CED00E00000FA052DE9F0470F460500C5
:100CB00061D0434E306800F00700B84209D2306876
:100CC00020F0070038433060306800F00700B84279
:100CD00051D128683B4C810712D5400703D5606885
:100CE00040F4E06060602878000703D5606840F455
:100CF000605060606068A96820F0F00008436060A0
:100D00002878C00728D06868012810D021680228F8
:100D100010D0890700292EDA616821F00301014310
:100D20006160FFF723FF804641F288390DE02168BA
:100D30008903EFE78901EDE7FFF718FFA0EB080152
:100D4000494502D90320BDE8F0876068696800F072
:100D50000C00B0EB810FEFD1306800F00700B84213
:100D60000BD9306820F0070038433060306800F05D
:100D70000700B84201D00120E5E72878400705D5F3
:100D80006068E96820F4E060084360602878000744
:100D900006D56068296920F4605040EAC1006060AF
:100DA00000F038F86168084AC1F30311515CC8408B
:100DB0000649086006480068FFF7F8FE0020C2E711
:100DC0000020024000100240A02F00081000002068
:100DD000080000200448054900684968044AC1F336
:100DE0000221515CC84070471000002000100240F2
:100DF000B02F00080448054900684968044AC1F357
:100E0000C221515CC8407047100000200010024011
:100E1000B02F000812A185B00FC98DE80F0014A0F3
:100E2000144A006804905168134801F00C03042B25
:100E300010D0082B0ED1C1F38343C9031DF8030062
:100E40000AD5516804AAC1F34041515C0A4A504393
:100E5000B0FBF1F005B0704708494843FAE70000DD
:100E600002030405060708090A0B0C0D0E0F1010EB
:100E7000010200000010024000127A0000093D004B
:100E80002DE9F84F040070D02078C04DC00749D03C
:100E90006868C0F38100012807D06868C0F381004A
:100EA000022809D16868C00306D52868800339D5AF
:100EB00060680028E7D035E06068B0F5803F0BD06F
:100EC00010B1B0F5A02F11D0286820F48030286030
:100ED000286820F4802002E0286840F480302860F0
:100EE000606890B1FFF742FE06460AE0286840F4C9
:100EF00080202860F0E700BFFFF738FE801B6428E1
:100F000073D828688003F7D50CE0FFF72FFE06465C
:100F100005E000BFFFF72AFE801B6428F0D8286890
:100F20008003F7D420789A4E80074FF001094FF0E4
:100F3000000839D5686810F00C0F07D06868C0F356
:100F40008100022809D16868C00306D42868800798
:100F500014D52069012808D110E02069B0B1C6F885
:100F60000090FFF703FE074605E00AE1FFF7FEFDEC
:100F7000C01B0228C4D828688007F7D52868616993
:100F800020F0F80040EAC10028600DE0C6F80080BB
:100F9000FFF7ECFD074604E0FFF7E8FDC01B022861
:100FA00023D828688007F7D4207800072CD5794803
:100FB000A169D9B1C0F80090FFF7D8FD074604E059
:100FC000FFF7D4FDC01B02280FD8686A8007F7D549
:100FD00071484FF4FA510068B0FBF1F0009000BF87
:100FE0000098411E0091FAD20EE080E0C0F8008027
:100FF000FFF7BCFD074604E0FFF7B8FDC01B022861
:1010000075D8686A8007F7D42078400760D5E8690A
:101010000027C00008D4E86940F08050E861E86922
:10102000012700F0805000905C480168C90513D486
:101030000168834641F480710160FFF797FD8246A5
:1010400006E000BFFFF792FDA0EB0A0064284ED82F
:10105000DBF80000C005F5D5E06801280AD008B12A
:10106000052813D0286A20F001002862286A20F0A1
:10107000040002E0286A40F001002862E06841F2C2
:10108000883B98B1FFF772FD82460BE0286A40F07A
:1010900004002862EEE700BFFFF768FDA0EB0A013D
:1010A00059455AD8286A8007F6D50CE0FFF75EFD4F
:1010B000824605E0FFF75AFDA0EB0A0159454CD8DE
:1010C000286A8007F6D41FB1E86920F08050E861F3
:1010D000E06988B36968C1F38101022944D002281C
:1010E000C6F8608004D0FFF741FD044638E034E0E4
:1010F000FFF73CFD074604E0FFF738FDC01B022860
:101100002BD828688001F7D4206AB0F5803F05D13C
:101110006868A16820F4003008436860D4E90801D9
:101120000843696821F4741108436860C6F8609048
:10113000FFF71CFD044606E025E000BFFFF716FDA3
:10114000001B022809D828688001F7D51BE000BFE2
:10115000FFF70CFD001B022802D90320BDE8F88F21
:1011600028688001F4D40EE00128F7D06868226A6C
:1011700000F48031914204D1616A00F47010884219
:1011800001D00120EAE70020E8E70000001002405B
:1011900000004242800442421000002000700040E3
:1011A00010B5401EB0F1807F01D3012010BD4FF07B
:1011B000E02460610F21601701F080F90020A06138
:1011C00007202061002010BD7047704770B590F86F
:1011D0003C20012A23D0012480F83C40022280F8E0
:1011E0003D2003685A689D6822F070060A68324301
:1011F0005A600C4B02689A4205D0B2F1804F02D07F
:10120000094B9A4204D1496825F080031943916043
:1012100080F83D40002180F83C10084670BD022057
:1012200070BD0000002C01400004004010B5040017
:1012300003D094F83D0010B107E0012010BD00205C
:1012400084F83C00204600F01FF8022084F83D009E
:10125000211D206800F0FEFE012084F8460084F87D
:101260003E0084F83F0084F8400084F8410084F890
:10127000420084F8430084F8440084F8450084F870
:101280003D00002010BD000008B501681048B1F114
:10129000804F0BD00F4A914207D1C16941F0020142
:1012A000C161C06900F00200009008BDC16941F051
:1012B0000101C161C069002200F00100009003211A
:1012C0001C20FFF7BFFCBDE808401C20FFF7ACBCAA
:1012D000001002400004004090F83D10012901D0A8
:1012E00001207047022180F83D100168CA6842F071
:1012F0000102CA6000680A49884205D0B0F1804FF7
:1013000002D00849884204D1816801F0070106290A
:1013100003D0016841F00101016000207047000026
:10132000002C01400004004070B5044690F83C00D9
:10133000012817D0012584F83C50022084F83D0094
:101340002068826822F0770222F47F428260086877
:10135000502830D00DDC20284DD005DC98B3102863
:101360003BD148E0022070BD302844D0402834D121
:1013700039E0602828D0702806D0B0F5805F2CD0E6
:10138000B0F5005F29D10AE0CB68D1E901212068DE
:1013900000F09BFE2068816841F0770109E0CB688E
:1013A000D1E90121206800F090FE2068816841F4B5
:1013B0008041816011E0CA684968206800F03AFF06
:1013C0005021206807E016E0CA684968206800F0EC
:1013D00042FF6021206800F082FE84F83D5000202A
:1013E00084F83C0070BDCA684968206800F022FF9C
:1013F00040212068EFE7226801461046EBE72DE91F
:10140000F0410D46040003D094F83D0018B108E007
:101410000120BDE8F081002084F83C00204600F067
:1014200041F8022084F83D002068816844F20702F8
:1014300091438160211D206800F00CFE22689068B5
:101440009169166A2B68AF69034340F20330814308
:1014500041EA0721A868EF6908434FF6FC41884339
:10146000E96840EA0720014328692F6A000140EA41
:101470000730084369686D6926F0220646EA0515BB
:10148000294393602268906154F8460B0162012061
:1014900004F81F09E0752076E0762077A07500201B
:1014A000B7E7000000B585B00021009101910291DD
:1014B000039100681749884229D11748816941F48E
:1014C00000618161816901F400610491816941F0E9
:1014D000040181618069694600F0040004904FF4C2
:1014E000407000900D48FFF757FA0022114619206E
:1014F000FFF7A8FB1920FFF797FB09486FF00101E0
:10150000026811610068C16841F00101C16005B065
:1015100000BD0000002C0140001002400008014006
:101520003400002070B590F83E60044690F83F50BB
:1015300090F8423090F84320022021B104290ED0C7
:10154000012E1BD114E0012E18D1012B16D184F8E5
:101550003E0084F8420001220021206820E0012D95
:101560000CD1012A0AD184F83F0084F8430014E02A
:10157000012D03D1012B01D1012A01D0012070BD21
:1015800084F83E0084F83F0084F8420084F8430069
:1015900001220021206800F08BFD01220421206837
:1015A00000F086FD2068016841F001010160002023
:1015B00070BD704770B50446006801694FF00005C2
:1015C000C943890715D4C168C943890711D4E91EE5
:1015D000016101202077206880698007204602D0C1
:1015E000FFF7E7FF04E000F0BFF8204600F04EF9F7
:1015F000257720680169C943490717D4C168C943E1
:10160000490713D46FF0040101610220207720689C
:10161000806910F4407F204602D0FFF7CAFF04E043
:1016200000F0A2F8204600F031F925772068016922
:10163000C943090716D4C168C943090712D46FF01A
:1016400008010161042020772068C06980072046D6
:1016500002D0FFF7AEFF04E000F086F8204600F06D
:1016600015F9257720680169C943C90617D4C168EF
:10167000C943C90613D46FF0100101610820207717
:101680002068C06910F4407F204602D0FFF791FF28
:1016900004E000F069F8204600F0F8F825772068AB
:1016A0000169C943C90708D1C168C943C90704D141
:1016B000891E0161204600F035F920680169C9439F
:1016C000090609D4C168C943090605D46FF0800131
:1016D00001612046FFF778FD20680169C94349068A
:1016E00009D4C168C943490605D46FF040010161BE
:1016F000204600F06BF920680169C94389060BD4C4
:10170000C168C943890607D46FF0200101612046F2
:10171000BDE87040FFF759BD70BD000000B585B051
:101720000021009101910291039100680B498842C8
:1017300011D10B48816941F00801816180696946D6
:1017400000F0080004900120009002200190039016
:101750000448FFF721F905B000BD00000004004077
:1017600000100240000C0140704770B5044690F82C
:101770003C000D4601280AD0012084F83C0042B10B
:10178000042A18D0082A2AD00C2A4DD139E0022088
:1017900070BD206800F0ACFC2068816941F0080150
:1017A00081612068816921F004018161206881697B
:1017B0002A69114311E0206800F0C2FC20688169A9
:1017C00041F4006181612068816921F48061816157
:1017D000206881692A6941EA0221816124E0206848
:1017E00000F0DAFC2068C16941F00801C16120689D
:1017F000C16921F00401C1612068C1692A691143EE
:1018000011E0206800F0F4FC2068C16941F4006137
:10181000C1612068C16921F48061C1612068C1692A
:101820002A6941EA0221C161002084F83C0070BDB0
:1018300010B5040003D094F83D0010B107E001207A
:1018400010BD002084F83C00204600F01EF8022065
:1018500084F83D00211D206800F0FCFB012084F885
:10186000460084F83E0084F83F0084F8400084F885
:10187000410084F8420084F8430084F8440084F86E
:10188000450084F83D00002010BD704770470000FF
:1018900010B50446022249B104290ED0082913D0FC
:1018A00094F84100012816D0012010BD94F83E00A4
:1018B0000128F9D184F83E200FE094F83F00012878
:1018C000F2D184F83F2008E094F840000128EBD1E1
:1018D00084F8402001E084F841200122206800F0D3
:1018E000E7FB0E492068884203D1426C42F4004273
:1018F00042642068884205D0B0F1804F02D0084988
:10190000884204D1816801F00701062903D00168EB
:1019100041F001010160002010BD0000002C0140D9
:10192000000400402DE9F047214906460068096897
:10193000204C88422CD1A0681F4D4FF0000805288C
:1019400015D101F021FB0746A0611C492869FEF76B
:1019500063FC81463846FEF79DFC1949FEF75CFCA6
:101960004946FEF701FC28614046C4F80880401C47
:10197000A060E068142809D11248296901F024FA0E
:1019800000B201F0DDFA4046C4F80C80401CE06073
:101990000D4831680068814207D10068C006606860
:1019A00001D5401E00E0401C6060BDE8F0870000EB
:1019B0007C0000201400002078010020AE47E13EAA
:1019C000295C0F3F9C0100203400002070477047C5
:1019D00070470000F8B5026804461068D168536982
:1019E00010F00F0F4FF0000553D003F0010601F483
:1019F000907737435FD0C20705D0CA0503D5226C64
:101A000042F001022264420705D5DA0703D0226CB6
:101A100042F002022264820705D5DA0703D0226C65
:101A200042F004022264020707D501F0200232438B
:101A300003D0226C42F008022264226C002A34D0C7
:101A4000800604D5880602D5204600F036FC2068C2
:101A50004069216CC0F38010090700D430B32046E0
:101A600000F013FC2068416949061BD5416921F04B
:101A700040014161A06BA8B158494163A06BFEF7DA
:101A80002DFF002811D0A06B416B01B0BDE8F040E4
:101A9000084783060FD58B060DD52046BDE8F840D4
:101AA00000F00BBC2046FFF793FFF8BD2046FFF780
:101AB0008FFF2564F8BD266B2023012E52D1C60668
:101AC00050D5CE064ED5106850680090506940063B
:101AD0002AD5A16B086840680004000CEAD0A68DE6
:101AE0008642E7D9E0858869202818D0D06820F49C
:101AF0008070D0602068416921F001014161206857
:101B0000416921F04001416184F83E30256320683D
:101B1000C16821F01001C160A06BFEF7BBFEA08D73
:101B2000E18D401A81B219E0A08DE18D401A81B299
:101B3000E08D0028BED00029BCD0D06820F4907081
:101B4000D0602068426922F00102426184F83E3090
:101B500025632068C26822F01002C2602046FFF7A9
:101B600036FFF8BD05062BD50D0629D594F83D00A6
:101B70002128F6D1A068B0F5805F01D12069B0B10D
:101B8000206A411C2162216800784860E08C401E78
:101B90000004000CE084E4D12068C16821F08001D9
:101BA000C1602068C16841F04001C160F8BD206A91
:101BB0000088C0F308005060206A801C2062E5E7BE
:101BC0004006F3D54806F1D5D168204621F0400102
:101BD000D16084F83D3000F0D8F8F8BD7B220008D1
:101BE00070B5040004D094F83D00002510B106E063
:101BF000012070BD84F83C50204600F023F82420DA
:101C000084F83D002068C16821F40051C16020467D
:101C100000F0AEFB2068016921F490410161206869
:101C2000416921F02A0141612068C16841F40051F5
:101C3000C1602564202084F83D0084F83E00002027
:101C400070BD000030B585B000240094019402946A
:101C5000039400681B49884232D11B48816941F4D2
:101C600080418161816901F480410491816941F081
:101C7000080181618069154D00F008000490402042
:101C80000090022001900320039069462846FEF749
:101C900083FE8020CDE90004694628460294FEF7C1
:101CA0007BFE0B48416841F0E06141F00401416076
:101CB000002204212520FEF7C5FF2520FEF7B4FFF2
:101CC00005B030BD0038014000100240000C01405A
:101CD00000000140704700002DE9F843044690F8E9
:101CE0003D001F4616460D4620284CD1C5B1BEB159
:101CF00094F83C00012846D0012084F83C004FF0C5
:101D00000008C4F84080212084F83D00FEF72EFF33
:101D1000A6848146E684A068B0F5805F03D004E025
:101D20000120BDE8F883206928B12E465FF0000548
:101D300084F83C800EE00026FAE78021204600F07F
:101D400073FBA0B9AEB116F8010B21684860E08CB6
:101D5000401EE084E08C4B464FF0000200970028C4
:101D6000EBD14FF04001204600F05EFB30B1032084
:101D7000D7E735F8020BC0F30800E6E7202084F827
:101D80003D000020CDE70220CBE77047FEE70000D2
:101D900070B586B000241B4800940194029403940B
:101DA000816941F020018161816901F02001049184
:101DB000816941F004018161816901F004010491AC
:101DC000816941F00801816180690F4E00F00800CF
:101DD0000490002218213046FEF7C3FE182001258A
:101DE000CDE900050220CDE9024069463046FEF704
:101DF000D3FDA8028DE8310069463046FEF7CCFDE0
:101E000006B070BD001002400008014010B58CB053
:101E100024216846FEF79DF90024164809941449C8
:101E20000A94C0E900144FF6FF71C0E90241046151
:101E3000446184610120CDE90004CDE902040494E9
:101E4000CDE90540079469460A480894FFF7D7FA98
:101E500008B1FEF71DFD099409A906480A94FFF789
:101E6000B5F9002801D0FEF713FD0CB010BD00003D
:101E7000002C01403400002010B586B00024164824
:101E8000009401940294039404944FF080410594CB
:101E900001604821C0E9011442F21071C0E9031445
:101EA0008461FFF7C3F908B1FEF7F2FC4FF48050EC
:101EB000009069460848FFF737FA08B1FEF7E8FCDA
:101EC000049404A904480594FFF780F9002801D080
:101ED000FEF7DEFC06B010BD7C00002010B58EB011
:101EE00000240794089409940A940B941C216846D2
:101EF0000C94FEF72EF91F481D4901604821C0E9E6
:101F000001144FF47A71C0E903148461FFF78EF96C
:101F100008B1FEF7BDFC4FF48050079007A91548A3
:101F2000FFF702FA08B1FEF7B3FC1248FFF780FC96
:101F300008B1FEF7ADFC0B940BA90E480C94FFF70B
:101F400045F908B1FEF7A4FC6020009041F288300A
:101F5000CDE901040822694606480494FFF705FC10
:101F600008B1FEF795FC0348FFF7D8FB0EB010BD93
:101F700000040040C40000200C4810B50A4901606C
:101F80004FF4E1314160002181600C22C160C0E961
:101F900004128161C161FFF723FE002803D0BDE870
:101FA0001040FEF775BC10BD003801400C01002048
:101FB000FEE7FEE77047000004480068406A0449F5
:101FC0004968C1EB0141084470470000340000201B
:101FD000140000207047FEF7CFBD30B58FB0282128
:101FE0006846FEF7B6F814210AA8FEF7B2F80121F8
:101FF0000804CDE900100024029402250491CDE9E3
:1020000007504FF4E01009906846FEF739FF08B119
:1020100072B6FEE70F20CDE90A054FF48060CDE9E6
:102020000C4002210AA80E94FEF73EFE002801D0C3
:1020300072B6FEE70FB030BD704700000148FFF7F1
:10204000B9BA0000340000200148FFF7B3BA00001D
:102050007C00002070B50268134B144C4FF0804692
:10206000984203D0B04201D0A04203D122F07005C3
:102070004A682A43984203D0B04201D0A04203D11B
:1020800022F44074CA6822434C6922F08002224341
:1020900002608A68C2620A688262984201D1096954
:1020A00001630121416170BD002C0140000400402A
:1020B00010B501F01F030121046A99408C430462AA
:1020C000016A9A401143016210BD10B5846842EA6A
:1020D000032224F47F440A432243826010BD8268B5
:1020E00022F070020A4342F007018160704700004D
:1020F00030B5026A22F001020262026A4368846912
:1021000024F073050C682C4322F002058A682A43E8
:102110000A4DA8420BD122F00805CA6823F4407387
:102120002A434D6922F004021D438B692B4343600F
:10213000846149684163026230BD0000002C0140A7
:1021400030B5026A22F010020262026A43688469B2
:102150000D6824F4E64444EA05248D6822F0200248
:1021600042EA05120B4DA8420ED1CD6822F0800242
:1021700042EA05124D6923F4406343EA85038D6901
:1021800022F0400243EA8503436084614968816329
:10219000026230BD002C014030B5026A22F4807228
:1021A0000262036A4268C46923F4007324F0730571
:1021B0000C682C438D6843EA05230C4DA8420ED1D0
:1021C000CD6823F4006343EA05234D6922F44052AD
:1021D00042EA05128D6923F4806342EA05124260E7
:1021E000C4614968C163036230BD0000002C014036
:1021F00030B5026A22F480520262046A4268C369FE
:102200000D6823F4E64343EA05238D6824F4005463
:1022100044EA0534064DA84204D14D6922F48042B7
:1022200042EA85124260C36149680164046230BDBC
:10223000002C014010B5036A046A24F00104046212
:10224000846924F0F00444EA021423F00A020A43E9
:102250008461026210BD10B5036A23F010030362AB
:102260008369046A23F4704343EA023224F0A00332
:1022700043EA01118261016210BD10B5406A00217C
:10228000C185C184FFF7A4FB10BD0168CA6822F4B0
:102290009072CA6001684A6922F001024A61016BCA
:1022A000012904D10168CA6822F01002CA60202105
:1022B00080F83E1000210163704708B590F83E1089
:1022C000222901D0022008BD82684FF480539A422F
:1022D00001D1016921B1816A9A421BD04AB10AE059
:1022E0000268816A5268C2F308020A80816A891C06
:1022F00008E0026972B10268526802F07F020A7057
:10230000816A491C8162C18D491E0904090CC1857D
:1023100003D019E002685268F1E70168CA6822F048
:102320002002CA600168CA6822F48072CA6001682B
:102330004A6922F001024A61202180F83E10016BB7
:10234000012903D0FFF7C6FC002008BD002101636E
:102350000168CA6822F01002CA6001680A68D206E1
:1023600002D50A6849680091818DFFF730FBEBE7E1
:1023700070B5044600680169E26821F440511143D8
:1023800001612169A0680843616908432168CA683E
:1023900041F20C639A430243CA6020684169A26912
:1023A00021F44071114341611E492068884202D1E5
:1023B000FEF720FD01E0FEF70DFD00EBC00101EB93
:1023C0000012606864218000B2FBF0F3B3FBF1F30C
:1023D0006FF018067343B2FBF0F5B2FBF0F605EBB5
:1023E0008305322303EB0515B5FBF1F5B6FBF1F6DA
:1023F00005F0F00505EB0615B2FBF0F6B2FBF0F0C8
:10240000B0FBF1F06FF01802504306EB800003EBD5
:102410000010B0FBF1F0216800F00F002844886044
:1024200070BD0000003801402DE9F0419846174684
:102430000E460446069D1DE0681C1BD02DB1FEF71C
:1024400095FBA0EB0800A84214D92068C16821F4CC
:10245000D071C1602068416921F0010141612020F3
:1024600084F83D0084F83E00002084F83C000320FE
:10247000BDE8F0812068006836EA000004D0002042
:10248000B842D9D00020F3E70120F9E70148FFF76F
:10249000A1BA00000C010020FEE700000FB4054BBC
:1024A00010B503A9044A029800F0EAF810BC5DF8E0
:1024B00014FB0000B12D0008300000200907090EB0
:1024C000002804DB00F1E02080F80014704700F0E1
:1024D0000F0000F1E02080F8141D704702E008C8EA
:1024E000121F08C1002AFAD170477047002001E08E
:1024F00001C1121F002AFBD1704700002DE9FF5FC8
:1025000082B00021DDE90430020DDDF840B0034364
:1025100018D044F61050A2F2FF324243151411981D
:1025200001281FD0A5EB0B00401C5FEA000A4FF00A
:1025300000064E4FDFF83891B046504615D5CAF127
:10254000000413E0119801244AA3012801D16FEA85
:102550000B010298119AC0E90031C0E9024206B0AD
:10256000BDE8F09FCBF10000DFE704460021404AC0
:10257000491842EB0450CDE9001012E0E00707D003
:1025800032463B4640464946FDF7DEFF80468946D7
:1025900032463B4610461946FDF7D6FF06460F4623
:1025A0006410002CEAD1DDE90401DDE90023BAF171
:1025B000000F06DAFDF7C8FF42464B46FDF7C4FFA1
:1025C00005E0FEF733F842464B46FEF72FF8044687
:1025D0000E460022284BFEF7B1F803D84FF0FF302B
:1025E000014607E00022254B20463146FDF705FF56
:1025F000FEF78BF8102409E0002C0ADB0A220023E6
:10260000FDF793FE039B30321A55641E50EA010217
:10261000F2D1641C039AC4F111031444119A012AE3
:1026200003D0012208430DD10AE0084304D0002062
:102630004FF0110B119072E7A3EB0B056D1E0DE02F
:102640005B4504DD4FF0000205F1010504E003DA0B
:102650004FF00002A5F10105002AECD00298119973
:10266000C0E90231C0E9004579E7000000001440EC
:102670000000F03F300000000000F0430000E03FA9
:102680002DE9FF4F95B09B468946064600250FE28F
:10269000252877D100242746F84A0121059400E037
:1026A000044316F8013F203B01FA03F01042F7D132
:1026B00030782A2811D06FF02F033078A0F1300243
:1026C000092A16D8059A44F0020402EB820203EBB1
:1026D00042021044761C0590EFE759F8042B05924E
:1026E000002A03DA504244F40054059044F00204F6
:1026F000761C30782E2816D116F8010F44F0040409
:102700002A280DD06FF02F023078A0F13003092B6A
:1027100009D807EB870302EB4303C718761CF3E7DE
:1027200059F8047B761C30786C280FD006DC4C28D6
:1027300017D068280DD06A2814D104E0742810D06E
:102740007A280FD10DE044F400140AE044F4801418
:1027500001E044F440147278824202D104F58014FE
:10276000761C761C307866280BD013DC582877D07E
:1027700009DC002875D04528F6D04628F4D0472833
:102780001AD19DE118E0632835D0642879D06528F6
:1027900012D195E1702873D008DC6728F1D0692840
:1027A0006FD06E280DD06F2806D1B5E073282CD0DD
:1027B000752875D0782874D05A46179990476D1CA3
:1027C00075E1C4F30250022809D003280DD0D9F8CE
:1027D000001004280DD00D6009F1040967E1D9F853
:1027E0000010EA17C1E90052F6E7D9F800100D8091
:1027F000F2E70D70F0E719F8041B8DF800100020C7
:102800008DF80100EA46012003E059F804AB4FF0CF
:10281000FF3061074FF0000102D40DE008F1010123
:102820008846B9420FDA8045F8DB1AF8081000290B
:10283000F4D108E008F1010188468142FADB1AF878
:1028400008100029F6D105985B46A0EB0807214641
:102850003846179A00F094FA284400EB080507E080
:102860004DE029E10DE01AF8010B5A4617999047FF
:10287000B8F10108F7D25B4621463846179A13E1B2
:1028800042E00A220092C4F302524FF0000A022AE8
:1028900008D059F804CB032A4FEAEC710AD00DE0B6
:1028A00029E02AE009F1070121F00702F2E802C15C
:1028B000914609E00FFA8CFC4FEAEC71042A03D12F
:1028C0004FFA8CFC4FEAEC71002907DA0A46002126
:1028D000DCF1000C61EB02012D2202E0220504D59F
:1028E0002B228DF80420012203E0E20701D02022F0
:1028F000F7E7904659E00A2102E010220DE010218E
:102900004FF0000A00910BE010224FF0000A44F053
:1029100004040827009203E008224FF0000A009206
:10292000C4F30252022A05D059F804CB0021032A2D
:1029300008D009E009F1070121F00702F2E802C11D
:10294000914605E01FFA8CFC042A01D10CF0FF0C23
:102950004FF00008220728D5702806D0009B83F08E
:10296000100353EA0A0305D00EE040228DF804203C
:10297000012208E05CEA010206D030228DF8042032
:102980008DF8050002229046009B83F0080353EA6D
:102990000A030AD15CEA010201D1620705D530229F
:1029A0008DF804204FF001087F1E582804D034A071
:1029B00003900EA802900DE036A0F9E7534660465A
:1029C000009AFDF7B2FC84460398825C0298401E90
:1029D000029002705CEA0100F0D1029806A9081A80
:1029E00000F1200A600702D524F4803400E00127BA
:1029F000574502DDA7EB0A0000E0002000EB0A01CA
:102A0000009005984144401A0590E00306D45B46C7
:102A10002146179A059800F0B3F90544002706E00F
:102A200001A85A46C05D179990476D1C7F1C474509
:102A3000F6DBE0030CD55B462146179A059800F0BB
:102A40009FF9054404E030205A46179990476D1CC1
:102A50000099481E00900029F5DC08E002980299D0
:102A60005A460078491C0291179990476D1CBAF19B
:102A70000001AAF1010AF1DC65E10000092801006A
:102A800030313233343536373839616263646566E4
:102A900000000000303132333435363738394142A6
:102AA000434445460000000000F058F90544761CF8
:102AB000307800287FF4ECAD19B02846BDE8F08FDF
:102AC000620700D4062709F1070222F0070CFCE890
:102AD0000223E14603F000485FEA080C02D00FF23F
:102AE000702C0DE05FEA045C02D50FF2682C07E061
:102AF0005FEAC47C02D00FF2602C01E0AFF2700CF0
:102B00004FF0FF3823F00043CDF850C065280CD0BB
:102B100006DC452809D046281DD047283DD13DE098
:102B2000662818D067287ED138E00021112F01DBFC
:102B3000112000E0781CCDE9000106A90EA8FFF7DE
:102B4000DDFCDDE90F010E9A03910021009207F1EF
:102B5000010A04914DE04FF000400097CDE90110CB
:102B600006A90EA8FFF7CAFCDDE90F0203920E9B2F
:102B700011990022DDF80CA00093049211B9791C80
:102B800000EB010AB7EB0A0004D4C0F1FF3007F1F3
:102B9000010A0490AAEB0700019044E0012F00DA3B
:102BA00001270021112F01DD112000E03846CDE979
:102BB000000106A90EA8FFF7A1FCDDE90F010E9A9E
:102BC0000391002104910092BA4621070CD4039985
:102BD000514500DA8A46BAF1010F05DD009AAAF1E3
:102BE0000101515C302908D0B84202DA10F1040F1B
:102BF00006DA0121CDE9011015E0AAF10101E9E7AA
:102C0000002805DC049901440491AAEB000102E0CC
:102C1000411C514500DD8A460499401A401C019030
:102C20004FF000400290200704D40198504501DB8A
:102C3000CDF8048000208DF84F0002980DF14F0769
:102C4000B0F1004F25D02B200E9002984FF00208D3
:102C500000280CDA404202902D200E9007E00A2155
:102C60000298FDF74CFB3031029007F8011DB8F1D6
:102C70000001A8F10108F2DC02980028EFD1791ECA
:102C80000E980870307800F0200040F0450007F8FA
:102C9000020D12A8C01B00F107081498007800B1BB
:102CA000012000EB0A01019801EBE0710598414415
:102CB000401A401E0590E00306D45B462146179A51
:102CC000059800F05DF805441498007818B15A464C
:102CD000179990476D1CE00324D55B462146179A4F
:102CE000059800F04DF805441CE00498002807DB27
:102CF000DDE90301884203DD0098405C179901E09B
:102D0000179930205A469047049805F10105401C58
:102D100004900198401E019004D12E205A46179924
:102D200090476D1CBAF10001AAF1010ADDDC05E053
:102D300017F8010B5A46179990476D1CB8F100011E
:102D4000A8F10108F4DC5B462146179A0598ABE62A
:102D50002D0000002B000000200000002DE9F041B4
:102D6000044600251E461746880404D405E039466B
:102D70002020B0476D1C641EF9D52846BDE8F081BF
:102D80002DE9F041044600251E469046C80301D5B2
:102D9000302700E02027880404D505E04146384666
:102DA000B0476D1C641EF9D52846BDE8F0810000CF
:102DB00013B54FF47A73012269460248FEF78CFF7F
:102DC00000981CBD0C01002070B504460068FDF79A
:102DD0001DFAA061E0690121FDF750FAA169FDF734
:102DE00018FA216AFDF7C0F96169FDF715FAA169C2
:102DF00005462069FDF710FAE1690646A069FDF76E
:102E000005FAE168FDF708FA3146FDF7ADF9294604
:102E1000FDF7AAF96168FDF7A7F96060E069206233
:102E2000A069E0616068BDE87040FDF73CBA000051
:102E30001CB5FDF7A9FEFFF7D0F8FEF7A9FFFFF7D5
:102E40004DF8FEF7E3FFFFF717F8FFF795F800F0EE
:102E50005DF800212148FEF765FB04211F48FEF7BD
:102E600061FB1F48FEF738FA00F056F8DFF874905F
:102E7000DFF874A0DFF874B01D4C1E4F4FF480686B
:102E80003868FDF729FA05460E46D9F81000FDF717
:102E900023FACDE9005602460B4617A0FFF7FEFACB
:102EA0004546414656465046FDF756FE50B9142059
:102EB000FDF760FD29463046FDF74EFE10B920684B
:102EC000401C2060206800EA0B01012903D0C007E4
:102ED000D6D13860D4E70C48FBE70000340000206E
:102EE0007C000020780100200008014001000080E3
:102EF000000000209C01002025302E35662C253056
:102F00002E32660A000000000000914308210148AB
:102F1000FEF7BEBCC40000200648002101604160ED
:102F200081608161C1610162034AC260016103493C
:102F3000416170479C01002066667E41CDCC0CC08B
:102F400070B50F4D0F4E04000CD400220821284606
:102F5000FDF707FE012210212846FDF702FE30682A
:102F6000C46370BD012208212846FDF7FAFD002246
:102F700010212846FDF7F5FD31686042C86370BD39
:102F800000080140C400002000B5FFF715F8034910
:102F900008614A694861821A104600BD1400002089
:102FA00000000000000000000102030406070809F9
:102FB0000000000001020304D82F000800000020D8
:102FC00034000000DC2400080C300008340000202D
:102FD0008C050000EC240008000000000100000047
:102FE00010000000000000000024F40000000000B9
:102FF00000000000000000000000000000000000D1
:0C300000000000000000000000000000C4
:04000005080000ED02
:00000001FF
