:020000040800F2
:10000000D85500205D020008DB26000855210008B5
:10001000D92600082F080008912F000800000000D2
:100020000000000000000000000000009D0100082A
:100030003108000800000000F90100081B29000831
:1000400077020008770200087702000877020008AC
:10005000770200087702000877020008770200089C
:10006000770200087702000877020008770200088C
:10007000770200087702000877020008770200087C
:10008000770200087702000877020008770200086C
:10009000770200087702000877020008770200085C
:1000A000D9290008F529000877020008770200081E
:1000B000770200087702000877020008770200083C
:1000C000770200087702000877020008770200082C
:1000D000770200087702000877020008770200081C
:1000E000770200087702000877020008770200080C
:1000F000012A00087702000877020008770200084A
:1001000077020008770200087702000877020008EB
:10011000E12C000877020008770200087702000847
:1001200077020008770200087702000877020008CB
:1001300077020008770200087702000877020008BB
:1001400077020008770200087702000877020008AB
:10015000770200087702000877020008770200089B
:10016000770200087702000877020008770200088B
:1001700077020008770200087702000800000000FC
:100180007702000877020008DFF80CD000F0CEFA02
:100190000048004755390008D85500202C4B1968F5
:1001A0000868B0E8F04F80F30988BFF36F8F4FF015
:1001B000000080F3118870470000000008480068C4
:1001C000006880F308884FF0000080F3148862B65E
:1001D00061B6BFF34F8FBFF36F8F00DF00BF00BF6B
:1001E00008ED00E0DFF80C00016841F470010160E7
:1001F000704700BF88ED00E0EFF30980BFF36F8F19
:10020000134B1A681EF0100F08BF20ED108A20E96A
:10021000F04F106009B44FF0500080F31188BFF325
:100220004F8FBFF36F8F05F0C5FB4FF0000080F3D9
:10023000118809BC19680868B0E8F04F1EF0100F6B
:1002400008BFB0EC108A80F30988BFF36F8F704746
:1002500038000020EFF30580704700000648804713
:1002600006480047FEE7FEE7FEE7FEE7FEE7FEE79B
:10027000FEE7FEE7FEE7FEE7C9290008890100085E
:100280002DE9F05F0546002092469B4688460646CB
:10029000814640241BE0284641464746224600F05E
:1002A0007CF853465A46C01A914110D3114618465D
:1002B000224600F063F82D1A67EB01084F462246EC
:1002C0000120002100F05AF817EB00094E41201ED2
:1002D000A4F10104DFDC484631462A464346BDE826
:1002E000F09F40EA01039B0703D009E008C9121FF1
:1002F00008C0042AFAD203E011F8013B00F8013BE0
:10030000521EF9D27047D2B201E000F8012B491E0B
:10031000FBD270470022F6E710B513460A460446A2
:100320001946FFF7F0FF204610BD00F0004230F004
:1003300000400AD0C10D01F56071C0F3160042EA19
:100340000151C20840071143704700200146704721
:1003500030B50B46014600202022012409E021FA95
:1003600002F59D4205D303FA02F5491B04FA02F592
:100370002844151EA2F10102F1DC30BD202A04DB65
:10038000203A00FA02F1002070479140C2F12003A8
:1003900020FA03F3194390407047202A04DB203AE7
:1003A00021FA02F00021704721FA02F3D040C2F195
:1003B000200291400843194670472DE9FE4F8046C0
:1003C00081EA0300C00F0C46009021F0004123F0A9
:1003D0000045B8EB0200A94105D2404621469046AF
:1003E0001C460B46024623F00040104347D0270D21
:1003F000C7F30A00C3F30A510290401A0190402843
:100400006BDAC3F3130040F4801B0098924620B1CE
:100410000023D2EB030A63EB0B0B01985946C0F1A2
:1004200040025046FFF7AAFF06460D465046594681
:10043000019A00F08DF910EB08006141002487EA71
:10044000115284EAE7731A4340D0009A62B3019ACA
:10045000012A4FEA075215DC001B61EB02014FF045
:10046000004202EA0752CDE90042001C41F580112A
:1004700032462B4600F08DF903B0BDE8F08F4046C0
:100480002146F9E7001B61EB0201001C41F58013D6
:1004900000185B412018A2F5001747EB030140EA62
:1004A000D570B6196D4111E06D084FEA360645EA80
:1004B000C0754FEA0752001B61EB0201001C41F5B9
:1004C000801149084FEA30000019514132462B464D
:1004D00003B0BDE8F04F00F04DB900980122400094
:1004E0000023D0EB020263EBE073009821464FEA51
:1004F000E074B8EB000061EB0401E9E783F000432E
:100500005BE781F0004158E72DE9FE4F81EA0304E3
:1005100004F0004421F0004100944FF0000B23F060
:10052000004350EA01045ED052EA03045BD0C3F3F7
:100530000A54C1F30A552C44A4F2F3340194A0FBED
:100540000254C1F3130141F48011C3F3130343F4C4
:10055000801301FB024400FB034E840A970A44EA1D
:10056000815447EA8357A4FB076802958D0A05FB6F
:1005700007854FEA932C04FB0C542705029D4FEA94
:10058000065847EA1637B5EB08056EEB070C870EE1
:10059000920E47EA811742EA8312A7FB0201B6EBEB
:1005A0000B0164EB00042B0D43EA0C335E1844EBA3
:1005B0001C50DA465146E7FB0201C5F313044FEA2B
:1005C0000B3343EA14534FEA0432019C43EA060317
:1005D000A4F10C040294009CCDE900B400F0D9F819
:1005E00003B0BDE8F08F00200146F9E72DE9F04D9A
:1005F00081EA030404F0004B21F0004514464FF05B
:10060000000A23F0004150EA050220D054EA01021A
:100610001DD0C5F30A570246C5F31303C1F31300F7
:10062000C1F30A5640F4801543F48013A7EB060883
:10063000101BD64608F2FD3873EB050002D308F113
:10064000010801E092185B41B8F1000F03DA0020C5
:100650000146BDE8F08D00204FF480110646844627
:100660000EE0171B73EB050705D3121B63EB0503A5
:1006700006434CEA010C49084FEA300092185B41EE
:1006800050EA0107EDD152EA030012D082EA0400D9
:1006900083EA0501084305D0101BAB4106D20122B5
:1006A000002306E000224FF0004302E06FF0010259
:1006B00053101AEB06004CEB085110EB0A0041EB0B
:1006C0000B01BDE8F04D00F055B8C1F30A52C1F37B
:1006D000130140F2FF3341F480119A4202DA002004
:1006E0000146704740F233439A42A2F2334202DCA1
:1006F0005242FFF752BEFFF741BE000030B5041E64
:1007000071F1000404DB4FF00044404264EB01014E
:10071000141E73F1000405DB1C464FF000435242E7
:1007200063EB0403994208BF904230BD064C074D6D
:1007300006E0E06840F0010394E8070098471034B1
:10074000AC42F6D3FFF724FD5C9C00087C9C0008BB
:10075000202A06DBCB17203A41FA02F043EAE07385
:1007600006E041FA02F3D040C2F120029140084372
:100770001946704710B5141E73F1000408DA401CC6
:1007800041F1000192185B411A4301D120F00100B0
:1007900010BD2DE9F04D92469B4611B1B1FA81F2A0
:1007A00002E0B0FA80F220329046FFF7E7FD0446FF
:1007B0000F4640EA0A0041EA0B0153465A460843F5
:1007C00013D0114653EA010019D0C8F14002504637
:1007D000FFF7E3FD05460E46504659464246FFF7F1
:1007E000CDFD084305D0012004E020463946BDE890
:1007F000F08D0020054346EAE0762C4337430A9803
:100800006305E40AA0EB08000022FD0A44EA47540D
:100810000A3002D500200146E9E7010510196941B7
:10082000DDE9084500196941BDE8F04DA2E7FEE7A2
:10083000704772B6FEE72DE9F0410446876D00F07F
:100840006DF9064694F835000025022806D0802070
:10085000606584F834500120BDE8F08120680168AB
:1008600021F0160101602068416921F08001416199
:10087000206C08B9A06C20B12068016821F0080143
:1008800001602068016821F0010101600CE000F0C6
:1008900045F9801B052807D920206065032084F8CE
:1008A000350084F83450D7E720680068C007EED1DF
:1008B00094F85C103F208840B860012084F835002F
:1008C00084F834500020C7E790F83510022903D08F
:1008D0008021416501207047052180F835100068AE
:1008E000016821F0010101600020704770B50446E5
:1008F00000F014F90546601C02D004480078044456
:1009000000F00CF9401BA042FAD370BD0C0000208F
:100910002DE9F84FDFF8BCA10022012503264FF096
:100920000F090AF1040BAAF1040E00BF0B6805FAC7
:1009300002F42340A34270D10F7907F00307012F7F
:1009400001D0022F16D187684FEA420806FA08FC48
:1009500027EA0C07D1F80CC00CFA08FC4CEA070C8B
:10096000C0F808C04768A7430C79C4F3001494404A
:100970003C4344600C79E443A4070AD0C4684FEABE
:10098000420C06FA0CF7BC438F6807FA0CF72743B2
:10099000C7600C7904F00304022C12D1D40800EBD8
:1009A000840CDCF820405707FF0E09FA07F824EA08
:1009B0000804D1F8108008FA07F848EA0408CCF8CF
:1009C000208004684FEA420C06FA0CF7BC430F790A
:1009D00007F0030707FA0CF7274307604C6814F485
:1009E000403F70D03C4C276847F48047276024681C
:1009F00022F0030704F480440094384C07EB040C05
:100A0000DCF8084897074FEA177809FA08F7BC435B
:100A1000334FB84202D1002724E054E0314FB842AE
:100A200001D101271EE0304FB84201D1022719E061
:100A30002E4FB84201D1032714E02D4FB84201D107
:100A400004270FE02B4FB84201D105270AE02A4FB7
:100A5000B84201D1062705E0284FB84201D1072747
:100A600000E0082707FA08F72743CCF80878DAF8F7
:100A700000405746D1F804C09C435FEACC2C00D517
:100A80001C433C60DBF800405F46D1F804C09C4347
:100A90005FEA8C2C00D51C433C60DEF800407746B2
:100AA000D1F804C09C435FEA8C3C00D51C433C60F9
:100AB000084F083F3C68D1F804C09C435FEACC3C37
:100AC00000D51C433C60521C102AFFF42FAFBDE838
:100AD000F88F0000083C01404438024000300140DB
:100AE000000002400004024000080240000C0240E6
:100AF000001002400014024000180240001C024096
:100B0000426921EA02030A4043EA024181617047D7
:100B10000AB1816170470904FBE700000148806861
:100B2000704700000C00002070B5040025D094F838
:100B30003D00002520B984F83C50204600F04EF9D5
:100B4000242084F83D002068016821F00101016043
:100B50002068016841F4004101602068016821F4C7
:100B60000041016000F0A6FA4D4A6168914201D847
:100B70004C4900E04C49884201D2012070BD4B49EC
:100B80002368B0FBF1F15E6826F03F060E435E601D
:100B90006368934206D94FF4967359434FF47A73BE
:100BA000B1FBF3F12368491C1E6A26F03F0631436E
:100BB00019626168914210D84900401EB0FBF1F201
:100BC000521CC2F30B02042A01D2042022E0B0FB23
:100BD000F1F0401CC0F30B001CE0A268F2B301EB83
:100BE000C10303EB0116431EB3FBF6F35B1C43F496
:100BF00080431B0549D092B301EBC10202EB011106
:100C0000401EB0FBF1F0401CC0F30B0040F48040EC
:100C100040F400402168CA694CF6FF739A431043C0
:100C2000C861D4E9071001432068026822F0C002BD
:100C300011430160D4E9030101432068826848F24E
:100C4000FF339A4311438160D4E9050108432168C9
:100C5000CA6822F0FF021043C86001E00EE016E00F
:100C60002068016841F0010101602564202084F8BA
:100C70003D00256384F83E50002070BD01EB410625
:100C8000431EB3FBF6F35B1CB3E70120C2E701EBA5
:100C90004101401EB0FBF1F0401CC0F30B00B7E770
:100CA000A086010080841E0000093D0040420F0024
:100CB0002DE9F84F1F4690468A460446DDF82890F5
:100CC000FFF72CFF054694F83D0020287FD119231B
:100CD000012240492046009501F0C8FA002876D14B
:100CE00094F83C00012872D0012084F83C00206870
:100CF0000168C90703D1016841F001010160206862
:100D0000016821F400610160212084F83D00102079
:100D100084F83E0000262664C4F824806785608D30
:100D200020852D48E0622B464A465146204601F078
:100D300029FA90B9206841698069009036E02A4616
:100D40004946204601F011FB50B1206C042804D123
:100D50002068016841F4007101600120BDE8F88F4E
:100D6000606A216800780861606A401C6062618D79
:100D7000491E6185218D491E89B2218522685369EA
:100D8000DB435B070BD451B100781061606A401CF3
:100D90006062608D401E6085208D401E20852A4641
:100DA0004946204601F03CFA0028CED1208D00288B
:100DB000C5D154F83D0B016841F400710160202059
:100DC00004F81E09E67766770020C7E7FFE70220F0
:100DD000C4E70000020010000000FFFF10B586B05D
:100DE000044614216846FFF795FA134920688842A3
:100DF00020D112480021026842F00202026000681D
:100E000000F002000590C02000901220CDE9010101
:100E1000032003900420049069460948FFF778FDF9
:100E200006481030016841F400110160006800F4C8
:100E30000010059006B010BD00540040303802404C
:100E400000040240024881680278114481607047C2
:100E50000C0000200B4810B5016841F400710160DE
:100E6000016841F480610160016841F480710160B2
:100E7000032000F073F80F2000F006F800F024F8CB
:100E8000002010BD003C024070B50D4D04464FF4EB
:100E90007A712878B1FBF0F00A490968B1FBF0F0EB
:100EA00000F00EFB48B9102C07D200222146501E3C
:100EB00000F034F800206C6070BD012070BD0000AF
:100EC0000C000020180000200C4882B0016841F49A
:100ED00080410160006800F4804000900748001FD6
:100EE000016841F0805101600068002200F08050EC
:100EF00000900F21901E02B000F010B8443802405C
:100F0000002809DB00F01F02012191404009800008
:100F100000F1E020C0F8001170470000F0B40E4B63
:100F20001B680C46C3F30223C3F10705042D00D947
:100F30000425191D072901D2002300E0DB1E01262C
:100F400006FA05F1491E214099409E40761E164042
:100F50003143F0BC02F02EB80CED00E0064900F081
:100F6000070208684FF6FF03184040EA0220034AD0
:100F700010430860704700000CED00E00000FA0527
:100F80002DE9F0470E46050065D0DFF81481D8F84A
:100F90000000F7B200F00700B04207D288F80070F6
:100FA000D8F8000000F00700B04254D128683D4C4A
:100FB000810712D5400703D5206840F4E050206037
:100FC0002878000703D5206840F46040206020683E
:100FD000A96820F0F000084320602878C0072DD0D1
:100FE000304968680839012812D0022813D0032834
:100FF00011D00968890700292DDA216821F0030141
:1010000001432160FFF78AFD814641F2883A0EE0F4
:1010100009688903EFE709688901ECE7FFF77EFDBE
:10102000A0EB0901514502D90320BDE8F0872068F3
:10103000696800F00C00B0EB810FEFD1D8F8001018
:10104000404601F00701B14207D90770006800F07F
:101050000700B04201D00120E7E72878400705D516
:101060002068E96820F4E0500843206028780007F1
:1010700006D52068296920F4604040EAC10020605C
:1010800000F038F82168084AC1F30311515CC840E8
:101090000649086006480068FFF7F6FE0020C4E72E
:1010A000003C0240083802407C6400081800002020
:1010B000100000200448054900680968044AC1F38B
:1010C0008221515CC8407047180000200838024057
:1010D0008C6400080448054900680968044AC1F3A3
:1010E0004231515CC8407047180000200838024067
:1010F0008C640008154810B5006810F00C02144804
:1011000013D04110042A0FD0082A0ED10F4C241FEF
:101110002268236802F03F025B0207D52068C0F313
:101120008810A0FB010106E0084610BD2168C1F34C
:101130008811A1FB00010023FFF7A2F82168C1F389
:101140000141491C4900B0FBF1F010BD08380240D4
:101150000024F4002DE9F84F04006ED02078DFF869
:101160004C93C007A9F104054AD009F104000168B5
:10117000C1F38101012908D00068C0F38100022871
:101180000AD1D9F80000400206D52868800337D577
:1011900060680028E1D033E06068B0F5803F10D08F
:1011A000B0F5A02F286810D020F48030286028687F
:1011B00020F4802028606068A8B1FFF7AFFC0646E5
:1011C0000DE0286840F48030F4E740F48020286087
:1011D000F7E700BFFFF7A2FC801B642873D82868DC
:1011E0008003F7D50CE0FFF799FC064605E000BF49
:1011F000FFF794FC801B6428F0D828688003F7D49C
:101200002078DFF8AC8280074FF0000A3ED5A7486F
:10121000001D016811F00C0F08D00068C0F38100B8
:1012200002280BD1D9F80000400207D428688007B3
:1012300016D5E068012800D112E033E1E068B8B1CA
:101240000120C8F80000FFF769FC064605E000BF72
:10125000FFF764FC801B0228C0D828688007F7D5F8
:101260002868216920F0F80040EAC10028600DE0FC
:10127000C8F800A0FFF752FC064604E0FFF74EFC5A
:10128000801B02281FD828688007F7D42078000721
:1012900022D5864F87486169703771B1012101609D
:1012A000FFF73CFC064604E0FFF738FC801B0228F1
:1012B00009D838688007F7D50EE0C0F800A0FFF71E
:1012C0002DFC064605E082E0FFF728FC801B022883
:1012D0007DD838688007F7D42078400768D5DFF8D4
:1012E000CCB100270BF13C0BDBF80000C0000BD4A5
:1012F000DBF8001041F08051CBF80010DBF8000063
:10130000012700F0805000906B4E3068C00510D46B
:10131000306840F480703060FFF700FC009005E01A
:10132000FFF7FCFB0099401A022850D83068C0052E
:10133000F6D55E4EA0686C3601280FD005283068BF
:1013400010D020F001003060306820F004003060E0
:10135000A068B8B1FFF7E2FB00900FE0306840F002
:101360000100F4E740F004003060F7E7FFF7D6FB38
:101370000099411A41F28830814266D8306880076E
:10138000F4D50EE0FFF7CAFB009007E0FFF7C6FBBD
:101390000099411A41F28830814256D8306880075E
:1013A000F4D42FB1DBF8001021F08051CBF80010FD
:1013B000A069C8B33D49091D0968C1F3810102292B
:1013C0004AD00228504607D0C8F8600000E03CE050
:1013D000FFF7A4FB04463BE04746C8F86000FFF770
:1013E0009DFB064605E000BFFFF798FB801B022827
:1013F0002BD828688001F7D4D4E907010843A16AF3
:101400002E4A490802EB0141626A41EA821108430F
:1014100094F82C1040EA0161C9F8001001203866E8
:10142000FFF77CFB044606E03EE000BFFFF776FBDB
:10143000001B022809D828688001F7D534E000BFD6
:10144000FFF76CFB001B022802D90320BDE8F88FD0
:1014500028688001F4D427E00128F7D0D9F80000EB
:10146000E26900F4800191421CD1226A00F03F0140
:10147000914217D147F6C071626A0140B1EB821FF9
:1014800010D1A26A4FF0FF3300F4403103EB520257
:10149000B1EB024F06D194F82C1000F07060B0EB65
:1014A000016F01D00120D1E70020CFE704380240CE
:1014B00000004742800E4742007000400000FFFFDE
:1014C00010B5401EB0F1807F01D3012010BD4FF058
:1014D000E02460610F21601701F06CFD0020A06125
:1014E00007202061002010BD7047704770B590F84C
:1014F0003C20012A32D0012480F83C40022280F8AE
:101500003D2003685A689D6822F070060A683243DD
:101510005A60134B02689A4214D0B2F1804F11D036
:10152000104B9A420ED0104B9A420BD00F4B9A425E
:1015300008D00F4B9A4205D00E4B9A4202D00E4B68
:101540009A4204D1496825F080031943916080F8DC
:101550003D40002180F83C10084670BD022070BD5F
:10156000000001400004004000080040000C004062
:1015700000040140004001400018004010B5040084
:1015800003D094F83D0010B107E0012010BD002009
:1015900084F83C00204600F01FF8022084F83D004B
:1015A000211D206801F032FA012084F8460084F8F9
:1015B0003E0084F83F0084F8400084F8410084F83D
:1015C000420084F8430084F8440084F8450084F81D
:1015D0003D00002010BD000008B500680B4988429E
:1015E00012D10B48016841F480310160006800228B
:1015F00000F48030009005211820FFF78FFCBDE833
:1016000008401820FFF77CBC08BD000000400140E6
:101610004438024090F83D10012901D00120704764
:10162000022180F83D100168CA6842F00102CA60D8
:1016300000681149884214D0B0F1804F11D00F4991
:1016400088420ED00E4988420BD00E49884208D0FD
:101650000D49884205D00D49884202D00C49884284
:1016600004D1816801F00701062903D0016841F027
:1016700001010160002070470000014000040040AB
:1016800000080040000C0040000401400040014000
:101690000018004070B5044690F83C000025012871
:1016A00017D0012684F83C60022084F83D002068B1
:1016B000826822F0770222F47F4282600868502814
:1016C00038D00DDC20284FD005DC90B3102811D184
:1016D0004AE0022070BD302846D040280AD13BE0C5
:1016E00060282FD070280DD0B0F5805F03D0B0F502
:1016F000005F12D0012584F83D60002084F83C0092
:10170000284670BDCB68D1E90121206801F0EFF9CE
:101710002068816841F0770109E0CB68D1E90121B7
:10172000206801F0E4F92068816841F4804181601B
:10173000E1E719E0CA684968206801F0ADFA502174
:10174000206806E0CA684968206801F0B6FA60219E
:10175000206801F0D6F9CEE7CA684968206801F030
:101760009BFA40212068F4E7226801461046F0E722
:101770002DE9F0410D46040003D094F83D0018B166
:1017800008E00120BDE8F081002084F83C002046FC
:1017900000F040F8022084F83D002068816844F29F
:1017A000070291438160211D206801F02FF9226812
:1017B00090689169166A2B68AF69034340F2033061
:1017C000814341EA0721A868EF6908434FF6FC41CD
:1017D0008843E96840EA0720014328692F6A00012D
:1017E00040EA0730084369686D6926F0AA0646EAB0
:1017F0000515294393602268906154F8460B0162F5
:10180000012004F81F09E0752076E0762077A075A6
:101810000020B7E730B587B0044614216846FEF7CC
:1018200079FD2F4824682D4D00212D4A14380223BC
:10183000AC422AD1146844F001041460126802F02A
:1018400001020592026842F010020260006800F096
:10185000100005904FF420600090CDE90131012087
:10186000CDE9031069461F48FFF752F80022052111
:101870001820FFF753FB1820FFF742FB0022052139
:101880001920FFF74BFB192023E0174DAC4222D162
:10189000146844F002041460126802F00202059217
:1018A000026842F004020260006800F00400059043
:1018B000C0200090CDE901310320CDE90310694635
:1018C0000A48FFF725F8002205212C20FFF726FB08
:1018D0002C20FFF715FB07B030BD000000000140D1
:1018E0004438024000100240000401400008024059
:1018F000704770B50446006801694FF00005C943A0
:10190000890715D4C168C943890711D4E91E01614B
:1019100001202077206880698007204602D0FFF7E9
:10192000E7FF04E000F0D4F8204600F077F92577CF
:1019300020680169C943490717D4C168C9434907E9
:1019400013D46FF0040101610220207720688069C0
:1019500010F4407F204602D0FFF7CAFF04E000F0F9
:10196000B7F8204600F05AF9257720680169C94385
:10197000090716D4C168C943090712D46FF00801DA
:101980000161042020772068C0698007204602D0CA
:10199000FFF7AEFF04E000F09BF8204600F03EF9B0
:1019A000257720680169C943C90617D4C168C943AE
:1019B000C90613D46FF01001016108202077206858
:1019C000C06910F4407F204602D0FFF791FF04E089
:1019D00000F07EF8204600F021F9257720680169A3
:1019E000C943C90708D1C168C943C90704D1891EC1
:1019F0000161204600F078F920680169C9430906B1
:101A000009D4C168C943090605D46FF0800101619A
:101A10002046FFF769FD20680169C943490609D4DA
:101A2000C168C943490605D46FF0400101612046F1
:101A300000F08EF920680169C94389060BD4C1689A
:101A4000C943890607D46FF0200101612046BDE833
:101A50007040FFF74ABD70BD70B586B004461421D2
:101A60006846FEF757FC2068B0F1804F27D1154833
:101A70000024016841F001010160016801F00101E9
:101A80000591016841F0020101600068022500F043
:101A90000200059020200090CDE901540126CDE9F7
:101AA000034669460848FEF733FF08200090CDE959
:101AB0000154CDE9034669460448FEF729FF06B004
:101AC00070BD0000303802400000024000040240B7
:101AD000704770B5044690F83C0000260D4601287A
:101AE0000FD0012084F83C006AB1042A1DD0082AD6
:101AF0002FD00C2A3FD00126002084F83C0030462D
:101B000070BD022070BD206801F004F82068816972
:101B100041F0080181612068816921F0040181613F
:101B2000206881692A69114311E0206801F022F8D8
:101B30002068816941F4006181612068816921F434
:101B400080618161206881692A6941EA022181619D
:101B5000D2E7206801F044F82068C16941F008012B
:101B6000C1612068C16921F00401C1612068C169B7
:101B70002A69114311E0206801F066F82068C16904
:101B800041F40061C1612068C16921F48061C161D3
:101B90002068C1692A6941EA0221C161ACE710B538
:101BA000040003D094F83D0010B107E0012010BDFF
:101BB000002084F83C00204600F01EF8022084F843
:101BC0003D00211D206800F021FF012084F846001F
:101BD00084F83E0084F83F0084F8400084F8410017
:101BE00084F8420084F8430084F8440084F84500F7
:101BF00084F83D00002010BD08B50068B0F1804FAA
:101C000008D10548016841F001010160006800F059
:101C10000100009008BD00004038024070470000FD
:101C200010B50446022249B104290ED0082913D068
:101C300094F84100012816D0012010BD94F83E0010
:101C40000128F9D184F83E200FE094F83F000128E4
:101C5000F2D184F83F2008E094F840000128EBD14D
:101C600084F8402001E084F841200122206800F03F
:101C700031FF16492068164A884201D0904203D1AC
:101C8000436C43F4004343642068884213D0B0F1AE
:101C9000804F10D00F4988420DD00F4988420AD09A
:101CA0000E49884207D0904205D00D49884202D0A3
:101CB0000C49884204D1816801F00701062903D04C
:101CC000016841F001010160002010BD00000140E9
:101CD000000401400004004000080040000C0040E7
:101CE000004001400018004010B515490446006846
:101CF0000968884206D1134802F04CFC114858305C
:101D000002F048FC104822680E490068824207D160
:101D10000068C006088801D5401E00E0401C08800D
:101D20000A4822680068824208D10068C00631F87B
:101D3000580F01D5401E00E0401C088010BD000077
:101D4000F4010020800200201C010020AC010020D2
:101D50007047704770470000F8B50168044608688E
:101D6000CA684B6910F00F0F4FF0000559D003F00F
:101D7000010602F49077374365D0C10705D0D1053D
:101D800003D5216C41F001012164410705D5D90734
:101D900003D0216C41F002012164810705D5D907E8
:101DA00003D0216C41F004012164010707D502F042
:101DB0002001314303D0216C41F008012164216CE2
:101DC00000293AD0800604D5900602D5204600F0BE
:101DD000BCFF20684069216CC0F38010090700D463
:101DE00060B3204600F08AFF20684069400621D594
:101DF0002068143050E8001F21F0400140E8001234
:101E0000002AF5D1A06BA8B16C490165A06BFEF763
:101E10005BFD002811D0A06B016D01B0BDE8F04062
:101E2000084783060FD593060DD52046BDE8F84038
:101E300000F08BBF2046FFF78DFFF8BD2046FFF76F
:101E400089FF2564F8BD266B2023012E79D1C606B3
:101E500077D5D60675D50868486800904869400669
:101E600040D5A16B086840680004000CEAD0A28D40
:101E70008242E7D9E085C869B0F5807F2DD020681F
:101E80000C3050E8001F21F4807140E80012002A55
:101E9000F5D12068143050E8001F21F0010140E81E
:101EA0000012002AF5D12068143050E8001F21F0FC
:101EB000400140E80012002AF5D184F83E30256345
:101EC00020680C3050E8001F21F0100140E800129B
:101ED000002AF5D1A06BFEF7AEFCA08DE18D401A73
:101EE00081B229E0A08DE18D401A81B2E08D0028F9
:101EF000A8D00029A6D020680C3050E8002F22F48A
:101F0000907240E80026002EF5D12068143050E889
:101F1000002F22F0010240E80026002EF5D184F8BF
:101F20003E30256320680C3050E8002F22F010026C
:101F300040E80023002BF5D12046FFF70AFFF8BD4B
:101F4000FFE705062BD5150629D594F83D00212875
:101F5000F5D1A068B0F5805F01D12069B0B1206AE9
:101F6000411C2162216800784860E08C401E00041A
:101F7000000CE084E3D12068C16821F08001C160D9
:101F80002068C16841F04001C160D8E7206A00883C
:101F9000C0F308004860206A801C2062E5E7400624
:101FA000CDD55006CBD5CA68204622F04002CA6083
:101FB00084F83D3000F0CDF8C1E70000ED2C0008BA
:101FC00070B5040004D094F83D00002510B106E07F
:101FD000012070BD84F83C50204600F023F82420F6
:101FE00084F83D002068C16821F40051C16020469A
:101FF00000F00CFF2068016921F490410161206824
:10200000416921F02A0141612068C16841F4005111
:10201000C1602564202084F83D0084F83E00002043
:1020200070BD000010B586B0044614216846FEF766
:1020300071F917492068884227D1164800210268A3
:1020400042F400220260006800F40020059011486C
:102050001038026842F0010202600068022200F0BB
:10206000010005900320CDE90210CDE9000208200F
:10207000049069460848FEF74BFC002205213420F5
:10208000FEF74CFF3420FEF73BFF06B010BD00000A
:10209000004C004040380240000002407047000001
:1020A0002DE9F843044690F83D001F4616460D46BC
:1020B00020284CD1C5B1BEB194F83C00012846D0CF
:1020C000012084F83C004FF00008C4F84080212033
:1020D00084F83D00FEF722FDA6848146E684A068D0
:1020E000B0F5805F03D004E00120BDE8F8832069EB
:1020F00028B12E465FF0000584F83C800EE00026F3
:10210000FAE78021204600F007FFA0B9AEB116F82B
:10211000010B21684860E08C401EE084E08C4B4657
:102120004FF0000200970028EBD14FF0400120460D
:1021300000F0F2FE30B10320D7E735F8020BC0F310
:102140000800E6E7202084F83D000020CDE70220CB
:10215000CBE77047FEE701684A69D24352050FD4C6
:102160006FF480624A61002140F8301F20224273E0
:102170008173026942F00402026101730120704719
:1021800000207047F8B50446C06A1E460D46174643
:10219000082807D0012805D010F5803F02D0206B19
:1021A000122804D12068016841F48071016013464F
:1021B00000224FF001112046009600F057F840B180
:1021C00020680068C00502D54FF400702064032029
:1021D000F8BD2069B0F5804F0ED00620216800EAD6
:1021E000D51040F0F000086133463A460B492046CE
:1021F00000F070F878B902E005F0FE0000E0E8B207
:1022000021680861054933463A46891F204600F097
:1022100061F80028DCD00120F8BD000008000100B2
:1022200070B516460D4604460DE02046FFF793FFB5
:1022300008B1012070BD681C05D0FEF76FFC801B43
:10224000A84207D835B120684069C0434007ECD4A4
:10225000002070BD002044F8300F20216173A0736E
:10226000216941F0200121612073E2E72DE9F04767
:102270001E4690460D460446C1F30747DDF8209000
:1022800008E0701C06D0FEF749FCA0EB0900B04244
:102290000FD876B12068012F18D0806925EA000098
:1022A0000004000C14D000214145EAD00020BDE814
:1022B000F087002044F8300F20216173A07321695A
:1022C00041F02001216120730120F0E74069E5E73A
:1022D0000121E9E72DE9F0479A4691460E4604466A
:1022E00000254FF02008C1F3074725E0206840692A
:1022F000C043400514D42068016841F400710160B6
:1023000021686FF480604861256384F83D8084F81B
:102310003E50206C40F00400206484F83C501FE0E4
:10232000B9F1FF3F08D0FEF7F9FBA0EB0A014945E0
:102330000CD8B9F1000F09D02068012F13D08069A3
:1023400026EA00000004000C0BD0CFE744F8305F11
:1023500084F80D80A573206940F02000206125736A
:102360000120BDE8F0874069EAE770B516460D46E2
:1023700004460DE02046FFF7EEFE08B1012070BDD7
:10238000681C05D0FEF7CAFB801BA84207D835B1F0
:1023900020684069C0430006ECD4002070BD0020D6
:1023A00044F8300F20216173A073216941F02001AE
:1023B00021612073E2E7000010B50B4A00210B48B1
:1023C00001F054FC0A4C084A0021206024320948DC
:1023D00001F04CFC044A606048320021064801F0DC
:1023E00045FCA06010BD000010640008132900081F
:1023F0000000002021390008A9380008F0B587B096
:1024000014216846FDF786FF29480024016841F041
:1024100080010160016801F080010591016841F0CF
:1024200001010160016801F001010591016841F0BD
:1024300020010160016801F020010591016841F06F
:1024400010010160016801F010010591016841F07F
:1024500004010160016801F004010591016841F087
:10246000020101600068134E00F002004FF478454D
:102470000590002229463046FEF74AFB0E4F002207
:1024800001213846FEF744FB00950125CDE90154B2
:10249000694630460394FEF73BFA0095CDE90154B6
:1024A000694638460394FEF733FA07B0F0BD0000E2
:1024B0003038024000140240001002400D4810B5B0
:1024C0000B4901600C49416000214FF4804281605A
:1024D000C0E9031241618161C1610162FEF724FB21
:1024E000002803D0BDE81040FEF7A3B910BD0000DE
:1024F00000540040C8000020801A060010B58CB0BF
:1025000024216846FDF706FF002416480994144963
:102510000A94C0E900144FF6FF71C0E9024104615A
:10252000446184610320CDE900040120CDE9020467
:102530000494CDE90540079469460A480894FFF7DA
:1025400017F908B1FEF775F9099409A905480A9425
:10255000FEF7CCFF002801D0FEF76BF90CB010BDE0
:10256000000001401C01002010B58AB0002407942F
:102570001C2168460894FDF7CDFE1A484FF08041B3
:1025800001605321C0E901144FF47A71C0E90314CA
:102590008461FFF704FB08B1FEF74BF9079407A924
:1025A00010480894FEF7A2FF08B1FEF742F9602038
:1025B000CDE900040294002269460A480494FFF71A
:1025C00088FA08B1FEF735F9042269460548FFF795
:1025D00080FA08B1FEF72DF90248FFF73DFA0AB07C
:1025E00010BD00006401002010B58CB024216846A5
:1025F000FDF790FE00241648099414490A94C0E996
:1026000000144FF6FF71C0E9024104614461846126
:102610000320CDE900040120CDE902040494CDE9B2
:102620000540079469460A480894FFF7A1F808B1E5
:10263000FEF7FFF8099409A905480A94FEF756FF2A
:10264000002801D0FEF7F5F80CB010BD00040140E1
:10265000AC0100201FB500211048009101910291AA
:102660000D4A03910260A722C0E9012142F21072D3
:10267000C0E903218161FEF781FF08B1FEF7D9F8B7
:102680004FF48050009069460448FFF703F8002893
:1026900001D0FEF7CEF81FBD00400140F40100203C
:1026A0000C4810B50A4901604FF4E1314160002146
:1026B00081600C22C160C0E904128161C161FFF731
:1026C0007FFC002803D0BDE81040FEF7B2B810BD73
:1026D000004C00403C020020FEE7FEE7A0B1D0ED38
:1026E000101AC0ED111A90ED0F1A80ED101AC0EDFE
:1026F000060A80ED070A30EEC00A80ED0F0A017865
:1027000029B101293BD078E09FED3D0A7047D0ED1B
:10271000010A60EE801AC0ED091AD0ED0A0A90EDA8
:10272000022A42EE000A30EE410AC0ED0A0A90ED9C
:102730000D2A80ED0E2A90ED0C2A80ED0D2A80EDF9
:102740000C0A90ED031A21EE001A80ED0B1A90EDA1
:10275000050AF4EEC00AF1EE10FA09DCB1EE400A07
:10276000F4EEC00AF1EE10FA02D390ED0A0A01E08D
:1027700080ED0A0A31EE800A30EE010A2BE070EE9D
:10278000410A90ED012A20EE822A80ED092AD0ED3F
:10279000020A60EE800AC0ED0A0AD0ED0D2A72EE40
:1027A000200AC0ED0E2AD0ED0C2AC0ED0D2AF0EE65
:1027B000002A01EE620A30EE210A80ED0C0A90ED4B
:1027C000031A21EE000A80ED0B0A30EE800AD0EDEC
:1027D000080A30EE200A80ED080AD0ED040AB4EEB3
:1027E000E00AF1EE10FA06DCF1EE600AB4EEE00A5F
:1027F000F1EE10FA01D2C0ED080A90ED080A704718
:10280000000000002DE9F041134E00242DED028B55
:1028100006F190079FED118ADFED118A04EBC405E4
:1028200006EBC500F0EE480AB0EE680A0D4A00213A
:1028300000F01AF80B4A07EBC500F0EE480AB0EEBC
:10284000680A0C3A002100F00FF8641C022CE5DB4A
:10285000BDEC028BBDE8F081300300200000AD43E9
:1028600000007A4428000020002828D0002A26D022
:10287000017092ED001A80ED011A92ED011A80EDBF
:10288000021A92ED021A80ED031A80ED040A9FED00
:102890000C0AC0ED050A80ED0E0A80ED0D0A80EDF0
:1028A0000C0A80ED080A80ED0B0A80ED0A0A80ED23
:1028B000090A80ED110A80ED100A80ED0F0A7047B9
:1028C0000000000000EB40010C4A01EBC00110B514
:1028D00002EBC10151ED140A00EBC0010848B8EE4B
:1028E000E01A00EBC104F0EE400AA4F14800B0EE9B
:1028F000410AFFF7F3FE14ED0A0A10BD8002002022
:10290000C00300200169496A0088C0EB0040084408
:102910007047012001F06EF9FBE710B5FEF792FA5F
:1029200003F0C0FB012803D0BDE8104003F0EEB86F
:1029300010BD000030B593B030216846FDF7EAFCC9
:1029400014210CA8FDF7E6FC1D480025016841F0A4
:1029500080510160006800F08050119019480168B2
:1029600041F4804101600068022400F4804011902D
:1029700001200090000401908001CDE9064008AAE2
:102980000420A82182E813000B906846FEF7E2FBC2
:1029900008B172B6FEE70CA90F2081E831004FF4B0
:1029A000A0500F904FF48050109005210CA8FEF716
:1029B000E7FA002801D072B6FEE713B030BD000080
:1029C00040380240007000400248016841F4700144
:1029D0000160704788ED00E010B50448FEF789FFFC
:1029E000BDE810400248FEF784BF00001C01002033
:1029F000F40100200148FEF77CBF00001C0100200C
:102A00000148FEF776BF0000AC010020F0B5026877
:102A1000254C264D264E274F274B4FF0804CA04289
:102A200009D0604507D0A84205D0B04203D0B842D3
:102A300001D0984204D122F0700E4A6842EA0E0298
:102A4000A0421BD0604519D0A84217D0B04215D083
:102A5000B84213D0984211D0184DA8420ED0184D4C
:102A6000A8420BD0174DA84208D0174DA84205D058
:102A7000164DA84202D0164DA84203D122F440754B
:102A8000CA682A434D6922F080022A4302608A689C
:102A9000C2620A688262A04201D0984201D10969EB
:102AA000016301214161F0BD0000014000040040CC
:102AB00000080040000C00400004014000400140BC
:102AC000004401400048014000180040001C004044
:102AD0000020004010B501F01F030121046A994055
:102AE0008C430462016A9A401143016210BD10B523
:102AF000846842EA032224F47F440A43224382602A
:102B000010BD826822F070020A4342F00701816022
:102B100070470000F0B5026A22F001020262036A07
:102B200042688469124E24F073050C682C4323F02C
:102B300002058B682B430D4DA84201D0B04205D150
:102B400023F00807CB683B4323F00403A84201D0DD
:102B5000B04205D14D6922F4407215438A692A4377
:102B600042608461496841630362F0BD0000014036
:102B700000040140F0B5026A22F010020262026A0B
:102B8000436884690D6824F4E64444EA05248D68AA
:102B900022F0200242EA05120F4D104EA84201D049
:102BA000B04206D1CF6822F0800242EA071222F03A
:102BB0004002A84201D0B04207D14D6923F44063DE
:102BC00043EA85038D6943EA85034360846149686C
:102BD00081630262F0BD000000000140000401407A
:102BE000F0B5026A22F480720262026A4368C46924
:102BF00022F4007224F073050C68124E2C438D6889
:102C000042EA05220E4DA84201D0B04206D1CF685B
:102C100022F4006242EA072222F48062A84201D034
:102C2000B04207D14D6923F4405343EA05138D693F
:102C300043EA05134360C4614968C1630262F0BDA1
:102C4000000001400004014030B5026A22F48052C5
:102C50000262046A4268C3690D6823F4E64343EAEA
:102C600005238D6824F4005444EA0534084DA84235
:102C700002D0084DA84204D14D6922F4804242EAB4
:102C800085124260C36149680164046230BD00007E
:102C9000000001400004014010B5036A046A24F0FA
:102CA00001040462846924F0F00444EA021423F06D
:102CB0000A020A438461026210BD10B5036A23F060
:102CC000100303628369046A23F4704343EA023207
:102CD00024F0A00343EA01118261016210BD0000EB
:102CE0000148FFF739B800003C02002010B5806BA6
:102CF0000021C185C184FFF72DF810BD01680C319A
:102D000051E8002F22F4907241E80023002BF5D106
:102D10000168143151E8002F22F0010241E800233C
:102D2000002BF5D1016B012909D101680C3151E863
:102D3000002F22F0100241E80023002BF5D12021C2
:102D400080F83E1000210163704708B590F83E10EE
:102D5000222901D0022008BD82684FF480539A4294
:102D600001D1016921B1816A9A421BD04AB10AE0BE
:102D70000268816A5268C2F308020A80816A891C6B
:102D800008E0026972B10268526802F07F020A70BC
:102D9000816A491C8162C18D491E0904090CC185E3
:102DA00003D019E002685268F1E70168CA6822F0AE
:102DB0002002CA600168CA6822F48072CA60016891
:102DC0004A6922F001024A61202180F83E10016B1D
:102DD000012903D0FFF762F9002008BD002101633B
:102DE00001680C3151E8002F22F0100241E8002365
:102DF000002BF5D101680A68D20602D50A68496835
:102E00000091818DFEF7A5FFE6E7000070B504464E
:102E100000680169E26821F44051114301612169B0
:102E2000A068E26908436169114308432168CA68E0
:102E300049F20C639A430243CA6020684169A2695F
:102E400021F440711143416131492068884202D028
:102E50003049884202D1FEF73DF901E0FEF72AF938
:102E6000E2690023192164253226B2F5004F626819
:102E700028D0A0FB0101930F9200FDF701FA014653
:102E8000B0FBF5F06FF01802504301EB800006EB49
:102E90000010B0FBF5F000F0F002B1FBF5F002EB32
:102EA0000012B1FBF5F06FF01803584301EB8000FE
:102EB00006EB0010B0FBF5F000F00F0021681044A5
:102EC000886070BDA0FB010192185B41FDF7D8F945
:102ED0000146B0FBF5F00201B1FBF5F06FF018030D
:102EE000584301EB800006EBC000B0FBF5F000F0AA
:102EF000F80002EB4002B1FBF5F0584301EB800013
:102F000006EBC000B0FBF5F000F00700D6E70000CC
:102F100000100140001401402DE9F0419846174689
:102F20000E460446069D27E0681C25D02DB1FDF70E
:102F3000F5FDA0EB0800A8421ED920680C3050E82F
:102F4000001F21F4D07140E80012002AF5D120685A
:102F5000143050E8001F21F0010140E80012002A5F
:102F6000F5D1202084F83D0084F83E00002084F84C
:102F70003C000320BDE8F0812068006836EA0000CC
:102F800004D00020B842CFD00020F3E70120F9E7B9
:102F9000FEE700000FB4054B10B503A9044A0298E0
:102FA00000F0EAF810BC5DF814FB000009390008D5
:102FB000C40000200907090E002804DB00F1E0200E
:102FC00080F80014704700F00F0000F1E02080F856
:102FD000141D704702E008C8121F08C1002AFAD168
:102FE00070477047002001E001C1121F002AFBD189
:102FF000704700002DE9FF5F82B00021DDE9043059
:10300000020DDDF840B0034318D044F61050A2F290
:10301000FF3242431514119801281FD0A5EB0B0075
:10302000401C5FEA000A4FF000064E4FDFF838916F
:10303000B046504615D5CAF1000413E0119801249A
:103040004AA3012801D16FEA0B010298119AC0E945
:103050000031C0E9024206B0BDE8F09FCBF10000AC
:10306000DFE704460021404A491842EB0450CDE90D
:10307000001012E0E00707D032463B464046494682
:10308000FDF742FA8046894632463B4610461946CD
:10309000FDF73AFA06460F466410002CEAD1DDE946
:1030A0000401DDE90023BAF1000F06DAFDF72CFA7E
:1030B00042464B46FDF728FA05E0FDF797FA4246EF
:1030C0004B46FDF793FA04460E460022284BFDF7C7
:1030D00015FB03D84FF0FF30014607E00022254BD7
:1030E00020463146FDF769F9FDF7EFFA102409E0B3
:1030F000002C0ADB0A220023FDF7C2F8039B3032C2
:103100001A55641E50EA0102F2D1641C039AC4F1FC
:1031100011031444119A012A03D0012208430DD14E
:103120000AE0084304D000204FF0110B119072E721
:10313000A3EB0B056D1E0DE05B4504DD4FF00002B7
:1031400005F1010504E003DA4FF00002A5F10105E5
:10315000002AECD002981199C0E90231C0E900457B
:1031600079E70000000014400000F03F300000004C
:103170000000F0430000E03F2DE9FF4F95B09B4673
:103180008946064600250FE2252877D100242746E8
:10319000F84A0121059400E0044316F8013F203B62
:1031A00001FA03F01042F7D130782A2811D06FF0DD
:1031B0002F033078A0F13002092A16D8059A44F07E
:1031C000020402EB820203EB42021044761C0590DB
:1031D000EFE759F8042B0592002A03DA504244F431
:1031E0000054059044F00204761C30782E2816D145
:1031F00016F8010F44F004042A280DD06FF02F02B6
:103200003078A0F13003092B09D807EB870302EBD4
:103210004303C718761CF3E759F8047B761C307813
:103220006C280FD006DC4C2817D068280DD06A28EF
:1032300014D104E0742810D07A280FD10DE044F4A2
:1032400000140AE044F4801401E044F4401472785D
:10325000824202D104F58014761C761C30786628F0
:103260000BD013DC582877D009DC002875D045280E
:10327000F6D04628F4D047281AD19DE118E06328FB
:1032800035D0642879D0652812D195E1702873D0A3
:1032900008DC6728F1D069286FD06E280DD06F2820
:1032A00006D1B5E073282CD0752875D0782874D055
:1032B0005A46179990476D1C75E1C4F302500228D5
:1032C00009D003280DD0D9F8001004280DD00D60C6
:1032D00009F1040967E1D9F80010EA17C1E90052C1
:1032E000F6E7D9F800100D80F2E70D70F0E719F855
:1032F000041B8DF8001000208DF80100EA46012023
:1033000003E059F804AB4FF0FF3061074FF00001C4
:1033100002D40DE008F101018846B9420FDA804578
:10332000F8DB1AF808100029F4D108E008F10101CF
:1033300088468142FADB1AF808100029F6D1059870
:103340005B46A0EB080721463846179A00F094FA2E
:10335000284400EB080507E04DE029E10DE01AF8EC
:10336000010B5A4617999047B8F10108F7D25B460E
:1033700021463846179A13E142E00A220092C4F32C
:1033800002524FF0000A022A08D059F804CB032A4F
:103390004FEAEC710AD00DE029E02AE009F10701BB
:1033A00021F00702F2E802C1914609E00FFA8CFC15
:1033B0004FEAEC71042A03D14FFA8CFC4FEAEC710E
:1033C000002907DA0A460021DCF1000C61EB02015A
:1033D0002D2202E0220504D52B228DF804200122A3
:1033E00003E0E20701D02022F7E7904659E00A21E6
:1033F00002E010220DE010214FF0000A00910BE0D6
:1034000010224FF0000A44F004040827009203E061
:1034100008224FF0000A0092C4F30252022A05D09B
:1034200059F804CB0021032A08D009E009F107016B
:1034300021F00702F2E802C1914605E01FFA8CFC78
:10344000042A01D10CF0FF0C4FF00008220728D508
:10345000702806D0009B83F0100353EA0A0305D0BE
:103460000EE040228DF80420012208E05CEA01020F
:1034700006D030228DF804208DF8050002229046F7
:10348000009B83F0080353EA0A030AD15CEA0102B5
:1034900001D1620705D530228DF804204FF00108D4
:1034A0007F1E582804D034A003900EA802900DE08F
:1034B00036A0F9E753466046009AFCF7E1FE8446E1
:1034C0000398825C0298401E029002705CEA010040
:1034D000F0D1029806A9081A00F1200A600702D567
:1034E00024F4803400E00127574502DDA7EB0A00F1
:1034F00000E0002000EB0A01009005984144401ACA
:103500000590E00306D45B462146179A059800F023
:10351000B3F90544002706E001A85A46C05D179993
:1035200090476D1C7F1C4745F6DBE0030CD55B46DE
:103530002146179A059800F09FF9054404E03020D1
:103540005A46179990476D1C0099481E0090002913
:10355000F5DC08E0029802995A460078491C02916D
:10356000179990476D1CBAF10001AAF1010AF1DC2C
:1035700065E1000009280100303132333435363737
:1035800038396162636465660000000030313233AF
:10359000343536373839414243444546000000004F
:1035A00000F058F90544761C307800287FF4ECAD23
:1035B00019B02846BDE8F08F620700D4062709F14C
:1035C000070222F0070CFCE80223E14603F0004862
:1035D0005FEA080C02D00FF2702C0DE05FEA045C89
:1035E00002D50FF2682C07E05FEAC47C02D00FF22C
:1035F000602C01E0AFF2700C4FF0FF3823F0004375
:10360000CDF850C065280CD006DC452809D04628E6
:103610001DD047283DD13DE0662818D067287ED1CF
:1036200038E00021112F01DB112000E0781CCDE9EA
:10363000000106A90EA8FFF7DDFCDDE90F010E9AD7
:1036400003910021009207F1010A04914DE04FF02F
:1036500000400097CDE9011006A90EA8FFF7CAFCAB
:10366000DDE90F0203920E9B11990022DDF80CA0F8
:103670000093049211B9791C00EB010AB7EB0A0020
:1036800004D4C0F1FF3007F1010A0490AAEB07004F
:10369000019044E0012F00DA01270021112F01DD04
:1036A000112000E03846CDE9000106A90EA8FFF779
:1036B000A1FCDDE90F010E9A039100210491009213
:1036C000BA4621070CD40399514500DA8A46BAF16B
:1036D000010F05DD009AAAF10101515C302908D0E3
:1036E000B84202DA10F1040F06DA0121CDE9011027
:1036F00015E0AAF10101E9E7002805DC049901447D
:103700000491AAEB000102E0411C514500DD8A460C
:103710000499401A401C01904FF00040029020078D
:1037200004D40198504501DBCDF8048000208DF8C9
:103730004F0002980DF14F07B0F1004F25D02B201C
:103740000E9002984FF0020800280CDA40420290D6
:103750002D200E9007E00A210298FCF7F9FD303188
:10376000029007F8011DB8F10001A8F10108F2DC90
:1037700002980028EFD1791E0E980870307800F07A
:10378000200040F0450007F8020D12A8C01B00F110
:1037900007081498007800B1012000EB0A01019895
:1037A00001EBE07105984144401A401E0590E0038A
:1037B00006D45B462146179A059800F05DF805444B
:1037C0001498007818B15A46179990476D1CE00379
:1037D00024D55B462146179A059800F04DF805441C
:1037E0001CE00498002807DBDDE90301884203DDC3
:1037F0000098405C179901E0179930205A4690478D
:10380000049805F10105401C04900198401E0190A8
:1038100004D12E205A46179990476D1CBAF1000129
:10382000AAF1010ADDDC05E017F8010B5A461799E9
:1038300090476D1CB8F10001A8F10108F4DC5B466B
:103840002146179A0598ABE62D0000002B000000DA
:10385000200000002DE9F041044600251E461746D1
:10386000880404D405E039462020B0476D1C641E4E
:10387000F9D52846BDE8F0812DE9F0410446002540
:103880001E469046C80301D5302700E02027880453
:1038900004D505E041463846B0476D1C641EF9D595
:1038A0002846BDE8F08100001CB5114C114D124EA8
:1038B0004FF4FA7794ED000A0220B8EEC00AFFF741
:1038C00001F8BDEEC00A10EE100A01B2384600F051
:1038D00009F9A86EFCF729FDCDE90001316E07A0BA
:1038E0002268FFF757FB012000F084F9E2E70000AF
:1038F000B8000020C00300208002002025642C2591
:10390000642C25660A00000013B54FF47A73012277
:1039100069460248FEF7C4FB00981CBD3C0200202B
:103920000A4CDFF82C80002640F6B83541F65837AF
:10393000012140462660FDF7E3F8284600F05AF9D9
:103940002846276000F056F9F2E70000B800002092
:1039500000100240A2B0FDF77DFAFEF7EBFFFEF784
:103960004DFDFEF7ABFDFEF79BFEFEF7FDFDFEF7FE
:10397000C5FDFEF739FEFEF76DFE00F029F900F0F7
:10398000FDF83B48FDF746FE3A48FDF743FE3A484E
:10399000FDF740FE3D2237490FA8FCF7A2FC354851
:1039A00010F83D1F8DF8791041788DF87A108178E4
:1039B0008DF87B10C1788DF87C1001798DF87D1021
:1039C00041798DF87E1081798DF87F10C1798DF85D
:1039D0008010017A8DF88110407A8DF882003C22A7
:1039E00012A96846FCF77DFC0DF13C0C23489CE8CD
:1039F0000E0000F045F83D221D490FA8FCF771FCB0
:103A00001B4810F83D1F8DF8791041788DF87A1019
:103A100081788DF87B10C1788DF87C1001798DF854
:103A20007D1041798DF87E1081798DF87F10C179F4
:103A30008DF88010017A8DF88110407A8DF882001F
:103A40003C2212A96846FCF74CFC0DF13C0C0B48DB
:103A50009CE80E00583000F013F8FEF7D3FE01F09A
:103A600025FA00F0D5F8FEF7A7FC00F0E3F8FEE732
:103A7000AC0100201C010020F40100208002002085
:103A80000FB43D2210B5044600206080E060208025
:103A9000A080A06003A904F11000FCF722FC9DF8AF
:103AA000490004F84D0F9DF84A0060709DF84B00E6
:103AB000A0709DF84C00E0709DF84D0020719DF8BD
:103AC0004E0060719DF84F00A0719DF85000E071AC
:103AD0009DF8510020729DF85200607210BC5DF894
:103AE00014FB00002DE9F047224C234F0D46060041
:103AF0004FF400684FF480594FF000020BD4414658
:103B00002046FDF705F8012249462046FDF700F85A
:103B1000386846630BE049462046FCF7F9FF01226E
:103B200041462046FCF7F4FF3968704248634FF481
:103B300080464FF40058002D4FF000020CDB314658
:103B40002046FCF7E5FF012241462046FCF7E0FF56
:103B500038688563BDE8F08741462046FCF7D8FF0A
:103B6000012231462046FCF7D3FF3968684288635A
:103B7000F0E70000001402406401002010B5124C70
:103B800000224FF480512046FCF7C2FF0022E114CE
:103B90002046FCF7BDFF00224FF480412046FCF791
:103BA000B7FF00224FF400512046FCF7B1FF01227D
:103BB000D1032046FCF7ACFF0022BDE810400121F4
:103BC0000248FCF7A5BF00000014024000100240AC
:103BD00010B500210648FEF723F804210448FEF73B
:103BE0001FF803480021026851630068816310BD1B
:103BF0006401002010B5EFF3058111B16FF00504E9
:103C000003E0002408B101F021FE204610BD0000B1
:103C1000EFF3058010B16FF00500704704480168AC
:103C200011B14FF0FF307047012101600020704753
:103C30008800002010B5EFF3058010B16FF005008B
:103C400010BD08480168012902D04FF0FF3010BDB7
:103C5000054A002182F8141D0221016001F05EFE78
:103C6000002010BD880000200BE000E02DE9FF419E
:103C70004FEA01034FF00005EFF30581039549BBBF
:103C800040B38027182100244AB3166806B1344691
:103C900096691EB13146761E382E02D21679F60785
:103CA00003D0002004B0BDE8F081566906B1B70822
:103CB000D2F808C0BCF1000F0DD0D5685C2D18D328
:103CC00012693AB136B18DE806103A46214602F043
:103CD000BEF903900DE0D6685EB912694AB903AA2D
:103CE000CDE90012BAB2214602F084F9012800D0D1
:103CF00003950398D6E700002DE9F041134C0F46D9
:103D00000546E6682068001D01F06CFC681C07D1C0
:103D100037B12168BDE8F0410D48091D01F0B2BC82
:103D200020683544B5424560216805D2A06BBDE8E6
:103D3000F041091D01F08EBC606B091D01F08AFC89
:103D4000A06A854200D2A562BDE8F081380000205B
:103D5000F40900202DE9F041054601F09FFC2D4CAF
:103D6000A068401CA06020682B4F10B1606930B380
:103D70002BE02560A068012827D1002606EB8600ED
:103D800007EB800001F058FC761C382EF6D3234850
:103D900001F052FC2148143001F04EFC1F4828303D
:103DA00001F04AFC1D483C3001F046FC1B485030F5
:103DB00001F042FC194860631430A06305E02068FC
:103DC000E96AC06A884200D82560606A401C606267
:103DD0006864E86A2169884200D9206100EB8000AC
:103DE00007EB8000291D01F04DFC01F077FC6069B4
:103DF00000280CD02068E96AC06A884207D20849C6
:103E00004FF080500860BFF34F8FBFF36F8FBDE856
:103E1000F08100003800002044050020A4090020A3
:103E200004ED00E038B501F039FC104C2068C8B949
:103E30000F4801F001FC0E48143001F0FDFB0C4866
:103E4000E060143020610A4B0020F03B009003F149
:103E5000500210210A2001F06FFE206010B105A170
:103E600001F0BEFCBDE8384001F038BC7400002011
:103E7000F80A0020546D72510000000030B4026C4A
:103E80000B46002A0BD0C1681144C1608468A1426E
:103E900001D30168C16030BC1846FCF722BA30BCBF
:103EA00070472DE9F041856B174604460026026CE9
:103EB00082B1C7B1E068FCF714FAE168206C091A16
:103EC000E1602268914202D2A168081AE060022FE4
:103ED00016D017E02068A8B9A06802F05BF9064682
:103EE0000020A0600EE06068FCF7FBF9216C6068C0
:103EF00008446060A168884204D32068606001E0E3
:103F000005B16D1E6D1CA5633046BDE8F08110B58E
:103F1000044690F8590058B101280CD002280FD05F
:103F2000502080F31188BFF34F8FBFF36F8FFEE7F0
:103F3000206B01F0E7FB2046BDE8104001F0E2BB3A
:103F400010BD000010484FF47051420706D0C01D4C
:103F50000D4920F00700411AC1F570510B4A0023AA
:103F60000144C2E900030839183A21F00701116041
:103F70004B600B600B1AC0E9001393604FF00040D8
:103F80005360506170470000D8110020A400002049
:103F9000144E154CA6F29C474FF08058DFF84C9019
:103FA00012E000BF01F07AFBF068C568281D01F03F
:103FB00019FBA068401EA0606068401E606001F0B0
:103FC0008DFB2846FFF7A3FF60680028EAD1386818
:103FD0000128F9D9C9F80080BFF34F8FBFF36F8F65
:103FE000F2E70000E00900203800002004ED00E0C6
:103FF00070B51D46049C51B1C4F80020C4E90F01FE
:104000000121204601F0CCFD84F84C5070BD2460A5
:10401000F4E700002DE9F05F8846DDE90B941546D2
:10402000834691009A460A9EA522206BFCF76BF905
:104030006FF00301206B01EB8501084420F00707B6
:10404000780707D0502080F31188BFF34F8FBFF35C
:104050006F8FFEE70025B8F1000F0FD05FF0000072
:10406000221818F8001082F8341018F8001011B156
:10407000401C1028F4D384F8435001E084F83450F5
:10408000382E00D33726E662C4E91365201D01F0FF
:10409000DEFA04F1180001F0DAFA2461C6F1380002
:1040A0006462A061656584F85850524659463846A6
:1040B00000F05AFA2060B9F1000F01D0C9F80040B1
:1040C000BDE8F09F30B5114900E011460A68824210
:1040D000FBD34B685C18844203D1406818444860A5
:1040E000084643681C18944209D1084C183C2468BF
:1040F000A24209D052681A4442600A6812680260FB
:10410000814200D0086030BD0460F9E7A4000020BF
:1041100070B5002441600B4D0061914206D8D11A60
:104120008269914206D2011D286907E09A4203D2B2
:10413000994201D3012403E0011DE86801F08AFAE5
:10414000204670BD7400002010B5044601F0A6FAA8
:10415000A06B28B15FF0000401F0C0FA204610BD4A
:104160000124F9E730B589B03C4D6EE00498002891
:1041700006DADDE90601059A90470498002864DB19
:10418000069C606910B1201D01F02CFA03A800F014
:10419000D7F8024604980A2857D2DFE800F0050550
:1041A000052D334A05052D3394F8280040F0010011
:1041B00084F828000599A069059B01442046FFF773
:1041C000A7FF68B3216A2046884794F82800400773
:1041D0003BD5002000900598A1690023421819469C
:1041E000204602F0E1F8D8B9502080F31188BFF3DF
:1041F0004F8FBFF36F8FFEE714F8280F20F00100F8
:10420000207022E094F8280040F0010084F8280093
:104210000598A06128B1811813462046FFF778FF62
:1042200013E0502080F31188BFF34F8FBFF36F8FDF
:10423000FEE794F82800810703D4204601F062FAD3
:1042400003E020F0010084F82800002204A9286877
:1042500001F0FAFD002889D109B030BD74000020BA
:104260002DE9FC410F46054601F09CFB01A800F03A
:1042700067F80446019818B102F004F8BDE8FC8123
:10428000254EAFB130690068D0B30027291B3A46EC
:10429000306801F0B9FA01F0F5FF0028EED11F49AE
:1042A0004FF080500860BFF34F8FBFF36F8FE5E78B
:1042B000A542EBD801F0E6FFF0682746C068C46865
:1042C000201D01F08FF994F82800410719D5A06945
:1042D0002B4641193A462046FFF71AFFA8B10020A5
:1042E0000346014600902A46204602F05DF860B978
:1042F000502080F31188BFF34F8FBFF36F8FFEE71D
:1043000007E020F0010084F82800216A2046884751
:10431000B4E70127BAE700007400002004ED00E0D4
:104320000648416B096829B1416BC968C968496889
:10433000816270474FF0FF31FAE70000380000203B
:1043400070B5054601F0BCFE064E0446B0688442D6
:1043500003D200F009F8012000E000202860204688
:10436000B46070BD74000020F8B5194D20E0C0683D
:10437000C4680668201D01F035F9216A2046884787
:1043800094F82800400713D5A0693044B04206D9FC
:1043900024616060211DE86801F05CF908E00020FC
:1043A0000346014600903246204601F0FDFF38B139
:1043B000E86801680029DAD12969C5E90310F8BD68
:1043C000502080F31188BFF34F8FBFF36F8FFEE74C
:1043D0007400002008484068401C4FF0500080F3F3
:1043E000118804D0BFF34F8FBFF36F8FFEE7BFF389
:1043F0004F8FBFF36F8FFEE7AC000020074CE068E3
:10440000016841B1C0680021D0F80000FFF728FF23
:10441000FFF7A8FEF3E701210020F7E77400002072
:104420002DE9F041044601F039F994F9455004F1C1
:10443000240609E0606A48B1304601F0EBFE08B19D
:1044400001F032FA6D1E6DB2002DF3DC4FF0FF3635
:1044500084F8456001F042F901F020F994F94450E4
:1044600004F1100709E0206948B1384601F0D2FE96
:1044700008B101F019FA6D1E6DB2002DF3DC84F85D
:104480004460BDE8F04101F029B900002DE9F04198
:104490000546002701F086FA324E306808B9FFF76A
:1044A00051FD706905424ED1C5B3083568070ED07D
:1044B00005F00700C0F108000544680707D0502048
:1044C00080F31188BFF34F8FBFF36F8FFEE72DB3DB
:1044D0007068854237D82348183001460C6801E0DF
:1044E00020460C466168A94202D221680029F7D112
:1044F00031688C4227D007682168016060680837FE
:10450000411B10290FD96019420708D0502080F3B1
:104510001188BFF34F8FBFF36F8FFEE713E0416049
:104520006560FFF7CFFD61687068401A7060B2681F
:10453000904200D2B060706901430020C4E90001DC
:10454000F068401CF06001F09DFE780707D0502015
:1045500080F31188BFF34F8FBFF36F8FFEE73846AC
:10456000BDE8F0818C00002010B5031F4FF080746F
:104570001C601B1F21F001011960191F044B0B6007
:1045800014390A60091F6FF0020244380A6010BD36
:10459000D543000800B50246FEF7B4F99060918952
:1045A000411A5180D06000BD016890F83820097C24
:1045B00012FB01F1C900406BFBF7ACBE10B504461D
:1045C00000F0DAF8204600F0FDF80028FAD1204685
:1045D000BDE81040002100F01DB92DE9F8431C464C
:1045E00080461019401C80B200900819401C83B20C
:1045F0001546101B82B20E46081B81B2089F40462A
:1046000000F0C8F8002806D023462A463146404626
:10461000009700F00BFABDE8F8832DE9F04104465D
:1046200090F870001F4615460E4630B1012809D09B
:1046300002280CD0032815D10FE0E16D20468847F1
:10464000284408E0E16D20468847301A09E0E16D12
:1046500020468847281A85B204E0E16D2046884745
:10466000304486B22846A4F86460A4F8660039464F
:104670000025204600F0ACFB010003D0204600F0EE
:10468000D7FA85B22846BDE8F08100003FB581B079
:10469000044690F88C00089900283AD0BDF8100024
:1046A000002836D0012811D9022902D0032907D0C9
:1046B0000CE0BDF80820101A401CADF8080005E019
:1046C000BDF80C20101A401CADF80C0011F00105CB
:1046D00021D0B4F84810BDF80800814219D8B4F8C8
:1046E0004A10814215D9B4F84E30B4F84C2004A9D0
:1046F0000DF10C0000F07CF900280AD00095206B29
:10470000BDF81030BDF80C208568BDF808102046B3
:10471000A84705B030BDB4F84C10BDF80C0081427C
:10472000F7D8B4F84E108142F3D9B4F84A30B4F84F
:10473000482004A902A8DDE708B5B0F84C30934240
:1047400010D8B0F84E3093420CD9B0F848308B42B4
:1047500008D8B0F84A308B4204D9002300930123D3
:10476000FFF794FF08BD000030B4024C446030BC39
:1047700000F0FDB95555000810B5044690F89300B7
:1047800010B12046FFF710FF2046BDE81040002181
:1047900000F040B870B50D461E460446B0F84E1005
:1047A000B0F84C00049B00F0BDFB002809D0B4F821
:1047B0004A10B4F8480033462A46BDE8704000F07D
:1047C000B1BB70BD70B5044600F03BFC94F83900F5
:1047D00094F838100844C5B22068407CA84204D838
:1047E000204600F0A2FC002070BD94F8930010B1A8
:1047F0002046FFF7D9FE2946204600F00BF801209D
:1048000070BD10B5044600F01CFC2046BDE8104009
:1048100000F08BBC10B5044680F83910006B0168BD
:1048200020468847206B41682046BDE81040084775
:1048300010B50446806D884209D004F17400A1656A
:1048400000F0CAFB2046BDE8104000F055B810BD8E
:104850000149C16570470000E54B00080021A0F840
:104860005010A0F854104FF6FF71A0F85210A0F8A5
:104870005610016B4968084770B504460025049836
:10488000A565E362616384F8382084F8395084F8C0
:104890006D5084F8915084F88D50012184F8921065
:1048A00084F8931020630168204688472046FFF76C
:1048B000D5FF2046FFF7CCFF84F8705070BD000094
:1048C0007CB50C46009313460546084A084900F09B
:1048D0003CFC01A800F07AFB0146064B00949DF8D1
:1048E00004202846FFF7C8FF7CBD0000E552000801
:1048F0000D5400083D4F000810B5816D00291AD0F5
:1049000090F9813080F88E3090F9822080F88F20E5
:1049100090F88D1000290ED001290DD090F97E401D
:1049200090F980100C449C4201DD80F88E408A4250
:1049300001DD80F88F1010BD90F983108B4201DAF1
:1049400080F88E1090F98410F1E72BB1012B05D07F
:10495000022B06D0104402E0084400E0801A80B226
:104960007047401AFBE72BB1012B05D0022B06D074
:10497000401A02E0104400E0084480B27047801AF8
:10498000FBE738B50446B0F856000090B4F8523052
:10499000B4F85420B4F850102046FFF7FBFE18B3CB
:1049A000012084F88C00B4F84810B4F8500081421B
:1049B00001D2A4F84800B4F84A10B4F85200814279
:1049C00001D9A4F84A00B4F84C10B4F8540081425C
:1049D00001D2A4F84C00B4F84E10B4F8560081424D
:1049E00001D9A4F84E0038BD002084F88C0038BDF1
:1049F00030B504880D882544ADB2AC4205D99C423F
:104A000002D25D1EADB200E014469C4201D2954236
:104A100001D8002030BD944200D214469D4200D9F6
:104A20001D460480281B0880012030BD2DE9FF4F62
:104A3000C3F1010083B006B258429146DDF840A0B0
:104A400040008B4601271C46CDE9009A00250FFA4D
:104A500080F85B462246294615E0002E08DB08F167
:104A600002000FFA80F8641E06EB0800A4B206B23A
:104A70006D1CBF1C3FB2CDE9009AADB2F01906B271
:104A80005B4622462946039800F005F8A542E4D388
:104A900007B0BDE8F08F2DE9FF4F83B00E46DDE98A
:104AA000108703EB060002901546A8EB0600019064
:104AB00003EB05001C46F907A8EB050B00900DD091
:104AC00002981FFA8BF281B20398FFF735FE019826
:104AD00082B2009881B20398FFF72EFEB907A4EBCB
:104AE000060AA4EB05090DD51FFA8BF21FFA8AF10D
:104AF0000398FFF721FE01981FFA89F182B203980B
:104B0000FFF71AFE08EB0504390708EB06050BD57D
:104B10000298A2B281B20398FFF70EFE0098AAB2E3
:104B200081B20398FFF708FE78070ED5A2B21FFAEC
:104B30008AF10398FFF700FE039807B0AAB21FFAA4
:104B400089F1BDE8F04FFFF7F7BD07B0BDE8F08F82
:104B500038B5C58F049C0094521BC46A92B2A0471A
:104B600038BD38B5049C0094FFF7F2FF38BD2DE93D
:104B7000F0471C4691468846064600F0E7FC0025B3
:104B80004FF6FF7772682178304690470346B84267
:104B900025D0641CA3F57F40FE38F3D04A46414639
:104BA0003046FFF73AFD96F8701031B1012907D071
:104BB000022908D003290FD10AE008EB000104E024
:104BC00009EB000106E0A8EB00011FFA81F803E001
:104BD000A9EB00011FFA81F9284485B2D2E72846E3
:104BE000BDE8F0870020704710B50C4600F006F8CD
:104BF0000122641EA240801A40B210BD30B5056883
:104C0000047B2A78E2406318DBB2082B09D36D1CC1
:104C100005602D78C4F10804A5401543083BEAB2AD
:104C2000DBB201248C40641E14400373204630BD67
:104C30002DE9F843054600F1600400F00CF915F980
:104C40006B6F2046E97BFFF7CFFF8146297C20462A
:104C5000FFF7CAFF0746697C20466B3DFFF7C4FF9C
:104C6000804694F90A00002857DDF019404247B207
:104C7000237CA0883A464946FFF767FEA080237C44
:104C80003A46E0884946FFF76EFEE080A188277C1F
:104C900002460B4637B1012F0AD0022F40D0032F16
:104CA0000FD146E094F90A7030443B449BB207E0D0
:104CB000891B491C94F90A705B1C89B29BB2384469
:104CC00080B200902846FFF765FD30B300202072C7
:104CD00084F8090095F876102046FFF78FFF81468B
:104CE00095F877102046FFF789FF074600224946CE
:104CF000284600F027F801223946284600F022F81D
:104D000001212046FFF77AFF0028EFD194F909002E
:104D1000B042DFDBA07B85F892004046BDE8F88317
:104D200094F90A705B1CC91B491C89B29BB2921B87
:104D300004E094F90A7033449BB2D21B521C92B225
:104D4000401CBDE72DE9F74F84B00D46049C94F854
:104D5000687094F869806034A07AC01BC6B201966E
:104D6000B54200D201954FFA88F279B2A088B4F822
:104D700006B0237C92468946FFF7E7FD0290237C2C
:104D8000524649465846FFF7EEFD0246069808B1DE
:104D9000A17B02E0607B50B9E17B049880F892101F
:104DA000207C0090DDE901310498FFF76FFCB542EB
:104DB00007D3A81BC5B208F10100002700F0FF08C7
:104DC000CAE77819207284F8098007B0BDE8F08F2F
:104DD00070B50D460146806D1730FF2D10D8612D3E
:104DE00002D3B1F8881003E0412D02D3B1F8861048
:104DF0000844417819B30278AA42F9D1801C70BDE9
:104E0000B1F88A100C1826460021304600F019F837
:104E100004440221304600F014F8361DA842F3D3B2
:104E20004FF6FF72207802EA00216078084306D02E
:104E3000A84201D1E01C70BDA0780444F2E7002034
:104E400070BD08444FF6FF720178407802EA0121F4
:104E5000084480B2704730B5054600F16004016631
:104E60000020207315F8781F2046FFF7C7FEA072B8
:104E700069782046FFF7C2FEE072A87EA07310B1E9
:104E80000020E07330BD0120FBE710B51046282953
:104E900009D0292905D04C2905D04D2903D000205F
:104EA00010BDFBF723FD012010BD000008B5154B18
:104EB000154A16491648FFF703FD154800F02DF96D
:104EC0000021134800F039F91148FFF777FB114929
:104ED0000F48FFF7ADFC0F20009014231E223C2149
:104EE0000B48FFF77AFB0CA332220A210848FFF790
:104EF0003BFC0748FFF785FCBDE8084040F6B830AA
:104F0000FBF7F4BC8B4E0008D1510008D09A000882
:104F10007004002094640008C4E3BAC32C776F7255
:104F20006C6400008A4205D2834201D89A4203D9B8
:104F3000012070478342F9D800207047F0B502F095
:104F400007060124B440002590F892E0E7B2DDF8AE
:104F500014C02C46BEF1010F01D83D4600D03C469E
:104F6000076822F00702BCF1000F3F7C07FB02F745
:104F7000BAB2476B3A44114409D108785B1E284302
:104F800060401B0401F8010B1B0CF6D1F0BD0A7840
:104F9000761C2A436240A3F101030A7016F007064B
:104FA0009BB206D06A06150E6206140E002BEED1D7
:104FB000F0BD428F114490F89220012A03D800BF1F
:104FC0004FF00105F2D04FF00104EFE70821017026
:104FD00000487047D84D002070B505460878287005
:104FE000487868708878A870C878E870087928715F
:104FF0004879687188790C46A871E079E871207A5F
:105000002872607A6872A07AA872E07AE872207BCF
:105010002873607B6873A07BA873E07BE873207CB7
:10502000287411212046FFF70CFF688213212046C7
:10503000FFF707FFA88215212046FFF702FFE8824D
:1050400070BD2DE9F843064690F8387090F8395055
:10505000006800244FF6FF7890F8119031683046D0
:105060002A460B7C716B04FB03FC1FFA8CFC08EADC
:10507000CC0C61440091002100F040F8641C6D1CD0
:10508000E4B2EDB2BC4201D24D45E7D3BDE8F883AE
:10509000F0B590F838204FF6FF75036805EAC201B5
:1050A0008187197C05EAC101418790F8394005EAFA
:1050B000C401C1875E7CA718B74201D9321B92B2E6
:1050C00005EAC20220F8401F11444180998A81807C
:1050D000D98AC180F0BDFFF7DBBF0021A0F84810DE
:1050E000B0F84410A0F84A10B0F84010A0F84C10E6
:1050F000B0F84210A0F84E10FFF743BC1CB58DF875
:1051000005108DF80620049C8DF8043000940122CF
:1051100084686B460F21A0471CBD30B4846800230F
:10512000A44630BC1A460A21604730B48468002384
:10513000A44630BC1A461021604730B4846800236E
:10514000A4460A4630BC0B2160472DE9F0411546C4
:105150000E460446069F00F009F86761A660C4E9A0
:1051600003532046BDE8F04100F012B8002140F89A
:10517000081B064A026042608260C260C176817785
:105180000161FF21017780F8201070471155000858
:1051900030B484680023A44630BC1A460921604715
:1051A00030B404690023A44630BC1A461921604774
:1051B00013B50122046901AB1721A0471CBD30B40F
:1051C00004690023A44630BC1A4618216047000039
:1051D00038B5142922D0124C172905D0182910D01F
:1051E000192911D0002038BD0E4907E0207813F8A6
:1051F000015B0D54401C521E2070D2B2002AF5D122
:105200000CE00020207009E04FF47A71009190F8D2
:1052100024102378034A0448FBF74AFD012038BDD7
:105220003400002050040020C800002030B4C468BE
:105230000023A44630BC1A461921604730B4C46824
:105240000023A4460A4630BC1621604730B4C46827
:105250000023A4460A4630BC1521604730B4C46818
:105260001346A4460A4630BC17216047F8B50C46E1
:105270004FEA000514F8011B182924D00EDC15296B
:1052800019D0162917D0172923D120788DF80000BE
:105290006A4601212846FFF7E1FF0AE0192912D0EA
:1052A000FE2916D122788DF800202921284600F009
:1052B00031F9641CDEE722788DF80020EE680023C7
:1052C0002846B047F5E70023EE681A462846B0475F
:1052D000D0E7F8BD30B4C4680023A44630BC1A46F9
:1052E000182160472DE9F041DFF8B08014460646EA
:1052F000A1F11402002798F800001D46062A4AD2A0
:10530000DFE802F02F03161B3E4310B13046FFF7D3
:1053100047FF3046FFF753FF00213046FFF748FFB5
:1053200021463046FFF744FF012088F8000029E0BD
:1053300021463046FFF73CFF24E050B13046FFF7EE
:105340002FFF06E01821304600F0EAF8183CE4B2DE
:105350001835182C2A46F5D82146304600F0E0F8DA
:105360000EE096F82400FF2802D1782086F8240069
:1053700037692B4622463046BC46BDE8F0416047BF
:1053800088F800700120BDE8F0810028F8D0304690
:10539000FFF706FFF4E70020F5E70000BC0000205F
:1053A00070B50023456904461A462821A847002302
:1053B000E5681A4614212046A84701224B212046C1
:1053C00000F0A8F8206829210279204600F0A2F810
:1053D00000224B21204600F09DF820682921027907
:1053E000204600F097F801224B21204600F092F869
:1053F0002068292142792046BDE8704000F08AB833
:105400000160897C80F822107047000070B50C465E
:10541000054600F019F888B9092C0BD00A2C01D0E8
:10542000002070BD2846FFF7BBFF05492846FFF75F
:105430001DFF03E003492846FFF7E2FF012070BD8E
:10544000029B0008049C00082DE9F0411E4614460A
:1054500005460B2908D00D290ED00E291ED00F2984
:1054600027D00020BDE8F0811AB12849FFF7FEFEE1
:105470004AE02649491FF9E74AB124490C31FFF7B0
:10548000F5FE286890F8130085F822003CE01F49DB
:10549000491DFFF7EBFE2868807CF5E7FFF71AFF50
:1054A00081212846FFF7D2FE21462846FFF7C6FE97
:1054B00027E0FFF70FFF707995F8221001EBC0008D
:1054C000C7B240212846FFF7C1FE102040EA17115D
:1054D0002846FFF7BBFE07F00F012846FFF7AEFE98
:1054E000B07940F0B0012846FFF7A8FE3079326865
:1054F000C006010E2846FFF7B1FE641E14F0FF043B
:10550000F4D12846FFF792FE0120ABE7E19A0008AC
:105510000020704730B444690023A44630BC604783
:105520002DE9F04115460E460446FFF748FE40219E
:105530002046FFF73DFE27692B46324617212046BD
:10554000B8472046BDE8F041FFF72ABE002180F8A9
:105550002610704730B54FF6FF72A9B30A293FD025
:1055600090F82630541E7BB15B1E13F0FF0380F8C9
:105570002630058C01F03F0102EA851242EA010261
:1055800002842DD0204630BDFC2905D3052280F8A9
:10559000262001F001011FE0F82905D3042280F83C
:1055A000262001F0030117E0F02905D3032280F83B
:1055B000262001F007010FE0E02906D3022280F83F
:1055C000262001F00F0107E00AE0C02906D30122DE
:1055D00080F8262001F01F010184D3E7084630BD82
:1055E000104630BDD0E9013201699A60D0E901234B
:1055F0005A604A68824201D182684A600022026190
:105600000868401E0860086870470000034B03608C
:1056100003F15C000860802010607047200B0020C0
:10562000044B036003F15C0008604FF4807010606D
:10563000704700007C0D002000F108014FF0FF32A0
:10564000C0E90112C16001610021016070470021C1
:105650000161704730B50B685A1C02D000F1080296
:1056600002E0026904E02246546825689D42FAD9A6
:1056700053684B6099608A60516008610168491CF9
:10568000016030BD42684A6093688B6093685960DE
:10569000916008610168491C01607047502080F3E7
:1056A0001188BFF34F8FBFF36F8F0A494868401CC2
:1056B000486001280CD10848006810F0FF0F07D09F
:1056C000502080F31188BFF34F8FBFF36F8FFEE739
:1056D00070470000AC00002004ED00E00849486875
:1056E00028B1401E486001D180F3118870475020D6
:1056F00080F31188BFF34F8FBFF36F8FFEE7000079
:10570000AC00002070B500282AD0164DA0F1080486
:1057100060686969084207D1502080F31188BFF39F
:105720004F8FBFF36F8FFEE722683AB1502080F3AE
:105730001188BFF34F8FBFF36F8FFEE78843606020
:1057400000F030F960686968084468602046FEF738
:10575000B9FC2869401C2861BDE8704000F092BD8A
:1057600070BD00008C0000204FF0E020002101619E
:10577000816105494FF47A720968B1FBF2F1491E63
:1057800041610721016170471800002010B5FAF748
:1057900061FD114910280ED300F1E02090F8F003CC
:1057A0000A78904207D2502080F31188BFF34F8FC0
:1057B000BFF36F8FFEE709480068896800F4E06076
:1057C000884207D9502080F31188BFF34F8FBFF371
:1057D0006F8FFEE710BD0000AC0000200CED00E074
:1057E00010B5084B002200BF53F832401CB1521CC8
:1057F000082AF9D310BD43F8321003EBC201486008
:1058000010BD00000405002070B515460E46044684
:10581000FFF744FF94F944100020491C01D184F89B
:10582000440094F94510491C01D184F84500FFF764
:1058300055FFA06B28B92A46314604F1240000F038
:1058400051F82046BDE87040FEF7EABD10B50200F1
:1058500014D00F48006B38B1502080F31188BFF38B
:105860004F8FBFF36F8FFEE700F09CF800211046CA
:10587000FEF742FA00F006FD002807D105494FF077
:1058800080500860BFF34F8FBFF36F8F10BD0000D3
:105890003800002004ED00E002490A6A0260C9688D
:1058A000416070473800002001490120C8617047FD
:1058B0003800002010B50C4650B10949096818316C
:1058C000FFF7C8FE2046BDE810400121FEF714BADC
:1058D000502080F31188BFF34F8FBFF36F8FFEE727
:1058E0003800002070B514460D4668B10A490968B1
:1058F0001831FFF7C7FE0CB14FF0FF35214628469F
:10590000BDE87040FEF7F8B9502080F31188BFF36E
:105910004F8FBFF36F8FFEE73800002030B587B0A0
:105920000024039405AA04A903A80494FFF76EFEBB
:10593000DDE903010094CDE90110002315A117480A
:10594000059A00F084FB164D0028E8621FD000F095
:10595000FBFC012809D0401C19D1502080F311888C
:10596000BFF34F8FBFF36F8FFEE7502080F3118896
:10597000BFF34F8FBFF36F8F4FF0FF30A86201204E
:105980006861EC6007B0BDE8304000F045B807B092
:1059900030BD000049444C4500000000913F000824
:1059A000380000200248016B491C01637047000069
:1059B00038000020164810B5016B11B10121C161FA
:1059C00010BD0021C1610169124A01E0B9B1491E4F
:1059D00001EB810352F82330002BF7D001EB810358
:1059E00002EB830202F1080453685B685360A34230
:1059F00001D15B685360DA680260016110BD50201C
:105A000080F31188BFF34F8FBFF36F8FFEE7000065
:105A100038000020440500201CB537480168374A8B
:105A2000914207D1502080F31188BFF34F8FBFF30D
:105A30006F8FFEE700683149491E884207D1502028
:105A400080F31188BFF34F8FBFF36F8FFEE72C49B0
:105A500008780190FF20087008788DF800009DF804
:105A600000009DF8002000F0F000904207D0502088
:105A700080F31188BFF34F8FBFF36F8FFEE79DF860
:105A80000000204C00F0500020700720A06005E0CE
:105A90009DF8002052008DF80020401E9DF8002047
:105AA0001206F5D4A060032807D0502080F3118897
:105AB000BFF34F8FBFF36F8FFEE74FF44070A060CE
:105AC000019808700C482030016841F470010160B1
:105AD000016841F070410160FFF746FE0020606000
