:020000040800F2
:10000000185100205D0200082B230008052000087D
:10001000292300082F080008E12B00080000000039
:100020000000000000000000000000009D0100082A
:100030003108000800000000F90100086B250008E5
:1000400077020008770200087702000877020008AC
:10005000770200087702000877020008770200089C
:10006000770200087702000877020008770200088C
:10007000770200087702000877020008770200087C
:10008000770200087702000877020008770200086C
:10009000770200087702000877020008770200085C
:1000A0002926000845260008770200087702000884
:1000B000770200087702000877020008770200083C
:1000C000770200087702000877020008770200082C
:1000D000770200087702000877020008770200081C
:1000E000770200087702000877020008770200080C
:1000F00051260008770200087702000877020008FE
:1001000077020008770200087702000877020008EB
:1001100031290008770200087702000877020008FA
:1001200077020008770200087702000877020008CB
:1001300077020008770200087702000877020008BB
:1001400077020008770200087702000877020008AB
:10015000770200087702000877020008770200089B
:10016000770200087702000877020008770200088B
:1001700077020008770200087702000800000000FC
:100180007702000877020008DFF80CD000F0CEFA02
:1001900000480047A5350008185100202C4B19686D
:1001A0000868B0E8F04F80F30988BFF36F8F4FF015
:1001B000000080F3118870470000000008480068C4
:1001C000006880F308884FF0000080F3148862B65E
:1001D00061B6BFF34F8FBFF36F8F00DF00BF00BF6B
:1001E00008ED00E0DFF80C00016841F470010160E7
:1001F000704700BF88ED00E0EFF30980BFF36F8F19
:10020000134B1A681EF0100F08BF20ED108A20E96A
:10021000F04F106009B44FF0500080F31188BFF325
:100220004F8FBFF36F8F04F0CDF94FF0000080F3D4
:10023000118809BC19680868B0E8F04F1EF0100F6B
:1002400008BFB0EC108A80F30988BFF36F8F704746
:1002500034000020EFF30580704700000648804717
:1002600006480047FEE7FEE7FEE7FEE7FEE7FEE79B
:10027000FEE7FEE7FEE7FEE7192600088901000811
:100280002DE9F05F0546002092469B4688460646CB
:10029000814640241BE0284641464746224600F05E
:1002A0007CF853465A46C01A914110D3114618465D
:1002B000224600F063F82D1A67EB01084F462246EC
:1002C0000120002100F05AF817EB00094E41201ED2
:1002D000A4F10104DFDC484631462A464346BDE826
:1002E000F09F40EA01039B0703D009E008C9121FF1
:1002F00008C0042AFAD203E011F8013B00F8013BE0
:10030000521EF9D27047D2B201E000F8012B491E0B
:10031000FBD270470022F6E710B513460A460446A2
:100320001946FFF7F0FF204610BD00F0004230F004
:1003300000400AD0C10D01F56071C0F3160042EA19
:100340000151C20840071143704700200146704721
:1003500030B50B46014600202022012409E021FA95
:1003600002F59D4205D303FA02F5491B04FA02F592
:100370002844151EA2F10102F1DC30BD202A04DB65
:10038000203A00FA02F1002070479140C2F12003A8
:1003900020FA03F3194390407047202A04DB203AE7
:1003A00021FA02F00021704721FA02F3D040C2F195
:1003B000200291400843194670472DE9FE4F8046C0
:1003C00081EA0300C00F0C46009021F0004123F0A9
:1003D0000045B8EB0200A94105D2404621469046AF
:1003E0001C460B46024623F00040104347D0270D21
:1003F000C7F30A00C3F30A510290401A0190402843
:100400006BDAC3F3130040F4801B0098924620B1CE
:100410000023D2EB030A63EB0B0B01985946C0F1A2
:1004200040025046FFF7AAFF06460D465046594681
:10043000019A00F08DF910EB08006141002487EA71
:10044000115284EAE7731A4340D0009A62B3019ACA
:10045000012A4FEA075215DC001B61EB02014FF045
:10046000004202EA0752CDE90042001C41F580112A
:1004700032462B4600F08DF903B0BDE8F08F4046C0
:100480002146F9E7001B61EB0201001C41F58013D6
:1004900000185B412018A2F5001747EB030140EA62
:1004A000D570B6196D4111E06D084FEA360645EA80
:1004B000C0754FEA0752001B61EB0201001C41F5B9
:1004C000801149084FEA30000019514132462B464D
:1004D00003B0BDE8F04F00F04DB900980122400094
:1004E0000023D0EB020263EBE073009821464FEA51
:1004F000E074B8EB000061EB0401E9E783F000432E
:100500005BE781F0004158E72DE9FE4F81EA0304E3
:1005100004F0004421F0004100944FF0000B23F060
:10052000004350EA01045ED052EA03045BD0C3F3F7
:100530000A54C1F30A552C44A4F2F3340194A0FBED
:100540000254C1F3130141F48011C3F3130343F4C4
:10055000801301FB024400FB034E840A970A44EA1D
:10056000815447EA8357A4FB076802958D0A05FB6F
:1005700007854FEA932C04FB0C542705029D4FEA94
:10058000065847EA1637B5EB08056EEB070C870EE1
:10059000920E47EA811742EA8312A7FB0201B6EBEB
:1005A0000B0164EB00042B0D43EA0C335E1844EBA3
:1005B0001C50DA465146E7FB0201C5F313044FEA2B
:1005C0000B3343EA14534FEA0432019C43EA060317
:1005D000A4F10C040294009CCDE900B400F0D9F819
:1005E00003B0BDE8F08F00200146F9E72DE9F04D9A
:1005F00081EA030404F0004B21F0004514464FF05B
:10060000000A23F0004150EA050220D054EA01021A
:100610001DD0C5F30A570246C5F31303C1F31300F7
:10062000C1F30A5640F4801543F48013A7EB060883
:10063000101BD64608F2FD3873EB050002D308F113
:10064000010801E092185B41B8F1000F03DA0020C5
:100650000146BDE8F08D00204FF480110646844627
:100660000EE0171B73EB050705D3121B63EB0503A5
:1006700006434CEA010C49084FEA300092185B41EE
:1006800050EA0107EDD152EA030012D082EA0400D9
:1006900083EA0501084305D0101BAB4106D20122B5
:1006A000002306E000224FF0004302E06FF0010259
:1006B00053101AEB06004CEB085110EB0A0041EB0B
:1006C0000B01BDE8F04D00F055B8C1F30A52C1F37B
:1006D000130140F2FF3341F480119A4202DA002004
:1006E0000146704740F233439A42A2F2334202DCA1
:1006F0005242FFF752BEFFF741BE000030B5041E64
:1007000071F1000404DB4FF00044404264EB01014E
:10071000141E73F1000405DB1C464FF000435242E7
:1007200063EB0403994208BF904230BD064C074D6D
:1007300006E0E06840F0010394E8070098471034B1
:10074000AC42F6D3FFF724FDCC500008EC50000873
:10075000202A06DBCB17203A41FA02F043EAE07385
:1007600006E041FA02F3D040C2F120029140084372
:100770001946704710B5141E73F1000408DA401CC6
:1007800041F1000192185B411A4301D120F00100B0
:1007900010BD2DE9F04D92469B4611B1B1FA81F2A0
:1007A00002E0B0FA80F220329046FFF7E7FD0446FF
:1007B0000F4640EA0A0041EA0B0153465A460843F5
:1007C00013D0114653EA010019D0C8F14002504637
:1007D000FFF7E3FD05460E46504659464246FFF7F1
:1007E000CDFD084305D0012004E020463946BDE890
:1007F000F08D0020054346EAE0762C4337430A9803
:100800006305E40AA0EB08000022FD0A44EA47540D
:100810000A3002D500200146E9E7010510196941B7
:10082000DDE9084500196941BDE8F04DA2E7FEE7A2
:10083000704772B6FEE72DE9F0410446876D00F07F
:100840005BF9064694F835000025022806D0802082
:10085000606584F834500120BDE8F08120680168AB
:1008600021F0160101602068416921F08001416199
:10087000206C08B9A06C20B12068016821F0080143
:1008800001602068016821F0010101600CE000F0C6
:1008900033F9801B052807D920206065032084F8E0
:1008A000350084F83450D7E720680068C007EED1DF
:1008B00094F85C103F208840B860012084F835002F
:1008C00084F834500020C7E790F83510022903D08F
:1008D0008021416501207047052180F835100068AE
:1008E000016821F001010160002070472DE9F84FF7
:1008F000DFF8BCA10022012503264FF00F090AF101
:10090000040BAAF1040E00BF0B6805FA02F42340A1
:10091000A34270D10F7907F00307012F01D0022FF6
:1009200016D187684FEA420806FA08FC27EA0C0746
:10093000D1F80CC00CFA08FC4CEA070CC0F808C04F
:100940004768A7430C79C4F3001494403C434460C7
:100950000C79E443A4070AD0C4684FEA420C06FAB3
:100960000CF7BC438F6807FA0CF72743C7600C7974
:1009700004F00304022C12D1D40800EB840CDCF840
:1009800020405707FF0E09FA07F824EA0804D1F8B7
:10099000108008FA07F848EA0408CCF820800468B8
:1009A0004FEA420C06FA0CF7BC430F7907F0030735
:1009B00007FA0CF7274307604C6814F4403F70D0E7
:1009C0003C4C276847F480472760246822F00307DF
:1009D00004F480440094384C07EB040CDCF808481D
:1009E00097074FEA177809FA08F7BC43334FB84224
:1009F00002D1002724E054E0314FB84201D1012751
:100A00001EE0304FB84201D1022719E02E4FB84204
:100A100001D1032714E02D4FB84201D104270FE084
:100A20002B4FB84201D105270AE02A4FB84201D125
:100A3000062705E0284FB84201D1072700E0082724
:100A400007FA08F72743CCF80878DAF80040574649
:100A5000D1F804C09C435FEACC2C00D51C433C6019
:100A6000DBF800405F46D1F804C09C435FEA8C2C61
:100A700000D51C433C60DEF800407746D1F804C046
:100A80009C435FEA8C3C00D51C433C60084F083F08
:100A90003C68D1F804C09C435FEACC3C00D51C43C1
:100AA0003C60521C102AFFF42FAFBDE8F88F000005
:100AB000083C014044380240003001400000024040
:100AC0000004024000080240000C024000100240F6
:100AD0000014024000180240001C0240426921EA52
:100AE00002030A4043EA0241816170470AB1816111
:100AF00070470904FBE70000014880687047000068
:100B00000C00002070B5040025D094F83D000025AD
:100B100020B984F83C50204600F0B8F8242084F82E
:100B20003D002068016821F0010101602068016832
:100B300041F4004101602068016821F40041016036
:100B400000F010FA4D4A6168914201D84C4900E02A
:100B50004C49884201D2012070BD4B492368B0FB4B
:100B6000F1F15E6826F03F060E435E6063689342D3
:100B700006D94FF4967359434FF47A73B1FBF3F1EE
:100B80002368491C1E6A26F03F06314319626168DA
:100B9000914210D84900401EB0FBF1F2521CC2F342
:100BA0000B02042A01D2042022E0B0FBF1F0401C29
:100BB000C0F30B001CE0A268F2B301EBC10303EB2E
:100BC0000116431EB3FBF6F35B1C43F480431B0585
:100BD00049D092B301EBC10202EB0111401EB0FB00
:100BE000F1F0401CC0F30B0040F4804040F40040A2
:100BF0002168CA694CF6FF739A431043C861D4E96F
:100C0000071001432068026822F0C002114301600E
:100C1000D4E9030101432068826848F2FF339A4314
:100C200011438160D4E9050108432168CA6822F0B4
:100C3000FF021043C86001E00EE016E02068016882
:100C400041F0010101602564202084F83D00256306
:100C500084F83E50002070BD01EB4106431EB3FBFB
:100C6000F6F35B1CB3E70120C2E701EB4101401E34
:100C7000B0FBF1F0401CC0F30B00B7E7A086010009
:100C800080841E0000093D0040420F0010B586B070
:100C9000044614216846FFF73DFB1349206888424B
:100CA00020D112480021026842F00202026000686E
:100CB00000F002000590C02000901220CDE9010153
:100CC000032003900420049069460948FFF70EFEB4
:100CD00006481030016841F400110160006800F41A
:100CE0000010059006B010BD00540040303802409E
:100CF0000004024002488168027811448160704714
:100D00000C0000200B4810B5016841F4007101602F
:100D1000016841F480610160016841F48071016003
:100D2000032000F073F80F2000F006F800F024F81C
:100D3000002010BD003C024070B50D4D04464FF43C
:100D40007A712878B1FBF0F00A490968B1FBF0F03C
:100D500000F00EFB48B9102C07D200222146501E8D
:100D600000F034F800206C6070BD012070BD000000
:100D70000C000020180000200C4882B0016841F4EB
:100D800080410160006800F4804000900748001F27
:100D9000016841F0805101600068002200F080503D
:100DA00000900F21901E02B000F010B844380240AD
:100DB000002809DB00F01F0201219140400980005A
:100DC00000F1E020C0F8001170470000F0B40E4BB5
:100DD0001B680C46C3F30223C3F10705042D00D999
:100DE0000425191D072901D2002300E0DB1E01267E
:100DF00006FA05F1491E214099409E40761E164094
:100E00003143F0BC01F0FEBE0CED00E0064900F0FD
:100E1000070208684FF6FF03184040EA0220034A21
:100E200010430860704700000CED00E00000FA0578
:100E30002DE9F0470E46050065D0DFF81481D8F89B
:100E40000000F7B200F00700B04207D288F8007047
:100E5000D8F8000000F00700B04254D128683D4C9B
:100E6000810712D5400703D5206840F4E050206088
:100E70002878000703D5206840F46040206020688F
:100E8000A96820F0F000084320602878C0072DD022
:100E9000304968680839012812D0022813D0032885
:100EA00011D00968890700292DDA216821F0030192
:100EB00001432160FFF720FE814641F2883A0EE0AF
:100EC00009688903EFE709688901ECE7FFF714FE79
:100ED000A0EB0901514502D90320BDE8F087206845
:100EE000696800F00C00B0EB810FEFD1D8F800106A
:100EF000404601F00701B14207D90770006800F0D1
:100F00000700B04201D00120E7E72878400705D567
:100F10002068E96820F4E050084320602878000742
:100F200006D52068296920F4604040EAC1002060AD
:100F300000F038F82168084AC1F30311515CC84039
:100F40000649086006480068FFF7F6FE0020C4E77F
:100F5000003C0240083802408C5000081800002075
:100F6000100000200448054900680968044AC1F3DC
:100F70008221515CC84070471800002008380240A8
:100F80009C5000080448054900680968044AC1F3F8
:100F90004231515CC84070471800002008380240B8
:100FA0009C500008154810B5006810F00C02144859
:100FB00013D04110042A0FD0082A0ED10F4C241F41
:100FC0002268236802F03F025B0207D52068C0F365
:100FD0008810A0FB010106E0084610BD2168C1F39E
:100FE0008811A1FB00010023FFF74AF92168C1F332
:100FF0000141491C4900B0FBF1F010BD0838024026
:101000000024F4002DE9F84F04006ED02078DFF8BA
:101010004C93C007A9F104054AD009F10400016806
:10102000C1F38101012908D00068C0F381000228C2
:101030000AD1D9F80000400206D52868800337D5C8
:1010400060680028E1D033E06068B0F5803F10D0E0
:10105000B0F5A02F286810D020F4803028602868D0
:1010600020F4802028606068A8B1FFF745FD06469F
:101070000DE0286840F48030F4E740F480202860D8
:10108000F7E700BFFFF738FD801B642873D8286896
:101090008003F7D50CE0FFF72FFD064605E000BF03
:1010A000FFF72AFD801B6428F0D828688003F7D456
:1010B0002078DFF8AC8280074FF0000A3ED5A748C1
:1010C000001D016811F00C0F08D00068C0F381000A
:1010D00002280BD1D9F80000400207D42868800705
:1010E00016D5E068012800D112E033E1E068B8B11C
:1010F0000120C8F80000FFF7FFFC064605E000BF2E
:10110000FFF7FAFC801B0228C0D828688007F7D5B3
:101110002868216920F0F80040EAC10028600DE04D
:10112000C8F800A0FFF7E8FC064604E0FFF7E4FC7F
:10113000801B02281FD828688007F7D42078000772
:1011400022D5864F87486169703771B101210160EE
:10115000FFF7D2FC064604E0FFF7CEFC801B022816
:1011600009D838688007F7D50EE0C0F800A0FFF76F
:10117000C3FC064605E082E0FFF7BEFC801B0228A8
:101180007DD838688007F7D42078400768D5DFF825
:10119000CCB100270BF13C0BDBF80000C0000BD4F6
:1011A000DBF8001041F08051CBF80010DBF80000B4
:1011B000012700F0805000906B4E3068C00510D4BD
:1011C000306840F480703060FFF796FC009005E0D6
:1011D000FFF792FC0099401A022850D83068C005E9
:1011E000F6D55E4EA0686C3601280FD00528306811
:1011F00010D020F001003060306820F00400306032
:10120000A068B8B1FFF778FC00900FE0306840F0BC
:101210000100F4E740F004003060F7E7FFF76CFCF2
:101220000099411A41F28830814266D830688007BF
:10123000F4D50EE0FFF760FC009007E0FFF75CFCE0
:101240000099411A41F28830814256D830688007AF
:10125000F4D42FB1DBF8001021F08051CBF800104E
:10126000A069C8B33D49091D0968C1F3810102297C
:101270004AD00228504607D0C8F8600000E03CE0A1
:10128000FFF73AFC04463BE04746C8F86000FFF72A
:1012900033FC064605E000BFFFF72EFC801B02284A
:1012A0002BD828688001F7D4D4E907010843A16A44
:1012B0002E4A490802EB0141626A41EA8211084361
:1012C00094F82C1040EA0161C9F80010012038663A
:1012D000FFF712FC044606E03EE000BFFFF70CFCFF
:1012E000001B022809D828688001F7D534E000BF28
:1012F000FFF702FC001B022802D90320BDE8F88F8B
:1013000028688001F4D427E00128F7D0D9F800003C
:10131000E26900F4800191421CD1226A00F03F0191
:10132000914217D147F6C071626A0140B1EB821F4A
:1013300010D1A26A4FF0FF3300F4403103EB5202A8
:10134000B1EB024F06D194F82C1000F07060B0EBB6
:10135000016F01D00120D1E70020CFE7043802401F
:1013600000004742800E4742007000400000FFFF2F
:1013700010B5401EB0F1807F01D3012010BD4FF0A9
:10138000E02460610F21601701F03CFC0020A061A7
:1013900007202061002010BD7047704770B590F89D
:1013A0003C20012A32D0012480F83C40022280F8FF
:1013B0003D2003685A689D6822F070060A6832432F
:1013C0005A60134B02689A4214D0B2F1804F11D088
:1013D000104B9A420ED0104B9A420BD00F4B9A42B0
:1013E00008D00F4B9A4205D00E4B9A4202D00E4BBA
:1013F0009A4204D1496825F080031943916080F82E
:101400003D40002180F83C10084670BD022070BDB0
:10141000000001400004004000080040000C0040B3
:1014200000040140004001400018004010B50400D5
:1014300003D094F83D0010B107E0012010BD00205A
:1014400084F83C00204600F01FF8022084F83D009C
:10145000211D206801F002F9012084F8460084F87B
:101460003E0084F83F0084F8400084F8410084F88E
:10147000420084F8430084F8440084F8450084F86E
:101480003D00002010BD000008B500680B498842EF
:1014900012D10B48016841F48031016000680022DC
:1014A00000F48030009005211820FFF78FFCBDE884
:1014B00008401820FFF77CBC08BD00000040014038
:1014C0004438024090F83D10012901D001207047B6
:1014D000022180F83D100168CA6842F00102CA602A
:1014E00000681149884214D0B0F1804F11D00F49E3
:1014F00088420ED00E4988420BD00E49884208D04F
:101500000D49884205D00D49884202D00C498842D5
:1015100004D1816801F00701062903D0016841F078
:1015200001010160002070470000014000040040FC
:1015300000080040000C0040000401400040014051
:101540000018004070B5044690F83C0000250128C2
:1015500017D0012684F83C60022084F83D00206802
:10156000826822F0770222F47F4282600868502865
:1015700038D00DDC20284FD005DC90B3102811D1D5
:101580004AE0022070BD302846D040280AD13BE016
:1015900060282FD070280DD0B0F5805F03D0B0F553
:1015A000005F12D0012584F83D60002084F83C00E3
:1015B000284670BDCB68D1E90121206801F0BFF851
:1015C0002068816841F0770109E0CB68D1E9012109
:1015D000206801F0B4F82068816841F4804181609E
:1015E000E1E719E0CA684968206801F07DF95021F7
:1015F000206806E0CA684968206801F086F9602121
:10160000206801F0A6F8CEE7CA684968206801F0B2
:101610006BF940212068F4E7226801461046F0E7A4
:101620002DE9F0410D46040003D094F83D0018B1B7
:1016300008E00120BDE8F081002084F83C0020464D
:1016400000F040F8022084F83D002068816844F2F0
:10165000070291438160211D206800F0FFFF22688E
:1016600090689169166A2B68AF69034340F20330B2
:10167000814341EA0721A868EF6908434FF6FC411E
:101680008843E96840EA0720014328692F6A00017E
:1016900040EA0730084369686D6926F0AA0646EA01
:1016A0000515294393602268906154F8460B016246
:1016B000012004F81F09E0752076E0762077A075F8
:1016C0000020B7E730B587B0044614216846FEF71E
:1016D00021FE2F4824682D4D00212D4A1438022365
:1016E000AC422AD1146844F001041460126802F07C
:1016F00001020592026842F010020260006800F0E8
:10170000100005904FF420600090CDE901310120D8
:10171000CDE9031069461F48FFF7E8F800220521CC
:101720001820FFF753FB1820FFF742FB002205218A
:101730001920FFF74BFB192023E0174DAC4222D1B3
:10174000146844F002041460126802F00202059268
:10175000026842F004020260006800F00400059094
:10176000C0200090CDE901310320CDE90310694686
:101770000A48FFF7BBF8002205212C20FFF726FBC3
:101780002C20FFF715FB07B030BD00000000014022
:1017900044380240001002400004014000080240AA
:1017A000704770B50446006801694FF00005C943F1
:1017B000890715D4C168C943890711D4E91E01619D
:1017C00001202077206880698007204602D0FFF73B
:1017D000E7FF04E000F0D4F8204600F077F9257721
:1017E00020680169C943490717D4C168C94349073B
:1017F00013D46FF004010161022020772068806912
:1018000010F4407F204602D0FFF7CAFF04E000F04A
:10181000B7F8204600F05AF9257720680169C943D6
:10182000090716D4C168C943090712D46FF008012B
:101830000161042020772068C0698007204602D01B
:10184000FFF7AEFF04E000F09BF8204600F03EF901
:10185000257720680169C943C90617D4C168C943FF
:10186000C90613D46FF010010161082020772068A9
:10187000C06910F4407F204602D0FFF791FF04E0DA
:1018800000F07EF8204600F021F9257720680169F4
:10189000C943C90708D1C168C943C90704D1891E12
:1018A0000161204600F078F920680169C943090602
:1018B00009D4C168C943090605D46FF080010161EC
:1018C0002046FFF769FD20680169C943490609D42C
:1018D000C168C943490605D46FF040010161204643
:1018E00000F08EF920680169C94389060BD4C168EC
:1018F000C943890607D46FF0200101612046BDE885
:101900007040FFF74ABD70BD70B586B00446142123
:101910006846FEF7FFFC2068B0F1804F27D11548DC
:101920000024016841F001010160016801F001013A
:101930000591016841F0020101600068022500F094
:101940000200059020200090CDE901540126CDE948
:10195000034669460848FEF7C9FF08200090CDE914
:101960000154CDE9034669460448FEF7BFFF06B0BF
:1019700070BD000030380240000002400004024008
:10198000704770B5044690F83C0000260D460128CB
:101990000FD0012084F83C006AB1042A1DD0082A27
:1019A0002FD00C2A3FD00126002084F83C0030467E
:1019B00070BD022070BD206800F0D4FE20688169EF
:1019C00041F0080181612068816921F00401816191
:1019D000206881692A69114311E0206800F0F2FE55
:1019E0002068816941F4006181612068816921F486
:1019F00080618161206881692A6941EA02218161EF
:101A0000D2E7206800F014FF2068C16941F00801A6
:101A1000C1612068C16921F00401C1612068C16908
:101A20002A69114311E0206800F036FF2068C1697F
:101A300041F40061C1612068C16921F48061C16124
:101A40002068C1692A6941EA0221C161ACE710B589
:101A5000040003D094F83D0010B107E0012010BD50
:101A6000002084F83C00204600F01EF8022084F894
:101A70003D00211D206800F0F1FD012084F84600A2
:101A800084F83E0084F83F0084F8400084F8410068
:101A900084F8420084F8430084F8440084F8450048
:101AA00084F83D00002010BD08B50068B0F1804FFB
:101AB00008D10548016841F001010160006800F0AB
:101AC0000100009008BD000040380240704700004F
:101AD00010B50446022249B104290ED0082913D0BA
:101AE00094F84100012816D0012010BD94F83E0062
:101AF0000128F9D184F83E200FE094F83F00012836
:101B0000F2D184F83F2008E094F840000128EBD19E
:101B100084F8402001E084F841200122206800F090
:101B200001FE16492068164A884201D0904203D12E
:101B3000436C43F4004343642068884213D0B0F1FF
:101B4000804F10D00F4988420DD00F4988420AD0EB
:101B50000E49884207D0904205D00D49884202D0F4
:101B60000C49884204D1816801F00701062903D09D
:101B7000016841F001010160002010BD000001403A
:101B8000000401400004004000080040000C004038
:101B9000004001400018004010B515490446006897
:101BA0000968884206D1134802F01AFB11485830E0
:101BB00002F016FB104822680E490068824207D1E5
:101BC0000068C006088801D5401E00E0401C08805F
:101BD0000A4822680068824208D10068C00631F8CD
:101BE000580F01D5401E00E0401C088010BD0000C9
:101BF000E80100207402002010010020A001002054
:101C00007047704770470000F8B5016804460868DF
:101C1000CA684B6910F00F0F4FF0000559D003F060
:101C2000010602F49077374365D0C10705D0D1058E
:101C300003D5216C41F001012164410705D5D90785
:101C400003D0216C41F002012164810705D5D90739
:101C500003D0216C41F004012164010707D502F093
:101C60002001314303D0216C41F008012164216C33
:101C700000293AD0800604D5900602D5204600F00F
:101C80008CFE20684069216CC0F38010090700D4E5
:101C900060B3204600F05AFE20684069400621D516
:101CA0002068143050E8001F21F0400140E8001285
:101CB000002AF5D1A06BA8B16C490165A06BFEF7B5
:101CC00003FE002811D0A06B016D01B0BDE8F0400B
:101CD000084783060FD593060DD52046BDE8F8408A
:101CE00000F05BBE2046FFF78DFFF8BD2046FFF7F2
:101CF00089FF2564F8BD266B2023012E79D1C60605
:101D000077D5D60675D508684868009048694006BA
:101D100040D5A16B086840680004000CEAD0A28D91
:101D20008242E7D9E085C869B0F5807F2DD0206870
:101D30000C3050E8001F21F4807140E80012002AA6
:101D4000F5D12068143050E8001F21F0010140E86F
:101D50000012002AF5D12068143050E8001F21F04D
:101D6000400140E80012002AF5D184F83E30256396
:101D700020680C3050E8001F21F0100140E80012EC
:101D8000002AF5D1A06BFEF756FDA08DE18D401A1B
:101D900081B229E0A08DE18D401A81B2E08D00284A
:101DA000A8D00029A6D020680C3050E8002F22F4DB
:101DB000907240E80026002EF5D12068143050E8DB
:101DC000002F22F0010240E80026002EF5D184F811
:101DD0003E30256320680C3050E8002F22F01002BE
:101DE00040E80023002BF5D12046FFF70AFFF8BD9D
:101DF000FFE705062BD5150629D594F83D002128C7
:101E0000F5D1A068B0F5805F01D12069B0B1206A3A
:101E1000411C2162216800784860E08C401E00046B
:101E2000000CE084E3D12068C16821F08001C1602A
:101E30002068C16841F04001C160D8E7206A00888D
:101E4000C0F308004860206A801C2062E5E7400675
:101E5000CDD55006CBD5CA68204622F04002CA60D4
:101E600084F83D3000F0CDF8C1E700003D290008BE
:101E700070B5040004D094F83D00002510B106E0D0
:101E8000012070BD84F83C50204600F023F8242047
:101E900084F83D002068C16821F40051C1602046EB
:101EA00000F0DCFD2068016921F4904101612068A7
:101EB000416921F02A0141612068C16841F4005163
:101EC000C1602564202084F83D0084F83E00002095
:101ED00070BD000010B586B0044614216846FEF7B8
:101EE00019FA17492068884227D11648002102684C
:101EF00042F400220260006800F4002005901148BE
:101F00001038026842F0010202600068022200F00C
:101F1000010005900320CDE90210CDE90002082060
:101F2000049069460848FEF7E1FC002205213420B0
:101F3000FEF74CFF3420FEF73BFF06B010BD00005B
:101F4000004C004040380240000002407047000052
:101F50002DE9F843044690F83D001F4616460D460D
:101F600020284CD1C5B1BEB194F83C00012846D020
:101F7000012084F83C004FF00008C4F84080212084
:101F800084F83D00FEF7B8FDA6848146E684A0688B
:101F9000B0F5805F03D004E00120BDE8F88320693C
:101FA00028B12E465FF0000584F83C800EE0002644
:101FB000FAE78021204600F0D7FDA0B9AEB116F8AF
:101FC000010B21684860E08C401EE084E08C4B46A9
:101FD0004FF0000200970028EBD14FF0400120465F
:101FE00000F0C2FD30B10320D7E735F8020BC0F393
:101FF0000800E6E7202084F83D000020CDE702201D
:10200000CBE77047FEE7000010B50B4A00210B48F4
:1020100001F052FC0A4C084A002120602432094891
:1020200001F04AFC044A606048320021064801F091
:1020300043FCA06010BD000020500008632500088C
:102040000000002071350008F9340008F0B587B0B1
:1020500014216846FEF75EF929480024016841F022
:1020600080010160016801F080010591016841F083
:1020700001010160016801F001010591016841F071
:1020800020010160016801F020010591016841F023
:1020900010010160016801F010010591016841F033
:1020A00004010160016801F004010591016841F03B
:1020B000020101600068134E00F002004FF4784501
:1020C0000590002229463046FEF710FD0E4F0022F3
:1020D00001213846FEF70AFD00950125CDE901549E
:1020E000694630460394FEF701FC0095CDE90154A2
:1020F000694638460394FEF7F9FB07B0F0BD0000CF
:102100003038024000140240001002400D4810B563
:102110000B4901600C49416000214FF4804281600D
:10212000C0E9031241618161C1610162FEF7EAFC0D
:10213000002803D0BDE81040FEF77BBB10BD0000B7
:1021400000540040BC000020A086010010B58CB0F7
:1021500024216846FEF7DEF8002416480994144945
:102160000A94C0E900144FF6FF71C0E9024104610E
:10217000446184610320CDE900040120CDE902041B
:102180000494CDE90540079469460A480894FFF78E
:1021900047FA08B1FEF74DFB099409A905480A94CE
:1021A000FFF7FCF8002801D0FEF743FB0CB010BD90
:1021B000000001401001002010B58AB000240794EF
:1021C0001C2168460894FEF7A5F81A484FF0804194
:1021D00001605321C0E901144FF47A71C0E903147E
:1021E0008461FFF734FC08B1FEF723FB079407A9CD
:1021F00010480894FFF7D2F808B1FEF71AFB6020E8
:10220000CDE900040294002269460A480494FFF7CD
:10221000B8FB08B1FEF70DFB042269460548FFF73D
:10222000B0FB08B1FEF705FB0248FFF76DFB0AB0F3
:1022300010BD00005801002010B58CB02421684664
:10224000FEF768F800241648099414490A94C0E976
:1022500000144FF6FF71C0E90241046144618461DA
:102260000320CDE900040120CDE902040494CDE966
:102270000540079469460A480894FFF7D1F908B168
:10228000FEF7D7FA099409A905480A94FFF786F8DA
:10229000002801D0FEF7CDFA0CB010BD00040140BB
:1022A000A00100201FB5002110480091019102916A
:1022B0000D4A03910260A722C0E9012142F2107287
:1022C000C0E903218161FFF7B1F808B1FEF7B1FA67
:1022D0004FF48050009069460448FFF733F9002816
:1022E00001D0FEF7A6FA1FBD00400140E801002022
:1022F0000C4810B50A4901604FF4E13141600021FA
:1023000081600C22C160C0E904128161C161FFF7E4
:10231000AFFD002803D0BDE81040FEF78ABA10BD1B
:10232000004C004030020020FEE7FEE7A0B1D0EDF7
:10233000101AC0ED111A90ED0F1A80ED101AC0EDB1
:10234000060A80ED070A30EEC00A80ED0F0A017818
:1023500029B101293BD078E09FED3D0A7047D0EDCF
:10236000010A60EE801AC0ED091AD0ED0A0A90ED5C
:10237000022A42EE000A30EE410AC0ED0A0A90ED50
:102380000D2A80ED0E2A90ED0C2A80ED0D2A80EDAD
:102390000C0A90ED031A21EE001A80ED0B1A90ED55
:1023A000050AF4EEC00AF1EE10FA09DCB1EE400ABB
:1023B000F4EEC00AF1EE10FA02D390ED0A0A01E041
:1023C00080ED0A0A31EE800A30EE010A2BE070EE51
:1023D000410A90ED012A20EE822A80ED092AD0EDF3
:1023E000020A60EE800AC0ED0A0AD0ED0D2A72EEF4
:1023F000200AC0ED0E2AD0ED0C2AC0ED0D2AF0EE19
:10240000002A01EE620A30EE210A80ED0C0A90EDFE
:10241000031A21EE000A80ED0B0A30EE800AD0ED9F
:10242000080A30EE200A80ED080AD0ED040AB4EE66
:10243000E00AF1EE10FA06DCF1EE600AB4EEE00A12
:10244000F1EE10FA01D2C0ED080A90ED080A7047CB
:10245000000000002DE9F041134E00242DED028B09
:1024600006F190079FED118ADFED118A04EBC40598
:1024700006EBC500F0EE480AB0EE680A0D4A0021EE
:1024800000F01AF80B4A07EBC500F0EE480AB0EE70
:10249000680A0C3A002100F00FF8641C022CE5DBFE
:1024A000BDEC028BBDE8F081240300200000AD43A9
:1024B00000007A4428000020002828D0002A26D0D6
:1024C000017092ED001A80ED011A92ED011A80ED73
:1024D000021A92ED021A80ED031A80ED040A9FEDB4
:1024E0000C0AC0ED050A80ED0E0A80ED0D0A80EDA4
:1024F0000C0A80ED080A80ED0B0A80ED0A0A80EDD7
:10250000090A80ED110A80ED100A80ED0F0A70476C
:102510000000000000EB40010C4A01EBC00110B5C7
:1025200002EBC10151ED140A00EBC0010848B8EEFE
:10253000E01A00EBC104F0EE400AA4F14800B0EE4E
:10254000410AFFF7F3FE14ED0A0A10BD74020020E1
:10255000B40300200169496A0088C0EB00400844C8
:102560007047012001F06CF9FBE710B5FEF7C2FBE4
:1025700002F0A0FB012803D0BDE8104002F0CEB865
:1025800010BD000030B593B030216846FDF7C2FEA3
:1025900014210CA8FDF7BEFE1D480025016841F07E
:1025A00080510160006800F0805011901948016866
:1025B00041F4804101600068022400F480401190E1
:1025C00001200090000401908001CDE9064008AA96
:1025D0000420A82182E813000B906846FEF712FD44
:1025E00008B172B6FEE70CA90F2081E831004FF464
:1025F000A0500F904FF48050109005210CA8FEF7CA
:1026000017FC002801D072B6FEE713B030BD000001
:1026100040380240007000400248016841F47001F7
:102620000160704788ED00E010B50448FFF7B9F885
:10263000BDE810400248FFF7B4B8000010010020C8
:10264000E80100200148FFF7ACB8000010010020AD
:102650000148FFF7A6B80000A0010020F0B502680D
:10266000254C264D264E274F274B4FF0804CA0423D
:1026700009D0604507D0A84205D0B04203D0B84287
:1026800001D0984204D122F0700E4A6842EA0E024C
:10269000A0421BD0604519D0A84217D0B04215D037
:1026A000B84213D0984211D0184DA8420ED0184D00
:1026B000A8420BD0174DA84208D0174DA84205D00C
:1026C000164DA84202D0164DA84203D122F44075FF
:1026D000CA682A434D6922F080022A4302608A6850
:1026E000C2620A688262A04201D0984201D109699F
:1026F000016301214161F0BD000001400004004080
:1027000000080040000C004000040140004001406F
:10271000004401400048014000180040001C0040F7
:102720000020004010B501F01F030121046A994008
:102730008C430462016A9A401143016210BD10B5D6
:10274000846842EA032224F47F440A4322438260DD
:1027500010BD826822F070020A4342F007018160D6
:1027600070470000F0B5026A22F001020262036ABB
:1027700042688469124E24F073050C682C4323F0E0
:1027800002058B682B430D4DA84201D0B04205D104
:1027900023F00807CB683B4323F00403A84201D091
:1027A000B04205D14D6922F4407215438A692A432B
:1027B00042608461496841630362F0BD00000140EA
:1027C00000040140F0B5026A22F010020262026ABF
:1027D000436884690D6824F4E64444EA05248D685E
:1027E00022F0200242EA05120F4D104EA84201D0FD
:1027F000B04206D1CF6822F0800242EA071222F0EE
:102800004002A84201D0B04207D14D6923F4406391
:1028100043EA85038D6943EA85034360846149681F
:1028200081630262F0BD000000000140000401402D
:10283000F0B5026A22F480720262026A4368C469D7
:1028400022F4007224F073050C68124E2C438D683C
:1028500042EA05220E4DA84201D0B04206D1CF680F
:1028600022F4006242EA072222F48062A84201D0E8
:10287000B04207D14D6923F4405343EA05138D69F3
:1028800043EA05134360C4614968C1630262F0BD55
:10289000000001400004014030B5026A22F4805279
:1028A0000262046A4268C3690D6823F4E64343EA9E
:1028B00005238D6824F4005444EA0534084DA842E9
:1028C00002D0084DA84204D14D6922F4804242EA68
:1028D00085124260C36149680164046230BD000032
:1028E000000001400004014010B5036A046A24F0AE
:1028F00001040462846924F0F00444EA021423F021
:102900000A020A438461026210BD10B5036A23F013
:10291000100303628369046A23F4704343EA0232BA
:1029200024F0A00343EA01118261016210BD00009E
:102930000148FFF769B900003002002010B5806B34
:102940000021C185C184FFF75DF910BD01680C311C
:1029500051E8002F22F4907241E80023002BF5D1BA
:102960000168143151E8002F22F0010241E80023F0
:10297000002BF5D1016B012909D101680C3151E817
:10298000002F22F0100241E80023002BF5D1202176
:1029900080F83E1000210163704708B590F83E10A2
:1029A000222901D0022008BD82684FF480539A4248
:1029B00001D1016921B1816A9A421BD04AB10AE072
:1029C0000268816A5268C2F308020A80816A891C1F
:1029D00008E0026972B10268526802F07F020A7070
:1029E000816A491C8162C18D491E0904090CC18597
:1029F00003D019E002685268F1E70168CA6822F062
:102A00002002CA600168CA6822F48072CA60016844
:102A10004A6922F001024A61202180F83E10016BD0
:102A2000012903D0FFF792FA002008BD00210163BD
:102A300001680C3151E8002F22F0100241E8002318
:102A4000002BF5D101680A68D20602D50A684968E8
:102A50000091818DFFF7D5F8E6E7000070B50446D8
:102A600000680169E26821F4405111430161216964
:102A7000A068E26908436169114308432168CA6894
:102A800049F20C639A430243CA6020684169A26913
:102A900021F440711143416131492068884202D0DC
:102AA0003049884202D1FEF76DFA01E0FEF75AFA8A
:102AB000E2690023192164253226B2F5004F6268CD
:102AC00028D0A0FB0101930F9200FDF7D9FB01462E
:102AD000B0FBF5F06FF01802504301EB800006EBFD
:102AE0000010B0FBF5F000F0F002B1FBF5F002EBE6
:102AF0000012B1FBF5F06FF01803584301EB8000B2
:102B000006EB0010B0FBF5F000F00F002168104458
:102B1000886070BDA0FB010192185B41FDF7B0FB1E
:102B20000146B0FBF5F00201B1FBF5F06FF01803C0
:102B3000584301EB800006EBC000B0FBF5F000F05D
:102B4000F80002EB4002B1FBF5F0584301EB8000C6
:102B500006EBC000B0FBF5F000F00700D6E7000080
:102B600000100140001401402DE9F041984617463D
:102B70000E460446069D27E0681C25D02DB1FDF7C2
:102B8000BBFFA0EB0800A8421ED920680C3050E81B
:102B9000001F21F4D07140E80012002AF5D120680E
:102BA000143050E8001F21F0010140E80012002A13
:102BB000F5D1202084F83D0084F83E00002084F800
:102BC0003C000320BDE8F0812068006836EA000080
:102BD00004D00020B842CFD00020F3E70120F9E76D
:102BE000FEE700000FB4054B10B503A9044A029894
:102BF00000F0EAF810BC5DF814FB0000593500083D
:102C0000B80000200907090E002804DB00F1E020CD
:102C100080F80014704700F00F0000F1E02080F809
:102C2000141D704702E008C8121F08C1002AFAD11B
:102C300070477047002001E001C1121F002AFBD13C
:102C4000704700002DE9FF5F82B00021DDE904300C
:102C5000020DDDF840B0034318D044F61050A2F244
:102C6000FF3242431514119801281FD0A5EB0B0029
:102C7000401C5FEA000A4FF000064E4FDFF8389123
:102C8000B046504615D5CAF1000413E0119801244E
:102C90004AA3012801D16FEA0B010298119AC0E9F9
:102CA0000031C0E9024206B0BDE8F09FCBF1000060
:102CB000DFE704460021404A491842EB0450CDE9C1
:102CC000001012E0E00707D032463B464046494636
:102CD000FDF71AFC8046894632463B4610461946A7
:102CE000FDF712FC06460F466410002CEAD1DDE920
:102CF0000401DDE90023BAF1000F06DAFDF704FC58
:102D000042464B46FDF700FC05E0FDF76FFC4246EE
:102D10004B46FDF76BFC04460E460022284BFDF7A0
:102D2000EDFC03D84FF0FF30014607E00022254BB1
:102D300020463146FDF741FBFDF7C7FC102409E0B2
:102D4000002C0ADB0A220023FDF79AFA039B30329B
:102D50001A55641E50EA0102F2D1641C039AC4F1B0
:102D600011031444119A012A03D0012208430DD102
:102D70000AE0084304D000204FF0110B119072E7D5
:102D8000A3EB0B056D1E0DE05B4504DD4FF000026B
:102D900005F1010504E003DA4FF00002A5F1010599
:102DA000002AECD002981199C0E90231C0E900452F
:102DB00079E70000000014400000F03F3000000000
:102DC0000000F0430000E03F2DE9FF4F95B09B4627
:102DD0008946064600250FE2252877D1002427469C
:102DE000F84A0121059400E0044316F8013F203B16
:102DF00001FA03F01042F7D130782A2811D06FF091
:102E00002F033078A0F13002092A16D8059A44F031
:102E1000020402EB820203EB42021044761C05908E
:102E2000EFE759F8042B0592002A03DA504244F4E4
:102E30000054059044F00204761C30782E2816D1F8
:102E400016F8010F44F004042A280DD06FF02F0269
:102E50003078A0F13003092B09D807EB870302EB88
:102E60004303C718761CF3E759F8047B761C3078C7
:102E70006C280FD006DC4C2817D068280DD06A28A3
:102E800014D104E0742810D07A280FD10DE044F456
:102E900000140AE044F4801401E044F44014727811
:102EA000824202D104F58014761C761C30786628A4
:102EB0000BD013DC582877D009DC002875D04528C2
:102EC000F6D04628F4D047281AD19DE118E06328AF
:102ED00035D0642879D0652812D195E1702873D057
:102EE00008DC6728F1D069286FD06E280DD06F28D4
:102EF00006D1B5E073282CD0752875D0782874D009
:102F00005A46179990476D1C75E1C4F30250022888
:102F100009D003280DD0D9F8001004280DD00D6079
:102F200009F1040967E1D9F80010EA17C1E9005274
:102F3000F6E7D9F800100D80F2E70D70F0E719F808
:102F4000041B8DF8001000208DF80100EA460120D6
:102F500003E059F804AB4FF0FF3061074FF0000178
:102F600002D40DE008F101018846B9420FDA80452C
:102F7000F8DB1AF808100029F4D108E008F1010183
:102F800088468142FADB1AF808100029F6D1059824
:102F90005B46A0EB080721463846179A00F094FAE2
:102FA000284400EB080507E04DE029E10DE01AF8A0
:102FB000010B5A4617999047B8F10108F7D25B46C2
:102FC00021463846179A13E142E00A220092C4F3E0
:102FD00002524FF0000A022A08D059F804CB032A03
:102FE0004FEAEC710AD00DE029E02AE009F107016F
:102FF00021F00702F2E802C1914609E00FFA8CFCC9
:103000004FEAEC71042A03D14FFA8CFC4FEAEC71C1
:10301000002907DA0A460021DCF1000C61EB02010D
:103020002D2202E0220504D52B228DF80420012256
:1030300003E0E20701D02022F7E7904659E00A2199
:1030400002E010220DE010214FF0000A00910BE089
:1030500010224FF0000A44F004040827009203E015
:1030600008224FF0000A0092C4F30252022A05D04F
:1030700059F804CB0021032A08D009E009F107011F
:1030800021F00702F2E802C1914605E01FFA8CFC2C
:10309000042A01D10CF0FF0C4FF00008220728D5BC
:1030A000702806D0009B83F0100353EA0A0305D072
:1030B0000EE040228DF80420012208E05CEA0102C3
:1030C00006D030228DF804208DF8050002229046AB
:1030D000009B83F0080353EA0A030AD15CEA010269
:1030E00001D1620705D530228DF804204FF0010888
:1030F0007F1E582804D034A003900EA802900DE043
:1031000036A0F9E753466046009AFDF7B9F88446C1
:103110000398825C0298401E029002705CEA0100F3
:10312000F0D1029806A9081A00F1200A600702D51A
:1031300024F4803400E00127574502DDA7EB0A00A4
:1031400000E0002000EB0A01009005984144401A7D
:103150000590E00306D45B462146179A059800F0D7
:10316000B3F90544002706E001A85A46C05D179947
:1031700090476D1C7F1C4745F6DBE0030CD55B4692
:103180002146179A059800F09FF9054404E0302085
:103190005A46179990476D1C0099481E00900029C7
:1031A000F5DC08E0029802995A460078491C029121
:1031B000179990476D1CBAF10001AAF1010AF1DCE0
:1031C00065E10000092801003031323334353637EB
:1031D0003839616263646566000000003031323363
:1031E0003435363738394142434445460000000003
:1031F00000F058F90544761C307800287FF4ECADD7
:1032000019B02846BDE8F08F620700D4062709F1FF
:10321000070222F0070CFCE80223E14603F0004815
:103220005FEA080C02D00FF2702C0DE05FEA045C3C
:1032300002D50FF2682C07E05FEAC47C02D00FF2DF
:10324000602C01E0AFF2700C4FF0FF3823F0004328
:10325000CDF850C065280CD006DC452809D046289A
:103260001DD047283DD13DE0662818D067287ED183
:1032700038E00021112F01DB112000E0781CCDE99E
:10328000000106A90EA8FFF7DDFCDDE90F010E9A8B
:1032900003910021009207F1010A04914DE04FF0E3
:1032A00000400097CDE9011006A90EA8FFF7CAFC5F
:1032B000DDE90F0203920E9B11990022DDF80CA0AC
:1032C0000093049211B9791C00EB010AB7EB0A00D4
:1032D00004D4C0F1FF3007F1010A0490AAEB070003
:1032E000019044E0012F00DA01270021112F01DDB8
:1032F000112000E03846CDE9000106A90EA8FFF72D
:10330000A1FCDDE90F010E9A0391002104910092C6
:10331000BA4621070CD40399514500DA8A46BAF11E
:10332000010F05DD009AAAF10101515C302908D096
:10333000B84202DA10F1040F06DA0121CDE90110DA
:1033400015E0AAF10101E9E7002805DC0499014430
:103350000491AAEB000102E0411C514500DD8A46C0
:103360000499401A401C01904FF000400290200741
:1033700004D40198504501DBCDF8048000208DF87D
:103380004F0002980DF14F07B0F1004F25D02B20D0
:103390000E9002984FF0020800280CDA404202908A
:1033A0002D200E9007E00A210298FCF7D1FF303162
:1033B000029007F8011DB8F10001A8F10108F2DC44
:1033C00002980028EFD1791E0E980870307800F02E
:1033D000200040F0450007F8020D12A8C01B00F1C4
:1033E00007081498007800B1012000EB0A01019849
:1033F00001EBE07105984144401A401E0590E0033E
:1034000006D45B462146179A059800F05DF80544FE
:103410001498007818B15A46179990476D1CE0032C
:1034200024D55B462146179A059800F04DF80544CF
:103430001CE00498002807DBDDE90301884203DD76
:103440000098405C179901E0179930205A46904740
:10345000049805F10105401C04900198401E01905C
:1034600004D12E205A46179990476D1CBAF10001DD
:10347000AAF1010ADDDC05E017F8010B5A4617999D
:1034800090476D1CB8F10001A8F10108F4DC5B461F
:103490002146179A0598ABE62D0000002B0000008E
:1034A000200000002DE9F041044600251E46174685
:1034B000880404D405E039462020B0476D1C641E02
:1034C000F9D52846BDE8F0812DE9F04104460025F4
:1034D0001E469046C80301D5302700E02027880407
:1034E00004D505E041463846B0476D1C641EF9D549
:1034F0002846BDE8F08100001CB5114C114D124E5C
:103500004FF4FA7794ED000A0220B8EEC00AFFF7F4
:1035100001F8BDEEC00A10EE100A01B2384600F004
:1035200007F9A86EFCF701FFCDE90001316E07A095
:103530002268FFF757FB012000F082F9E2E7000064
:10354000B4000020B40300207402002025642C2560
:10355000642C25660A00000013B54FF47A7301222B
:1035600069460248FEF7F4FC00981CBD30020020BA
:103570000A4CDFF82C80002640F6B83541F6583763
:10358000012140462660FDF7A9FA284600F058F9C7
:103590002846276000F054F9F2E70000B40000204C
:1035A00000100240A2B0FDF7ADFBFEF7EBFFFEF707
:1035B0004DFDFEF7ABFDFEF79BFEFEF7FDFDFEF7B2
:1035C000C5FDFEF739FEFEF76DFE00F027F900F0AD
:1035D000FBF83A48FDF776FF3948FDF773FF3948A5
:1035E000FDF770FF3D2236490FA8FCF77AFE3448FC
:1035F00010F83D1F8DF8791041788DF87A10817898
:103600008DF87B10C1788DF87C1001798DF87D10D4
:1036100041798DF87E1081798DF87F10C1798DF810
:103620008010017A8DF88110407A8DF882003C225A
:1036300012A96846FCF755FE0DF13C0C22489CE8A7
:103640000E0000F043F83D221C490FA8FCF749FE8C
:103650001A4810F83D1F8DF8791041788DF87A10CE
:1036600081788DF87B10C1788DF87C1001798DF808
:103670007D1041798DF87E1081798DF87F10C179A8
:103680008DF88010017A8DF88110407A8DF88200D3
:103690003C2212A96846FCF724FE0DF13C0C0A48B6
:1036A0009CE80E00583000F011F8FEF7D3FE00F051
:1036B000D5F8FEF7A9FC00F0E3F8FEE7A001002032
:1036C00010010020E8010020740200200FB43D2208
:1036D00010B5044600206080E0602080A080A060DB
:1036E00003A904F11000FCF7FCFD9DF8490004F863
:1036F0004D0F9DF84A0060709DF84B00A0709DF83A
:103700004C00E0709DF84D0020719DF84E006071F6
:103710009DF84F00A0719DF85000E0719DF8510098
:1037200020729DF85200607210BC5DF814FB00001E
:103730002DE9F047224C234F0D4606004FF4006858
:103740004FF480594FF000020BD441462046FDF75C
:10375000CDF9012249462046FDF7C8F9386846638D
:103760000BE049462046FDF7C1F9012241462046BB
:10377000FDF7BCF93968704248634FF480464FF456
:103780000058002D4FF000020CDB31462046FDF7BB
:10379000ADF9012241462046FDF7A8F93868856356
:1037A000BDE8F08741462046FDF7A0F901223146E9
:1037B0002046FDF79BF9396868428863F0E700000E
:1037C000001402405801002010B5124C00224FF4A2
:1037D00080512046FDF78AF90022E1142046FDF7CA
:1037E00085F900224FF480412046FDF77FF9002241
:1037F0004FF400512046FDF779F90122D10320460C
:10380000FDF774F90022BDE8104001210248FDF7E0
:103810006DB90000001402400010024010B50021F4
:103820000648FEF755F904210448FEF751F903480C
:103830000021026851630068816310BD58010020B7
:1038400010B5EFF3058111B16FF0050403E000241A
:1038500008B100F003FE204610BD0000EFF3058024
:1038600010B16FF0050070470448016811B14FF0C6
:10387000FF30704701210160002070478400002064
:1038800010B5EFF3058010B16FF0050010BD0848CA
:103890000168012902D04FF0FF3010BD054A002118
:1038A00082F8141D0221016000F040FE002010BDCE
:1038B000840000200BE000E02DE9FF414FEA010306
:1038C0004FF00005EFF30581039549BB40B3802716
:1038D000182100244AB3166806B1344696691EB111
:1038E0003146761E382E02D21679F60703D0002014
:1038F00004B0BDE8F081566906B1B708D2F808C037
:10390000BCF1000F0DD0D5685C2D18D312693AB107
:1039100036B18DE806103A46214601F0A0F9039031
:103920000DE0D6685EB912694AB903AACDE9001262
:10393000BAB2214601F066F9012800D00395039838
:10394000D6E700002DE9F041134C0F460546E66826
:103950002068001D00F04EFC681C07D137B12168BB
:10396000BDE8F0410D48091D00F094BC20683544C5
:10397000B5424560216805D2A06BBDE8F041091D44
:1039800000F070BC606B091D00F06CFCA06A854201
:1039900000D2A562BDE8F081340000203409002087
:1039A0002DE9F041054600F081FC2D4CA068401C3B
:1039B000A06020682B4F10B1606930B32BE0256008
:1039C000A068012827D1002606EB860007EB8000BF
:1039D00000F03AFC761C382EF6D3234800F034FC75
:1039E0002148143000F030FC1F48283000F02CFC37
:1039F0001D483C3000F028FC1B48503000F024FCEF
:103A0000194860631430A06305E02068E96AC06A61
:103A1000884200D82560606A401C60626864E86A79
:103A20002169884200D9206100EB800007EB80000B
:103A3000291D00F02FFC00F059FC606900280CD013
:103A40002068E96AC06A884207D208494FF080506E
:103A50000860BFF34F8FBFF36F8FBDE8F0810000A8
:103A60003400002084040020E408002004ED00E07D
:103A700038B500F01BFC104C2068C8B90F4800F0A6
:103A8000E3FB0E48143000F0DFFB0C48E06014301C
:103A900020610A4B0020F03B009003F150021021FE
:103AA0000A2000F051FE206010B105A100F0A0FC3A
:103AB000BDE8384000F01ABC70000020380A002031
:103AC000546D72510000000030B4026C0B46002AA5
:103AD0000BD0C1681144C1608468A14201D3016860
:103AE000C16030BC1846FCF7FCBB30BC70472DE908
:103AF000F041856B174604460026026C82B1C7B1BF
:103B0000E068FCF7EEFBE168206C091AE1602268CE
:103B1000914202D2A168081AE060022F16D017E085
:103B20002068A8B9A06801F03DF906460020A06011
:103B30000EE06068FCF7D5FB216C606808446060AB
:103B4000A168884204D32068606001E005B16D1E61
:103B50006D1CA5633046BDE8F08110B5044690F8B1
:103B6000590058B101280CD002280FD0502080F302
:103B70001188BFF34F8FBFF36F8FFEE7206B00F00C
:103B8000C9FB2046BDE8104000F0C4BB10BD0000DA
:103B900010484FF47051420706D0C01D0D4920F067
:103BA0000700411AC1F570510B4A00230144C2E9D4
:103BB00000030839183A21F0070111604B600B60CF
:103BC0000B1AC0E9001393604FF00040536050613E
:103BD0007047000018110020A0000020144E154C62
:103BE000A6F29C474FF08058DFF84C9012E000BFDF
:103BF00000F05CFBF068C568281D00F0FBFAA068C7
:103C0000401EA0606068401E606000F06FFB2846A8
:103C1000FFF7A3FF60680028EAD138680128F9D9C6
:103C2000C9F80080BFF34F8FBFF36F8FF2E700003A
:103C3000200900203400002004ED00E070B51D468E
:103C4000049C51B1C4F80020C4E90F0101212046B1
:103C500000F0AEFD84F84C5070BD2460F4E7000025
:103C60002DE9F05F8846DDE90B9415468346910007
:103C70009A460A9EA522206BFCF745FB6FF00301D4
:103C8000206B01EB8501084420F00707780707D077
:103C9000502080F31188BFF34F8FBFF36F8FFEE783
:103CA0000025B8F1000F0FD05FF00000221818F8BF
:103CB000001082F8341018F8001011B1401C1028C0
:103CC000F4D384F8435001E084F83450382E00D304
:103CD0003726E662C4E91365201D00F0C0FA04F13E
:103CE000180000F0BCFA2461C6F138006462A061DB
:103CF000656584F8585052465946384600F05AFADD
:103D00002060B9F1000F01D0C9F80040BDE8F09F74
:103D100030B5114900E011460A688242FBD34B6876
:103D20005C18844203D140681844486008464368E0
:103D30001C18944209D1084C183C2468A24209D0AE
:103D400052681A4442600A6812680260814200D0D8
:103D5000086030BD0460F9E7A000002070B50024C1
:103D600041600B4D0061914206D8D11A826991429F
:103D700006D2011D286907E09A4203D2994201D375
:103D8000012403E0011DE86800F06CFA204670BDD4
:103D90007000002010B5044600F088FAA06B28B12E
:103DA0005FF0000400F0A2FA204610BD0124F9E7FC
:103DB00030B589B03C4D6EE00498002806DADDE9A4
:103DC0000601059A90470498002864DB069C606908
:103DD00010B1201D00F00EFA03A800F0D7F802463B
:103DE00004980A2857D2DFE800F00505052D334A6C
:103DF00005052D3394F8280040F0010084F82800D0
:103E00000599A069059B01442046FFF7A7FF68B309
:103E1000216A2046884794F8280040073BD50020B7
:103E200000900598A169002342181946204601F028
:103E3000C3F8D8B9502080F31188BFF34F8FBFF378
:103E40006F8FFEE714F8280F20F00100207022E0A9
:103E500094F8280040F0010084F828000598A0613B
:103E600028B1811813462046FFF778FF13E0502051
:103E700080F31188BFF34F8FBFF36F8FFEE794F885
:103E80002800810703D4204600F044FA03E020F024
:103E9000010084F82800002204A9286800F0DCFD55
:103EA000002889D109B030BD700000202DE9FC4107
:103EB0000F46054600F07EFB01A800F067F80446B7
:103EC000019818B100F0E6FFBDE8FC81254EAFB1C6
:103ED00030690068D0B30027291B3A46306800F0EB
:103EE0009BFA00F0D7FF0028EED11F494FF0805019
:103EF0000860BFF34F8FBFF36F8FE5E7A542EBD8A4
:103F000000F0C8FFF0682746C068C468201D00F0B4
:103F100071F994F82800410719D5A0692B46411979
:103F20003A462046FFF71AFFA8B100200346014693
:103F300000902A46204601F03FF860B9502080F3F7
:103F40001188BFF34F8FBFF36F8FFEE707E020F0BC
:103F5000010084F82800216A20468847B4E7012739
:103F6000BAE700007000002004ED00E00648416B55
:103F7000096829B1416BC968C9684968816270479D
:103F80004FF0FF31FAE700003400002070B505461D
:103F900000F09EFE064E0446B068844203D200F054
:103FA00009F8012000E0002028602046B46070BDC0
:103FB00070000020F8B5194D20E0C068C46806689C
:103FC000201D00F017F9216A2046884794F8280040
:103FD000400713D5A0693044B04206D9246160601F
:103FE000211DE86800F03EF908E000200346014684
:103FF00000903246204600F0DFFF38B1E8680168E3
:104000000029DAD12969C5E90310F8BD502080F3F1
:104010001188BFF34F8FBFF36F8FFEE77000002052
:1040200008484068401C4FF0500080F3118804D0CD
:10403000BFF34F8FBFF36F8FFEE7BFF34F8FBFF319
:104040006F8FFEE7A8000020074CE068016841B1CF
:10405000C0680021D0F80000FFF728FFFFF7A8FE96
:10406000F3E701210020F7E7700000202DE9F0417F
:10407000044600F01BF994F9455004F1240609E0C8
:10408000606A48B1304600F0CDFE08B100F014FA85
:104090006D1E6DB2002DF3DC4FF0FF3684F84560E5
:1040A00000F024F900F002F994F9445004F11007EB
:1040B00009E0206948B1384600F0B4FE08B100F0CC
:1040C000FBF96D1E6DB2002DF3DC84F84460BDE891
:1040D000F04100F00BB900002DE9F0410546002742
:1040E00000F068FA324E306808B9FFF751FD706988
:1040F00005424ED1C5B3083568070ED005F007005C
:10410000C0F108000544680707D0502080F31188EB
:10411000BFF34F8FBFF36F8FFEE72DB370688542FB
:1041200037D82348183001460C6801E020460C4679
:104130006168A94202D221680029F7D131688C4216
:1041400027D007682168016060680837411B102983
:104150000FD96019420708D0502080F31188BFF3AF
:104160004F8FBFF36F8FFEE713E041606560FFF78D
:10417000CFFD61687068401A7060B268904200D2EA
:10418000B060706901430020C4E90001F068401C80
:10419000F06000F07FFE780707D0502080F3118890
:1041A000BFF34F8FBFF36F8FFEE73846BDE8F08156
:1041B0008800002010B5031F4FF080741C601B1F87
:1041C00021F001011960191F044B0B6014390A60BA
:1041D000091F6FF0020244380A6010BD2140000838
:1041E00000B50246FEF7B6F990609189411A5180F8
:1041F000D06000BDD0E9013201699A60D0E90123A5
:104200005A604A68824201D182684A600022026193
:104210000868401E0860086870470000034B036090
:1042200003F15C000860802010607047600A002085
:10423000044B036003F15C0008604FF48070106071
:1042400070470000BC0C002000F108014FF0FF3265
:10425000C0E90112C16001610021016070470021C5
:104260000161704730B50B685A1C02D000F108029A
:1042700002E0026904E02246546825689D42FAD9AA
:1042800053684B6099608A60516008610168491CFD
:10429000016030BD42684A6093688B6093685960E2
:1042A000916008610168491C01607047502080F3EB
:1042B0001188BFF34F8FBFF36F8F0A494868401CC6
:1042C000486001280CD10848006810F0FF0F07D0A3
:1042D000502080F31188BFF34F8FBFF36F8FFEE73D
:1042E00070470000A800002004ED00E0084948687D
:1042F00028B1401E486001D180F3118870475020DA
:1043000080F31188BFF34F8FBFF36F8FFEE700007C
:10431000A800002070B500282AD0164DA0F108048E
:1043200060686969084207D1502080F31188BFF3A3
:104330004F8FBFF36F8FFEE722683AB1502080F3B2
:104340001188BFF34F8FBFF36F8FFEE78843606024
:1043500000F030F960686968084468602046FFF73B
:10436000D7FC2869401C2861BDE8704000F092BD70
:1043700070BD0000880000204FF0E02000210161A6
:10438000816105494FF47A720968B1FBF2F1491E67
:1043900041610721016170471800002010B5FBF74B
:1043A00059FF114910280ED300F1E02090F8F003D6
:1043B0000A78904207D2502080F31188BFF34F8FC4
:1043C000BFF36F8FFEE709480068896800F4E0607A
:1043D000884207D9502080F31188BFF34F8FBFF375
:1043E0006F8FFEE710BD0000A80000200CED00E07C
:1043F00010B5084B002200BF53F832401CB1521CCC
:10440000082AF9D310BD43F8321003EBC20148600B
:1044100010BD00004404002070B515460E46044649
:10442000FFF744FF94F944100020491C01D184F89F
:10443000440094F94510491C01D184F84500FFF768
:1044400055FFA06B28B92A46314604F1240000F03C
:1044500051F82046BDE87040FFF708BE10B50200D5
:1044600014D00F48006B38B1502080F31188BFF38F
:104470004F8FBFF36F8FFEE700F09CF800211046CE
:10448000FFF760FA00F006FD002807D105494FF05C
:1044900080500860BFF34F8FBFF36F8F10BD0000D7
:1044A0003400002004ED00E002490A6A0260C96895
:1044B000416070473400002001490120C861704705
:1044C0003400002010B50C4650B109490968183174
:1044D000FFF7C8FE2046BDE810400121FFF732BAC1
:1044E000502080F31188BFF34F8FBFF36F8FFEE72B
:1044F0003400002070B514460D4668B10A490968B9
:104500001831FFF7C7FE0CB14FF0FF3521462846A2
:10451000BDE87040FFF716BA502080F31188BFF352
:104520004F8FBFF36F8FFEE73400002030B587B0A8
:104530000024039405AA04A903A80494FFF76EFEBF
:10454000DDE903010094CDE90110002315A117480E
:10455000059A00F084FB164D0028E8621FD000F099
:10456000FBFC012809D0401C19D1502080F3118890
:10457000BFF34F8FBFF36F8FFEE7502080F311889A
:10458000BFF34F8FBFF36F8F4FF0FF30A862012052
:104590006861EC6007B0BDE8304000F045B807B096
:1045A00030BD000049444C4500000000DD3B0008E0
:1045B000340000200248016B491C01637047000071
:1045C00034000020164810B5016B11B10121C16102
:1045D00010BD0021C1610169124A01E0B9B1491E53
:1045E00001EB810352F82330002BF7D001EB81035C
:1045F00002EB830202F1080453685B685360A34234
:1046000001D15B685360DA680260016110BD50201F
:1046100080F31188BFF34F8FBFF36F8FFEE7000069
:1046200034000020840400201CB537480168374A54
:10463000914207D1502080F31188BFF34F8FBFF311
:104640006F8FFEE700683149491E884207D150202C
:1046500080F31188BFF34F8FBFF36F8FFEE72C49B4
:1046600008780190FF20087008788DF800009DF808
:1046700000009DF8002000F0F000904207D050208C
:1046800080F31188BFF34F8FBFF36F8FFEE79DF864
:104690000000204C00F0500020700720A06005E0D2
:1046A0009DF8002052008DF80020401E9DF800204B
:1046B0001206F5D4A060032807D0502080F311889B
:1046C000BFF34F8FBFF36F8FFEE74FF44070A060D2
:1046D000019808700C482030016841F470010160B5
:1046E000016841F070410160FFF746FE0020606004
:1046F000FBF778FD0848016841F040410160FBF795
:104700005DFD00201CBD000000ED00E071C20F4106
:1047100000E400E0A800002034EF00E010B55020D5
:1047200080F31188BFF34F8FBFF36F8F00F0D6FA7D
:1047300018B104494FF080500860002080F31188C0
:1047400010BD000004ED00E038B5049D18B153B170
:10475000CAB181B120E0502080F31188BFF34F8FA0
:10476000BFF36F8FFEE7502080F31188BFF34F8FA8
:10477000BFF36F8FFEE7502080F31188BFF34F8F98
:10478000BFF36F8FFEE739B1502080F31188BFF37C
:104790004F8FBFF36F8FFEE750241C46012384F830
:1047A00046302B460094FFF749FA204638BD0000FA
:1047B00070B50D46040025D0FFF778FDD4E90F2031
:1047C000216802FB0011A1600021A16321686160E2
:1047D0000A46D4E90F01401E00FB0121E160214699
:1047E0004FF0FF3001F8440F487004F110008DB114
:1047F000FFF72AFD04F12400FFF726FDFFF776FD01
:10480000012070BD502080F31188BFF34F8FBFF39C
:104810006F8FFEE721690029F0D000F003FB00282C
:10482000ECD004494FF080500860BFF34F8FBFF3C6
:104830006F8FE3E704ED00E02DE9FF4782B01D46EE
:104840008A464FF00008040003D0BAF1000F08D0E8
:1048500011E0502080F31188BFF34F8FBFF36F8FAB
:10486000FEE7206C38B1502080F31188BFF34F8FE2
:10487000BFF36F8FFEE7022D0AD1E06B012807D04E
:10488000502080F31188BFF34F8FBFF36F8FFEE787
:1048900000F010FA3F4F4FF000094FF0805648B932
:1048A000049838B1502080F31188BFF34F8FBFF3C5
:1048B0006F8FFEE7FFF7FAFCA06BE16B884207D32E
:1048C000022D05D00498D0B1B8F1000F1AD01EE027
:1048D0002A4651462046FFF70AF9616A19B104F1E8
:1048E000240000F09FFA20B13E60BFF34F8FBFF36A
:1048F0006F8FFFF7FBFC012006B0BDE8F087FFF7E4
:10490000F5FC22E06846FFF7CFFD4FF00108FFF706
:10491000EDFCFFF74FFEFFF7C9FC94F94400401C83
:1049200001D184F8449094F94500401C01D184F8E9
:104930004590FFF7DBFC04A9684600F029F930B187
:104940002046FFF793FB00F0A5FA0020D4E7FFF71D
:10495000ADFCA06BE16B884213D1FFF7C7FC04F1FB
:1049600010000499FFF7AEFD2046FFF77FFB00F033
:1049700091FA00289ED13E60BFF34F8FBFF36F8F37
:1049800098E7FFF7B3FC2046FFF770FB00F082FAD0
:1049900090E7000004ED00E02DE9F0471F46904647
:1049A0008946040003D0B9F1000F08D011E050206F
:1049B00080F31188BFF34F8FBFF36F8FFEE7206C3A
:1049C00038B1502080F31188BFF34F8FBFF36F8F42
:1049D000FEE7022F0AD1E06B012807D0502080F3B8
:1049E0001188BFF34F8FBFF36F8FFEE7FFF7D6FC41
:1049F0005020EFF3118680F31188BFF34F8FBFF380
:104A00006F8FA06BE16B884206D3022F04D0002089
:104A100086F31188BDE8F08794F94550A06B3A46BB
:104A200049462046FFF763F8681C04D06D1C84F8E3
:104A300045500120ECE7606A0028FAD004F1240018
:104A400000F0F0F90028F4D0B8F1000FF1D0012106
:104A5000C8F80010EDE700002DE9F747002683B005
:104A60008A46040003D0BAF1000F08D011E05020AC
:104A700080F31188BFF34F8FBFF36F8FFEE7206C79
:104A800038B1502080F31188BFF34F8FBFF36F8F81
:104A9000FEE700F00FF9DFF8F4804FF000094FF067
:104AA000805748B9059838B1502080F31188BFF37A
:104AB0004F8FBFF36F8FFEE7FFF7F8FBA56BC5B114
:104AC00051462046FFF700F86D1EA563206950B1DE
:104AD00004F1100000F0A6F928B1C8F80070BFF387
:104AE0004F8FBFF36F8FFFF701FC012006B0BDE8C9
:104AF000F087059808B11EB106E0FFF7F7FB27E045
:104B00006846FFF7D1FC0126FFF7F0FBFFF752FDE7
:104B1000FFF7CCFB94F94400401C01D184F8449089
:104B200094F94500401C01D184F84590FFF7DEFB65
:104B300005A9684600F02CF8002820460AD0FFF7A7
:104B400095FA00F0A7F92046FFF724F90028B3D022
:104B50000020CBE7FFF71EF990B104F1240005997E
:104B6000FFF7B0FC2046FFF781FA00F093F9002828
:104B7000A2D1C8F80070BFF34F8FBFF36F8F9BE7D0
:104B80002046FFF773FA00F085F995E704ED00E0A1
:104B90002DE9F0410C46050011D0C4B1FFF786FBAA
:104BA000174BDA686E682068911B471C17D02F6876
:104BB0001B6A9F4219D0964217D8012410E050205A
:104BC00080F31188BFF34F8FBFF36F8FFEE7502044
:104BD00080F31188BFF34F8FBFF36F8FFEE7002480
:104BE000FFF784FB2046BDE8F081884205D9401AD2
:104BF00020602846FFF758FCF1E700202060DCE742
:104C0000340000202DE9FF5F8346DDE90E879946D9
:104C100016468A469000FFF75FFA05001CD05C201C
:104C2000FFF75AFA040014D00020256384F85900D5
:104C3000CDE90240CDE900874B4632465146584601
:104C4000FFF70EF82046FEF7ABFE012004B0BDE8EA
:104C5000F09F2846FFF75EFB4FF0FF30F6E7F0B518
:104C600085B0DDE90B640A9DA6B1DCB15C27009735
:104C70002663022684F85960002604AFCDE9024677
:104C8000CDE90057FEF7ECFF2046FEF789FE0498B9
:104C900005B0F0BD502080F31188BFF34F8FBFF3F4
:104CA0006F8FFEE7502080F31188BFF34F8FBFF363
:104CB0006F8FFEE70548416919B1006B18B10020FC
:104CC0007047012070470220704700003400002028
:104CD0000148C06870470000340000202DE9F04111
:104CE0002E4C0027206B28B1A069401CA0613846DB
:104CF000BDE8F081E668761CE66013D1606B006861
:104D000038B1502080F31188BFF34F8FBFF36F8FFE
:104D1000FEE7606BA16B6163A063206A401C2062A8
:104D2000FFF724F9A06ADFF87880864209D3606B28
:104D30000068A0B1606BC068C5686868864211D21F
:104D4000A0622068C06A00EB800158F821000128A9
:104D500000D90127E0690028C9D00127C7E74FF033
:104D6000FF30EDE7281DFFF745FAA86A18B105F1F5
:104D70001800FFF73FFAE86A2169884200D92061EC
:104D800000EB800108EB8100291DFFF783FAE86A38
:104D90002168C96A8842CAD30127C8E734000020C5
:104DA0008404002070B504004FF0000133D01B4D87
:104DB0002868844207D0502080F31188BFF34F8FBA
:104DC000BFF36F8FFEE7206D38B1401E2065E36CA6
:104DD000E26A9A421FD040B11DE0502080F3118852
:104DE000BFF34F8FBFF36F8FFEE7201DFFF702FA6F
:104DF000E06CE062C0F13800A061E06A2969884295
:104E000000D92861064900EB800001EB8000211DDC
:104E1000FFF740FA0121084670BD00003400002071
:104E20008404002070B5C068C46854B104F118004F
:104E30000646FFF7DFF9144D286B50B13146134891
:104E400015E0502080F31188BFF34F8FBFF36F8FB1
:104E5000FEE7201DFFF7CEF9E06A2969884200D9F4
:104E600028610B4900EB800001EB8000211DFFF75A
:104E700011FAE06A2968C96A884202D90120E8610A
:104E800070BD002070BD0000340000200C0900201F
:104E9000840400202DE9F0472C4D00242746286B80
:104EA00038B1FFF703FA286B401E2863286B40B126
:104EB00046E0502080F31188BFF34F8FBFF36F8F10
:104EC000FEE7A968224E0120D1B3A6F5916980467C
:104ED0003068E0B1F068C46804F11800FFF78AF99F
:104EE000201DFFF787F9E06A2969884200D9286107
:104EF00000EB800109EB8100211DFFF7CBF9E06A8F
:104F00002968C96A8842E3D3C5F81C80E0E70CB180
:104F1000FFF72CF8AC694CB14FEA0806FFF7DEFE4C
:104F200000B1EE61641EF9D10020A861E86938B1D2
:104F30000849012738070860BFF34F8FBFF36F8F11
:104F4000FFF7D4F93846BDE8F087000034000020B0
:104F50000C09002004ED00E010B586B0FEF788FDD6
:104F6000114C2068B8B100200390049005AA04A950
:104F700003A8FFF75DF9DDE9032102208DE80700B2
:104F800000230AA10B48059AFFF769FE606010B183
:104F900006B0012010BD502080F31188BFF34F8F61
:104FA000BFF36F8FFEE7000070000020546D722089
:104FB00053766300494000082DE9FF411E46134621
:104FC00002000A9D4FF0000016D0144C2768002FF5
:104FD0000FD0CDE900130292062917DAFFF76AFE17
:104FE00002284FF000030FD0002269462068FFF727
:104FF00023FC04B0BDE8F081502080F31188BFF39A
:105000004F8FBFF36F8FFEE72A46EEE7002332464D
:1050100069463846FFF7C0FCEBE70000700000204F
:10502000C050000800000000000000000000000068
:105030000000000000020000180000000000000056
:1050400000000000B4500008000000000000000054
:105050000000000000000000000200000800000046
:105060000000000000000000A45000080000000044
:10507000000000000000000000000000000200002E
:105080000800000000000000000000000000000018
:1050900000000000010203040607080900000000E8
:1050A00001020304636861737369735F4D6F766512
:1050B000000000006C65645F626C696E6B0000004C
:1050C00064656661756C745461736B00EC50000824
:1050D00000000020BC000000242C0008A85100089B
:1050E000BC0000205C500000342C000800000000D0
:1050F000000000000000000001000000100000009F
:10510000000000000024F4000000A04000000000A7
:10511000000000000000AA421F85EB3E0000004195
:10512000000000000000000000000000000000007F
:10513000000000000000000000000000000000006F
:10514000000000000000000000000000000000005F
:10515000000000000000000000000000000000004F
:10516000000000000000000000000000000000003F
:10517000000000000000000000000000000000002F
:10518000000000000000000000000000000000001F
:105190000000000000000000AAAAAAAA0000000067
:0851A000000000000000000007
:040000050800018965
:00000001FF
