:020000040800F2
:10000000F85600205D020008E3230008E11D000807
:10001000E1230008B9030008032D000800000000D8
:100020000000000000000000000000009D0100082A
:10003000BB03000800000000F901000827260008A3
:1000400077020008770200087702000877020008AC
:10005000770200087702000877020008770200089C
:10006000770200087702000877020008770200088C
:10007000770200087702000877020008770200087C
:10008000770200087702000877020008770200086C
:10009000770200087702000877020008770200085C
:1000A000E52600080127000877020008770200080B
:1000B000770200087702000877020008770200083C
:1000C000770200087702000877020008770200082C
:1000D000770200087702000877020008770200081C
:1000E000770200087702000877020008770200080C
:1000F0000D27000877020008770200087702000841
:1001000077020008770200087702000877020008EB
:10011000ED290008F9290008770200087702000895
:1001200077020008770200087702000877020008CB
:1001300077020008770200087702000877020008BB
:1001400077020008770200087702000877020008AB
:10015000770200087702000877020008770200089B
:10016000770200087702000877020008770200088B
:1001700077020008770200087702000800000000FC
:100180007702000877020008DFF80CD000F002F9CF
:1001900000480047D12F0008F85600202C4B196862
:1001A0000868B0E8F04F80F30988BFF36F8F4FF015
:1001B000000080F3118870470000000008480068C4
:1001C000006880F308884FF0000080F3148862B65E
:1001D00061B6BFF34F8FBFF36F8F00DF00BF00BF6B
:1001E00008ED00E0DFF80C00016841F470010160E7
:1001F000704700BF88ED00E0EFF30980BFF36F8F19
:10020000134B1A681EF0100F08BF20ED108A20E96A
:10021000F04F106009B44FF0500080F31188BFF325
:100220004F8FBFF36F8F04F047FE4FF0000080F355
:10023000118809BC19680868B0E8F04F1EF0100F6B
:1002400008BFB0EC108A80F30988BFF36F8F704746
:1002500048000020EFF30580704700000648804703
:1002600006480047FEE7FEE7FEE7FEE7FEE7FEE79B
:10027000FEE7FEE7FEE7FEE7D52600088901000855
:100280002DE9F05F0546002092469B4688460646CB
:10029000814640241BE0284641464746224600F05E
:1002A00069F853465A46C01A914110D31146184670
:1002B000224600F050F82D1A67EB01084F462246FF
:1002C0000120002100F047F817EB00094E41201EE5
:1002D000A4F10104DFDC484631462A464346BDE826
:1002E000F09F40EA01039B0703D009E008C9121FF1
:1002F00008C0042AFAD203E011F8013B00F8013BE0
:10030000521EF9D27047D2B201E000F8012B491E0B
:10031000FBD270470022F6E710B513460A460446A2
:100320001946FFF7F0FF204610BD30B50B460146D9
:1003300000202022012409E021FA02F59D4205D384
:1003400003FA02F5491B04FA02F52844151EA2F12E
:100350000102F1DC30BD202A04DB203A00FA02F170
:10036000002070479140C2F1200320FA03F31943A3
:1003700090407047202A04DB203A21FA02F0002145
:10038000704721FA02F3D040C2F1200291400843A5
:1003900019467047064C074D06E0E06840F001033F
:1003A00094E8070098471034AC42F6D3FFF7F0FE0C
:1003B000845F0008A45F0008FEE7704772B6FEE79E
:1003C0002DE9F0410446876D00F06EF9064694F879
:1003D00035000025022806D08020606584F834505E
:1003E0000120BDE8F0812068016821F0160101605C
:1003F0002068416921F080014161206C08B9A06C3E
:1004000020B12068016821F00801016020680168BE
:1004100021F0010101600CE000F046F9801B052885
:1004200007D920206065032084F8350084F8345013
:10043000D7E720680068C007EED194F85C103F2031
:100440008840B860012084F8350084F834500020DA
:10045000C7E790F83510022903D0802141650120BB
:100460007047052180F835100068016821F001010E
:10047000016000207047000070B5044600F014F9D8
:100480000546601C02D004480078044400F00CF9D2
:10049000401BA042FAD370BD140000202DE9F84F94
:1004A000DFF8BCA10022012503264FF00F090AF155
:1004B000040BAAF1040E00BF0B6805FA02F42340F6
:1004C000A34270D10F7907F00307012F01D0022F4B
:1004D00016D187684FEA420806FA08FC27EA0C079B
:1004E000D1F80CC00CFA08FC4CEA070CC0F808C0A4
:1004F0004768A7430C79C4F3001494403C4344601C
:100500000C79E443A4070AD0C4684FEA420C06FA07
:100510000CF7BC438F6807FA0CF72743C7600C79C8
:1005200004F00304022C12D1D40800EB840CDCF894
:1005300020405707FF0E09FA07F824EA0804D1F80B
:10054000108008FA07F848EA0408CCF8208004680C
:100550004FEA420C06FA0CF7BC430F7907F0030789
:1005600007FA0CF7274307604C6814F4403F70D03B
:100570003C4C276847F480472760246822F0030733
:1005800004F480440094384C07EB040CDCF8084871
:1005900097074FEA177809FA08F7BC43334FB84278
:1005A00002D1002724E054E0314FB84201D10127A5
:1005B0001EE0304FB84201D1022719E02E4FB84259
:1005C00001D1032714E02D4FB84201D104270FE0D9
:1005D0002B4FB84201D105270AE02A4FB84201D17A
:1005E000062705E0284FB84201D1072700E0082779
:1005F00007FA08F72743CCF80878DAF8004057469E
:10060000D1F804C09C435FEACC2C00D51C433C606D
:10061000DBF800405F46D1F804C09C435FEA8C2CB5
:1006200000D51C433C60DEF800407746D1F804C09A
:100630009C435FEA8C3C00D51C433C60084F083F5C
:100640003C68D1F804C09C435FEACC3C00D51C4315
:100650003C60521C102AFFF42FAFBDE8F88F000059
:10066000083C014044380240003001400000024094
:100670000004024000080240000C0240001002404A
:100680000014024000180240001C0240426921EAA6
:1006900002030A4043EA0241816170470AB1816165
:1006A00070470904FBE700000148806870470000BC
:1006B0001400002070B5040025D094F83D000025FA
:1006C00020B984F83C50204600F04EF9242084F8EC
:1006D0003D002068016821F0010101602068016887
:1006E00041F4004101602068016821F4004101608B
:1006F00000F0A6FA4D4A6168914201D84C4900E0E9
:100700004C49884201D2012070BD4B492368B0FB9F
:10071000F1F15E6826F03F060E435E606368934227
:1007200006D94FF4967359434FF47A73B1FBF3F142
:100730002368491C1E6A26F03F063143196261682E
:10074000914210D84900401EB0FBF1F2521CC2F396
:100750000B02042A01D2042022E0B0FBF1F0401C7D
:10076000C0F30B001CE0A268F2B301EBC10303EB82
:100770000116431EB3FBF6F35B1C43F480431B05D9
:1007800049D092B301EBC10202EB0111401EB0FB54
:10079000F1F0401CC0F30B0040F4804040F40040F6
:1007A0002168CA694CF6FF739A431043C861D4E9C3
:1007B000071001432068026822F0C0021143016063
:1007C000D4E9030101432068826848F2FF339A4369
:1007D00011438160D4E9050108432168CA6822F009
:1007E000FF021043C86001E00EE016E020680168D7
:1007F00041F0010101602564202084F83D0025635B
:1008000084F83E50002070BD01EB4106431EB3FB4F
:10081000F6F35B1CB3E70120C2E701EB4101401E88
:10082000B0FBF1F0401CC0F30B00B7E7A08601005D
:1008300080841E0000093D0040420F002DE9F84F62
:100840001F4690468A460446DDF82890FFF72CFFA5
:10085000054694F83D0020287FD119230122404904
:100860002046009501F048FB002876D194F83C0022
:10087000012872D0012084F83C0020680168C90773
:1008800003D1016841F0010101602068016821F491
:1008900000610160212084F83D00102084F83E00B2
:1008A00000262664C4F824806785608D20852D4845
:1008B000E0622B464A465146204601F0A9FA90B91B
:1008C000206841698069009036E02A464946204602
:1008D00001F091FB50B1206C042804D1206801681C
:1008E00041F4007101600120BDE8F88F606A216861
:1008F00000780861606A401C6062618D491E6185F4
:10090000218D491E89B2218522685369DB435B072B
:100910000BD451B100781061606A401C6062608D38
:10092000401E6085208D401E20852A46494620466F
:1009300001F0BCFA0028CED1208D0028C5D154F892
:100940003D0B016841F400710160202004F81E098C
:10095000E67766770020C7E7FFE70220C4E70000DC
:10096000020010000000FFFF10B586B004461421FD
:100970006846FFF7CFFC13492068884220D112480F
:100980000021026842F002020260006800F00200EA
:100990000590C02000901220CDE9010103200390B2
:1009A0000420049069460948FFF778FD0648103096
:1009B000016841F400110160006800F40010059026
:1009C00006B010BD00540040303802400004024020
:1009D0000248816802781144816070471400002049
:1009E0000B4810B5016841F400710160016841F4E1
:1009F00080610160016841F480710160032000F0B2
:100A000073F80F2000F006F800F024F8002010BD65
:100A1000003C024070B50D4D04464FF47A712878C1
:100A2000B1FBF0F00A490968B1FBF0F000F00EFBF1
:100A300048B9102C07D200222146501E00F034F88D
:100A400000206C6070BD012070BD0000140000200B
:100A5000200000200C4882B0016841F48041016010
:100A6000006800F4804000900748001F016841F0D2
:100A7000805101600068002200F0805000900F213A
:100A8000901E02B000F010B844380240002809DB84
:100A900000F01F02012191404009800000F1E02098
:100AA000C0F8001170470000F0B40E4B1B680C46F4
:100AB000C3F30223C3F10705042D00D90425191D32
:100AC000072901D2002300E0DB1E012606FA05F10A
:100AD000491E214099409E40761E16403143F0BC8D
:100AE00002F034B90CED00E0064900F00702086896
:100AF0004FF6FF03184040EA0220034A1043086003
:100B0000704700000CED00E00000FA052DE9F04709
:100B10000E46050065D0DFF81481D8F80000F7B262
:100B200000F00700B04207D288F80070D8F8000043
:100B300000F00700B04254D128683D4C810712D51F
:100B4000400703D5206840F4E05020602878000773
:100B500003D5206840F4604020602068A96820F038
:100B6000F000084320602878C0072DD0304968681D
:100B70000839012812D0022813D0032811D009689F
:100B8000890700292DDA216821F003010143216042
:100B9000FFF78AFD814641F2883A0EE00968890331
:100BA000EFE709688901ECE7FFF77EFDA0EB09019B
:100BB000514502D90320BDE8F0872068696800F03C
:100BC0000C00B0EB810FEFD1D8F80010404601F0D7
:100BD0000701B14207D90770006800F00700B04272
:100BE00001D00120E7E72878400705D52068E968AB
:100BF00020F4E050084320602878000706D52068DC
:100C0000296920F4604040EAC100206000F038F813
:100C10002168084AC1F30311515CC84006490860C5
:100C200006480068FFF7F6FE0020C4E7003C0240DB
:100C300008380240C8590008200000201800002091
:100C40000448054900680968044AC1F38221515CDF
:100C5000C84070472000002008380240D8590008DA
:100C60000448054900680968044AC1F34231515CEF
:100C7000C84070472000002008380240D8590008BA
:100C8000154810B5006810F00C02144813D041103C
:100C9000042A0FD0082A0ED10F4C241F2268236883
:100CA00002F03F025B0207D52068C0F38810A0FB6A
:100CB000010106E0084610BD2168C1F38811A1FBBF
:100CC00000010023FFF7DCFA2168C1F30141491C50
:100CD0004900B0FBF1F010BD083802400024F400D8
:100CE0002DE9F84F04006ED02078DFF84C93C00750
:100CF000A9F104054AD009F104000168C1F381019A
:100D0000012908D00068C0F3810002280AD1D9F86F
:100D10000000400206D52868800337D560680028A7
:100D2000E1D033E06068B0F5803F10D0B0F5A02F7F
:100D3000286810D020F480302860286820F48020B3
:100D400028606068A8B1FFF7AFFC06460DE0286890
:100D500040F48030F4E740F480202860F7E700BFDB
:100D6000FFF7A2FC801B642873D828688003F7D59E
:100D70000CE0FFF799FC064605E000BFFFF794FC86
:100D8000801B6428F0D828688003F7D42078DFF827
:100D9000AC8280074FF0000A3ED5A748001D0168CD
:100DA00011F00C0F08D00068C0F3810002280BD1AD
:100DB000D9F80000400207D42868800716D5E068FB
:100DC000012800D112E033E1E068B8B10120C8F891
:100DD0000000FFF769FC064605E000BFFFF764FC72
:100DE000801B0228C0D828688007F7D528682169A9
:100DF00020F0F80040EAC10028600DE0C8F800A02B
:100E0000FFF752FC064604E0FFF74EFC801B022869
:100E10001FD828688007F7D42078000722D5864F8E
:100E200087486169703771B101210160FFF73CFCAF
:100E3000064604E0FFF738FC801B022809D8386812
:100E40008007F7D50EE0C0F800A0FFF72DFC06469E
:100E500005E082E0FFF728FC801B02287DD8386877
:100E60008007F7D42078400768D5DFF8CCB1002799
:100E70000BF13C0BDBF80000C0000BD4DBF80010DA
:100E800041F08051CBF80010DBF80000012700F0A2
:100E9000805000906B4E3068C00510D4306840F42C
:100EA00080703060FFF700FC009005E0FFF7FCFB6E
:100EB0000099401A022850D83068C005F6D55E4E19
:100EC000A0686C3601280FD00528306810D020F0BB
:100ED00001003060306820F004003060A068B8B1D4
:100EE000FFF7E2FB00900FE0306840F00100F4E70C
:100EF00040F004003060F7E7FFF7D6FB0099411A95
:100F000041F28830814266D830688007F4D50EE01F
:100F1000FFF7CAFB009007E0FFF7C6FB0099411AF4
:100F200041F28830814256D830688007F4D42FB11E
:100F3000DBF8001021F08051CBF80010A069C8B395
:100F40003D49091D0968C1F3810102294AD00228DF
:100F5000504607D0C8F8600000E03CE0FFF7A4FB73
:100F600004463BE04746C8F86000FFF79DFB064695
:100F700005E000BFFFF798FB801B02282BD82868EC
:100F80008001F7D4D4E907010843A16A2E4A490831
:100F900002EB0141626A41EA8211084394F82C1085
:100FA00040EA0161C9F8001001203866FFF77CFBB8
:100FB000044606E03EE000BFFFF776FB001B022878
:100FC00009D828688001F7D534E000BFFFF76CFB33
:100FD000001B022802D90320BDE8F88F2868800191
:100FE000F4D427E00128F7D0D9F80000E26900F432
:100FF000800191421CD1226A00F03F01914217D139
:1010000047F6C071626A0140B1EB821F10D1A26A3B
:101010004FF0FF3300F4403103EB5202B1EB024FCB
:1010200006D194F82C1000F07060B0EB016F01D085
:101030000120D1E70020CFE70438024000004742FA
:10104000800E4742007000400000FFFF10B5401EB8
:10105000B0F1807F01D3012010BD4FF0E02460612A
:101060000F21601701F072FE0020A06107202061AF
:10107000002010BD7047704770B590F83C20012AE1
:1010800032D0012480F83C40022280F83D200368E1
:101090005A689D6822F070060A6832435A60134B02
:1010A00002689A4214D0B2F1804F11D0104B9A428C
:1010B0000ED0104B9A420BD00F4B9A4208D00F4BD8
:1010C0009A4205D00E4B9A4202D00E4B9A4204D15E
:1010D000496825F080031943916080F83D40002164
:1010E00080F83C10084670BD022070BD0000014031
:1010F0000004004000080040000C004000040140D3
:10110000004001400018004010B5040003D094F8DE
:101110003D0010B107E0012010BD002084F83C0024
:10112000204600F01FF8022084F83D00211D2068B1
:1011300001F0F2FA012084F8460084F83E0084F8B9
:101140003F0084F8400084F8410084F8420084F8AD
:10115000430084F8440084F8450084F83D000020F2
:1011600010BD000008B500680B49884212D10B4839
:10117000016841F4803101600068002200F4803091
:10118000009005211820FFF78FFCBDE808401820CB
:10119000FFF77CBC08BD000000400140443802401D
:1011A00090F83D10012901D001207047022180F8FC
:1011B0003D100168CA6842F00102CA600068114926
:1011C000884214D0B0F1804F11D00F4988420ED020
:1011D0000E4988420BD00E49884208D00D498842FA
:1011E00005D00D49884202D00C49884204D181685B
:1011F00001F00701062903D0016841F001010160F7
:10120000002070470000014000040040000800403A
:10121000000C004000040140004001400018004064
:1012200070B5044690F83C000025012817D001262F
:1012300084F83C60022084F83D002068826822F037
:10124000770222F47F4282600868502838D00DDC93
:1012500020284FD005DC90B3102811D14AE002209D
:1012600070BD302846D040280AD13BE060282FD0FE
:1012700070280DD0B0F5805F03D0B0F5005F12D0BC
:10128000012584F83D60002084F83C00284670BDAC
:10129000CB68D1E90121206801F0AFFA20688168AC
:1012A00041F0770109E0CB68D1E90121206801F024
:1012B000A4FA2068816841F480418160E1E719E087
:1012C000CA684968206801F06DFB5021206806E07B
:1012D000CA684968206801F076FB6021206801F047
:1012E00096FACEE7CA684968206801F05BFB4021A6
:1012F0002068F4E7226801461046F0E72DE9F04146
:101300000D46040003D094F83D0018B108E0012018
:10131000BDE8F081002084F83C00204600F040F851
:10132000022084F83D002068816844F2070291435E
:101330008160211D206801F0EFF9226890689169B1
:10134000166A2B68AF69034340F20330814341EAD8
:101350000721A868EF6908434FF6FC418843E96814
:1013600040EA0720014328692F6A000140EA07305C
:10137000084369686D6926F0AA0646EA05152943FF
:1013800093602268906154F8460B0162012004F8D2
:101390001F09E0752076E0762077A0750020B7E77A
:1013A00030B587B0044614216846FEF7B3FF2F48D6
:1013B00024682D4D00212D4A14380223AC422AD135
:1013C000146844F001041460126802F001020592EE
:1013D000026842F010020260006800F01000059000
:1013E0004FF420600090CDE901310120CDE90310D8
:1013F00069461F48FFF752F8002205211820FFF721
:1014000053FB1820FFF742FB002205211920FFF7AC
:101410004BFB192023E0174DAC4222D1146844F055
:1014200002041460126802F002020592026842F09F
:1014300004020260006800F004000590C0200090E3
:10144000CDE901310320CDE9031069460A48FFF7D1
:1014500025F8002205212C20FFF726FB2C20FFF782
:1014600015FB07B030BD00000000014044380240C9
:10147000001002400004014000080240704770B5AF
:101480000446006801694FF00005C943890715D477
:10149000C168C943890711D4E91E01610120207781
:1014A000206880698007204602D0FFF7E7FF04E04C
:1014B00000F0D4F8204600F077F92577206801691C
:1014C000C943490717D4C168C943490713D46FF00A
:1014D00004010161022020772068806910F4407FB8
:1014E000204602D0FFF7CAFF04E000F0B7F820461C
:1014F00000F05AF9257720680169C943090716D415
:10150000C168C943090712D46FF0080101610420C2
:1015100020772068C0698007204602D0FFF7AEFF21
:1015200004E000F09BF8204600F03EF925772068A3
:101530000169C943C90617D4C168C943C90613D490
:101540006FF010010161082020772068C06910F455
:10155000407F204602D0FFF791FF04E000F07EF8C4
:10156000204600F021F9257720680169C943C907A1
:1015700008D1C168C943C90704D1891E0161204649
:1015800000F078F920680169C943090609D4C168E7
:10159000C943090605D46FF0800101612046FFF7B9
:1015A00069FD20680169C943490609D4C168C94376
:1015B000490605D46FF040010161204600F08EF924
:1015C00020680169C94389060BD4C168C9438906EB
:1015D00007D46FF0200101612046BDE87040FFF79D
:1015E0004ABD70BD70B586B0044614216846FEF74A
:1015F00091FE2068B0F1804F27D115480024016882
:1016000041F001010160016801F0010105910168EB
:1016100041F0020101600068022500F0020005901F
:1016200020200090CDE901540126CDE9034669460A
:101630000848FEF733FF08200090CDE90154CDE9BA
:10164000034669460448FEF729FF06B070BD000056
:10165000303802400000024000040240704770B57C
:10166000044690F83C0000260D4601280FD00120CA
:1016700084F83C006AB1042A1DD0082A2FD00C2A15
:101680003FD00126002084F83C00304670BD022087
:1016900070BD206801F0C4F82068816941F008013C
:1016A00081612068816921F004018161206881697C
:1016B0002A69114311E0206801F0E2F8206881698D
:1016C00041F4006181612068816921F48061816158
:1016D000206881692A6941EA02218161D2E7206894
:1016E00001F004F92068C16941F00801C161206876
:1016F000C16921F00401C1612068C1692A691143EF
:1017000011E0206801F026F92068C16941F4006108
:10171000C1612068C16921F48061C1612068C1692B
:101720002A6941EA0221C161ACE710B5040003D087
:1017300094F83D0010B107E0012010BD002084F8AE
:101740003C00204600F01EF8022084F83D00211DD8
:10175000206800F0E1FF012084F8460084F83E0094
:1017600084F83F0084F8400084F8410084F8420087
:1017700084F8430084F8440084F8450084F83D0070
:10178000002010BD08B50068B0F1804F08D10548B1
:10179000016841F001010160006800F00100009063
:1017A00008BD0000403802407047000010B50446F4
:1017B000022249B104290ED0082913D094F841001F
:1017C000012816D0012010BD94F83E000128F9D15F
:1017D00084F83E200FE094F83F000128F2D184F80D
:1017E0003F2008E094F840000128EBD184F8402025
:1017F00001E084F841200122206800F0F1FF164941
:101800002068164A884201D0904203D1436C43F4C9
:10181000004343642068884213D0B0F1804F10D059
:101820000F4988420DD00F4988420AD00E4988429C
:1018300007D0904205D00D49884202D00C49884219
:1018400004D1816801F00701062903D0016841F045
:1018500001010160002010BD0000014000040140B2
:101860000004004000080040000C0040004001401F
:101870000018004010B51549044600680968884200
:1018800006D1134802F00CFA1148583802F008FA51
:1018900010480F49226800685839824207D1006811
:1018A000C006088801D5401E00E0401C08800A4898
:1018B00022680068824208D10068C00631F8580FDB
:1018C00001D5401E00E0401C088010BD040200202D
:1018D0002C0300202C010020BC0100207047704721
:1018E000704710F83D1F407808437047F8B501680D
:1018F00004460868CA684B6910F00F0F4FF00005E6
:1019000059D003F0010602F49077374365D0C10740
:1019100005D0D10503D5216C41F0010121644107B7
:1019200005D5D90703D0216C41F00201216481075C
:1019300005D5D90703D0216C41F0040121640107CA
:1019400007D502F02001314303D0216C41F008019A
:101950002164216C00293AD0800604D5900602D576
:10196000204601F08EF820684069216CC0F3801099
:10197000090700D460B3204601F05CF82068406994
:10198000400621D52068143050E8001F21F04001A6
:1019900040E80012002AF5D1A06BA8B16C4901659E
:1019A000A06BFEF756FD002811D0A06B016D01B0B1
:1019B000BDE8F040084783060FD593060DD52046B5
:1019C000BDE8F84001F05DB82046FFF789FFF8BD9B
:1019D0002046FFF785FF2564F8BD266B2023012EE6
:1019E00079D1C60677D5D60675D5086848680090BF
:1019F0004869400640D5A16B086840680004000CA7
:101A0000EAD0A28D8242E7D9E085C869B0F5807F2F
:101A10002DD020680C3050E8001F21F4807140E880
:101A20000012002AF5D12068143050E8001F21F080
:101A3000010140E80012002AF5D12068143050E876
:101A4000001F21F0400140E80012002AF5D184F87F
:101A50003E30256320680C3050E8001F21F0100153
:101A600040E80012002AF5D1A06BFEF7A9FCA08D7A
:101A7000E18D401A81B229E0A08DE18D401A81B23A
:101A8000E08D0028A8D00029A6D020680C3050E8AE
:101A9000002F22F4907240E80026002EF5D1206835
:101AA000143050E8002F22F0010240E80026002EFA
:101AB000F5D184F83E30256320680C3050E8002FC3
:101AC00022F0100240E80023002BF5D12046FFF75A
:101AD00006FFF8BDFFE705062BD5150629D594F8B6
:101AE0003D002128F5D1A068B0F5805F01D12069C3
:101AF000B0B1206A411C2162216800784860E08C06
:101B0000401E0004000CE084E3D12068C16821F08D
:101B10008001C1602068C16841F04001C160D8E720
:101B2000206A0088C0F308004860206A801C206298
:101B3000E5E74006CDD55006CBD5CA68204622F051
:101B40004002CA6084F83D3000F049F9C1E7000066
:101B5000252A000870B5040004D094F83D00002543
:101B600010B106E0012070BD84F83C50204600F022
:101B700023F8242084F83D002068C16821F4005136
:101B8000C160204600F0DEFF2068016921F4904129
:101B900001612068416921F02A0141612068C16822
:101BA00041F40051C1602564202084F83D0084F890
:101BB0003E00002070BD0000F0B587B0044614213F
:101BC0006846FEF7A7FB3349314B226800253148B0
:101BD00010390324022608279A421FD1026842F4D2
:101BE00000220260006800F400200590086840F0C0
:101BF000010008600868CDE9004600F00100CDE969
:101C00000470CDE9025469462348FEF747FC0022E0
:101C100005213420FEF748FF342034E01F4B9A4260
:101C200033D1026842F480120260006800F4801030
:101C30000590086840F004000860086800F004009F
:101C40000590086840F0080008600868CDE9025473
:101C500000F0080005909814CDE900066946049745
:101C60000F48FEF71BFC0420CDE90006CDE9025425
:101C7000694604970B48FEF711FC00220521352028
:101C8000FEF712FF3520FEF701FF07B0F0BD0000A0
:101C9000004C00404038024000000240005000402C
:101CA00000080240000C024090F83E30202B0ED17C
:101CB00059B152B190F83C30012B08D0012380F883
:101CC0003C300023036300F0C3BF012070470220B3
:101CD0007047000030B50068114988420CD11148A6
:101CE00041880A0408D402464C0412784FF00003DD
:101CF00006D50A2A01D0438030BD41F400410DE0F1
:101D00000D2A09D0C1F30D04074D491C89B22A558B
:101D10004180C729EFD830BD41F48041418030BDBA
:101D2000005000403E000020580500202DE9F843F7
:101D3000044690F83D001F4616460D4620284CD11B
:101D4000C5B1BEB194F83C00012846D0012084F80A
:101D50003C004FF00008C4F84080212084F83D008A
:101D6000FEF7A2FCA6848146E684A068B0F5805FF9
:101D700003D004E00120BDE8F883206928B12E4695
:101D80005FF0000584F83C800EE00026FAE7802131
:101D9000204600F07AFFA0B9AEB116F8010B216819
:101DA0004860E08C401EE084E08C4B464FF000021F
:101DB00000970028EBD14FF04001204600F065FF6E
:101DC00030B10320D7E735F8020BC0F30800E6E78F
:101DD000202084F83D000020CDE70220CBE77047AB
:101DE000FEE701684A69D24352050FD46FF480625E
:101DF0004A61002140F8301F20224273817302693A
:101E000042F0040202610173012070470020704714
:101E1000F8B50446C06A1E460D461746082807D086
:101E2000012805D010F5803F02D0206B122804D184
:101E30002068016841F480710160134600224FF070
:101E400001112046009600F057F840B12068006864
:101E5000C00502D54FF4007020640320F8BD20694E
:101E6000B0F5804F0ED00620216800EAD51040F072
:101E7000F000086133463A460B49204600F070F8FE
:101E800078B902E005F0FE0000E0E8B221680861E0
:101E9000054933463A46891F204600F061F800287C
:101EA000DCD00120F8BD00000800010070B5164626
:101EB0000D4604460DE02046FFF793FF08B10120D0
:101EC00070BD681C05D0FEF7EFFB801BA84207D849
:101ED00035B120684069C0434007ECD4002070BD94
:101EE000002044F8300F20216173A073216941F074
:101EF000200121612073E2E72DE9F0471E4690465C
:101F00000D460446C1F30747DDF8209008E0701C39
:101F100006D0FEF7C9FBA0EB0900B0420FD876B19E
:101F20002068012F18D0806925EA00000004000C09
:101F300014D000214145EAD00020BDE8F087002000
:101F400044F8300F20216173A073216941F0200112
:101F5000216120730120F0E74069E5E70121E9E70D
:101F60002DE9F0479A4691460E46044600254FF06B
:101F70002008C1F3074725E020684069C0434005B9
:101F800014D42068016841F40071016021686FF485
:101F900080604861256384F83D8084F83E50206C61
:101FA00040F00400206484F83C501FE0B9F1FF3F8A
:101FB00008D0FEF779FBA0EB0A0149450CD8B9F12E
:101FC000000F09D02068012F13D0806926EA000095
:101FD0000004000C0BD0CFE744F8305F84F80D808C
:101FE000A573206940F02000206125730120BDE821
:101FF000F0874069EAE770B516460D4604460DE0E5
:102000002046FFF7EEFE08B1012070BD681C05D028
:10201000FEF74AFB801BA84207D835B1206840690B
:10202000C0430006ECD4002070BD002044F8300FFF
:1020300020216173A073216941F020012161207387
:10204000E2E7000010B5124A0021124801F094F9AD
:10205000114C0F4A002120602432104801F08CF905
:102060000B4A6060483200210D4801F085F9084AAA
:10207000A0606C3200210B4801F07EF9044AE06058
:1020800090320021084801F077F9206110BD00006E
:10209000145900081F26000800000020B52F000872
:1020A000ED2E0008893200083D2F0008F0B587B0FA
:1020B00014216846FEF72EF931480024016841F0EA
:1020C00020010160016801F020010591016841F0E3
:1020D00080010160016801F080010591016841F013
:1020E00001010160016801F001010591016841F001
:1020F00010010160016801F010010591016841F0D3
:1021000004010160016801F004010591016841F0DA
:1021100008010160016801F008010591016841F0C2
:10212000020101600068174E00F002004FF478458C
:102130000590002229463046FEF7B0FA124F0022E1
:1021400001213846FEF7AAFAFF20CDE900046946CE
:1021500030460294FEF7A2F900950125CDE901541D
:10216000694630460394FEF799F90095CDE901548C
:10217000694638460394FEF791F907B0F0BD0000B8
:102180003038024000140240001002400D4810B5E3
:102190000B4901600C49416000214FF4804281608D
:1021A000C0E9031241618161C1610162FEF782FAF7
:1021B000002803D0BDE81040FEF700B910BD0000B4
:1021C00000540040D8000020801A060010B58CB0E2
:1021D00024216846FEF79EF8002416480994144905
:1021E0000A94C0E900144FF6FF71C0E9024104618E
:1021F000446184610320CDE900040120CDE902049B
:102200000494CDE90540079469460A480894FFF70D
:1022100075F808B1FEF7D2F8099409A905480A949F
:10222000FEF72AFF002801D0FEF7C8F80CB010BD59
:10223000000001402C01002010B58AB00024079452
:102240001C2168460894FEF765F81A484FF0804153
:1022500001605321C0E901144FF47A71C0E90314FD
:102260008461FFF762FA08B1FEF7A8F8079407A99E
:1022700010480894FEF700FF08B1FEF79FF86020B1
:10228000CDE900040294002269460A480494FFF74D
:10229000E6F908B1FEF792F8042269460548FFF70F
:1022A000DEF908B1FEF78AF80248FFF79BF90AB099
:1022B00010BD00007401002010B58CB024216846C8
:1022C000FEF728F800241648099414490A94C0E936
:1022D00000144FF6FF71C0E902410461446184615A
:1022E0000320CDE900040120CDE902040494CDE9E6
:1022F0000540079469460A480894FEF7FFFF08B1B5
:10230000FEF75CF8099409A905480A94FEF7B4FEA3
:10231000002801D0FEF752F80CB010BD00040140B7
:10232000BC0100201FB500211048009101910291CD
:102330000D4A03910260A722C0E9012142F2107206
:10234000C0E903218161FEF7DFFE08B1FEF736F830
:102350004FF48050009069460448FEF761FF002862
:1023600001D0FEF72BF81FBD004001400402002001
:102370000C4810B50A4901604FF4E1314160002179
:1023800081600C22C160C0E904128161C161FFF764
:10239000E1FB002803D0BDE81040FEF70FB810BDE8
:1023A000004C00404C0200200C4810B50A49016066
:1023B0004FF4E1314160002181600C22C160C0E92D
:1023C00004128161C161FFF7C5FB002803D0BDE89D
:1023D0001040FDF7F3BF10BD0050004090020020F8
:1023E000FEE7FEE7A0B1D0ED101AC0ED111A90ED96
:1023F0000F1A80ED101AC0ED060A80ED070A30EEC4
:10240000C00A80ED0F0A017829B101293BD078E09C
:102410009FED3D0A7047D0ED010A60EE801AC0EDD5
:10242000091AD0ED0A0A90ED022A42EE000A30EEB7
:10243000410AC0ED0A0A90ED0D2A80ED0E2A90EDBA
:102440000C2A80ED0D2A80ED0C0A90ED031A21EE86
:10245000001A80ED0B1A90ED050AF4EEC00AF1EEB9
:1024600010FA09DCB1EE400AF4EEC00AF1EE10FAFF
:1024700002D390ED0A0A01E080ED0A0A31EE800AEB
:1024800030EE010A2BE070EE410A90ED012A20EEB9
:10249000822A80ED092AD0ED020A60EE800AC0EDA2
:1024A0000A0AD0ED0D2A72EE200AC0ED0E2AD0EDF8
:1024B0000C2AC0ED0D2AF0EE002A01EE620A30EE81
:1024C000210A80ED0C0A90ED031A21EE000A80ED3E
:1024D0000B0A30EE800AD0ED080A30EE200A80EDBB
:1024E000080AD0ED040AB4EEE00AF1EE10FA06DCB8
:1024F000F1EE600AB4EEE00AF1EE10FA01D2C0ED9E
:10250000080A90ED080A7047000000002DE9F0412C
:10251000134E00242DED028B06F190079FED118ADA
:10252000DFED118A04EBC40506EBC500F0EE480AA6
:10253000B0EE680A0D4A002100F01AF80B4A07EBCA
:10254000C500F0EE480AB0EE680A0C3A002100F02F
:102550000FF8641C022CE5DBBDEC028BBDE8F081BA
:10256000840300200000AD4300007A4430000020C6
:10257000002828D0002A26D0017092ED001A80EDA4
:10258000011A92ED011A80ED021A92ED021A80ED05
:10259000031A80ED040A9FED0C0AC0ED050A80EDD8
:1025A0000E0A80ED0D0A80ED0C0A80ED080A80ED20
:1025B0000B0A80ED0A0A80ED090A80ED110A80ED10
:1025C000100A80ED0F0A70470000000000EB400188
:1025D0000D4A01EBC00110B502EBC10131F9561CE7
:1025E00000EE901A00EBC0010848B8EEE01A00EBCC
:1025F000C104F0EE400AA4F14800B0EE410AFFF732
:10260000F1FE14ED0A0A10BDD4020020840300205C
:102610000169496A0088C0EB004008447047012006
:1026200000F06EFEFBE710B5FEF7D2F902F0BCFF3A
:10263000012803D0BDE8104002F0EABC10BD000044
:1026400030B593B030216846FDF764FE14210CA824
:10265000FDF760FE1D480025016841F080510160D2
:10266000006800F0805011901948016841F48041E1
:1026700001600068022400F4804011900120009065
:10268000000401908001CDE9064008AA0420A82199
:1026900082E813000B906846FEF722FB08B172B681
:1026A000FEE70CA90F2081E831004FF4A0500F90F5
:1026B0004FF48050109005210CA8FEF727FA00284F
:1026C00001D072B6FEE713B030BD000040380240C2
:1026D000007000400248016841F4700101607047D9
:1026E00088ED00E010B50448FEF7C9FEBDE81040D3
:1026F0000248FEF7C4BE00002C01002004020020A6
:102700000148FEF7BCBE00002C0100200148FEF786
:10271000B6BE0000BC010020F0B50268254C264D75
:10272000264E274F274B4FF0804CA04209D06045E2
:1027300007D0A84205D0B04203D0B84201D0984299
:1027400004D122F0700E4A6842EA0E02A0421BD069
:10275000604519D0A84217D0B04215D0B84213D066
:10276000984211D0184DA8420ED0184DA8420BD057
:10277000174DA84208D0174DA84205D0164DA842C3
:1027800002D0164DA84203D122F44075CA682A43EC
:102790004D6922F080022A4302608A68C2620A6898
:1027A0008262A04201D0984201D1096901630121EE
:1027B0004161F0BD000001400004004000080040FD
:1027C000000C004000040140004001400044014072
:1027D0000048014000180040001C0040002000405C
:1027E00010B501F01F030121046A99408C43046273
:1027F000016A9A401143016210BD10B5846842EA33
:10280000032224F47F440A432243826010BD82687D
:1028100022F070020A4342F0070181607047000015
:10282000F0B5026A22F001020262036A426884691A
:10283000124E24F073050C682C4323F002058B68BC
:102840002B430D4DA84201D0B04205D123F008071B
:10285000CB683B4323F00403A84201D0B04205D12A
:102860004D6922F4407215438A692A4342608461AB
:10287000496841630362F0BD00000140000401406B
:10288000F0B5026A22F010020262026A43688469AB
:102890000D6824F4E64444EA05248D6822F0200201
:1028A00042EA05120F4D104EA84201D0B04206D1A7
:1028B000CF6822F0800242EA071222F04002A842CA
:1028C00001D0B04207D14D6923F4406343EA850348
:1028D0008D6943EA850343608461496881630262CC
:1028E000F0BD00000000014000040140F0B5026AA4
:1028F00022F480720262026A4368C46922F40072A0
:1029000024F073050C68124E2C438D6842EA0522B0
:102910000E4DA84201D0B04206D1CF6822F4006229
:1029200042EA072222F48062A84201D0B04207D1D5
:102930004D6923F4405343EA05138D6943EA0513B7
:102940004360C4614968C1630262F0BD0000014098
:102950000004014030B5026A22F480520262046A27
:102960004268C3690D6823F4E64343EA05238D6892
:1029700024F4005444EA0534084DA84202D0084D1E
:10298000A84204D14D6922F4804242EA8512426095
:10299000C36149680164046230BD00000000014069
:1029A0000004014010B5036A046A24F001040462C3
:1029B000846924F0F00444EA021423F00A020A4372
:1029C0008461026210BD10B5036A23F01003036234
:1029D0008369046A23F4704343EA023224F0A003BB
:1029E00043EA01118261016210BD00000148FEF757
:1029F0007DBF00004C02002010B50848FEF776FFAE
:102A00000648FEF76EFF2028FAD101220449034848
:102A1000FFF74AF90028F8D110BD0000900200200D
:102A20003E00002010B5806B0021C185C184FEF7F7
:102A300057FF10BD01680C3151E8002F22F490724D
:102A400041E80023002BF5D10168143151E8002F33
:102A500022F0010241E80023002BF5D1016B01298E
:102A600009D101680C3151E8002F22F0100241E831
:102A70000023002BF5D1202180F83E1000210163B6
:102A8000704708B590F83E10222901D0022008BDF9
:102A900082684FF480539A4201D1016921B1816A61
:102AA0009A421BD04AB10AE00268816A5268C2F3B6
:102AB00008020A80816A891C08E0026972B1026812
:102AC000526802F07F020A70816A491C8162C18DDE
:102AD000491E0904090CC18503D019E00268526837
:102AE000F1E70168CA6822F02002CA600168CA687A
:102AF00022F48072CA6001684A6922F001024A61C8
:102B0000202180F83E10016B012903D0FFF7E2F885
:102B1000002008BD0021016301680C3151E8002F3D
:102B200022F0100241E80023002BF5D101680A6869
:102B3000D20602D50A6849680091818DFEF7CFFE62
:102B4000E6E7000070B5044600680169E26821F418
:102B50004051114301612169A068E269084361693C
:102B6000114308432168CA6849F20C639A4302433F
:102B7000CA6020684169A26921F440711143416132
:102B800031492068884202D03049884202D1FEF79C
:102B900067F801E0FEF754F8E26900231921642583
:102BA0003226B2F5004F626828D0A0FB0101930FD6
:102BB0009200FDF765FB0146B0FBF5F06FF01802DF
:102BC000504301EB800006EB0010B0FBF5F000F085
:102BD000F002B1FBF5F002EB0012B1FBF5F06FF083
:102BE0001803584301EB800006EB0010B0FBF5F032
:102BF00000F00F0021681044886070BDA0FB010147
:102C000092185B41FDF73CFB0146B0FBF5F0020179
:102C1000B1FBF5F06FF01803584301EB800006EBB1
:102C2000C000B0FBF5F000F0F80002EB4002B1FB91
:102C3000F5F0584301EB800006EBC000B0FBF5F067
:102C400000F00700D6E7000000100140001401402A
:102C500081628285C28500210164222280F83E20A3
:102C600080F83C10016921B10168CA6842F48072A1
:102C7000CA6001684A6942F001024A610068C1689D
:102C800041F02001C160002070472DE9F0419846D5
:102C900017460E460446069D27E0681C25D02DB138
:102CA000FDF702FDA0EB0800A8421ED920680C30F9
:102CB00050E8001F21F4D07140E80012002AF5D13D
:102CC0002068143050E8001F21F0010140E8001294
:102CD000002AF5D1202084F83D0084F83E00002031
:102CE00084F83C000320BDE8F0812068006836EAE3
:102CF000000004D00020B842CFD00020F3E701202C
:102D0000F9E7FEE70FB4054B10B503A9044A029892
:102D100000F03CF810BC5DF814FB00009D2F00088B
:102D2000D40000200FB4084B10B504A902AA0398E0
:102D300000F02CF8044602A9002000F0D1F820464B
:102D400010BC5DF814FB0000E12E00080907090E15
:102D5000002804DB00F1E02080F80014704700F048
:102D60000F0000F1E02080F8141D704702E008C851
:102D7000121F08C1002AFAD170477047002001E0F5
:102D800001C1121F002AFBD1704700002DE9FF4F3F
:102D900089B09B460446002506E025280BD05A46FC
:102DA0000B999047641C6D1C20780028F5D10DB05C
:102DB0002846BDE8F08F0027B8460122474900E0C9
:102DC000074314F8013F203B02FA03F00842F7D111
:102DD00020782E2819D114F8010F47F004072A286B
:102DE0000ED06FF02F022078A0F1300109290CD805
:102DF00008EB880102EB410100EB0108641CF2E7DB
:102E00000A98641C50F8048B0A9020780028CED0D1
:102E1000642808D0692806D075281ED05A460B9918
:102E200090476D1C58E00A994FF00A0901C90A91B0
:102E3000002802DA40422D2102E0390504D52B2179
:102E40008DF82010012103E0F90704D02021F7E7D5
:102E50008A4608AE0DE00021FAE70A994FF00A0908
:102E600001C90A91F7E74946FDF75FFA303106F8E4
:102E7000011D0028F7D1ADEB060000F1200978070D
:102E800001D44FF00108C84502DDA8EB090000E0BD
:102E900000208046002706E008A85A46C05D0B992E
:102EA00090476D1C7F1C5745F6DB04E030205A46E6
:102EB0000B9990476D1CB8F10001A8F10108F5DCF1
:102EC00005E016F8010B5A460B9990476D1CB9F1B5
:102ED0000001A9F10109F4DC641C65E7092801007F
:102EE0000A68531C0B60107070470000124C0220DF
:102EF00021680F3100EE101AB8EEC00AFFF766FB2A
:102F0000BDEEC00A10EE100A05B22068C0F10F0035
:102F100000EE100A0120B8EEC00AFFF757FBBDEE25
:102F2000C00A294610EE100A00B200F025F901206F
:102F300000F0E6F9DBE7000044000020104E114FDE
:102F4000114D124C4FF000082088010413D5C0F336
:102F50000D0030600B4B012200210D4800F0AAFE4D
:102F60000CA03968FFF7CEFE28680168C9434906FE
:102F7000FBD4A4F80080012000F0C2F9E4E70000CF
:102F8000C8000020440000209002002040000020E3
:102F90005805002025640A0D0000000013B54FF409
:102FA0007A73012269460248FEF7C0FE00981CBDF4
:102FB0004C020020054C4FF4967501212046FDF788
:102FC00065FB284600F09CF9F7E70000001002407E
:102FD000A2B0FDF705FDFFF733FBFFF767F8FFF73A
:102FE000D5F8FFF7C5F9FFF727F9FFF7EFF8FFF777
:102FF00063F9FFF797F9FFF7D7F900F033F900F01D
:1030000007F93E48FEF7CCF83D48FEF7C9F83D48C1
:10301000FEF7C6F83D223A490FA8FDF762F9384895
:1030200010F83D1F8DF8791041788DF87A1081786D
:103030008DF87B10C1788DF87C1001798DF87D10AA
:1030400041798DF87E1081798DF87F10C1798DF8E6
:103050008010017A8DF88110407A8DF882003C2230
:1030600012A96846FDF73DF90DF13C0C26489CE895
:103070000E0000F04FF83D2220490FA8FDF731F96E
:103080001E4810F83D1F8DF8791041788DF87A10A0
:1030900081788DF87B10C1788DF87C1001798DF8DE
:1030A0007D1041798DF87E1081798DF87F10C1797E
:1030B0008DF88010017A8DF88110407A8DF88200A9
:1030C0003C2212A96846FDF70CF90DF13C0C0E48A4
:1030D0009CE80E00583000F01DF8FFF717FA01F0D9
:1030E000C9F9012209490A48FEF7DEFD00F016F988
:1030F000FEF7A8FF00F024F9FEE70000BC01002065
:103100002C01002004020020D40200203E000020F8
:10311000900200200FB43D2210B5044600206080CC
:10312000E0602080A080A06003A904F11000FDF7FA
:10313000D8F89DF8490004F84D0F9DF84A006070DA
:103140009DF84B00A0709DF84C00E0709DF84D007C
:1031500020719DF84E0060719DF84F00A0719DF8A0
:103160005000E0719DF8510020729DF8520060728D
:1031700010BC5DF814FB00002DE9F047224C234FF2
:103180000D4606004FF400684FF480594FF00002DE
:103190000BD441462046FDF781FA012249462046DC
:1031A000FDF77CFA386846630BE049462046FDF798
:1031B00075FA012241462046FDF770FA39687042DF
:1031C00048634FF480464FF40058002D4FF0000242
:1031D0000CDB31462046FDF761FA012241462046CC
:1031E000FDF75CFA38688563BDE8F0874146204604
:1031F000FDF754FA012231462046FDF74FFA3968AF
:1032000068428863F0E70000001402407401002067
:1032100010B5124C00224FF480512046FDF73EFAC3
:103220000022E1142046FDF739FA00224FF48041D4
:103230002046FDF733FA00224FF400512046FDF7F7
:103240002DFA0122D1032046FDF728FA0022BDE81D
:10325000104001210248FDF721BA0000001402408D
:103260000010024010B500210648FEF79FFA042125
:103270000448FEF79BFA0348002102685163006886
:10328000816310BD7401002086B0114C114800F01C
:1032900039FD11A3092204210E4800F0DBFDB4F929
:1032A0005A30B4F9022012A16846FFF73BFD1349DA
:1032B000084800F033FE6B4614220F21054800F049
:1032C000C9FD044800F013FE0A2000F019F8DDE7FC
:1032D000D4020020C404002073706565643120208E
:1032E00020202020202020737065656432000000BB
:1032F000256420202020202564000000E0590008DB
:1033000010B5EFF3058111B16FF0050403E000245F
:1033100008B101F01DFD204610BD0000EFF305804F
:1033200010B16FF0050070470448016811B14FF00B
:10333000FF30704701210160002070479800002095
:1033400010B5EFF3058010B16FF0050010BD08480F
:103350000168012902D04FF0FF3010BD054A00215D
:1033600082F8141D0221016001F05AFD002010BDF9
:10337000980000200BE000E02DE9FF414FEA010337
:103380004FF00005EFF30581039549BB40B380275B
:10339000182100244AB3166806B1344696691EB156
:1033A0003146761E382E02D21679F60703D0002059
:1033B00004B0BDE8F081566906B1B708D2F808C07C
:1033C000BCF1000F0DD0D5685C2D18D312693AB14D
:1033D00036B18DE806103A46214602F0BAF803905D
:1033E0000DE0D6685EB912694AB903AACDE90012A8
:1033F000BAB2214602F080F8012800D00395039864
:10340000D6E700002DE9F041134C0F460546E6686B
:103410002068001D01F068FB681C07D137B12168E6
:10342000BDE8F0410D48091D01F0AEBB20683544F0
:10343000B5424560216805D2A06BBDE8F041091D89
:1034400001F08ABB606B091D01F086FBA06A854212
:1034500000D2A562BDE8F08148000020100B0020DA
:103460002DE9F041054601F09BFB2D4CA068401C66
:10347000A06020682B4F10B1606930B32BE025604D
:10348000A068012827D1002606EB860007EB800004
:1034900001F054FB761C382EF6D3234801F04EFB86
:1034A0002148143001F04AFB1F48283001F046FB48
:1034B0001D483C3001F042FB1B48503001F03EFB00
:1034C000194860631430A06305E02068E96AC06AA7
:1034D000884200D82560606A401C60626864E86ABF
:1034E0002169884200D9206100EB800007EB800051
:1034F000291D01F049FB01F073FB606900280CD025
:103500002068E96AC06A884207D208494FF08050B3
:103510000860BFF34F8FBFF36F8FBDE8F0810000ED
:103520004800002060060020C00A002004ED00E0F2
:1035300038B501F035FB104C2068C8B90F4801F0D0
:10354000FDFA0E48143001F0F9FA0C48E06014302E
:1035500020610A4B0020F03B009003F15002102143
:103560000A2001F06BFD206010B105A101F0BAFB4B
:10357000BDE8384001F034BB84000020140C00206A
:10358000546D72510000000030B4026C0B46002AEA
:103590000BD0C1681144C1608468A14201D30168A5
:1035A000C16030BC1846FCF79CBE30BC70472DE9AA
:1035B000F041856B174604460026026C82B1C7B104
:1035C000E068FCF78EFEE168206C091AE160226871
:1035D000914202D2A168081AE060022F16D017E0CB
:1035E0002068A8B9A06802F057F806460020A0603D
:1035F0000EE06068FCF775FE216C6068084460604E
:10360000A168884204D32068606001E005B16D1EA6
:103610006D1CA5633046BDE8F08110B5044690F8F6
:10362000590058B101280CD002280FD0502080F347
:103630001188BFF34F8FBFF36F8FFEE7206B01F050
:10364000E3FA2046BDE8104001F0DEBA10BD0000EC
:1036500010484FF47051420706D0C01D0D4920F0AC
:103660000700411AC1F570510B4A00230144C2E919
:1036700000030839183A21F0070111604B600B6014
:103680000B1AC0E9001393604FF000405360506183
:1036900070470000F4120020B4000020144E154CB6
:1036A000A6F29C474FF08058DFF84C9012E000BF24
:1036B00001F076FAF068C568281D01F015FAA068D7
:1036C000401EA0606068401E606001F089FA2846D4
:1036D000FFF7A3FF60680028EAD138680128F9D90C
:1036E000C9F80080BFF34F8FBFF36F8FF2E7000080
:1036F000FC0A00204800002004ED00E070B51D46E3
:10370000049C51B1C4F80020C4E90F0101212046F6
:1037100001F0C8FC84F84C5070BD2460F4E7000050
:103720002DE9F05F8846DDE90B941546834691004C
:103730009A460A9EA522206BFCF7E5FD6FF0030177
:10374000206B01EB8501084420F00707780707D0BC
:10375000502080F31188BFF34F8FBFF36F8FFEE7C8
:103760000025B8F1000F0FD05FF00000221818F804
:10377000001082F8341018F8001011B1401C102805
:10378000F4D384F8435001E084F83450382E00D349
:103790003726E662C4E91365201D01F0DAF904F169
:1037A000180001F0D6F92461C6F138006462A06106
:1037B000656584F8585052465946384600F05AFA22
:1037C0002060B9F1000F01D0C9F80040BDE8F09FBA
:1037D00030B5114900E011460A688242FBD34B68BC
:1037E0005C18844203D14068184448600846436826
:1037F0001C18944209D1084C183C2468A24209D0F4
:1038000052681A4442600A6812680260814200D01D
:10381000086030BD0460F9E7B400002070B50024F2
:1038200041600B4D0061914206D8D11A82699142E4
:1038300006D2011D286907E09A4203D2994201D3BA
:10384000012403E0011DE86801F086F9204670BDFF
:103850008400002010B5044601F0A2F9A06B28B145
:103860005FF0000401F0BCF9204610BD0124F9E727
:1038700030B589B03C4D6EE00498002806DADDE9E9
:103880000601059A90470498002864DB069C60694D
:1038900010B1201D01F028F903A800F0D7F8024666
:1038A00004980A2857D2DFE800F00505052D334AB1
:1038B00005052D3394F8280040F0010084F8280015
:1038C0000599A069059B01442046FFF7A7FF68B34F
:1038D000216A2046884794F8280040073BD50020FD
:1038E00000900598A169002342181946204601F06E
:1038F000DDFFD8B9502080F31188BFF34F8FBFF39D
:103900006F8FFEE714F8280F20F00100207022E0EE
:1039100094F8280040F0010084F828000598A06180
:1039200028B1811813462046FFF778FF13E0502096
:1039300080F31188BFF34F8FBFF36F8FFEE794F8CA
:103940002800810703D4204601F05EF903E020F04F
:10395000010084F82800002204A9286801F0F6FC80
:10396000002889D109B030BD840000202DE9FC4138
:103970000F46054601F098FA01A800F067F80446E2
:10398000019818B101F000FFBDE8FC81254EAFB1F0
:1039900030690068D0B30027291B3A46306801F02F
:1039A000B5F901F0F1FE0028EED11F494FF080502B
:1039B0000860BFF34F8FBFF36F8FE5E7A542EBD8E9
:1039C00001F0E2FEF0682746C068C468201D01F0DF
:1039D0008BF894F82800410719D5A0692B464119A6
:1039E0003A462046FFF71AFFA8B1002003460146D9
:1039F00000902A46204601F059FF60B9502080F31C
:103A00001188BFF34F8FBFF36F8FFEE707E020F001
:103A1000010084F82800216A20468847B4E701277E
:103A2000BAE700008400002004ED00E00648416B86
:103A3000096829B1416BC968C968496881627047E2
:103A40004FF0FF31FAE700004800002070B505464E
:103A500001F0B8FD064E0446B068844203D200F07F
:103A600009F8012000E0002028602046B46070BD05
:103A700084000020F8B5194D20E0C068C4680668CD
:103A8000201D01F031F8216A2046884794F828006B
:103A9000400713D5A0693044B04206D92461606064
:103AA000211DE86801F058F808E0002003460146AF
:103AB00000903246204601F0F9FE38B1E86801680E
:103AC0000029DAD12969C5E90310F8BD502080F337
:103AD0001188BFF34F8FBFF36F8FFEE78400002084
:103AE00008484068401C4FF0500080F3118804D013
:103AF000BFF34F8FBFF36F8FFEE7BFF34F8FBFF35F
:103B00006F8FFEE7BC000020074CE068016841B100
:103B1000C0680021D0F80000FFF728FFFFF7A8FEDB
:103B2000F3E701210020F7E7840000202DE9F041B0
:103B3000044601F035F894F9455004F1240609E0F3
:103B4000606A48B1304601F0E7FD08B101F02EF996
:103B50006D1E6DB2002DF3DC4FF0FF3684F845602A
:103B600001F03EF801F01CF894F9445004F11007FC
:103B700009E0206948B1384601F0CEFD08B101F0F6
:103B800015F96D1E6DB2002DF3DC84F84460BDE8BC
:103B9000F04101F025B800002DE9F041054600276D
:103BA00001F082F9324E306808B9FFF751FD7069B3
:103BB00005424ED1C5B3083568070ED005F00700A1
:103BC000C0F108000544680707D0502080F3118831
:103BD000BFF34F8FBFF36F8FFEE72DB37068854241
:103BE00037D82348183001460C6801E020460C46BF
:103BF0006168A94202D221680029F7D131688C425C
:103C000027D007682168016060680837411B1029C8
:103C10000FD96019420708D0502080F31188BFF3F4
:103C20004F8FBFF36F8FFEE713E041606560FFF7D2
:103C3000CFFD61687068401A7060B268904200D22F
:103C4000B060706901430020C4E90001F068401CC5
:103C5000F06001F099FD780707D0502080F31188BB
:103C6000BFF34F8FBFF36F8FFEE73846BDE8F0819B
:103C70009C00002010B5031F4FF080741C601B1FB8
:103C800021F001011960191F044B0B6014390A60FF
:103C9000091F6FF0020244380A6010BDE13A0008C3
:103CA00000B50246FEF7B4FC90609189411A51803C
:103CB000D06000BD70B50024254609E0065D8E4247
:103CC00004D00D2E02D00A2E00D006B96D1C641C43
:103CD0009542F3D100220126A41E0AE02D2D0FD01B
:103CE0002B2D05D0303D05FB062206EB86056E0028
:103CF000641E055D8D4201D0002CEFDA1A6070BDA4
:103D00005242F5E7016890F83820097C12FB01F176
:103D1000C900406BFCF7FEBA10B5044600F0A2F8EB
:103D2000204600F0C5F80028FAD12046BDE8104032
:103D3000002100F0E5B82DE9F041044690F870004C
:103D40001F4615460E4630B1012809D002280CD076
:103D5000032815D10FE0E16D20468847284408E08C
:103D6000E16D20468847301A09E0E16D204688471A
:103D7000281A85B204E0E16D20468847304486B2B7
:103D80002846A4F86460A4F8660039460025204659
:103D900000F002FB010003D0204600F02DFA85B2AE
:103DA0002846BDE8F08100003FB581B0044690F898
:103DB0008C00089900283AD0BDF81000002836D0B1
:103DC000012811D9022902D0032907D00CE0BDF83F
:103DD0000820101A401CADF8080005E0BDF80C20C2
:103DE000101A401CADF80C0011F0010521D0B4F8F8
:103DF0004810BDF80800814219D8B4F84A10814231
:103E000015D9B4F84E30B4F84C2004A90DF10C00CB
:103E100000F064F900280AD00095206BBDF810303E
:103E2000BDF80C208568BDF808102046A84705B0ED
:103E300030BDB4F84C10BDF80C008142F7D8B4F88E
:103E40004E108142F3D9B4F84A30B4F8482004A99E
:103E500002A8DDE730B4024C446030BC00F06BB91E
:103E60002947000810B5044690F8930010B1204689
:103E7000FFF748FF2046BDE81040002100F040B8A1
:103E800070B50D461E460446B0F84E10B0F84C0012
:103E9000049B00F00BFB002809D0B4F84A10B4F8DA
:103EA000480033462A46BDE8704000F0FFBA70BDB6
:103EB00070B5044600F089FB94F8390094F8381086
:103EC0000844C5B22068407CA84204D8204600F0CF
:103ED000F0FB002070BD94F8930010B12046FFF76E
:103EE00011FF2946204600F00BF8012070BD10B5E7
:103EF000044600F06AFB2046BDE8104000F0D9BB44
:103F000010B5044680F83910006B016820468847D8
:103F1000206B41682046BDE81040084710B50446B4
:103F2000806D884209D004F17400A16500F018FB8F
:103F30002046BDE8104000F055B810BD0149C165EC
:103F400070470000AD4100080021A0F85010A0F813
:103F500054104FF6FF71A0F85210A0F85610016BE4
:103F60004968084770B5044600250498A565E362D2
:103F7000616384F8382084F8395084F86D5084F8EF
:103F8000915084F88D50012184F8921084F8931098
:103F900020630168204688472046FFF7D5FF20466A
:103FA000FFF7CCFF84F8705070BD00007CB50C4664
:103FB000009313460546084A084900F08AFB01A809
:103FC00000F0C8FA0146064B00949DF804202846EC
:103FD000FFF7C8FF7CBD000079480008A149000830
:103FE000C544000810B5816D00291AD090F98130C0
:103FF00080F88E3090F9822080F88F2090F88D1014
:1040000000290ED001290DD090F97E4090F9801042
:104010000C449C4201DD80F88E408A4201DD80F82C
:104020008F1010BD90F983108B4201DA80F88E104A
:1040300090F98410F1E72BB1012B05D0022B06D0AB
:10404000104402E0084400E0801A80B27047401A31
:10405000FBE72BB1012B05D0022B06D0401A02E062
:10406000104400E0084480B27047801AFBE738B57E
:104070000446B0F856000090B4F85230B4F854201A
:10408000B4F850102046FFF7FBFE18B3012084F867
:104090008C00B4F84810B4F85000814201D2A4F862
:1040A0004800B4F84A10B4F85200814201D9A4F88B
:1040B0004A00B4F84C10B4F85400814201D2A4F87C
:1040C0004C00B4F84E10B4F85600814201D9A4F85F
:1040D0004E0038BD002084F88C0038BD30B504880F
:1040E0000D882544ADB2AC4205D99C4202D25D1E7A
:1040F000ADB200E014469C4201D2954201D80020A6
:1041000030BD944200D214469D4200D91D46048021
:10411000281B0880012030BD38B5C58F049C009451
:10412000521BC46A92B2A04738BD38B5049C0094B3
:10413000FFF7F2FF38BD2DE9F0471C46914688464F
:10414000064600F0CDFC00254FF6FF777268217817
:10415000304690470346B84225D0641CA3F57F4003
:10416000FE38F3D04A4641463046FFF7E4FD96F864
:10417000701031B1012907D0022908D003290FD1CD
:104180000AE008EB000104E009EB000106E0A8EBFF
:1041900000011FFA81F803E0A9EB00011FFA81F981
:1041A000284485B2D2E72846BDE8F0870020704752
:1041B00010B50C4600F006F80122641EA240801AD9
:1041C00040B210BD30B50568047B2A78E240631820
:1041D000DBB2082B09D36D1C05602D78C4F10804EF
:1041E000A5401543083BEAB2DBB201248C40641EB3
:1041F00014400373204630BD2DE9F843054600F115
:10420000600400F00CF915F96B6F2046E97BFFF7AD
:10421000CFFF8146297C2046FFF7CAFF0746697C0D
:1042200020466B3DFFF7C4FF804694F90A00002842
:1042300057DDF019404247B2237CA0883A464946F0
:10424000FFF7F9FEA080237C3A46E0884946FFF755
:1042500000FFE080A188277C02460B4637B1012F82
:104260000AD0022F40D0032F0FD146E094F90A70F4
:1042700030443B449BB207E0891B491C94F90A7007
:104280005B1C89B29BB2384480B200902846FFF78D
:10429000F7FD30B30020207284F8090095F87610FD
:1042A0002046FFF78FFF814695F877102046FFF7ED
:1042B00089FF074600224946284600F027F80122D8
:1042C0003946284600F022F801212046FFF77AFF00
:1042D0000028EFD194F90900B042DFDBA07B85F81C
:1042E00092004046BDE8F88394F90A705B1CC91B34
:1042F000491C89B29BB2921B04E094F90A703344C2
:104300009BB2D21B521C92B2401CBDE72DE9F74F65
:1043100084B00D46049C94F8687094F86980603409
:10432000A07AC01BC6B20196B54200D201954FFAE1
:1043300088F279B2A088B4F806B0237C9246894608
:10434000FFF779FE0290237C524649465846FFF714
:1043500080FE0246069808B1A17B02E0607B50B95E
:10436000E17B049880F89210207C0090DDE9013117
:104370000498FFF719FDB54207D3A81BC5B208F191
:104380000100002700F0FF08CAE77819207284F8BE
:10439000098007B0BDE8F08F70B50D460146806D0D
:1043A0001730FF2D10D8612D02D3B1F8881003E02B
:1043B000412D02D3B1F886100844417819B3027830
:1043C000AA42F9D1801C70BDB1F88A100C1826469B
:1043D0000021304600F019F804440221304600F074
:1043E00014F8361DA842F3D34FF6FF72207802EA84
:1043F00000216078084306D0A84201D1E01C70BDBE
:10440000A0780444F2E7002070BD08444FF6FF7224
:104410000178407802EA0121084480B2704730B543
:10442000054600F1600401660020207315F8781F2E
:104430002046FFF7C7FEA07269782046FFF7C2FE4C
:10444000E072A87EA07310B10020E07330BD01209F
:10445000FBE710B51046282909D0292905D04C2999
:1044600005D04D2903D0002010BDFCF705F8012030
:1044700010BD000010B5094B094A0A490A48FFF768
:1044800095FD094800F00DF90021074800F019F9E1
:10449000BDE810400448FFF73FBC0000534400084B
:1044A00065470008E45D0008C40400208A4205D284
:1044B000834201D89A4203D9012070478342F9D838
:1044C00000207047F0B502F007060124B440002533
:1044D00090F892E0E7B2DDF814C02C46BEF1010F6F
:1044E00001D83D4600D03C46076822F00702BCF1E7
:1044F000000F3F7C07FB02F7BAB2476B3A44114406
:1045000009D108785B1E284360401B0401F8010BA9
:104510001B0CF6D1F0BD0A78761C2A436240A3F149
:1045200001030A7016F007069BB206D06A06150E44
:104530006206140E002BEED1F0BD428F114490F8AC
:104540009220012A03D800BF4FF00105F2D04FF0AE
:104550000104EFE70821017000487047F44E002085
:1045600070B5054608782870487868708878A87013
:10457000C878E870087928714879687188790C469C
:10458000A871E079E871207A2872607A6872A07A5E
:10459000A872E07AE872207B2873607B6873A07B46
:1045A000A873E07BE873207C287411212046FFF774
:1045B0002CFF688213212046FFF727FFA8821521D0
:1045C0002046FFF722FFE88270BD2DE9F84306463A
:1045D00090F8387090F83950006800244FF6FF7852
:1045E00090F81190316830462A460B7C716B04FBC1
:1045F00003FC1FFA8CFC08EACC0C614400910021FA
:1046000000F040F8641C6D1CE4B2EDB2BC4201D273
:104610004D45E7D3BDE8F883F0B590F838204FF664
:10462000FF75036805EAC2018187197C05EAC101AB
:10463000418790F8394005EAC401C1875E7CA7181C
:10464000B74201D9321B92B205EAC20220F8401FDC
:1046500011444180998A8180D98AC180F0BDFFF7D9
:10466000DBBF0021A0F84810B0F84410A0F84A10B1
:10467000B0F84010A0F84C10B0F84210A0F84E105E
:10468000FFF7F5BC1CB58DF805108DF80620049CCD
:104690008DF804300094012284686B460F21A047F6
:1046A0001CBD30B484680023A44630BC1A460A21DD
:1046B000604730B484680023A44630BC1A461021F9
:1046C000604730B484680023A4460A4630BC0B21FE
:1046D00060472DE9F04115460E460446069F00F05E
:1046E00009F86761A660C4E903532046BDE8F041BC
:1046F00000F012B8002140F8081B064A0260426030
:104700008260C260C17681770161FF21017780F804
:1047100020107047A54A000830B484680023A446DE
:1047200030BC1A4609216047080001D00A2801D18F
:104730004FF6FF70704730B404690023A44630BCC4
:104740001A461921604713B50122046901AB1721EC
:10475000A0471CBD30B404690023A44630BC1A46EF
:104760001821604738B5142922D0124C172905D0DA
:10477000182910D0192911D0002038BD0E4907E0A2
:10478000207813F8015B0D54401C521E2070D2B2E9
:10479000002AF5D10CE00020207009E04FF47A7176
:1047A000009190F824102378034A0448FCF746F857
:1047B000012038BD3C000020A4040020D8000020C7
:1047C00030B4C4680023A44630BC1A46192160479F
:1047D00030B4C4680023A4460A4630BC16216047A2
:1047E00030B4C4680023A4460A4630BC1521604793
:1047F00030B4C4681346A4460A4630BC172160474B
:10480000F8B50C464FEA000514F8011B182924D00E
:104810000EDC152919D0162917D0172923D1207895
:104820008DF800006A4601212846FFF7E1FF0AE003
:10483000192912D0FE2916D122788DF800202921BD
:10484000284600F031F9641CDEE722788DF800205C
:10485000EE6800232846B047F5E70023EE681A46C5
:104860002846B047D0E7F8BD30B4C4680023A4465A
:1048700030BC1A46182160472DE9F041DFF8B080BE
:1048800014460646A1F11402002798F800001D46C0
:10489000062A4AD2DFE802F02F03161B3E4310B16E
:1048A0003046FFF748FF3046FFF754FF00213046FF
:1048B000FFF749FF21463046FFF745FF012088F802
:1048C000000029E021463046FFF73DFF24E050B1CB
:1048D0003046FFF730FF06E01821304600F0EAF8D6
:1048E000183CE4B21835182C2A46F5D82146304633
:1048F00000F0E0F80EE096F82400FF2802D17820BE
:1049000086F8240037692B4622463046BC46BDE86F
:10491000F041604788F800700120BDE8F081002870
:10492000F8D03046FFF707FFF4E70020F5E7000076
:10493000CC00002070B50023456904461A462821A2
:10494000A8470023E5681A4614212046A8470122FB
:104950004B21204600F0A8F8206829210279204642
:1049600000F0A2F800224B21204600F09DF82068BC
:1049700029210279204600F097F801224B21204698
:1049800000F092F82068292142792046BDE8704065
:1049900000F08AB80160897C80F82210704700001E
:1049A00070B50C46054600F019F888B9092C0BD0F3
:1049B0000A2C01D0002070BD2846FFF7BBFF054937
:1049C0002846FFF71DFF03E003492846FFF7E2FFF3
:1049D000012070BD165E0008185F00082DE9F04147
:1049E0001E46144605460B2908D00D290ED00E2967
:1049F0001ED00F2927D00020BDE8F0811AB1284928
:104A0000FFF7FEFE4AE02649491FF9E74AB124496B
:104A10000C31FFF7F5FE286890F8130085F82200A6
:104A20003CE01F49491DFFF7EBFE2868807CF5E755
:104A3000FFF71AFF81212846FFF7D2FE21462846BC
:104A4000FFF7C6FE27E0FFF70FFF707995F82210F9
:104A500001EBC000C7B240212846FFF7C1FE10207D
:104A600040EA17112846FFF7BBFE07F00F01284662
:104A7000FFF7AEFEB07940F0B0012846FFF7A8FE80
:104A800030793268C006010E2846FFF7B1FE641E79
:104A900014F0FF04F4D12846FFF792FE0120ABE7A3
:104AA000F55D00080020704730B444690023A44637
:104AB00030BC60472DE9F04115460E460446FFF72D
:104AC00049FE40212046FFF73EFE27692B4632462D
:104AD00017212046B8472046BDE8F041FFF72BBE1E
:104AE000002180F826107047D0E9013201699A60F0
:104AF000D0E901235A604A68824201D182684A6043
:104B0000002202610868401E0860086870470000C3
:104B1000034B036003F15C00086080201060704765
:104B20003C0C0020044B036003F15C0008604FF470
:104B30008070106070470000980E002000F108019E
:104B40004FF0FF32C0E90112C16001610021016034
:104B5000704700210161704730B50B685A1C02D0C4
:104B600000F1080202E0026904E022465468256868
:104B70009D42FAD953684B6099608A605160086120
:104B80000168491C016030BD42684A6093688B60CF
:104B900093685960916008610168491C0160704721
:104BA000502080F31188BFF34F8FBFF36F8F0A49F6
:104BB0004868401C486001280CD10848006810F083
:104BC000FF0F07D0502080F31188BFF34F8FBFF342
:104BD0006F8FFEE770470000BC00002004ED00E08E
:104BE0000849486828B1401E486001D180F3118807
:104BF0007047502080F31188BFF34F8FBFF36F8F42
:104C0000FEE70000BC00002070B500282AD0164D39
:104C1000A0F1080460686969084207D1502080F358
:104C20001188BFF34F8FBFF36F8FFEE722683AB151
:104C3000502080F31188BFF34F8FBFF36F8FFEE7D3
:104C40008843606000F030F9606869680844686013
:104C50002046FEF7BDFD2869401C2861BDE8704074
:104C600000F092BD70BD00009C0000204FF0E020DD
:104C700000210161816105494FF47A720968B1FB35
:104C8000F2F1491E416107210161704720000020B7
:104C900010B5FBF7DFFA114910280ED300F1E02020
:104CA00090F8F0030A78904207D2502080F31188E0
:104CB000BFF34F8FBFF36F8FFEE709480068896825
:104CC00000F4E060884207D9502080F31188BFF3D8
:104CD0004F8FBFF36F8FFEE710BD0000BC000020B8
:104CE0000CED00E010B5084B002200BF53F8324035
:104CF0001CB1521C082AF9D310BD43F8321003EB43
:104D0000C201486010BD00002006002070B51546A5
:104D10000E460446FFF744FF94F944100020491C56
:104D200001D184F8440094F94510491C01D184F85C
:104D30004500FFF755FFA06B28B92A46314604F11C
:104D4000240000F051F82046BDE87040FEF7EEBEAA
:104D500010B5020014D00F48006B38B1502080F31A
:104D60001188BFF34F8FBFF36F8FFEE700F09CF801
:104D700000211046FEF746FB00F006FD002807D193
:104D800005494FF080500860BFF34F8FBFF36F8F1E
:104D900010BD00004800002004ED00E002490A6A4E
:104DA0000260C96841607047480000200149012045
:104DB000C86170474800002010B50C4650B1094941
:104DC00009681831FFF7C8FE2046BDE810400121F0
:104DD000FEF718BB502080F31188BFF34F8FBFF34D
:104DE0006F8FFEE74800002070B514460D4668B18D
:104DF0000A4909681831FFF7C7FE0CB14FF0FF35BB
:104E000021462846BDE87040FEF7FCBA502080F3EA
:104E10001188BFF34F8FBFF36F8FFEE7480000206C
:104E200030B587B00024039405AA04A903A804940C
:104E3000FFF76EFEDDE903010094CDE901100023C8
:104E400015A11748059A00F084FB164D0028E8626A
:104E50001FD000F0FBFC012809D0401C19D15020C4
:104E600080F31188BFF34F8FBFF36F8FFEE75020A1
:104E700080F31188BFF34F8FBFF36F8F4FF0FF3078
:104E8000A86201206861EC6007B0BDE8304000F026
:104E900045B807B030BD000049444C450000000053
:104EA0009D360008480000200248016B491C016340
:104EB0007047000048000020164810B5016B11B182
:104EC0000121C16110BD0021C1610169124A01E0E7
:104ED000B9B1491E01EB810352F82330002BF7D002
:104EE00001EB810302EB830202F1080453685B6863
:104EF0005360A34201D15B685360DA6802600161CC
:104F000010BD502080F31188BFF34F8FBFF36F8F18
:104F1000FEE7000048000020600600201CB537486E
:104F20000168374A914207D1502080F31188BFF3BE
:104F30004F8FBFF36F8FFEE700683149491E8842EB
:104F400007D1502080F31188BFF34F8FBFF36F8FCD
:104F5000FEE72C4908780190FF20087008788DF84A
:104F600000009DF800009DF8002000F0F000904245
:104F700007D0502080F31188BFF34F8FBFF36F8F9E
:104F8000FEE79DF80000204C00F050002070072044
:104F9000A06005E09DF8002052008DF80020401E22
:104FA0009DF800201206F5D4A060032807D05020F9
:104FB00080F31188BFF34F8FBFF36F8FFEE74FF47D
:104FC0004070A060019808700C482030016841F4DE
:104FD00070010160016841F070410160FFF746FE19
:104FE00000206060FBF7FEF80848016841F040418E
:104FF0000160FBF7E3F800201CBD000000ED00E0BD
:1050000071C20F4100E400E0BC00002034EF00E07A
:1050100010B5502080F31188BFF34F8FBFF36F8F0F
:1050200000F0D6FA18B104494FF080500860002013
:1050300080F3118810BD000004ED00E038B5049D38
:1050400018B153B1CAB181B120E0502080F311886A
:10505000BFF34F8FBFF36F8FFEE7502080F31188AF
:10506000BFF34F8FBFF36F8FFEE7502080F311889F
:10507000BFF34F8FBFF36F8FFEE739B1502080F33E
:105080001188BFF34F8FBFF36F8FFEE750241C468C
:10509000012384F846302B460094FEF72FFB204670
:1050A00038BD000070B50D46040025D0FFF778FD2F
:1050B000D4E90F20216802FB0011A1600021A16347
:1050C000216861600A46D4E90F01401E00FB0121FE
:1050D000E16021464FF0FF3001F8440F487004F1C1
:1050E00010008DB1FFF72AFD04F12400FFF726FD23
:1050F000FFF776FD012070BD502080F31188BFF3CB
:105100004F8FBFF36F8FFEE721690029F0D000F0C9
:1051100003FB0028ECD004494FF080500860BFF337
:105120004F8FBFF36F8FE3E704ED00E02DE9FF47FA
:1051300082B01D468A464FF00008040003D0BAF141
:10514000000F08D011E0502080F31188BFF34F8F7B
:10515000BFF36F8FFEE7206C38B1502080F31188C9
:10516000BFF34F8FBFF36F8FFEE7022D0AD1E06BC5
:10517000012807D0502080F31188BFF34F8FBFF371
:105180006F8FFEE700F010FA3F4F4FF000094FF02D
:10519000805648B9049838B1502080F31188BFF385
:1051A0004F8FBFF36F8FFEE7FFF7FAFCA06BE16B49
:1051B000884207D3022D05D00498D0B1B8F1000F72
:1051C0001AD01EE02A4651462046FEF7F0F9616AE1
:1051D00019B104F1240000F09FFA20B13E60BFF342
:1051E0004F8FBFF36F8FFFF7FBFC012006B0BDE8C8
:1051F000F087FFF7F5FC22E06846FFF7CFFD4FF0A0
:105200000108FFF7EDFCFFF74FFEFFF7C9FC94F92B
:105210004400401C01D184F8449094F94500401C9E
:1052200001D184F84590FFF7DBFC04A9684600F043
:1052300029F930B12046FEF779FC00F0A5FA0020EC
:10524000D4E7FFF7ADFCA06BE16B884213D1FFF709
:10525000C7FC04F110000499FFF7AEFD2046FEF7ED
:1052600065FC00F091FA00289ED13E60BFF34F8F9D
:10527000BFF36F8F98E7FFF7B3FC2046FEF756FCAD
:1052800000F082FA90E7000004ED00E02DE9F0471D
:105290001F4690468946040003D0B9F1000F08D09C
:1052A00011E0502080F31188BFF34F8FBFF36F8F51
:1052B000FEE7206C38B1502080F31188BFF34F8F88
:1052C000BFF36F8FFEE7022F0AD1E06B012807D0F2
:1052D000502080F31188BFF34F8FBFF36F8FFEE72D
:1052E000FFF7D6FC5020EFF3118680F31188BFF34F
:1052F0004F8FBFF36F8FA06BE16B884206D3022FF5
:1053000004D0002086F31188BDE8F08794F9455059
:10531000A06B3A4649462046FEF749F9681C04D07E
:105320006D1C84F845500120ECE7606A0028FAD033
:1053300004F1240000F0F0F90028F4D0B8F1000FD7
:10534000F1D00121C8F80010EDE700002DE9F74782
:10535000002683B08A46040003D0BAF1000F08D0BB
:1053600011E0502080F31188BFF34F8FBFF36F8F90
:10537000FEE7206C38B1502080F31188BFF34F8FC7
:10538000BFF36F8FFEE700F00FF9DFF8F4804FF006
:1053900000094FF0805748B9059838B1502080F384
:1053A0001188BFF34F8FBFF36F8FFEE7FFF7F8FB56
:1053B000A56BC5B151462046FEF7E6F86D1EA56304
:1053C000206950B104F1100000F0A6F928B1C8F826
:1053D0000070BFF34F8FBFF36F8FFFF701FC012009
:1053E00006B0BDE8F087059808B11EB106E0FFF7EA
:1053F000F7FB27E06846FFF7D1FC0126FFF7F0FB3B
:10540000FFF752FDFFF7CCFB94F94400401C01D19B
:1054100084F8449094F94500401C01D184F84590EB
:10542000FFF7DEFB05A9684600F02CF800282046AF
:105430000AD0FEF77BFB00F0A7F92046FEF70AFA38
:105440000028B3D00020CBE7FEF704FA90B104F1B6
:1054500024000599FFF7B0FC2046FEF767FB00F03B
:1054600093F90028A2D1C8F80070BFF34F8FBFF3A3
:105470006F8F9BE72046FEF759FB00F085F995E713
:1054800004ED00E02DE9F0410C46050011D0C4B157
:10549000FFF786FB174BDA686E682068911B471C84
:1054A00017D02F681B6A9F4219D0964217D8012443
:1054B00010E0502080F31188BFF34F8FBFF36F8F40
:1054C000FEE7502080F31188BFF34F8FBFF36F8F3B
:1054D000FEE70024FFF784FB2046BDE8F081884208
:1054E00005D9401A20602846FFF758FCF1E7002054
:1054F0002060DCE7480000202DE9FF5F8346DDE9FE
:105500000E87994616468A469000FEF745FB050031
:105510001CD05C20FEF740FB040014D00020256363
:1055200084F85900CDE90240CDE900874B46324668
:1055300051465846FEF7F4F82046FDF791FF01204A
:1055400004B0BDE8F09F2846FFF75EFB4FF0FF3048
:10555000F6E7F0B585B0DDE90B640A9DA6B1DCB1D4
:105560005C2700972663022684F85960002604AF62
:10557000CDE90246CDE90057FEF7D2F82046FDF707
:105580006FFF049805B0F0BD502080F31188BFF381
:105590004F8FBFF36F8FFEE7502080F31188BFF36A
:1055A0004F8FBFF36F8FFEE70548416919B1006B5C
:1055B00018B100207047012070470220704700009A
:1055C000480000200148C0687047000048000020E3
:1055D0002DE9F0412E4C0027206B28B1A069401C1A
:1055E000A0613846BDE8F081E668761CE66013D11C
:1055F000606B006838B1502080F31188BFF34F8F83
:10560000BFF36F8FFEE7606BA16B6163A063206ADD
:10561000401C2062FEF70AFAA06ADFF87880864212
:1056200009D3606B0068A0B1606BC068C56868682A
:10563000864211D2A0622068C06A00EB800158F84F
:105640002100012800D90127E0690028C9D00127DD
:10565000C7E74FF0FF30EDE7281DFFF745FAA86ACE
:1056600018B105F11800FFF73FFAE86A216988428E
:1056700000D9206100EB800108EB8100291DFFF7B4
:1056800083FAE86A2168C96A8842CAD30127C8E751
:10569000480000206006002070B504004FF00001B3
:1056A00033D01B4D2868844207D0502080F31188E6
:1056B000BFF34F8FBFF36F8FFEE7206D38B1401EF1
:1056C0002065E36CE26A9A421FD040B11DE0502091
:1056D00080F31188BFF34F8FBFF36F8FFEE7201D5C
:1056E000FFF702FAE06CE062C0F13800A061E06A06
:1056F0002969884200D92861064900EB800001EB46
:105700008000211DFFF740FA0121084670BD00000E
:10571000480000206006002070B5C068C46854B11D
:1057200004F118000646FFF7DFF9144D286B50B15D
:105730003146134815E0502080F31188BFF34F8F96
:10574000BFF36F8FFEE7201DFFF7CEF9E06A2969EE
:10575000884200D928610B4900EB800001EB8000F2
:10576000211DFFF711FAE06A2968C96A884202D947
:105770000120E86170BD002070BD000048000020DD
:10578000E80A0020600600202DE9F0472C4D002497
:105790002746286B38B1FFF703FA286B401E2863B1
:1057A000286B40B146E0502080F31188BFF34F8F43
:1057B000BFF36F8FFEE7A968224E0120D1B3A6F593
:1057C000916980463068E0B1F068C46804F118005F
:1057D000FFF78AF9201DFFF787F9E06A29698842F7
:1057E00000D9286100EB800109EB8100211DFFF742
:1057F000CBF9E06A2968C96A8842E3D3C5F81C80FE
:10580000E0E70CB1FEF712F9AC694CB14FEA0806BB
:10581000FFF7DEFE00B1EE61641EF9D10020A86141
:10582000E86938B10849012738070860BFF34F8F8E
:10583000BFF36F8FFFF7D4F93846BDE8F08700005B
:1058400048000020E80A002004ED00E010B586B012
:10585000FDF76EFE114C2068B8B100200390049053
:1058600005AA04A903A8FFF75DF9DDE903210220D9
:105870008DE8070000230AA10B48059AFFF769FE8F
:10588000606010B106B0012010BD502080F3118877
:10589000BFF34F8FBFF36F8FFEE70000840000203F
:1058A000546D722053766300093B00082DE9FF41D7
:1058B0001E46134602000A9D4FF0000016D0144CFD
:1058C0002768002F0FD0CDE900130292062917DABE
:1058D000FFF76AFE02284FF000030FD0002269464E
:1058E0002068FFF723FC04B0BDE8F081502080F36E
:1058F0001188BFF34F8FBFF36F8FFEE72A46EEE7A5
:105900000023324669463846FFF7C0FCEBE700004B
:1059100084000020785F0008000000000000000004
:10592000000000000000000000020000180000005D
:1059300000000000000000006C5F00080000000094
:105940000000000000000000000000000002000055
:105950000800000000000000000000005C5F00087C
:105960000000000000000000000000000000000037
:10597000000200000800000000000000000000001D
:10598000545F00080000000000000000000000005C
:1059900000000000000200000800000000000000FD
:1059A00000000000485F0008000000000000000048
:1059B00000000000000000000002000008000000DD
:1059C00000000000000000000000000000000000D7
:1059D0000102030406070809000000000102030495
:1059E0005F00020304040204050B0BFFFE08FE081F
:1059F000FE015202C103E7200500E60421088223CC
:105A0000E590620122073377255205230F77A135F0
:105A10008AA1B419856614436900240DA59E359E9C
:105A200052F43292527308251287224E96A4508A5D
:105A3000C1188EC1488CA25902260F87226E964447
:105A4000499E255392C64900270631F76400280A6B
:105A5000A31A3592229DA118290CA31A2514434993
:105A60002B9242002A07333625CA012B0B56A65526
:105A70008644538644002C0742DA8492002D061493
:105A80006E85002E0622E284002F0B84223D1987AA
:105A90007118C700300A85A26D92F892260031076E
:105AA00083A3ADD207320985A26D522BB50B330CFF
:105AB00085A26D528B322453D204340F86A21D8AE4
:105AC00021798CA450B2654802350C85A2E596690F
:105AD00068A4A40900360C85A26D92684A62491335
