:020000040800F2
:1000000010140020290200081F270008612500089D
:100010001D2700083B040008852E00080000000092
:10002000000000000000000000000000D92A0008C5
:10003000E505000800000000752A0008DB2A00081A
:10004000430200084302000843020008430200087C
:10005000430200084302000843020008430200086C
:10006000430200084302000843020008430200085C
:100070005D0500084302000843020008430200082F
:10008000430200084302000843020008430200083C
:10009000B1040008430200084302000843020008BC
:1000A00043020008852B00084302000843020008B1
:1000B000430200084302000843020008430200080C
:1000C00043020008430200084302000843020008FC
:1000D000430200084302000843020008D12D000833
:1000E00043020008430200084302000843020008DC
:1000F00043020008430200084302000843020008CC
:1001000043020008430200084302000843020008BB
:1001100043020008430200084302000843020008AB
:10012000430200084302000843020008430200089B
:10013000430200084302000843020008430200088B
:10014000310500084302000843020008430200088A
:10015000430200084302000843020008430200086B
:10016000430200084302000843020008430200085B
:100170004302000843020008430200080000000098
:10018000430200084302000800F002F800F03CF8C7
:100190000AA090E8000C82448344AAF10107DA45E2
:1001A00001D100F031F8AFF2090EBAE80F0013F0F8
:1001B000010F18BFFB1A43F0010318473451000028
:1001C00054510000103A24BF78C878C1FAD85207B9
:1001D00024BF30C830C144BF04680C6070470000C1
:1001E0000023002400250026103A28BF78C1FBD840
:1001F000520728BF30C148BF0B6070471FB504F0DD
:1002000050FF1FBD10B510BD00F0E2F81146FFF71A
:10021000F5FF04F03FF800F000F903B4FFF7F2FF38
:1002200003BC00F003F90000094880470948004773
:10023000FEE7FEE7FEE7FEE7FEE7FEE7FEE7FEE796
:10024000FEE7FEE704480549054A064B70470000F3
:10025000752B000889010008100E002010140020E2
:10026000101000201010002053EA020C00F06980EA
:100270002DE9F04B4FF00006002B1FBFB3FA83F5BA
:1002800003FA05F424FA05F65E4012BF1643B2FAEB
:1002900082F502FA05F4C5F120051EBF22FA05FC1D
:1002A00044EA0C04203556EA044C4FEA144418BFC3
:1002B000641C4FF000084FF00009904271EB030CF2
:1002C00039D3002919BFB1FA81F701FA07F6B0FA5C
:1002D00080F700FA07F6C7F120071EBF20FA07FCD7
:1002E00046EA0C062037B6FBF4FCA7EB0507103FE7
:1002F00007F01F0BCBF120060CFA0BFB2CFA06F6CD
:1003000044BFB3460026202FA4BF5E464FF0000B2B
:100310005BEA060C08BF4FF0010B19EB0B09ABFBB6
:10032000027C48EB0608C01B06FB02CC0BFB03CC8F
:1003300071EB0C01C1E70B46024641464846BDE859
:10034000F08B13B54FF000004FF00001AFF30080C9
:10035000BDE81C4070474FF0000200B513469446BC
:100360009646203922BFA0E80C50A0E80C50B1F10D
:100370002001BFF4F7AF090728BFA0E80C5048BF21
:100380000CC05DF804EB890028BF40F8042B08BFBF
:10039000704748BF20F8022B11F0804F18BF00F8BB
:1003A000012B704770477047704710B500F008F890
:1003B000006810BD10B5044600F002F8046010BDDE
:1003C00000487047B00D002000487047B00D002075
:1003D0007546FFF7F9FFAE4605006946534620F023
:1003E0000700854618B020B5FFF72CFFBDE8204078
:1003F0004FF000064FF000074FF000084FF0000BE1
:1004000021F00701AC46ACE8C009ACE8C009ACE893
:10041000C009ACE8C0098D46704710B50446AFF37B
:1004200000802046BDE81040FFF7F7BE01491820C4
:10043000ABBEFEE7260002007047FEE738B50E4C63
:100440004FF4007525600025A560E560082525614D
:100450000A4C050A25706070080AA070E170100A45
:1004600020716271180AA071E3716B46224602493D
:10047000034800F0CCF838BD380400205A000020B2
:100480009800002000B58BB000200121CDE90601C5
:1004900008910090019002900390059004906946A5
:1004A000024800F019F90BB000BD000098000020D0
:1004B000014800F00CBA00009800002038B50E4C3E
:1004C0004FF4007525600025A560E56008252561CD
:1004D0000A4C050A25706070080AA070E170100AC5
:1004E00020716271180AA071E3716B4622460249BD
:1004F000034800F08CF838BD380400205A00002072
:10050000C000002000B58BB000200121CDE906011C
:100510000891009001900290039005900490694624
:10052000024800F0D9F80BB000BD0000C000002068
:10053000014800F0CCB90000C000002010B504460E
:1005400000F036FC0221204600F04FF8002803D0CE
:10055000BDE8104000F047B810BD0000014800F0B1
:100560005BBC00007401002001681823CAB2103A75
:10057000B2FBF3F2054B6FF30901032A9B5CC365E1
:1005800000D9091D8165084670470000A651000882
:1005900010B5014600208B698A6A4FF0C07453B1D0
:1005A000B3F5005F15D072B1012A0CD0022A0AD02F
:1005B000032A09D104E01AB1012A06D0022A03D184
:1005C000C96AC90100D5012010BDC96AA142FAD08B
:1005D00010BD002AF7D0012AF2D0022AF3D0032A54
:1005E000F3D010BD704772B6FEE790F82020012AC4
:1005F00007D0022A05D0416A41F4802141620120DE
:100600007047006842690A43426100207047F0B5B4
:1006100090F820500468A468012D05D0022D03D065
:10062000416A41F4802153E014F0406F01D1E500AC
:100630004BD5C4F30164022C03D9416A41F4000193
:1006400046E00125A5401D608D684FF4C0739DB143
:10065000CE6835434E6845EAC605066803EB0417C5
:10066000F5514FF4C275076805EB04150E697E510C
:10067000097D012905D009E00E88CD6845EA465577
:10068000EBE701684E5946F480764E511179D2F865
:1006900005504FF4C67641EA0525016806EB0416BD
:1006A0008D511178D2F801204FF4C47541EA02212E
:1006B000026805EB04155151006803EB0411425820
:1006C00042F0010242500020F0BD416A41F40011A5
:1006D00041620120F0BD000010B590F82020012AF1
:1006E00007D0022A05D0416A41F4802141620120ED
:1006F00010BD3B48D0F8002242F00102C0F80022B1
:10070000D0F8002222F47C52C0F80022D0F8002257
:100710004B6A42EA0322C0F800220A7D02F01F035E
:1007200001229A40D0F81C329343C0F81C32CB69A6
:10073000B3B9D0F80C329343C0F80C328C894B68B3
:1007400064F31F434C6900EBC404C4F840320C89C5
:100750000B6864F31F434C6900EBC404C4F84432D3
:10076000CB69012B16D1D0F80C321343C0F80C32F0
:100770000C884B6864F31F434C6900EBC404C4F855
:1007800040320C89CB6864F31F434C6900EBC4040E
:10079000C4F844328B69002BD0F804320ED01343D6
:1007A000C0F804320B69002BD0F8143208D0134380
:1007B000C0F81432096A012904D008E09343EFE736
:1007C0009343F5E7D0F81C121143C0F81C12D0F87F
:1007D000001221F00101C0F80012002010BD00003D
:1007E00000640040704730B590F82040012C05D0DF
:1007F000022C03D0416A41F480215DE004680029A5
:1008000055D02469A40754D04FF4D874056804EB7C
:1008100001142D5915F00405956005682D594ED029
:10082000ED08556005682C5904F00204D4604FF4BB
:10083000DA74056804EB01142D5905F00F051561F4
:1008400005682D59C5F30725956105682C59240CB9
:1008500054614FF4DC72046802EB0112A4581C705E
:100860000468A458240A5C700468A458240C9C7082
:100870000468A258120EDA704FF4DE72046802EBBC
:100880000112A4581C710468A458240A5C710468FD
:10089000A458240C9C710468A258120EDA710068E6
:1008A00081B1016941F020010161002030BDE4689F
:1008B000A8E7416A41F400114162012030BD6D0D8D
:1008C0001560AFE7C16841F02001C160EDE72DE997
:1008D000F05F0546006800244669D0F804908768F8
:1008E000D0F80CB0D0F810A0D0F81880F10748D09C
:1008F000F90714D001218160B80703D5284600F01C
:1009000084FA0CE0780702D54FF4006407E038075A
:1009100002D54FF4805402E0284600F075FAF8053D
:1009200016D529684FF480708860B80503D528462D
:1009300000F06DFA0CE0780502D544F4005407E0AD
:10094000380502D544F4804402E0284600F05EFAFF
:10095000F80316D529684FF480308860B80303D5B2
:10096000284600F056FA0CE0780302D544F400441F
:1009700007E0380302D544F4803402E0284600F052
:1009800047FA300707D55FEACB6004D52968102005
:1009900044F40074C86070074FF0080707D55FEA99
:1009A0000B7004D52868C760284600F099F9B00795
:1009B00006D52868C068800702D0284600F092F962
:1009C000700607D55FEACA6004D52968102044F490
:1009D00080640861B00607D55FEA0A7004D528680C
:1009E0000761284600F0E0F9F00606D5286800699E
:1009F000800702D0284600F0D8F9B00308D55FEA96
:100A0000C96005D5296810204860284600F0CEF955
:100A1000F00307D55FEA097004D5286847602846C7
:100A200000F0F8F9300446D55FEA497040D5F0058A
:100A300004D55FEAC87001D044F00104B00504D5C4
:100A40005FEA887001D544F00204700504D55FEABE
:100A5000487001D544F00404300529D518F0700F12
:100A600026D008F07000402815D006DC102809D0E8
:100A700020280AD0302816D10AE050280ED060284D
:100A800011D10EE044F008040DE044F010040AE037
:100A900044F0200407E044F0400404E044F0800403
:100AA00001E044F480742868816921F0700181615B
:100AB000296804204860002C05D0686A20436862D9
:100AC0002846FFF78FFEBDE8F09F70B5040003D005
:100AD00094F8200010B104E0012070BD204600F021
:100AE00081F82068016841F00101016000F0C6FB57
:100AF0000546052604E000F0C1FB401B0A2811D87A
:100B000020684068C007F6D02068016821F0020123
:100B1000016000F0B3FB05460BE000F0AFFB401BAB
:100B20000A2806D9606A40F40030606284F82060C8
:100B3000D2E7206840688007EFD4207E0128206833
:100B400001683DD021F080010160607E01282068AD
:100B5000016838D021F040010160A07E01282068A2
:100B6000016833D021F020010160E07E0128206877
:100B700001682ED041F010010160207F012820681B
:100B8000016829D021F008010160607F01282068F8
:100B9000016824D021F004010160D4E90201084376
:100BA000D4E90412114308436168491E08432168CF
:100BB000C86100206062012084F82000002070BD20
:100BC00041F08001C0E741F04001C5E741F020015C
:100BD000CAE721F01001CFE741F00801D4E741F066
:100BE0000401D9E7F0B587B0044614216846FFF741
:100BF000B2FB364B3648DFF8D0E01968D4F800C0B5
:100C0000334A03250226092710300024491CF445E5
:100C100022D11960012907D1016841F000710160FA
:100C2000006800F000700590106840F00800106047
:100C30001068CDE9005600F00800CDE9047069465F
:100C40002448CDE9024500F021FA00221146142083
:100C500000F082FB142032E0DFF87CE0F44530D174
:100C6000D0F800C04CF0806CC0F800C0D0F800C0D4
:100C700001290CF0806CCDF814C0196007D101680F
:100C800041F000710160006800F00070059010688C
:100C900040F002001060106802AB00F00200059006
:100CA0006020CDE9000683E8B00069460B4800F0FB
:100CB000EDF900221146402000F04EFB402000F0EC
:100CC0003DFB07B0F0BD00000064004000000020C4
:100CD00030380240000C024000680040000402402E
:100CE0007047000070B5054600682B492B4C8CB04E
:100CF000884224D107AB6A4600212846FFF773FDDE
:100D00000098A0F20120062819D8C0B22070244E05
:100D1000C0EBC00006EB800081694A1C3229826169
:100D200007A902D803F090FA01E003F092FA2078C4
:100D300007A9C0EBC00006EB800003F08AFA19494E
:100D40002868884225D109AB6A4600212846FFF76A
:100D50004AFD0098A0F2012006281AD8C0B2104D12
:100D60006070C0EBC000E03505EB800081694A1C73
:100D70003229826109A902D803F066FA01E003F082
:100D800068FA607809A9C0EBC00005EB800003F0A9
:100D900060FA0CB070BD00000064004058000020F4
:100DA00078020020006800407047704770470000DC
:100DB00070B5044690F82000012804D0606A40F421
:100DC0000020606218E0022084F82000206801689A
:100DD00021F00101016000F051FA05460EE000BF6C
:100DE00000F04CFA401B0A2808D9606A40F4003031
:100DF0006062052084F82000012070BD20684068F2
:100E0000C007EDD1606270BD704770477047704792
:100E100070477047704700002DE9F84304464FF0D3
:100E20000009CDF8009063484FF41651A56D006895
:100E3000B0FBF1F72E6894F85C10082000FA01F17D
:100E400031420FD021680A6852070BD50A6822F098
:100E500004020A6094F85C108840A860606D40F05D
:100E60000100606594F85C104FF0010808FA01F089
:100E7000304208D021684969090604D5A860606D30
:100E800040F00200606594F85C1004208840304215
:100E900008D021680968890704D5A860606D40F012
:100EA0000400606594F85C1010208840304218D02F
:100EB00021680968090714D5A860206801684903FA
:100EC00004D50068000308D5A16C07E00168C905D6
:100ED00003D4016821F008010160216C09B12046AA
:100EE000884794F85C1020208840304231D0216837
:100EF0000968C9062DD5A86094F835000528206832
:100F0000016806D0490347D5006800031DD4616C11
:100F10001CE021F0160101602068416921F0800188
:100F20004161206C08B9A06C20B12068016821F0F3
:100F30000801016094F85C103F208840A86084F8A4
:100F4000358084F83490216D1FE0E16B09B12046B3
:100F50008847606D00282BD0606DC00714D0052035
:100F600084F835002068016821F0010101600098D3
:100F7000401C0090B84203D820680068C007F6D132
:100F800084F8358084F83490E16C002910D001B0E9
:100F90002046BDE8F04308470168C905D5D401687B
:100FA00021F01001016084F8358084F83490CCE79A
:100FB000BDE8F883100000202DE9F041044600F060
:100FC0005DF906465CB1022084F83500002584F8FE
:100FD00034502068016821F0010101600DE001201A
:100FE000BDE8F08100F04AF9801B052805D92020D2
:100FF0006065032084F83500F2E720680068C007C8
:10100000F0D12268116820480140D4E90103184357
:10101000D4E903363343184363691843A36918437B
:10102000E3691843236A18430843616A042903D11A
:10103000D4E90B1319430843106020684069666ABD
:1010400020F0070130460E43012704280CD1A06A86
:101050000643E06A40B12046FFF79AFA20B14020EB
:10106000606584F83570BAE7206846612046FFF76E
:101070007BFA94F85C203F2191408160656584F89B
:1010800035700020ACE700003F8010F02DE9F84FEC
:10109000DFF8BCA10022012503264FF00F090AF159
:1010A000040BAAF1040E00BF0B6805FA02F42340FA
:1010B000A34270D10F7907F00307012F01D0022F4F
:1010C00016D187684FEA420806FA08FC27EA0C079F
:1010D000D1F80CC00CFA08FC4CEA070CC0F808C0A8
:1010E0004768A7430C79C4F3001494403C43446020
:1010F0000C79E443A4070AD0C4684FEA420C06FA0C
:101100000CF7BC438F6807FA0CF72743C7600C79CC
:1011100004F00304022C12D1D40800EB840CDCF898
:1011200020405707FF0E09FA07F824EA0804D1F80F
:10113000108008FA07F848EA0408CCF82080046810
:101140004FEA420C06FA0CF7BC430F7907F003078D
:1011500007FA0CF7274307604C6814F4403F70D03F
:101160003C4C276847F480472760246822F0030737
:1011700004F480440094384C07EB040CDCF8084875
:1011800097074FEA177809FA08F7BC43334FB8427C
:1011900002D1002724E054E0314FB84201D10127A9
:1011A0001EE0304FB84201D1022719E02E4FB8425D
:1011B00001D1032714E02D4FB84201D104270FE0DD
:1011C0002B4FB84201D105270AE02A4FB84201D17E
:1011D000062705E0284FB84201D1072700E008277D
:1011E00007FA08F72743CCF80878DAF800405746A2
:1011F000D1F804C09C435FEACC2C00D51C433C6072
:10120000DBF800405F46D1F804C09C435FEA8C2CB9
:1012100000D51C433C60DEF800407746D1F804C09E
:101220009C435FEA8C3C00D51C433C60084F083F60
:101230003C68D1F804C09C435FEACC3C00D51C4319
:101240003C60521C102AFFF42FAFBDE8F88F00005D
:10125000083C014044380240003001400000024098
:101260000004024000080240000C0240001002404E
:101270000014024000180240001C0240014880682F
:101280007047000004000020024881680278114481
:1012900081607047040000200B4810B5016841F4DC
:1012A00000710160016841F480610160016841F4EE
:1012B00080710160032000F06FF80F2000F006F845
:1012C00000F024F8002010BD003C024070B50D4D28
:1012D00004464FF47A712878B1FBF0F00A490968A6
:1012E000B1FBF0F000F00CFB48B9102C07D2002243
:1012F0002146501E00F030F800206C6070BD0120C7
:1013000070BD000004000020100000200A4808B54D
:10131000016841F480410160006800F48040009061
:101320000548001F016841F080510160006800F02D
:101330008050009008BD000044380240002809DBBE
:1013400000F01F02012191404009800000F1E020DF
:10135000C0F8001170470000F0B40E4B1B680C463B
:10136000C3F30223C3F10705042D00D90425191D79
:10137000072901D2002300E0DB1E012606FA05F151
:10138000491E214099409E40761E16403143F0BCD4
:1013900001F091BD0CED00E0064900F0070208687D
:1013A0004FF6FF03184040EA0220034A104308604A
:1013B000704700000CED00E00000FA052DE9F04751
:1013C0000E46050065D0DFF81481D8F80000F7B2AA
:1013D00000F00700B04207D288F80070D8F800008B
:1013E00000F00700B04254D128683D4C810712D567
:1013F000400703D5206840F4E050206028780007BB
:1014000003D5206840F4604020602068A96820F07F
:10141000F000084320602878C0072DD03049686864
:101420000839012812D0022813D0032811D00968E6
:10143000890700292DDA216821F003010143216089
:10144000FFF71CFF814641F2883A0EE009688903E4
:10145000EFE709688901ECE7FFF710FFA0EB09014E
:10146000514502D90320BDE8F0872068696800F083
:101470000C00B0EB810FEFD1D8F80010404601F01E
:101480000701B14207D90770006800F00700B042B9
:1014900001D00120E7E72878400705D52068E968F2
:1014A00020F4E050084320602878000706D5206823
:1014B000296920F4604040EAC100206000F038F85B
:1014C0002168084AC1F30311515CC840064908600D
:1014D00006480068FFF7FAFE0020C4E7003C02401F
:1014E00008380240AE51000810000020080000201B
:1014F0000448054900680968044AC1F38221515C27
:10150000C84070471000002008380240BE51000853
:101510000448054900680968044AC1F34231515C36
:10152000C84070471000002008380240BE51000833
:10153000154810B5006810F00C02144813D0144977
:10154000042A0FD0082A0ED10F4C241F22682368CA
:1015500002F03F025B0207D52068C0F38810A0FBB1
:10156000010106E0084610BD2168C1F38811A1FB06
:1015700000010023FEF778FE2168C1F30141491CF8
:101580004900B0FBF1F010BD083802400024F4001F
:10159000001BB7002DE9F84F04006ED02078DFF86B
:1015A0004C93C007A9F104054AD009F10400016871
:1015B000C1F38101012908D00068C0F3810002282D
:1015C0000AD1D9F80000400206D52868800337D533
:1015D00060680028E1D033E06068B0F5803F10D04B
:1015E000B0F5A02F286810D020F48030286028683B
:1015F00020F4802028606068A8B1FFF73FFE06460F
:101600000DE0286840F48030F4E740F48020286042
:10161000F7E700BFFFF732FE801B642873D8286805
:101620008003F7D50CE0FFF729FE064605E000BF72
:10163000FFF724FE801B6428F0D828688003F7D4C5
:101640002078DFF8AC8280074FF0000A3ED5A7482B
:10165000001D016811F00C0F08D00068C0F3810074
:1016600002280BD1D9F80000400207D4286880076F
:1016700016D5E068012800D112E033E1E068B8B186
:101680000120C8F80000FFF7F9FD064605E000BF9D
:10169000FFF7F4FD801B0228C0D828688007F7D523
:1016A0002868216920F0F80040EAC10028600DE0B8
:1016B000C8F800A0FFF7E2FD064604E0FFF7DEFDF4
:1016C000801B02281FD828688007F7D420780007DD
:1016D00022D5864F87486169703771B10121016059
:1016E000FFF7CCFD064604E0FFF7C8FD801B02288B
:1016F00009D838688007F7D50EE0C0F800A0FFF7DA
:10170000BDFD064605E082E0FFF7B8FD801B02281C
:101710007DD838688007F7D42078400768D5DFF88F
:10172000CCB100270BF13C0BDBF80000C0000BD460
:10173000DBF8001041F08051CBF80010DBF800001E
:10174000012700F0805000906B4E3068C00510D427
:10175000306840F480703060FFF790FD009005E045
:10176000FFF78CFD0099401A022850D83068C00558
:10177000F6D55E4EA0686C3601280FD0052830687B
:1017800010D020F001003060306820F0040030609C
:10179000A068B8B1FFF772FD00900FE0306840F02C
:1017A0000100F4E740F004003060F7E7FFF766FD62
:1017B0000099411A41F28830814266D8306880072A
:1017C000F4D50EE0FFF75AFD009007E0FFF756FD55
:1017D0000099411A41F28830814256D8306880071A
:1017E000F4D42FB1DBF8001021F08051CBF80010B9
:1017F000A069C8B33D49091D0968C1F381010229E7
:101800004AD00228504607D0C8F8600000E03CE00B
:10181000FFF734FD04463BE04746C8F86000FFF799
:101820002DFD064605E000BFFFF728FD801B0228BE
:101830002BD828688001F7D4D4E907010843A16AAE
:101840002E4A490802EB0141626A41EA82110843CB
:1018500094F82C1040EA0161C9F8001001203866A4
:10186000FFF70CFD044606E03EE000BFFFF706FD73
:10187000001B022809D828688001F7D534E000BF92
:10188000FFF7FCFC001B022802D90320BDE8F88FFB
:1018900028688001F4D427E00128F7D0D9F80000A7
:1018A000E26900F4800191421CD1226A00F03F01FC
:1018B000914217D147F6C071626A0140B1EB821FB5
:1018C00010D1A26A4FF0FF3300F4403103EB520213
:1018D000B1EB024F06D194F82C1000F07060B0EB21
:1018E000016F01D00120D1E70020CFE7043802408A
:1018F00000004742800E4742007000400000FFFF9A
:1019000010B5401EB0F1807F01D3012010BD4FF013
:10191000E02460610F21601701F0CDFA0020A06182
:1019200007202061002010BD7047704770B590F807
:101930003C20012A32D0012480F83C40022280F869
:101940003D2003685A689D6822F070060A68324399
:101950005A60134B02689A4214D0B2F1804F11D0F2
:10196000104B9A420ED0104B9A420BD00F4B9A421A
:1019700008D00F4B9A4205D00E4B9A4202D00E4B24
:101980009A4204D1496825F080031943916080F898
:101990003D40002180F83C10084670BD022070BD1B
:1019A000000001400004004000080040000C00401E
:1019B00000040140004001400018004010B5040040
:1019C00003D094F83D0010B107E0012010BD0020C5
:1019D00084F83C00204600F01FF8022084F83D0007
:1019E000211D206801F0D4F8012084F8460084F815
:1019F0003E0084F83F0084F8400084F8410084F8F9
:101A0000420084F8430084F8440084F8450084F8D8
:101A10003D00002010BD000008B500680B49884259
:101A200012D10B48016841F00101016000680022F9
:101A300000F00100009011461920FFF78DFCBDE871
:101A400008401920FFF77ABC08BD000000000140E3
:101A50004438024090F83D10012901D00120704720
:101A6000022180F83D100168CA6842F00102CA6094
:101A700000681149884214D0B0F1804F11D00F494D
:101A800088420ED00E4988420BD00E49884208D0B9
:101A90000D49884205D00D49884202D00C49884240
:101AA00004D1816801F00701062903D0016841F0E3
:101AB0000101016000207047000001400004004067
:101AC00000080040000C00400004014000400140BC
:101AD0000018004070B5044690F83C00002501282D
:101AE00017D0012684F83C60022084F83D0020686D
:101AF000826822F0770222F47F42826008685028D0
:101B000038D00DDC20284FD005DC90B3102811D13F
:101B10004AE0022070BD302846D040280AD13BE080
:101B200060282FD070280DD0B0F5805F03D0B0F5BD
:101B3000005F12D0012584F83D60002084F83C004D
:101B4000284670BDCB68D1E90121206801F084F8F6
:101B50002068816841F0770109E0CB68D1E9012173
:101B6000206801F079F82068816841F48041816043
:101B7000E1E719E0CA684968206801F07FF8502160
:101B8000206806E0CA684968206801F088F860218A
:101B9000206801F06BF8CEE7CA684968206801F058
:101BA0006DF840212068F4E7226801461046F0E70E
:101BB000704770B50446006801694FF00005C943DD
:101BC000890715D4C168C943890711D4E91E016189
:101BD00001202077206880698007204602D0FFF727
:101BE000E7FF04E000F098F8204600F096F825772B
:101BF00020680169C943490717D4C168C943490727
:101C000013D46FF0040101610220207720688069FD
:101C100010F4407F204602D0FFF7CAFF04E000F036
:101C20007BF8204600F079F8257720680169C943E0
:101C3000090716D4C168C943090712D46FF0080117
:101C40000161042020772068C0698007204602D007
:101C5000FFF7AEFF04E000F05FF8204600F05DF80B
:101C6000257720680169C943C90617D4C168C943EB
:101C7000C90613D46FF01001016108202077206895
:101C8000C06910F4407F204602D0FFF791FF04E0C6
:101C900000F042F8204600F040F8257720680169FE
:101CA000C943C90708D1C168C943C90704D1891EFE
:101CB0000161204600F032F820680169C943090635
:101CC00009D4C168C943090605D46FF080010161D8
:101CD0002046FFF729FE20680169C943490609D457
:101CE000C168C943490605D46FF04001016120462F
:101CF00000F0AAFB20680169C94389060BD4C168BA
:101D0000C943890607D46FF0200101612046BDE870
:101D10007040FFF70ABE70BD704770472DE9F04F65
:101D20002DED0A8B93B00068FE4988427ED1FE48B3
:101D3000817A03297AD1C17A032977D18188C900B0
:101D40000FFA81F8C1880088C900C00000B20FFAFC
:101D500081FA814602F0EBFD019104469FEDF38B81
:101D6000039153EC182B02F035FE41EC190B404661
:101D700002F0DDFDCDE90601064653EC192B0B916F
:101D800003F034F841EC100B9FEDEA9BB0EE491ADA
:101D9000F0EE691A01F004FB0399B0EE40AA41ECA1
:101DA000124BF0EE60AA53EC182B51EC120B02F020
:101DB00011FE41EC1B0B504602F0B9FDCDE90401C8
:101DC000054653EC1B2B099103F010F841EC100B66
:101DD000B0EE491AF0EE691A01F0E2FA53EC1A2B50
:101DE00051EC100B02F060FB41EC100B02F000F91B
:101DF000DFF848B353EC182B5F468BED000B0399CB
:101E000041EC104B51EC100B02F0E4FD41EC110BD6
:101E10000B9953EC112B41EC106B51EC100B02F0B1
:101E200043FB41EC100BB0EE491A00E0E4E2F0EEA7
:101E3000691A01F0B5FA0399B0EE40AA41EC124BD1
:101E4000F0EE60AA53EC182B51EC120B02F0C2FD1D
:101E500041EC100B099953EC102B41EC125B51EC47
:101E6000120B02F0C3FF41EC100BB0EE491AF0EE7A
:101E7000691A01F095FAB0EE401AF0EE601A53ECD0
:101E80001A2B51EC110B02F00FFB41EC100B02F07E
:101E9000AFF887ED020B039953EC182B41EC104B74
:101EA00051EC100B02F096FD41EC110B0B9953EC29
:101EB000112B41EC106B51EC100B02F0F5FA41ECD8
:101EC000100BB0EE491AF0EE691A01F069FA0399A5
:101ED000B0EE40AA41EC124BF0EE60AA53EC182B86
:101EE00051EC120B02F076FD41EC100B099953EC0A
:101EF000102B41EC115B51EC110B02F0D5FA41ECC7
:101F0000100BB0EE491AF0EE691A01F049FA53ECE1
:101F10001A2B51EC100B02F0C7FA41EC100B02F037
:101F200067F887ED040B039953EC182B41EC104B29
:101F300051EC100B02F04EFD41EC110B0B9953ECE0
:101F4000112B41EC106B51EC100B02F0ADFA41EC8F
:101F5000100BB0EE491AF0EE691A01F021FA03995C
:101F6000B0EE40AA41EC114BF0EE60AA53EC182BF6
:101F700051EC110B02F02EFD41EC100B099953ECC2
:101F8000102B41EC115B51EC110B02F02FFF41ECD7
:101F9000100BB0EE491AF0EE691A01F001FAB0EE3A
:101FA000401AF0EE601A53EC1A2B51EC110B02F0B0
:101FB0007BFA41EC100B02F01BF848EA0A0187EDAE
:101FC000060B51EA0901ABF120057CD0019953ECD5
:101FD000182B41EC104B51EC100B02F0FBFC41ECC8
:101FE000110BDDE9060153EC112B02F0FFFE41EC71
:101FF000190B019953EC182B41EC104B51EC100BC1
:1020000002F0E8FC41EC110BDDE9040153EC112B6B
:1020100002F0ECFE41EC100BB0EE491AF0EE691A3A
:1020200001F0C6F8A5F1400653EC182B86ED000B25
:10203000019941EC104B51EC100B02F0CBFC41EC40
:10204000110BDDE9060153EC112B02F02DFA41ECE6
:10205000190B019953EC182B41EC104B51EC100B60
:1020600002F0B8FC41EC110BDDE9040153EC112B3B
:1020700002F0BCFE41EC100BB0EE491AF0EE691A0A
:1020800001F096F886ED020B019953EC182B41EC08
:10209000104B51EC100B02F09DFC41EC110BDDE9F3
:1020A000060153EC112B02F0FFF941EC190B0199D9
:1020B00053EC182B41EC104B51EC100B02F08AFC46
:1020C00041EC110B00E0BCE0DDE9040153EC112B05
:1020D00002F0EAF941EC100BB0EE491AF0EE691A81
:1020E00001F066F886ED040B019953EC182B41ECD6
:1020F000104B51EC100B02F06DFC41EC110BDDE9C3
:10210000060153EC112B02F071FE41EC190B019901
:1021100053EC182B41EC104B51EC100B02F05AFC15
:102120000EE0000000000140500D00201B0DE02DCE
:1021300090A0E63F00000000000000405802002090
:1021400041EC110BDDE9040153EC112B02F0ACF969
:1021500041EC100BB0EE491AF0EE691A01F028F8C4
:1021600086ED060B0024B0469FEDA69B9FEDA7AB26
:102170009FEDA88BA5F16009403F9FEDA8BB9FEDA7
:10218000A9CB00BF08EBC40053EC192B90ED000B5A
:1021900051EC100B02F088F941EC100B09EBC4066E
:1021A00053EC102B86ED000B51EC1A0B02F010FDD6
:1021B0000FD896ED000B53EC182B51EC100B02F0DE
:1021C00007FD06D896ED000B07EBC40080ED000B71
:1021D00021E096ED000B51EC180B53EC102B02F0A4
:1021E000F7FC18D296ED000B9FED901B51EC100BF5
:1021F00053EC112B02F0ECFC0DD896ED000B9FED8B
:102200008D1B51EC100B53EC112B02F04DF907EB29
:10221000C402C2E9000107EBC40053EC1B2B90ED94
:10222000000B51EC100B02F0D5FB53EC1C2B02F011
:10223000D1FB05EBC402641CC2E90001042CA1DB44
:1022400009E000209FED7D0B05EBC001401C81EDF6
:10225000000B0428F8DB95ED000B51EC100B02F09D
:10226000F1F800EE100A012002F03CF810EE100A1E
:1022700002F0A6FE734CC4E9000195ED020B51EC8F
:10228000100B02F0DFF800EE100A022002F02AF82C
:1022900010EE100A02F094FEC4E9020195ED040B61
:1022A00051EC100B02F0CEF800EE100A032002F001
:1022B00019F810EE100A02F083FEC4E9040195ED4E
:1022C000060B51EC100B02F0BDF800EE100A0420D2
:1022D00002F008F810EE100A02F072FEC4E90601DE
:1022E0009BED000B5D4651EC100B02F0ABF800EEDD
:1022F000100A012000F082FB10EE100A02F060FECE
:10230000C4E9080195ED020B51EC100B02F09AF8AC
:1023100000EE100A022000F071FB10EE100A02F02D
:102320004FFEC4E90A0195ED040B51EC100B02F0CD
:1023300089F800EE100A032000F060FB10EE100A8E
:1023400002F03EFEC4E90C0195ED060B51EC100BBA
:1023500002F078F800EE100A042000F04FFB10EEB7
:10236000100A02F02DFEC4E90E0194ED060B51ECAB
:10237000100B02F0ADFA94ED040B07B251EC100B08
:1023800002F0A6FA94ED020B06B251EC100B02F02B
:102390009FFA94ED000B05B251EC100B02F098FA85
:1023A00000B23B4632462946FEF788F894ED0E0B04
:1023B00051EC100B02F08CFA94ED0C0B07B251ECBF
:1023C000100B02F085FA94ED0A0B06B251EC100BDB
:1023D00002F07EFA94ED080B05B251EC100B02F0FE
:1023E00077FA13B03B46BDEC0A8B3246294600B261
:1023F000BDE8F04FFEF722B813B0BDEC0A8BBDE884
:10240000F08F00007A008BFCFA21F9BF7FBDC282F9
:10241000FB2109407FBDC282FB2109C0E140481673
:10242000300FB1400000000000004240FCDEA63F3B
:10243000FB2119C0FCDEA63FFB2119400000000073
:102440000000000018000020704770B5040004D0A0
:1024500094F83D00002510B106E0012070BD84F81D
:102460003C50204600F022F8242084F83D002068EB
:10247000C16821F40051C160204600F023FC2068AF
:10248000016921F4904101612068416921F02A012C
:1024900041612068C16841F40051C1602564202079
:1024A00084F83D0084F83E00002070BD70B586B011
:1024B000064614216846FDF74EFF244930688842DD
:1024C00042D123480025016841F480210160006861
:1024D00000F4802005901E481038016841F0040186
:1024E00001600068694600F0040005904FF4406008
:1024F00000900220CDE901050320039007200490FD
:102500001448FEF7C3FD154C134820604FF00060DF
:10251000C4E901054014C4E9035065614FF440303B
:10252000A561C4E9075020466562FEF745FD08B184
:10253000FEF759F8B463002211462720A663FEF780
:102540000BFF2720FEF7FAFE06B070BD00480040E2
:102550004038024000080240286002407401002018
:10256000FEE700000F4810B50D49016003214160EE
:1025700000214FF4C0228160C0E903124FF4A00291
:102580004261017641768176C17601774177FEF727
:102590009CFA002803D0BDE81040FEF724B810BD17
:1025A00000640040980000200F4810B50D490160FC
:1025B0000321416000214FF4C0228160C0E9031271
:1025C0004FF4A0024261017641768176C1760177AF
:1025D0004177FEF77AFA002803D0BDE81040FEF7F5
:1025E00002B810BD00680040C0000020094808B5CE
:1025F000016841F4001101600068002200F400103D
:10260000009011460C20FEF7A7FEBDE808400C2004
:10261000FEF794BE30380240154808B5016841F015
:1026200002010160016801F002010091016841F0BE
:1026300001010160016801F001010091016841F0B0
:1026400008010160016801F008010091016841F092
:1026500004010160016801F004010091016841F08A
:1026600080010160006800F08000009008BD00005B
:102670003038024010B586B0002417480094019409
:10268000029403940494134905940160A721C0E9BE
:10269000011440F2CF71C0E9031444618461FFF773
:1026A0008DF908B1FDF79FFF4FF480500090694607
:1026B0000948FFF70FFA08B1FDF795FF049404A944
:1026C00005480594FFF732F9002801D0FDF78BFF8C
:1026D00006B010BD00000140E80000200D4810B514
:1026E0000B4901600C49416000214FF48062816018
:1026F000C0E903120422C0E90521C161FFF7A5FE6C
:10270000002803D0BDE81040FDF76DBF10BD0000EC
:102710000048004030010020A0860100FEE7FEE7EF
:10272000A0B1D0ED101AC0ED111A90ED0F1A80ED86
:10273000101AC0ED060A80ED070A30EEC00A80EDDF
:102740000F0A017829B101293BD078E09FED3D0ABD
:102750007047D0ED010A60EE801AC0ED091AD0ED85
:102760000A0A90ED022A42EE000A30EE410AC0ED5C
:102770000A0A90ED0D2A80ED0E2A90ED0C2A80EDCC
:102780000D2A80ED0C0A90ED031A21EE001A80ED5F
:102790000B1A90ED050AF4EEC00AF1EE10FA09DC0E
:1027A000B1EE400AF4EEC00AF1EE10FA02D390ED59
:1027B0000A0A01E080ED0A0A31EE800A30EE010AD1
:1027C0002BE070EE410A90ED012A20EE822A80ED86
:1027D000092AD0ED020A60EE800AC0ED0A0AD0EDA7
:1027E0000D2A72EE200AC0ED0E2AD0ED0C2AC0EDA3
:1027F0000D2AF0EE002A01EE620A30EE210A80ED89
:102800000C0A90ED031A21EE000A80ED0B0A30EE5F
:10281000800AD0ED080A30EE200A80ED080AD0EDDB
:10282000040AB4EEE00AF1EE10FA06DCF1EE600AFA
:10283000B4EEE00AF1EE10FA01D2C0ED080A90ED14
:10284000080A7047000000002DE9F047404E0024C0
:102850002DED068B06F5107706F5906906F5D8681C
:102860009FED39AADFED39AA9FED3A8ADFED3A8A6A
:102870009FED3A9ADFED3A9A04EBC40506EBC500EA
:10288000F0EE480AB0EE680A364A002100F06CF813
:10289000344A07EBC500F0EE490AB0EE690A0C3283
:1028A000002100F061F82F4A09EBC500F0EE480A5C
:1028B000B0EE4A0A1832002100F056F8294A08EB17
:1028C000C500F0EE6A0AB0EE680A2432002100F07A
:1028D0004BF8641C042CCFDBB24604244FEA0906F3
:1028E00004EBC4050AEBC500F0EE480AB0EE680A36
:1028F0001C4A002100F038F81A4A07EBC500F0EE38
:10290000490AB0EE690A0C32002100F02DF806EBFE
:10291000C500F0EE480AB0EE680A124A002100F045
:1029200023F8104A08EBC500F0EE490AB0EE690A38
:102930000C32002100F018F8641C082CD0DBBDEC30
:10294000068BBDE8F087000000A00C460000FA44AA
:10295000500400200080BB4500401C460000964308
:102960000000C84364000020002828D0002A26D098
:10297000017092ED001A80ED011A92ED011A80EDBE
:10298000021A92ED021A80ED031A80ED040A9FEDFF
:102990000C0AC0ED050A80ED0E0A80ED0D0A80EDEF
:1029A0000C0A80ED080A80ED0B0A80ED0A0A80ED22
:1029B000090A80ED110A80ED100A80ED0F0A7047B8
:1029C000000000000B4AC0EBC00110B502EB810112
:1029D000F0EE400A11ED040A00EBC0010648B8EE23
:1029E000C00A00EBC104A4F14800FFF799FE14ED02
:1029F0000A0A10BD58030020100B00200C4AC0EB3F
:102A0000C00110B502EB8101F0EE400A31F91A1C49
:102A100000EE101A00EBC0010648B8EEC00A00EB49
:102A2000C104A4F14800FFF77BFE14ED0A0A10BDB3
:102A300078020020500400200C4AC0EBC00110B501
:102A400002EB8101F0EE400A31F91A1C00EE101A77
:102A500000EBC0010648B8EEC00A00EBC104A4F1C7
:102A60004800FFF75DFE14ED0A0A10BD5803002070
:102A7000D00800207047000030B5144B1C68656911
:102A800045F0400565611B68DC6844F01004DC60BB
:102A90000F4B1C68256825F0010525601C6825681A
:102AA000ED07F7D11D680B4CAC601C68E06018683E
:102AB0000161186842601868016841F48021016072
:102AC0001868016841F00101016030BD300100204B
:102AD00074010020044800407047FEF7D5BB000099
:102AE00030B593B030216846FDF735FC14210CA8B1
:102AF000FDF731FC1D480025016841F0805101605F
:102B0000006800F0805011901948016841F480413C
:102B100001600068022400F48040119001200090C0
:102B2000000401908001CDE9064006200890A8200D
:102B3000CDE9090404200B906846FEF72BFD08B18F
:102B400072B6FEE70CA90F2081E831004FF4A050C7
:102B50000F904FF48050109005210CA8FEF72EFC2A
:102B6000002801D072B6FEE713B030BD40380240F5
:102B7000007000400248016841F470010160704734
:102B800088ED00E00148FFF714B80000E8000020DD
:102B9000F0B50268254C264D264E274F274B4FF0A7
:102BA000804CA04209D0604507D0A84205D0B04271
:102BB00003D0B84201D0984204D122F0700E4A6886
:102BC00042EA0E02A0421BD0604519D0A84217D09D
:102BD000B04215D0B84213D0984211D0184DA84237
:102BE0000ED0184DA8420BD0174DA84208D0174D53
:102BF000A84205D0164DA84202D0164DA84203D1D6
:102C000022F44075CA682A434D6922F080022A43A3
:102C100002608A68C2620A688262A04201D0984259
:102C200001D10969016301214161F0BD000001404A
:102C30000004004000080040000C00400004014077
:102C4000004001400044014000480140001800409D
:102C5000001C00400020004010B5846842EA0322B6
:102C600024F47F440A432243826010BD826822F02C
:102C700070020A4342F007018160704710B5036A91
:102C8000046A24F001040462846924F0F00444EA34
:102C9000021423F00A020A438461026210BD10B5D7
:102CA000036A23F0100303628369046A23F4704308
:102CB00043EA023224F0A00343EA01118261016277
:102CC00010BD000070B5044600680169E26821F497
:102CD0004051114301612169A068E26908436169BB
:102CE000114308432168CA6849F20C639A430243BE
:102CF000CA6020684169A26921F4407111434161B1
:102D000031492068884202D03049884202D1FEF71A
:102D1000FFFB01E0FEF7ECFBE269002319216425CB
:102D20003226B2F5004F626828D0A0FB0101930F54
:102D30009200FDF799FA0146B0FBF5F06FF018022A
:102D4000504301EB800006EB0010B0FBF5F000F003
:102D5000F002B1FBF5F002EB0012B1FBF5F06FF001
:102D60001803584301EB800006EB0010B0FBF5F0B0
:102D700000F00F0021681044886070BDA0FB0101C5
:102D800092185B41FDF770FA0146B0FBF5F00201C5
:102D9000B1FBF5F06FF01803584301EB800006EB30
:102DA000C000B0FBF5F000F0F80002EB4002B1FB10
:102DB000F5F0584301EB800006EBC000B0FBF5F0E6
:102DC00000F00700D6E700000010014000140140A9
:102DD000264818B400680168890604D5016840686F
:102DE000009018BC704722490968C906F9D50168E6
:102DF0004068204A0090106801684FF024030C03DB
:102E00001D49046824F00104046016D41068446865
:102E1000C4F12404A4B20C8043601068016841F43A
:102E2000002101601068016841F001010160122C6D
:102E3000D7D1124901F1160015E014686068C0F19D
:102E4000240080B2088063600D498B6A23F400235C
:102E50008B6211680A6842F001020A601228C0D130
:102E6000064901F13A0018BC01F04EBA30010020C9
:102E7000004800407401002094000020500D002004
:102E800000600240FEE703B401984100009850EA58
:102E9000C12018BF04204A0D18BF40F0010040F2C5
:102EA000FF72B2EB515F08BF40F00200012808BF7B
:102EB000052002B070470907090E002804DB00F165
:102EC000E02080F80014704700F00F0000F1E020CF
:102ED00080F8141D7047000070B59B482DED020B63
:102EE0002DED068B079D25F00044A04218DC974885
:102EF000844202DC0AD1069840B19DED060BBDEC80
:102F0000068B02B0BDE8704001F046B9002DCCBF81
:102F10009FED8F0B9FED900BBDEC068B02B070BD4B
:102F20008F48A04215DD8F48A042D8BF4FF0FF3434
:102F300058DD9DED060B51EC100BFFF7A4FF0428A4
:102F400008BF01F05DF99DED060BBDEC068B02B0EC
:102F500070BD9DED060B51EC100B01F069F9CDE948
:102F6000060181489FED828BA0423CDD8248A04251
:102F70001FDD00249FED82AB9DED060B53EC1A2B59
:102F800051EC100B01F090FA9DED060B41EC190B82
:102F900053EC1A2B51EC100B01F01CFD53EC182BC9
:102FA00001F024FF53EC192B01F03AFBCDE90601A7
:102FB00049E09DED060B012453EC182B51EC100B4E
:102FC00001F072FA9DED060B41EC190B53EC182B36
:102FD00051EC100B01F00AFF53EC192B01F020FB10
:102FE000CDE906012FE06848A0421FDD02249FEDD5
:102FF000689B9DED060B53EC192B51EC100B01F067
:10300000E9FC53EC182B01F04FFA9DED060B41EC57
:10301000180B53EC192B51EC100B01F0E7FE53EC9D
:10302000182B01F0FDFACDE906010CE09DED060B31
:10303000032453EC102B9FED580B51EC100B01F0B7
:10304000EFFACDE906019DED060B53EC102B51EC88
:10305000100B01F0BFFC41EC180B53EC182B01F0E6
:10306000B9FC41EC190B4E480621B0EE490AF0EECE
:10307000690A784400F0F9FF53EC182B51EC100B5F
:1030800001F0A8FC41EC180B4648B0EE490AF0EEFE
:10309000690A0521784400F0E8FF53EC192B51EC44
:1030A000100B01F097FC41EC100B51EC180B53EC9A
:1030B000102B002C0EDA01F0F7F99DED061B53ECF6
:1030C000112B01F087FC9DED061B53EC112B01F039
:1030D000B5FD35E001F0E8F99DED061B53EC112B31
:1030E00001F078FC41EC100B2F48784400EBC40051
:1030F00090ED001B51EC100B53EC112B01F076FE00
:103100009DED061B53EC112B01F070FE41EC100BF2
:103110002648784400EBC40090ED001B51EC100BE6
:1031200053EC112B01F08AFD41EC100B002DA2BFD6
:10313000BDEC068B02B070BD51EC100B01F075F9BF
:1031400041EC100B01E70000000010440000F07F8C
:10315000182D4454FB21F93F182D4454FB21F9BF8D
:103160000000DC3F0000203E0000F33F00000000B4
:10317000000000000000F03F0000E63F00000000FB
:10318000000000000000004000800340000000003C
:10319000000000000000F83F000000000000F0BF49
:1031A00042220000F8210000822100003A210000A4
:1031B00070B56B4E2DED040B2DED028B82B0DDF85A
:1031C0001CC0DDE905235C422CF000411C4341EAB0
:1031D000D474049D22F00040B44205D86C422C43C4
:1031E00040EAD474B4420BD99DED061B9DED040B4F
:1031F00002B0BDEC028B04B0BDE8704000F0D6BF59
:10320000ACF14054A4F17F641C430BD0022404EAC7
:10321000AC7444EAD27405439FED538B9FED542B5D
:1032200007D015E09DED040B51EC100B00F0F8FFFA
:1032300042E0002C11BF012C9DED040B02B0BDEC4F
:10324000028B04BF04B070BD022C38D0032C3BD0DD
:103250000B439FED491B9FED4A0B0AD0B14218D199
:10326000B04209D121F0804120F0804007910590C3
:103270000FE0002A15DA10E0434B7B44002C08BF16
:1032800093ED000B0DD0012C10D0022C17D0032C85
:103290001AD0B0421DD1002A03DAB0EE410AF0EE96
:1032A000610A02B0BDEC028B04B070BD93ED000B5F
:1032B00051EC100B01F0B9F841EC100BF1E7B0EE56
:1032C000480AF0EE680AECE7B0EE420AF0EE620A55
:1032D000E7E7401A00153C28C8BF8DED000B19DC4C
:1032E000BCF1000FBEBF10F13C0F9FED290B8DED1F
:1032F000000B0FDB9DED060B53EC102B9DED040B2B
:1033000051EC100B01F08CF900F092FF00F088FFF7
:10331000CDE90001002C08BF9DED000BC1D0012CB0
:1033200010D0022C9FED1C0B53EC102B9DED000BCD
:1033300051EC100B0DD001F059FD53EC182B01F09E
:1033400055FDB9E7019880F0004001909DED000B1C
:10335000A7E701F04BFD53EC182B01F06FFCABE736
:103360000000F07F00000000182D4454FB210940AC
:10337000182D4454FB2109C0182D4454FB21F9BFDA
:10338000182D4454FB21F93F6A2000000000000082
:103390000000000000000000075C143326A6A13CDA
:1033A0002DE9F04D2DED040B2DED0E8B96B0DDE9E2
:1033B0002550279CDDF890A025F0004624F0004819
:1033C000BAF1000F14BF0121002101EB4502FC49B5
:1033D00053184A1093422AD3002814BF0123002314
:1033E00003EB44030B44F7498B4220D358EA000116
:1033F0009FEDF59B76D0DFF8D8B35D4503D1BAF1E8
:10340000000F05D188E0BAF1000F08BF002100D0FD
:10341000012101EB450111F5001F08D8002814BF58
:103420000121002101EB440111F5001F0BD99DED95
:10343000261B9DED240B16B0BDEC0E8B04B0BDE831
:10344000F04D00F0B3BE0027002DBCBFE149884518
:1034500021DAE1498845A8BF02271CDAC3451ADCF6
:10346000DE4901EB2851142908DDC1F1340220FAAC
:1034700002F101FA02F282420DD108E058B9C1F11D
:10348000140228FA02F101FA02F2424503D101F0D6
:103490000101C1F1020756EA0A0124D1002C22DA07
:1034A000002D18BF022F01D0012F0AD00220FCF7F7
:1034B00081FF16B0BDEC0E8B04B0BDE8F04D00F0FE
:1034C00053BE0220FCF776FF00F04EFE51EC100BCD
:1034D00000F0ABFF41EC100B16B0BDEC0E8B04B04E
:1034E000BDE8F08D18E09FEDBEAB9FEDBF8B0028CF
:1034F00071D1B848804522D105F1804010F5801087
:1035000008BFBAF1000F07D0B3450ADC002CA8BFF2
:103510009DED260BE0DA0DE0B0EE490AF0EE690A07
:10352000DAE7002C06DA9DED260B51EC100B00F0CB
:103530007CFF6FE0AE48784490ED000BCCE7D845B7
:103540004DD1002C48DA2EB186423AD1BAF1000FA3
:1035500042D126E0BAF1000F13D00220FCF72AFF77
:1035600000F03EFE8DED020B9DED240B8DED000B6A
:1035700010EE900A039961F31E0003909DED020B7B
:10358000AAE78DED02AB9DED240B1AEE901A10EE1A
:10359000900A8DED000B61F31E0003909DED020B70
:1035A0009AE78DED028B9DED240B18EE901A10EE2C
:1035B000900A8DED000B61F31E0003909DED020B50
:1035C0008AE709DA9DED240B51EC190B53EC102B13
:1035D00001F026F81EE020E09DED240B7CE78642FA
:1035E0001BDAB4F1804F0DD0A4F10050B0F1FF50C0
:1035F00013D1002D11DB9DED240B51EC100B00F0CD
:10360000DDFE07E09DED240B53EC102B51EC100B6D
:1036100000F0C2BC41EC100B5EE79DED240B51ECB9
:10362000100B00F005FEBAF1000FCDE90E0142D1FA
:103630009FED710B46B3A6F1E040B0F17F600CD076
:103640005E4538D1002D00DAA7B3022F0CBF012050
:103650004FF0FF3001F06BF9DCE7002D01DD002CAD
:103660000DDA002D01DD002C1FDB002D16DA002CF9
:1036700014DB012F08BF9FED620B3FF42DAFB0EEBE
:103680004A0AF0EE6A0A27E7022F18BF002D0CD075
:10369000012F0AD1002DFFF61FAF06E0002DB8BFA5
:1036A000002C08DA012F3FF417AFB0EE480AF0EE15
:1036B000680A11E71BE0012000EBE57050EA070102
:1036C00015D0791EB0EE498AF0EE698A084308BF2A
:1036D0009FED4D8B4E480025804570DD4D494E488D
:1036E000884514DDB0420DDB002C19DB2FE00120F2
:1036F000FCF760FE16B0BDEC0E8B04B0BDE8F04DDB
:1037000000F05EBDB34502DC002C09DC1FE0864200
:1037100002DA002C1BDA03E05E452BDD002C16DDFF
:103720000220FCF747FE00F05BFD8DED020B53EC31
:103730001A2B51EC180B01F04DF9CDE9000103995A
:10374000019861F31E0003909DED020BC4E6022078
:10375000FCF730FE00F054FD10EE901A18EE900ABF
:103760008DED020B8DED008B61F31E0003909DED3E
:10377000020BB1E69DED0E0B53EC192B51EC100B27
:1037800001F034FB9FED260BCDE9080153EC102B23
:103790009DED080B51EC100B01F01CF99FED221B65
:1037A00053EC112B01F04AFA9DED081B53EC112B41
:1037B00001F010F99FED1E1B53EC112B3CE08CE047
:1037C000FFFF1F00FFFF0F00000000000000F03FA0
:1037D0000000F03F0000F07F0000404301FCFFFFCD
:1037E000000000000000F07F00000000000000006A
:1037F000AE1D00000000000000000000000000807E
:10380000000000000000F0FF000000000000F0BF1A
:103810000000E0410000F043FFFFEF3F0000000028
:10382000000000000000D03F555555555555D53F77
:10383000000000000000E03F01F000FA9DED080BE1
:1038400041EC1A0B53EC102B51EC100B01F0C2F8A9
:1038500053EC1A2B01F0BEF841EC1A0B9FEDFE0B56
:1038600053EC102B9DED080B51EC100B01F0B2F84E
:1038700041EC1B0B9FEDFA0B51EC1A0B53EC102B88
:1038800001F0A8F841EC1A0B9FEDF70B53EC102B4D
:103890009DED080B51EC100B01F09CF853EC1A2B2A
:1038A00001F0A4FA41EC1A0B51EC1B0B53EC1A2B50
:1038B00000F0FAFD0690CDE906519DED060B53ECA4
:1038C0001B2B51EC100B01F091FA53EC1A2B01F069
:1038D000B5F941EC100B00F0A1B90020B6F5801F3E
:1038E0000EDA9FEDE30B53EC102B9DED0E0B51EC1C
:1038F000100B01F06FF8CDE90E016FF034000E46A9
:1039000000EB2650A0F2FF37C6F31300DA4940F06F
:103910007F6646F040568842D8BF002408DDD7496C
:103920008142C8BF012403DC0024A6F580167F1C59
:10393000D348784400EBC4000F9690ED00CB9DED8A
:103940000E0B53EC1C2B51EC100B01F04FFA9DEDBC
:103950000E0B41EC1B0B53EC1C2B51EC100B00F02D
:10396000A3FD41EC100B51EC190B53EC102B00F0A4
:1039700057FE41EC1D0B51EC1B0B53EC1D2B01F0C2
:1039800029F841EC1A0BBF488DED10AB7844109527
:1039900090ED000B4FF0005040EA660000EB8440D1
:1039A0008DED080B00F5002009909DED080B53EC00
:1039B0001C2B51EC100B01F019FA9DED0E1B53EC72
:1039C000112B01F03BF941EC100B53EC102B9DED4A
:1039D000100B51EC100B00F0FDFF9DED080B41ECBE
:1039E0001C0B53EC102B9DED100B51EC100B00F049
:1039F000F1FF53EC1B2B01F021F953EC1C2B01F0D0
:103A0000F5F953EC1D2B00F0E5FF41EC1C0B53ECDA
:103A10001A2B51EC1A0B00F0DDFF41EC1B0B9A48FE
:103A20000621B0EE4B0AF0EE6B0A784400F01DFB65
:103A3000B0EE401AF0EE601AB0EE41DAF0EE61DA64
:103A400053EC1B2B51EC1B0B00F0C4FF53EC1D2B54
:103A500000F0C0FF9DED100B41EC1B0B53EC1A2B3B
:103A600051EC100B00F020FD53EC1C2B00F0B2FFCA
:103A700053EC1B2B00F018FD9DED100B41EC1B0BC4
:103A800053EC102B51EC100B00F0A4FF41EC1D0B7C
:103A90009FED7FEB53EC1E2B00F006FD53EC1B2B30
:103AA00000F002FD0890CDE908519DED080B53ECA4
:103AB0001E2B51EC100B01F099F953EC1D2B01F06A
:103AC00095F953EC1B2B01F0B9F89DED080B41EC77
:103AD0001D0B53EC102B9DED100B51EC100B00F057
:103AE00079FF41EC1B0B53EC1A2B51EC1D0B00F032
:103AF00071FF9DED080B41EC1A0B53EC102B51ECB0
:103B00001C0B00F067FF53EC1A2B00F0CDFC41ECCE
:103B10001A0B51EC1B0B53EC1A2B00F0C5FC0C904C
:103B2000CDE90C519DED0C0B53EC1B2B51EC100B04
:103B300001F05CF953EC1A2B01F080F841EC1B0BFF
:103B40009FED550B53EC102B9DED0C0B51EC100B16
:103B500000F040FF41EC1A0B9FED510B51EC1B0B99
:103B600053EC102B00F036FF41EC1B0B9FED4E0B7E
:103B700053EC102B9DED0C0B51EC100B00F02AFFB9
:103B800053EC1B2B00F090FC41EC100B48487844A0
:103B900000EBC40090ED001B51EC100B53EC112B0B
:103BA00000F082FC41EC1B0B384600F0C0FECDE972
:103BB000080153EC1B2B51EC1A0B00F075FC41EC87
:103BC000100B3C48784400EBC40090ED00CB51EC66
:103BD000100B53EC1C2B00F067FC9DED081B53EC05
:103BE000112B00F061FC0690CDE906519DED080B0C
:103BF00053EC102B9DED060B51EC100B01F0F6F879
:103C000053EC1C2B01F0F2F853EC1A2B01F0EEF8F8
:103C100053EC1B2B01F012F841EC100B9DED261B11
:103C200053EC102B8DED001B00959DED260B51ECF8
:103C3000100B00F0CFFE9DED000B41EC1A0B53EC86
:103C4000102B9DED260B51EC100B01F0CFF89DEDE4
:103C5000061B53EC112B2FE0000000604715F73FC7
:103C6000FE822B654715F73F44DF5DF80BAE543EEF
:103C700000000000000040438E9803007AB60B005D
:103C80009218000058190000CA1700000000000038
:103C90000000000000000840000000E009C7EE3FFF
:103CA000FD033ADC09C7EE3FF5015B14E02F3EBE91
:103CB000561600001016000000F08CFE53EC1A2B74
:103CC00000F0F2FB9DED060B41EC1A0B53EC102BB0
:103CD0009DED000B51EC100B00F07CFECDE90C01CA
:103CE0009DED0C0B51EC1A0B53EC102B00F0DCFB90
:103CF000CDE902010C46AA498C422FDB611A084328
:103D000018D19DED0C0B53EC102B9DED020B51ECDB
:103D1000100B01F06BF841EC1B0B9FEDA30B51EC6A
:103D20001A0B53EC102B00F0BFFB53EC1B2B00F0D5
:103D30004FFF2DD20220FCF73DFB00F051FA10EEB0
:103D4000901A18EE900A8DED020B8DED008B61F349
:103D50001E0003909DED020BFFF7BEBB944A24F0BA
:103D60000041914214D39349214408437FF4EFACBE
:103D70009DED0C0B53EC102B9DED020B51EC100B39
:103D800001F034F853EC1A2B00F022FF7FF6DFAC81
:103D900024F000408849894A002601EB20518242E4
:103DA0002BDA481C4FF4801121FA00F02044844A99
:103DB000C0F30A517A44A1F2FF3192ED000B814A1F
:103DC0008DED080BCA4020EA0202C0F3130040F454
:103DD0008010C1F1140120FA01F60992002CB8BF3D
:103DE00076429DED080B53EC102B9DED0C0B51EC26
:103DF000100B00F0FBFFCDE90C019DED0C0B51EC1D
:103E00001A0B53EC102B00F04FFB9FED6F0B08903B
:103E1000CDE9085153EC102B9DED080B51EC100B24
:103E200000F0D8FD41EC1B0B9FED690B53EC102B00
:103E30009DED080B51EC100B00F0CCFD9DED0C0B33
:103E400041EC1C0B53EC102B9DED080B51EC100BAF
:103E500000F0CCFF53EC1A2B00F0F0FE9FED5E1B40
:103E600053EC112B00F0B6FD53EC1C2B00F01CFBA7
:103E700041EC1A0B51EC1B0B53EC1A2B00F014FB0A
:103E8000CDE902019DED020B53EC1B2B51EC100B05
:103E900000F0ACFF53EC1A2B00F0D0FE9DED020BAE
:103EA00041EC1A0B53EC102B51EC100B00F092FD6F
:103EB000CDE908014A489DED080B0521784400F042
:103EC000D4F89DED081B51EC100B53EC112B00F0B6
:103ED00081FD9DED021B53EC112B00F0AFFECDE9EF
:103EE00006019DED020B53EC1A2B51EC100B00F068
:103EF00071FD53EC1A2B00F0D7FA9FED3B0B41EC10
:103F00001A0B53EC102B9DED060B51EC100B00F02F
:103F10006DFF9DED060B41EC1B0B53EC102B9DED43
:103F2000020B51EC100B00F055FD53EC1B2B00F075
:103F300077FB53EC1A2B00F059FF9DED021B53EC5D
:103F4000112B00F053FF53EC192B00F077FECDE955
:103F5000020101EB065001150029C8BF039015DCD2
:103F60009DED020B324651EC100B01F0D6F8FEF736
:103F70008AFF042808BF00F043F932469DED020B8A
:103F800051EC100B01F0C9F8CDE902019DED020BD7
:103F900051EC180B53EC102B00F01CFDFFF73ABB53
:103FA0000000904000000000FE822B654715973C02
:103FB00000CC904000346F3F01FCFFFF0000E03F69
:103FC00030150000FFFF0F0000000000432EE63F09
:103FD000396CA80C615C20BEEF39FAFE422EE63F38
:103FE0006813000000000000000000000000004016
:103FF00000B52DED048BB0EE409AF0EE609A83B0E0
:1040000051EC190B00F026FE41EC180B18EE100ACB
:1040100018EE901A8DED008B002818BF0120084380
:1040200020F00040C0F17F6000F1E040C00F14D0EC
:1040300019EE101A19EE900A8DED009B002918BF99
:104040000121084320F00040C0F17F6000F1E04012
:10405000C00F04BF0120FCF7ADF9B0EE480A03B071
:10406000F0EE680ABDEC048B00BD70B504462DED82
:10407000028B4D1E00EBC500B0EE408AF0EE608A68
:1040800090ED000B35F0060017D053EC182B51ECD7
:10409000100B00F09FFC41EC100B6D1E04EBC500F3
:1040A00090ED001B51EC100B53EC112B00F0FCF9C0
:1040B00041EC100B35F00600E7D1022D36D0042D6F
:1040C0001CD0062D1CBFBDEC028B70BD53EC182B11
:1040D00051EC100B00F07EFC94ED0A1B53EC112BFD
:1040E00000F0E2F953EC182B00F074FC94ED081B7F
:1040F00053EC112B00F0D8F941EC100B53EC182BBA
:1041000051EC100B00F066FC94ED061B53EC112BE8
:1041100000F0CAF953EC182B00F05CFC94ED040B92
:1041200053EC102B00F0C0F941EC100B53EC182BA2
:1041300051EC100B00F04EFC94ED021B53EC112BD4
:1041400000F0B2F953EC182B00F044FC94ED001B86
:1041500053EC112B00F0A8F9BDEC028B41EC100BD5
:1041600070BD0000000000009FED070B10B553EC80
:10417000102B9FED070B51EC100B00F051FA41ECA6
:10418000100B10BD00000000000000000000000047
:10419000000000000000F03F10B553EC102B51EC74
:1041A000100B00F081F941EC100B10BD10B553EC71
:1041B000112B51EC100B00F077F941EC100B10BDF6
:1041C0009FED050B10B553EC102B51EC100B00F0CC
:1041D00027FA41EC100B10BD0000000000000000A9
:1041E0009FED050B10B553EC102B51EC100B00F0AC
:1041F000F1FB41EC100B10BD00000000000000704E
:104200009FED050B10B553EC102B51EC100B00F08B
:10421000E1FB41EC100B10BD00000000000000109D
:1042200010B541EC100BFEF757FE51EC100B10BD12
:1042300082B0CDE9000121F0004001909DED000B1E
:1042400002B051EC100B7047098849BA0180818295
:10425000704710B5B0F9003003810A8852BA028065
:104260004C88D31A64BA44808C88B3F5805F64BAF2
:10427000848089798171016901DD491E03E013F5AC
:10428000805F01DA491C016102EB4131828A891A9F
:10429000C16010BDFDF700F8FEF722FCFEF7BCF987
:1042A000FEF7A4F9FEF75EF9FEF77EF9FEF716FABF
:1042B000FEF7E0F900F020F8FEF7C6FAFCF7E2F8A6
:1042C000FCF720F90448FCF739F90448FCF736F903
:1042D0000348FDF7BFFBFEE798000020C000002068
:1042E000E800002010B50446FEF76CFB2046BDE850
:1042F0001040FEF7A1BB000002492422A1F12400D6
:10430000FEF7BABB8A0D0020F0B5002855D0002971
:1043100053D00278437842EA0322C2F30A020A80A9
:1043200043788478DB0843EA4413C3F30A034B80E1
:104330008478C578A40944EA8504057944EA85248B
:10434000C4F30A048C80057946796D0845EAC615E0
:10435000C5F30A05CD804679C6F301168E724679FB
:10436000B609CE728679C77946EA07268E81067A23
:10437000477A46EA0726CE81867AC77A46EA072632
:104380000E82067B8E74467BCE74867BC77B46EAA4
:1043900007268E82067C407CA2F580620A80A3F507
:1043A00080634B80A4F5806446EA00208C80A5F5EC
:1043B0008065CD80A0F580600881F0BD00B52DED51
:1043C000048B83B041EC190B00F044FC41EC180B5A
:1043D00018EE100A18EE901A8DED008B002818BF09
:1043E0000120084320F00040C0F17F6000F1E04070
:1043F000C00F14D019EE101A19EE900A8DED009B23
:10440000002918BF0121084320F00040C0F17F605F
:1044100000F1E040C00F04BF0120FBF7CBFF51ECDF
:10442000180B03B0BDEC048B00BD81F00041704758
:1044300080F00040704721F00041704720F00040BC
:104440007047000021F00042A2F16052B2F5801FD7
:1044500001F0004328BFD2F17F6C0BD95FEA001C4A
:1044600043EAC20242EB507018BF704728BF20F0E9
:1044700001007047B2F5801FBCBF184670474FEA75
:10448000410C1CF5001F02D2084600F00FBE70B5AB
:1044900000F04AFB00000089FFF7F6BF4FF0004034
:1044A000A0F580007047000010B591EA030F48BFE7
:1044B00083F0004300F1A284841A71EB030C05D24F
:1044C000121943EB0C03001B61EB0C01DFF824E134
:1044D0004FEA1154A4EB135C1EEA430F18BF9EEA87
:1044E000445F73D023EA0E03DCF1200E21EA04516D
:1044F00043F4801332D322FA0CFE10EB0E0023FAA1
:104500000CFE41EB0E01CCF1200E03FA0EFE10EB77
:104510000E0051F10001B1F5801FCCF1200E32D216
:1045200001EB045112FA0EF2BDE8104058BF70477B
:10453000401C38BF5FEA420218BF7047002814BF12
:1045400020F0010041F100014FEA410313F5001F83
:1045500038BF7047A1F1C04100F034BB012A43EBE2
:104560000302ACF1200CDCF11F0E32BF4FF0000E45
:1045700023FA0CF310EB030041EB0451B4EB115F91
:10458000D0D0A1EB045101F5801149085FEA300059
:1045900001EB04510ED350F1000038BF12FA0EFEA9
:1045A00008D1BDE81040C9E7401C38BF5FEA4202AD
:1045B000CAD1C3E7BDE810404FEA410313F5001F1D
:1045C00038BF7047A1F1C04100F0FCBA9EEA445FD9
:1045D00008D011EA5E0FBDE8104004BF01F00041B1
:1045E00000207047BDE8104070B500F09DFA00BF94
:1045F00064FBBE3E0000E0FF02494FF0000000F007
:104600005ABD00BF0000F87F491058BFC1F14041BA
:104610005B1058BFC3F140438B42EFF300807047FB
:104620002DE9C04130B4DFF8A0C23CEA111418BF34
:104630003CEA131400F0EC8081EA03051CEA111433
:1046400044EAD57418BF1CEA131500F0C780A4EB28
:1046500005044FF0004545EAC12145EAC32341EA7C
:10466000505143EA525304F17F74994204F50034E7
:104670004FEAC0204FEAC22208BF904200F09C805F
:104680004FEA13650FF24016765D4FEA134506FBBD
:1046900005F7C7F1807706FB07F74FEAD737A7FB87
:1046A00003687642C8F58038A7FB06CE38BFA8F16C
:1046B000010807FB08E64FF0000EA6FB028CE6FBA4
:1046C00003CEDCF1000CCEF1004E38BFAEF1010E8E
:1046D000A6FB0C584FF000074FF00005E6FB0E87D5
:1046E000A1FB08C6A0FB07CE16EB0E0645F10005A0
:1046F000E1FB076515F1E04E7EBFA4F580345FEA6B
:1047000046066D4116F1800745F100054FEA17276F
:104710004FEA066647EA0567A6F1DE46B6F1805F16
:104720004FEA15251FD9384624F0010C05EBC4715A
:10473000BCF1FE6F01EB0C1102D8F0BCBDE80081AA
:1047400024425CBF01F5801E9EEAC47F02D4F0BC07
:10475000BDE80081244238D4F0BCA1F1C041BDE8DD
:10476000004100F02FBA4FEAD22242EA43524FEA08
:10477000D323A7FB02864FEAD02040EA415007FB33
:1047800003661EEA0E0F4FEAD12105FB026658BFF1
:10479000A6EB0056B6EB00564FEA520E4EEAC37E29
:1047A00018EB0E0E56EB530EBDD518EB02085E410A
:1047B0007F1C55F10005B6E74FF480154FF0000758
:1047C0004FF000064FF00008ADE7F0BC4FF00000DE
:1047D00001F1C04101F00041BDE8008111EA0C1F68
:1047E0000CEA131500D00CE013EA0C1F00F0258032
:1047F0004FF00000F0BC81EA030101F00041BDE888
:104800000081F0BCBDE8004181EA030100F0DAB9A3
:10481000F0BCBDE8004170B500F086F9097EFC3EB1
:1048200000F007B881EA03014FF0000001F00041F9
:10483000704781EA030100F0C5B9F0BCBDE8004152
:104840004FF0000021497047FFFDFBF9F7F5F4F246
:10485000F0EEEDEBE9E8E6E4E3E1E0DEDDDBDAD81B
:10486000D7D5D4D3D1D0CFCDCCCBCAC8C7C6C5C479
:10487000C2C1C0BFBEBDBCBBBAB9B8B7B6B5B4B390
:10488000B2B1B0AFAEADACABAAA9A8A8A7A6A5A47B
:10489000A3A3A2A1A09F9F9E9D9C9C9B9A9999983F
:1048A0009797969595949393929191908F8F8E8EE2
:1048B0008D8C8C8B8B8A898988888787868585846F
:1048C00084838382828181800000FF070000F87F5B
:1048D0004FEA41034FEA5353A3F58063D3F11E031C
:1048E000C8BFD3F1210C0CDD4FF0004242EAC122D7
:1048F00042EA505232FA03FC8CEAE17CACEBE17004
:104900007047102BC4BF0020704703F5787CBCF1C2
:10491000FF3F04D06FF0004282EA2100704770B57B
:1049200000F002F94992248000207047F2E710F06D
:10493000004248BF4042B0FA80F310FA03F10AD0B7
:10494000C3F11D0303F580634FEA415002EB0352AC
:1049500002EBD12170474FF00000704751EA030C81
:1049600017D41CF5801F58BFBCF5801F00F10680CE
:10497000994218BF704708BF9042704707D711F59A
:10498000801F58BF13F5801F19D499427047894280
:1049900070471CF5801F08D5BCF5801FF7D58B42EA
:1049A00018BF704708BF824270474FF4001C1CEBD1
:1049B000410F38BF1CEB430F01D28B42704770B5DB
:1049C00000F0B2F8922449004FF000514FF08053AC
:1049D000FFF71ABEDFF848C170B51CEA111E1EBFF2
:1049E0001CEA13159EEA0C0F95EA0C0F00F06F807D
:1049F00081EA030423EA4C134EEAD47E21EA4C11E7
:104A000041F4801143F48013AE44A1FB024CA0FB9F
:104A10000365AEF17F7E361955EB0C05A1FB034C07
:104A20004CF10003A0FB021C16EB0C06654153F190
:104A30000003094218BF46F0010613F4007F0BD1B2
:104A40004FEA03314FEA0530340341EA155140EA99
:104A500016506FF003020AE04FEAC3214FEAC52067
:104A6000F40241EA555140EA56506FF0020202EB5F
:104A70002E4201EB025585EACE710AD05FEA440C62
:104A800018BF24F0004450F1000041F1000120EA79
:104A9000D47040F2FE7C624500D270BDA84214BFC3
:104AA0004FF080444FF04044002E08BF0024BEF178
:104AB000806FA8BFA1F1C041BDE8704080F2828044
:104AC0004FF0000001F1C04101F0004170479EEA43
:104AD0000C0F0CEA131518BF95EA0C0F06D04FF017
:104AE000000081EA030E0EF0004170BD00F01CF8DA
:104AF0008900013E00F007B800F009B84FEA430C06
:104B00005FEA5C5C08D081EA030100F05BB84FEA21
:104B1000410C5FEA5C5CF6D14FF000000149704740
:104B20000000FF070000F87F0EF1020E2EF0030ECA
:104B30005EF8046B364205D4012A43EB030515F5F4
:104B4000001F12D8012841EB010C1CF5001F0CD8E6
:104B50000ED14FEAD17C15F5001F0CEB4C0C0CF17B
:104B6000020C08BF4CEBD37C04E04FF0080C01E0D2
:104B70004FEAD37C0CEB4C0526FA05F606F0070647
:104B8000B6F1040C06D20EEB860CBDE870404CF07A
:104B9000010C6047DFE80CF0090B02024FF0004106
:104BA0004FF00000A1F5002170BD19461046012804
:104BB00051EB010418BFD4F5001484BF002001F0AC
:104BC000004170BD0808A0F500114FEA310170479F
:104BD00053EA010C17D41CF5801F58BFBCF5801F89
:104BE00000F106808B4218BF704708BF82427047B1
:104BF00007D713F5801F58BF11F5801F19D48B42BA
:104C000070479B4270471CF5801F08D5BCF5801F7C
:104C1000F7D5994218BF704708BF904270474FF4CC
:104C2000001C1CEB430F38BF1CEB410F01D2994213
:104C300070470FB40CBC03BCFFF7C1BE91EA030F71
:104C400010B581F000413FF537AC83F0004300F030
:104C5000D5B800002DE9F04101F5801CBCF5001F1E
:104C6000C0F2A9804FEA115C21EA0C510CF1FD0C55
:104C700041F480115FEA5C0C0CF5C07C01D340006C
:104C8000494130A4890241EA905187028E0E0A0CF4
:104C9000A45D04FB04F602FB06F6C6F14046A4FB45
:104CA0000662F60D46EA422606FB06F4A4FB012343
:104CB0005242C3F1404338BF5B1EA6FB02420024B0
:104CC000E6FB0324D20B42EA4446A6FB0623A1FBE3
:104CD00002E2A3FB07E4E3FB61426442C2F1404EFF
:104CE00038BFAEF1010EA6FB04234FF00002E6FB35
:104CF0000E32A2FB03463400E2FB6264A1FB06E62F
:104D0000A4FB07E8E4FB61687642C8F1405838BF6D
:104D1000A8F10108A2FB06E4A3FB08E5E2FB685446
:104D2000A1FB05E6A7FB04E8E1FB648618F120057A
:104D300056F10006A809A8F11B08B10908F03F08C0
:104D4000B8F10A0F40EA86601CD901EB0C51BDE8AE
:104D5000F08100BFFCF5EEE8E2DDD8D3CFCBC7C3CE
:104D6000C0BDB9B6B4B1AEACA9A7A5A3A19F9D9B88
:104D70009A9896959392908F8D8C8B89888786854B
:104D800084838281A0FB006800FB01F208EB4208EB
:104D9000B8EB872807D5341858EB0104D5D5401C4B
:104DA00051F10001D1E7341A78EB0104CDD4401E53
:104DB00071F10001C9E75FEA4C0C5FEA9C5C0DD120
:104DC00005D34FF0000001F00041BDE8F081BDE8DF
:104DD000F04170B5FFF7A8FE6DDBFFBEBDE8F04106
:104DE0004FF00000004970470000F87F10B591EACD
:104DF000030F48BF83F000433FF55EAB841A71EBAD
:104E0000030C07D212198CF0004C43EB0C03001B6F
:104E100061EB0C01DFF8A4E14FEA1154A4EB135C41
:104E20001EEA430F18BF9EEA445F00F0B08023EAF9
:104E30006E03524221EA0451C3EB6E0338BF5B1E7E
:104E4000DCF1200E25D322FA0CFE10EB0E0043FA03
:104E50000CFE41EB0E01CCF1200E03FA0EFE10EB1E
:104E60000E0051F10001CCF1200E29D412FA0EF2FD
:104E700001EB0451BDE8104058BF7047401C1CBFF7
:104E8000B2F1004F704700280CBF491C20F0010010
:104E9000704712EB020E43EB030218BF4FF0010EF6
:104EA0004EEA4202ACF1200CDCF11E0E54D943FA5A
:104EB0000CFE10EB0E0051F1FF31CCF11E0ED5D5DA
:104EC0000EF1010E12FA0EFE404141EB010101EB21
:104ED000445C5FEA5C5C10D910EBDE7001EB0451BE
:104EE00038BFBEF1004FBDE8104018BF7047002822
:104EF0000CBF491C20F00100704730D24FEAD42C7F
:104F000011F5001124F400641BD0B1FA81F20B3AC0
:104F1000A41AA41ED2F12003914030FA03F31943DE
:104F2000904001EBCC71002C01EB0451BDE8104026
:104F3000A8BF704701F1C0414FF0000001F00041EF
:104F40007047B0FA80F310FA03F100D110BDE41AF3
:104F5000173C4805C90AE4E701EB045110BD4910AC
:104F600001EB0451BDE810404FEA300002E04FF081
:104F7000000170474A0008BF0042F8D0B2F5001F98
:104F800028BF704701F000414FF0000070479EEAD3
:104F9000445F07D011EA5E0FBDE8104004BF002156
:104FA00000207047BDE8104070B5FFF7BDFD00BFA1
:104FB00040DFF63E83F00041104670470000E0FFFE
:104FC00043004FEAD30C4FEA3C0C43401FBF40075D
:104FD0000CF1605113F0FE4F70471CF0006F03D1CD
:104FE00000200CF0004170470CF0004343EA507081
:104FF00010B540EACC0000F00EF800BF00000092AF
:105000004FEA0001FFF7DEBD4FF000414FF0000016
:10501000A1F5002170470EF1020E2EF0030E5EF88E
:10502000044B244204D44FEA4102B2F17F4F11D81D
:105030004FEA4003B3F17F4F0CD80ED14FEAD07C3A
:10504000B2F17F4F0CEB4C0C0CF1020C08BF4CEB97
:10505000D17C04E04FF0080C01E04FEAD17C0CEB6E
:105060004C0324FA03F404F00704B4F1040C06D250
:105070000EEB840CBDE810404CF0010C6047DFE8FB
:105080000CF0070802024FF00040A0F5800010BDB0
:105090000846420018BFD2F1807288BF00F000407D
:1050A00010BD4FF04070E1EE100A7047FF2141EA59
:1050B000D050C00570470CF00F03092B08BF082023
:1050C00000F059800A2B0BD0082B18BF704708BF7F
:1050D0001CF0400F0AD04FF000004FF00001704765
:1050E0001CF0400F18BF4FF0004070471CF0100F2D
:1050F00008D020F0704300F07F4242EAD3014FEA2B
:105100004370704700F0604021F07F4242EA0002A5
:1051100001F07F4040EA727070474FF0FF0C4CF492
:10512000E06C1CEA11531CBF9CEA030C9445C2BFFF
:10513000DA4201EB02517047002B0DD0BCF1000F99
:105140000FD0002A01F00041A4BF41F0E04141F03E
:105150007F614FF00000704701F000414FF0000008
:10516000704750EA01334FF09B0C18BF4CF0806C35
:105170007FF442AA70471CF4801F11D01CF4E02F6A
:1051800003D06FEACC31490070474FF04050EFF345
:10519000008222F0704242EA000282F300887047E7
:1051A0004FF00000704700061016000610160000B1
:1051B00000000000000001020304060708090000C7
:1051C0000000010203040000000000000000F03FA6
:1051D000000000000000F83F000000000000000098
:1051E0000000004003B8E23F0000000000000000A3
:1051F00006D0CF43EBFD4C3E033333333333E33F31
:10520000FFAB6FDBB66DDB3F4D268F515555D53F5C
:1052100001411DA96074D13F65DBC9934A86CD3F2A
:10522000EF4E454A287ECA3F3E5555555555C53F18
:1052300093BDBE166CC166BF2CDE25AF6A56113F0A
:10524000F16BD2C541BDBBBED0A4BE726937663E0C
:105250004FBB610567ACDD3F182D4454FB21E93F8E
:105260009BF681D20B73EF3F182D4454FB21F93F7D
:10527000E2652F227F2B7A3C075C143326A6813C03
:10528000BDCBF07A8807703C075C143326A6913CAE
:10529000C4EB98999999C9BF711623FEC671BCBF1A
:1052A0006D9A74AFF2B0B3BF9AFDDE522DDEADBF82
:1052B0002F6C6A2C44B4A2BF0D5555555555D53F9A
:1052C000FF8300922449C23F6E204CC5CD45B73FB5
:1052D000513DD0A0660DB13FEB0D76244B7BA93F2D
:1052E00011DA22E33AAD903F000000000000000018
:1052F000105300080000002098000000C4010008BE
:10530000A85300089800002078130000E00100086E
:10531000000000000100000010000000000000007C
:105320000024F40000000000000000000000000065
:10533000000000000000000000000000000000006D
:10534000000000000000000000000000000000005D
:10535000000000000000000000000000000000004D
:10536000000000000000000000000000000000003D
:105370000000000000002041CDCCCC3D000000002A
:10538000CDCC4C3E000000000000803FCDCC04415D
:10539000CDCCCC3D0000803F713D8A3E5839B43CB5
:0853A0003333333F000000002D
:040000050800018965
:00000001FF
