:020000040800F2
:10000000705A0120F1020008490B0008A30A0008F9
:10001000470B0008B108000871110008000000003B
:10002000000000000000000000000000390200088D
:10003000010A0008000000008D020008E50D00081C
:100040000B0300080B0300080B0300080B03000858
:100050000B0300080B0300080B0300080B03000848
:100060000B0300080B0300080B0300080B03000838
:100070000B0300080B0300080B0300080B03000828
:100080000B0300080B0300080B0300080B03000818
:100090000B0300080B0300080B0300080B03000808
:1000A0000B0300080B0300080B0300080B030008F8
:1000B0000B030008550E00080B0300080B03000893
:1000C0000B0300080B0300080B0300080B030008D8
:1000D0000B030008A50F00080B0300080B03000822
:1000E0000B0300080B0300080B0300080B030008B8
:1000F0000B0300080B0300080B0300080B030008A8
:100100000B0300080B0300080B0300080B03000897
:100110000B0300080B0300080B0300080B03000887
:100120000B0300080B0300080B0300080B03000877
:100130000B0300080B0300080B0300080B03000867
:100140000B0300080B0300080B0300080B03000857
:100150000B0300080B0300080B0300080B03000847
:100160000B0300080B0300080B0300080B03000837
:100170000B0300080B0300080B0300080B03000827
:100180000B0300080B03000800F002F800F044F82D
:100190000AA090E8000C82448344AAF10107DA45E2
:1001A00001D100F039F8AFF2090EBAE80F0013F0F0
:1001B000010F18BFFB1A43F001031847103300006A
:1001C00030330000103A24BF78C878C1FAD85207FB
:1001D00024BF30C830C144BF04680C6070470000C1
:1001E0000023002400250026103A28BF78C1FBD840
:1001F000520728BF30C148BF0B607047642900F028
:100200001781732900F08D82002070471FB503F01D
:1002100045F91FBD10B510BD00F0F7FA1146FFF704
:10022000F5FF00F0E5FF00F015FB03B4FFF7F2FF68
:1002300003BC00F09EFF00002A4B19680868B0E874
:10024000F04F80F30988BFF36F8F4FF0000080F309
:10025000118870470000000006480068006880F3BD
:10026000088862B661B6BFF34F8FBFF36F8F00DFB0
:1002700000BF00BF08ED00E0DFF80C00016841F4AA
:1002800070010160704700BF88ED00E0EFF3098066
:10029000BFF36F8F134B1A681EF0100F08BF20EDCD
:1002A000108A20E9F04F106008B44FF0500080F33E
:1002B0001188BFF34F8FBFF36F8F02F049FA4FF0F1
:1002C000000080F3118808BC19680868B0E8F04F96
:1002D0001EF0100F08BFB0EC108A80F30988BFF33E
:1002E0006F8F704770000020EFF3058070470000AB
:1002F0000948804709480047FEE7FEE7FEE7FEE7BA
:10030000FEE7FEE7FEE7FEE7FEE7FEE704480549F5
:10031000054A064B70470000F90D000889010008E6
:1003200070540120705A012070560120705601202F
:10033000704700000FB4044910B503AA029800F0FA
:10034000F5F910BC5DF814FB380000200FB41CB5A3
:10035000074B06AA7B4469460090059800F0B7F960
:100360000020694600F0C6F91CBC5DF814FB0000D3
:100370009D0300002DE9F0410E4604460020206256
:100380002046E168884730B3252805D0D4E901210B
:100390009047206A401CF2E7E16820460027884722
:1003A000050018D0A5F14100192802D820354FF4D6
:1003B00000673246294620462760FFF71FFF40B1FD
:1003C000012804D0F61D26F007060836D8E7361DAA
:1003D000D6E72846DAE7206ABDE8F08170B50C461A
:1003E0000546012A05D02878800600D5EA69002351
:1003F00002E0012305E05B1C934202D2E05C00288E
:10040000F9D1A869E618C01AA861286A18442862B8
:100410002846AFF3008004E0D5E9012114F8010B70
:100420009047B442F8D32846AFF3008070BD000077
:100430002DE9F0410646002410687529314616A5BD
:1004400010D0AFF30080002802DA404213A507E085
:1004500031688A0701D512A502E0490704D511A524
:10046000012401E0AFF3008000210A2206F12407F5
:1004700009E0B0FBF2FCB0FBF2F302FB1C003030F1
:1004800078541846491C0028F3D123462A463046A2
:10049000BDE8F04100F0BCB8000000002D000000F5
:1004A0002B00000020000000032A40F2308010F0F2
:1004B000030C00F0158011F8013BBCF1020F6244FF
:1004C00098BF11F801CB00F8013B38BF11F8013B90
:1004D000A2F1040298BF00F801CB38BF00F8013B3D
:1004E00011F0030300F03481083AC0F0088051F89D
:1004F000043B083A51F804CBA0E80810F5E7121DB8
:100500005CBF51F8043B40F8043BAFF30080D207D6
:1005100024BF11F8013B11F801CB48BF11F8012BA2
:1005200024BF00F8013B00F801CB48BF00F8012BC5
:10053000704702F0FF0343EA032242EA024200F05E
:1005400002B84FF000020429C0F0128010F0030C32
:1005500000F03281CCF1040CBCF1020F18BF00F89E
:10056000012BA8BF20F8022BA1EB0C0100F024B94D
:100570005FEAC17C24BF00F8012B00F8012B48BFC3
:1005800000F8012B704700004FF0013C50F8042B9D
:1005900051F8043B9A4221D1A2EB0C03934313EA96
:1005A000CC1317D150F8042B51F8043B9A4215D1C3
:1005B000A2EB0C03934313EACC130BD150F8042B9A
:1005C00051F8043B9A4209D1A2EB0C03934313EA7E
:1005D000CC13DBD04FF00000704700BFD01A01BA37
:1005E000B1FA81F101F0180122FA01F0CB40C1F11A
:1005F0002001DBB2C0B2C01A2CFA01F3D11A914328
:1006000011EAC311E6D170477047704770477047D1
:100610002DE9F0470D4699469246044600F124081C
:100620000168880604D5E06921F01001216000E02E
:100630000120A84201DD471B00E00027A1697A19CB
:1006400002EB0900081AA0612078C00602D42046F7
:10065000AFF30080002608E0D4E901211AF8060073
:100660009047206A401C761C20624E45F4DB2078BF
:10067000C0060AD52046AFF3008006E0D4E9012188
:1006800030209047206A401C2062381EA7F10107E5
:10069000F4DC07E0D4E9012118F805009047206A4E
:1006A000401C2062281EA5F10105F3DC2046AFF3B3
:1006B00000802078000602D50220BDE8F0870120E6
:1006C000FBE7000001694A1C02610878704700B529
:1006D0008FB0CDE901310021059105497944CDE97B
:1006E000031011466846FFF745FE0FB000BD00003D
:1006F000E5FFFFFF0A6802F8010B0A60704710B5BA
:10070000436913B1AFF3008001E0FFF767FE0120FA
:1007100010BD127800F124010A7000224A700122F3
:10072000EDE711684FF0FF32E9E70000074B70B5C5
:100730000D467B44FFF7CBFF0446284600F061F8E6
:1007400010B14FF0FF3070BD204670BDA70A000009
:1007500010B5203AC0F00B80B1E81850203AA0E85C
:100760001850B1E81850A0E81850BFF4F5AF5FEA90
:10077000027C24BFB1E81850A0E8185044BF18C943
:1007800018C0BDE810405FEA827C24BF51F8043BEA
:1007900040F8043B08BF7047D20728BF31F8023B3E
:1007A00048BF11F8012B28BF20F8023B48BF00F8D2
:1007B000012B70474FF0000200B513469446964651
:1007C000203922BFA0E80C50A0E80C50B1F1200164
:1007D000BFF4F7AF090728BFA0E80C5048BF0CC012
:1007E0005DF804EB890028BF40F8042B08BF704770
:1007F00048BF20F8022B11F0804F18BF00F8012BE2
:100800007047007B00F080007047754600F02CF8C0
:10081000AE4605006946534620F00700854618B0ED
:1008200020B5FFF773FDBDE820404FF000064FF004
:1008300000074FF000084FF0000B21F00701AC4615
:10084000ACE8C009ACE8C009ACE8C009ACE8C00934
:100850008D46704710B50446AFF300802046BDE8D2
:100860001040FFF7E2BC0000004870470C54012024
:100870007CB50121202000F0E3F901208DF804006F
:1008800000208DF8060003208DF805000220074D9A
:100890004FF480748DF8070000946946284600F0F4
:1008A000B0F82146284600F0F8F87CBD001402405C
:1008B000FEE7000070B50546FF240EA1FFF764FEB9
:1008C00078B10EA12846FFF75FFE60B10DA1284662
:1008D000FFF75AFE48B10DA12846FFF755FE30B18B
:1008E00006E0012404E0022402E0032400E00424E2
:1008F000204670BD4C4544314F4E00004C454431BC
:100900004F464600424545504F4E00004245455037
:100910004F464600034800220260426053213120C6
:1009200000F0B2BA280000204FF0FF3BDFF894A09F
:10093000254E264F4FF00108002500235A46194640
:10094000DAF80C0002F02EF80128F6D13C780020ED
:10095000611C00F033FD81461D4A1EA1FFF7F6FC25
:10096000484609F80450214600F0DEF84846FFF7F3
:10097000A1FF0446FF2818D0494617A0FFF7DAFC6C
:10098000012C06D0022C07D0032C08D0042C0FD148
:1009900008E0C6F8A8520BE0C6F8A88208E0C6F83E
:1009A000A08205E0C6F8A05202E00EA0FFF7C2FC4C
:1009B0003D80C8210648FFF7C4FD4946002000F0ED
:1009C000F1FCBAE700000020008042423400002021
:1009D000F800002025730000C3FCC1EECEAA3A2522
:1009E000730D0A00CEDED0A7B5C4C3FCC1EEA3AC24
:1009F000C7EBD6D8D0C2CAE4C8EB21210D0A00004B
:100A00007047F0B5002201274FF0030C0B6807FA7E
:100A100002F52B40AB422CD1066853000CFA03F4CC
:100A2000A64306600E79D0F800E09E4046EA0E0626
:100A300006600E79012E01D0022E12D18668A643DF
:100A400086604E79D0F808E09E4046EA0E06866041
:100A50004668AE43466045688E799640B6B23543E7
:100A60004560C568A543C560CC799C40C3681C43FC
:100A7000C460521C102AC9D3F0BD4B07DB0E9A404C
:100A8000C90810B500EB8100016A0F249C40A14306
:100A90000162016A1143016210BD41837047018305
:100AA0007047FEE71CB50121112000F0C9F81C2099
:100AB000009000208DF8040003208DF8050001242B
:100AC0008DF8074069460648FFF79BFF02208DF826
:100AD0000700009469460348FFF793FF1CBD000020
:100AE00000100240000002407CB50121202000F0EF
:100AF000A7F801208DF8040000228DF806200321BC
:100B00008DF80510074D4FF4C0648DF80700009470
:100B100069462846FFF775FF21462846FFF7BFFFC5
:100B20007CBD00000014024010B5002208E0835C88
:100B3000A3F161041A2C01D2203B8354521CD2B27F
:100B40008A42F4D310BDFEE77047000030B50F2392
:100B5000C27801780125FAB1144A126801F1E02146
:100B600002F4E062C2F5E062C2F30722C2F10404BB
:100B7000D3404278A24084781C401443220181F87B
:100B80000024007800F01F018D404009800000F132
:100B9000E020C0F8005130BD01F01F008540480939
:100BA000800000F1E020C0F8805130BD0CED00E085
:100BB0000249084302490860704700000000FA0536
:100BC0000CED00E010B50121022000F039F8012100
:100BD000042000F035F80121082000F031F801214F
:100BE000102000F02DF80121202000F029F801212B
:100BF000402000F025F80121BDE81040802000F0E1
:100C00001FB810B50021022000F01AF800210420BE
:100C100000F016F80021082000F012F80021102042
:100C200000F00EF80021202000F00AF800214020FA
:100C300000F006F80021BDE810408020AFF30080EE
:100C4000044A0029116801D0014300E0814311608A
:100C50007047000030380240044A0029116801D072
:100C6000014300E0814311607047000040380240BA
:100C7000044A0029116801D0014300E0814311605A
:100C8000704700004438024070B5204B1968204C72
:100C900011F00C0104D06610042903D0082903D0F8
:100CA00004601BE0066019E0184A121F1168C1F3C6
:100CB0008055116801F03F0115B1B6FBF1F101E07B
:100CC000B4FBF1F114681268C4F388146143C2F3F1
:100CD0000142521C5200B1FBF2F1016019680F226F
:100CE00002EA11110B4A545C0168E14041601C6842
:100CF000072505EA9424145D21FA04F484601B6836
:100D000005EA5333D25CD140C16070BD083802405F
:100D10000024F4003C0000200CB50022274900927A
:100D20000192086840F4803008604FF4A0430868DE
:100D300000F4003001900098401C0090019810B918
:100D400000989842F3D10868800334D501200190BF
:100D50001A484030026842F0805202601848026827
:100D600042F440420260154808300268026002689E
:100D700042F400420260026842F4A0520260031F83
:100D8000104A1A600A6842F080720A600A6892018A
:100D9000FCD50D4940F205720A60016821F003019B
:100DA0000160016841F0020101600168C1F3810145
:100DB0000229FAD10CBD01920CBD0000003802409E
:100DC0000070004008544007003C02404FF0E02112
:100DD0000428086903D020F004000861704740F03F
:100DE0000400FAE710B502F0FBF8012803D0BDE8D3
:100DF000104001F085BD10BD124810B5016841F4E6
:100E0000700101601048016841F0010101600E4A63
:100E100000210832116002680C4B1A400260031D69
:100E20000B4A1A60026822F48022026006480C30E5
:100E30000160FFF771FF03494FF0006080390860DF
:100E400010BD000088ED00E000380240FFFFF6FE14
:100E50001030002410B50A4C0121204600F04FF854
:100E6000012807D107490A684868521C40F1000070
:100E70000A6048602046BDE81040012100F032B809
:100E800000040040280000207FB50D4604460121E3
:100E90000220FFF7E1FE0194ADF800500024104D50
:100EA000ADF80240ADF808406946284600F03CF82D
:100EB00001221146284600F02EF80121284600F0B4
:100EC00014F81D208DF80C0001208DF80D008DF810
:100ED0000E408DF80F0003A8FFF738FE7FBD00001D
:100EE00000040040C943018270470029018802D0F4
:100EF00041F0010101E021F001010180704702464B
:100F00000020138A92890B4202EA010202D0002AD1
:100F100000D001207047002A828901D00A4300E0F6
:100F20008A4382817047000030B50288164C174D05
:100F3000A0420DD0A8420BD0B0F1804F08D0144B86
:100F4000984205D0134B984202D0134B984203D1DC
:100F500022F070034A881A43104B984206D0104B77
:100F6000984203D022F440730A891A4302804A68E7
:100F7000C2620A880285A04201D0A84201D1897AC2
:100F800001860121818230BD000001400004014042
:100F90000004004000080040000C00400010004029
:100FA0000014004038B51F4D40F22551284600F08E
:100FB0004DF81D4CD8B1284600F0D6F8C1B22088B3
:100FC000020417D443044FF0000204D50A290DD1BE
:100FD00040F4004023E00D291FD0C0F30D03134D52
:100FE000401C80B2E9542080C72800D92280208884
:100FF000000411D50E48006800280DD0694601F0A4
:101000001BFF0098002807D00A494FF08050086065
:10101000BFF34F8FBFF36F8F38BD40F48040208007
:10102000E5E700000010014034000020F800002037
:101030000C00002004ED00E00029818902D041F479
:10104000005101E021F400518181704770B501F039
:101050001F0501260024C1F3421306FA05F2012BF5
:101060000FD0022B0FD0838A4FEA11210088134240
:1010700006FA01F600EA060001D000B1012420467C
:1010800070BD8389F0E7038AEEE710B5C1F3421320
:1010900001F01F040121A140012B07D0022B07D032
:1010A0001430002A026805D00A4304E00C30F8E747
:1010B0001030F6E78A43026010BD00007FB5044699
:1010C000008A0D46C98820F4405001432182A0893E
:1010D00041F20C618843A9882A8911436A89024335
:1010E0001143A181A08A20F44071A8890843A082FD
:1010F0006846FFF7C9FD1A48844202D01948844265
:1011000001D1039800E00298A189090400EBC00115
:1011100001EB0010296801D5490000E08900B0FB0F
:10112000F1F06422B0FBF2F109010B096FF0180530
:101130006B4300EB8300A3891D044FF0320306D5F7
:1011400003EBC000B0FBF2F000F0070005E003EB9A
:101150000010B0FBF2F000F00F00084320817FBDCB
:1011600000100140001401408088C0F3080070475F
:10117000FEE7704710B504460420FFF727FE0A4833
:101180004FF47A71047014FB01F1012242804FF098
:10119000E020026942F0020202614161016941F00E
:1011A0000101016110BD000030000020094901204B
:1011B000096809B1002070470749CA69002AF9D1B6
:1011C000044A896828321268491E8A42F3D10220F3
:1011D00070470000A80301207000002003490A881E
:1011E0005206FCD5C2B28A80704700000010014050
:1011F0001CB54FF44070FFF7DBFCA820FFF7BAFFE7
:101200004FF4E13000F064FEFFF76EFCFFF74AFC9C
:10121000FFF72EFB002000F045F807490120CDE93B
:1012200000010202002305A1074801F0ADFE01F014
:1012300015FA00201CBD00000000002073746172CC
:10124000745F7461736B0000351E000870B5134A3B
:10125000131893F8203093B1114B53F820308B4280
:101260001AD90F4B02EB80020C3B53F82030506927
:10127000B1FBF3F130F811400020034608E011689B
:101280008847012070BD55690E18401C25F816309E
:10129000A042F8DB002070BD022070BD4C00002091
:1012A000C034000870B504460B480C4E002150F8BD
:1012B000240006EB84054200686900F08FF80648B8
:1012C0000021183050F82420A86800F087F8012089
:1012D000311981F8200070BDA83400084C000020AE
:1012E0002DE9F0411F4E0546002470190F4690F875
:1012F000200010B93168284688474FF0FF327FB38D
:10130000194B53F82510B7FBF1F0B7FBF1FC01FBCB
:101310001C7101B1401C14490C3951F82510491EAB
:101320001ED406EB8506776937F811C0BCF1000FB3
:1013300005D00024844211D1002284B207E0641C4D
:10134000F8E7776901EB020C521C27F81C40824237
:10135000F7D353F825004843BDE8F081491EE3D593
:101360001046F9E74C000020B434000810B50B4BD0
:101370000B4C002253F82030114604EB800005E0AE
:10138000446934F8114004B1521C491C8B42F7D80F
:1013900064204243B2FBF3F0C0B210BDA834000891
:1013A0004C000020002906D0034A02EB800292681C
:1013B000891AFFF74BBF70474C00002010B5044658
:1013C000FFF78EFF411C05D0034901EB84018968BA
:1013D000084410BD002010BD4C00002001E000F8C2
:1013E000011B521EFBD270472DE9F041184E0F46EB
:1013F0000446F5683068001D00F0C0FD38B930685B
:1014000090F82C1001208840316981433161601CC3
:1014100007D137B13168BDE8F0410E48091D00F031
:10142000E5BD30682C44AC424460316805D2306C74
:10143000BDE8F041091D00F0C1BDF06B091D00F0D1
:10144000BDFDB06A844200D2B462BDE8F081000004
:1014500070000020D00301202DE9F041054600F086
:10146000D1FD2D4EB068401CB06030682B4F10B1DC
:10147000706930B32BE03560B068012827D10024B3
:1014800004EB840007EB800000F08AFD641C202C34
:10149000F6D3234800F084FD2148143000F080FD8D
:1014A0001F48283000F07CFD1D483C3000F078FDDE
:1014B0001B48503000F074FD1948F063143030645C
:1014C00005E03068E96AC06A884200D83560706A11
:1014D0000121401C7062A864E86A326981401143AE
:1014E000316100EB800007EB8000291D00F07EFDDC
:1014F00000F0C4FD706900280CD03068E96AC06A49
:10150000884207D207494FF080500860BFF34F8FE1
:10151000BFF36F8FBDE8F081700000200001012053
:101520008003012004ED00E010B500F06BFD0E4CCF
:101530002068A0B90D4800F033FD0C48143000F0CD
:101540002FFD0A48E06014302061002210210520A0
:1015500001F0ECF9206010B105A100F0EBFEBDE850
:10156000104000F08BBD0000B4000020E403012017
:10157000546D72510000000070B5124E124D1CE007
:1015800001F0DEF8306820B1002401F059FEA4B962
:1015900001E00124F9E700F035FDF068C468201D82
:1015A00000F0ECFCA868401EA8606868401E6860F7
:1015B00000F064FD204600F052F868680028DFD192
:1015C00070BD0000BC0301207000002030B4026C2C
:1015D0000B46002A0BD0C1681144C1604468A14287
:1015E00001D30168C16030BC1846FEF75DBF30BC56
:1015F00070472DE9F041856B174604460026026CC2
:1016000082B1C7B1E068FEF74FFFE168206C091AAC
:10161000E1602268914202D26168081AE060022FFC
:1016200016D017E02068A8B9606801F061FD064691
:10163000002060600EE0A068FEF736FF216CA06815
:101640000844A0606168884204D32068A06001E07B
:1016500005B16D1E6D1CA5633046BDE8F08110B567
:101660000446006B00F03CFD2046BDE8104000F051
:1016700037BD00000A4900200A69012A00D901206B
:101680000A68D26A0AB100207047064A1268012A25
:10169000F9D80028F7D1886AC968401A7047000055
:1016A000700000200001012010484FF4A0414207C3
:1016B00006D0C01D0D4920F00700411AC1F5A04118
:1016C0000B4A00230144C2E900030839103A21F013
:1016D000070111604B600B600B1AC0E900139360A7
:1016E0004FF000405360D060704700000C040120B0
:1016F000F0000020144D4FF08056144F144C40F66B
:101700008C48FFF739FF2868012804D93E60BFF3F1
:101710004F8FBFF36F8FFFF7ADFF0228F1D301F0BA
:101720000FF8A06AE168884204D2424609A10EA0DF
:10173000FEF700FEFFF79EFF022801D300F040FDF8
:1017400001F07EFDDDE700000001012004ED00E076
:10175000700000202E2E5C4672656552544F535C1B
:101760007461736B732E63004572726F723A2573E6
:101770002C25640D0A0000002DE9F047DDE90984FD
:101780000E461746824691009946089DA522206B79
:10179000FEF7CFFE6FF00301206B01EB87010844D9
:1017A00020F00707780705D040F22B3219A11EA0C0
:1017B000FEF7C0FD00202218315C82F83410315C45
:1017C00011B1401C1428F6D3002684F84760202D60
:1017D00000D31F25E562C4E91456201D00F0EBFB81
:1017E00004F1180000F0E7FB2461C5F120006462F9
:1017F000A061A665E66584F860604A4651463846B1
:1018000000F002FB2060B8F1000F01D0C8F80040E2
:10181000BDE8F0872E2E5C4672656552544F535CCE
:101820007461736B732E63004572726F723A257325
:101830002C25640D0A00000030B5114900E0114666
:101840000A688242FBD34B685C18844203D140682B
:1018500018444860084643681C18944209D1084C53
:10186000103C2468A24209D052681A4442600A68B7
:1018700012680260814200D0086030BD0460F9E760
:10188000F000002070B5002441600B4D00619142D2
:1018900006D8D11A8269914206D2011D286907E053
:1018A0009A4203D2994201D3012403E0011DE86862
:1018B00000F084FB204670BDB400002010B5044643
:1018C00000F0A0FBA06B20B1002400F0D7FB204665
:1018D00010BD0124F9E700002DE9F34100980F46FF
:1018E0000026846C2CB940F6CE1216A11AA0FEF781
:1018F00021FDA06BE16B884205D340F6CF1211A108
:1019000015A0FEF717FDA06BE16B88420CD294F98D
:1019100045503A4669462046FFF76BFE0646681C6E
:1019200005D06D1C84F845503046BDE8FC81606AE6
:101930000028F9D004F1240001F034FC0028F3D091
:101940000126F1E72E2E5C4672656552544F535CBA
:1019500071756575652E63004572726F723A2573F5
:101960002C25640D0A000000F8B5054614480E4603
:10197000C068C068C468201D00F000FBE069012851
:1019800017D1A0692B46411932462046FFF77AFF4E
:1019900078B100200346014600902A46204601F017
:1019A00035FD30B907494FF4027201F11800FEF716
:1019B000C1FC616A01B02046BDE8F0400847000064
:1019C000B40000207033000870B586B02F4E53E08D
:1019D0000198002806DADDE90301029A9047019890
:1019E000002849DB039C606910B1201D00F0C6FA95
:1019F00005A800F0A7F8054601980A283CD2DFE8C0
:101A000000F00505053B273805053B270298A1692D
:101A1000034601442A462046FFF734FF00282BD016
:101A2000616A20468847E069012825D1002000909E
:101A30000298A169002342181946204601F0E6FCED
:101A4000D0B940F2213212A117A0FEF773FC13E0C7
:101A50000298A06128B94FF44E720DA112A0FEF7B2
:101A600069FCA0692B4641191A462046FFF70AFF78
:101A700002E0204600F034FB00231A4601A930683A
:101A800000F090FF0028A3D106B070BDB400002084
:101A90002E2E5C4672656552544F535C74696D65B9
:101AA00072732E63000000004572726F723A2573E4
:101AB0002C25640D0A000000F8B50D46064600F01E
:101AC0003FFE684600F03EF80446009810B101F071
:101AD000B7FBF8BD1148ADB101690968D9B100255E
:101AE000311B2A46006800F037FC01F0A9FB0028F2
:101AF000EFD10B494FF080500860BFF34F8FBFF319
:101B00006F8FF8BDA642EBD801F09AFB2146304614
:101B1000FFF72AFFF8BD0125E2E70000B40000202E
:101B200004ED00E00648C16B096829B1C16BC968C2
:101B3000C9684968816270474FF0FF31FAE70000D9
:101B40007000002070B5054601F058FA064E0446B4
:101B5000B068844203D200F009F8012000E00020C0
:101B600028602046B46070BDB4000020F8B5184E5F
:101B700026E0C068C4680568201D00F0FFF9616AAE
:101B800020468847E06901281AD1A0692844A84264
:101B900006D924616060211DF06800F00FFA0FE0A3
:101BA00000200346014600902A46204601F02EFC04
:101BB00030B9084940F2923201F11800FEF7BAFB41
:101BC000F06801680029D4D13169C6E90310F8BD75
:101BD000B40000207033000808484068401C05D05D
:101BE00040F20F1206A111A0FEF7A4FB502080F3D3
:101BF0001188BFF34F8FBFF36F8FFEE7C80000203F
:101C00002E2E5C4672656552544F535C706F727431
:101C100061626C655C525644535C41524D5F434D6A
:101C200034465C706F72742E630000004572726FF0
:101C3000723A25732C25640D0A000000084CE068F8
:101C4000016839B1002139B10020FFF735FFFFF7F6
:101C5000BBFEF4E70121F6E7C0680068F5E7000085
:101C6000B40000202DE9F041044600F0CBF994F9CE
:101C7000455004F1240610E0A06C20B1002120465C
:101C8000FFF72AFE04E0606A48B1304601F08AFAA4
:101C900008B100F01FFC6D1E6DB2002DECDC4FF0A2
:101CA000FF3684F8456000F0E9F900F0ABF994F9EB
:101CB000445004F1100709E0206948B1384601F0AA
:101CC00071FA08B100F006FC6D1E6DB2002DF3DC58
:101CD00084F84460BDE8F04100F0D0B92DE9F0414E
:101CE0000546002600F02CFD324F386808B9FFF792
:101CF000DBFCF86805424FD1002D4DD00835680750
:101D00000BD005F00700C0F108000544680704D0B7
:101D1000BF2229A132A0FEF70DFB002D3CD0786830
:101D2000854239D8234910310846046801E021462C
:101D300004466068A84202D220680028F7D13868BB
:101D4000B846844228D00E6820680860606808366B
:101D5000401B10280ED96719780704D0EC2216A171
:101D60001FA0FEF7E7FA6068401B786038466560A0
:101D7000FFF762FD6168D8F804004246401AC8F8CF
:101D80000400D8F80830984200D29060D8F80C00CF
:101D900001430020C4E9000101F052FA700705D0A8
:101DA0004FF4967204A10EA0FEF7C4FA3046BDE8C7
:101DB000F0810000E00000202E2E5C467265655226
:101DC000544F535C706F727461626C655C4D656DED
:101DD0004D616E675C686561705F342E6300000062
:101DE0004572726F723A25732C25640D0A0000004B
:101DF0000449086818B10868426D521C42650868B9
:101E0000704700007000002010B5031F4FF0807471
:101E10001C601B1F21F001011960191F044B0B608E
:101E200014390A60091F6FF0020244380A6010BDBD
:101E3000D91B00087CB500F0E5F803220021012041
:101E400000F074FD0F4C0023211DE0600220C5014D
:101E5000CDE900012A460CA10E4801F095F804F1E5
:101E600008010320CDE9000100232A460AA10E48FB
:101E700001F08AF8206800F0C7FABDE87C4000F065
:101E8000FDB80000000000207461736B315F746165
:101E9000736B0000AD1E00086B657970726F63652F
:101EA00073735F7461736B0029090008074C4FF46A
:101EB000FA75D4F8A40230B10021C4F8A41228465F
:101EC00000F06CFAF5E70121F7E7000000804242DC
:101ED000F0B50746012187B00846FEF7B1FE0121A3
:101EE0001020FEF7C5FE234E072209213046FEF7DB
:101EF000C4FD07220A213046FEF7BFFD4FF4C06043
:101F0000049002208DF814008DF8150000248DF83F
:101F1000164001258DF8175004A93046FEF771FDD3
:101F2000ADF808400C20144EADF80440ADF80A009E
:101F30000097ADF80640ADF80C4069463046FFF713
:101F4000BDF801213046FFF777F8012240F2255114
:101F50003046FFF79AF825208DF8180007208DF8F5
:101F600019008DF81A408DF81B5006A8FEF7EEFDFB
:101F700007B0F0BD0000024000100140D0E901327E
:101F800001699A60D0E901235A604A68824201D10E
:101F900082684A60002202610868401E086070473B
:101FA00000F108014FF0FF32C0E90112C160016188
:101FB00000210160704700210161704730B50C6855
:101FC000621C02D000F1080202E0026904E01A4635
:101FD00053681D68A542FAD953684B6099608A60BE
:101FE000516008610168491C016030BD42684A6067
:101FF00093688B6093685960916008610168491C1F
:1020000001607047502080F31188BFF34F8FBFF3FA
:102010006F8F09494868401C486001280AD1074869
:10202000006810F0FF0F05D040F2B91204A10FA014
:10203000FEF780B970470000C800002004ED00E002
:102040002E2E5C4672656552544F535C706F7274ED
:1020500061626C655C525644535C41524D5F434D26
:1020600034465C706F72742E630000004572726FAC
:10207000723A25732C25640D0A00000010B5084C37
:10208000606828B94FF4E07206A111A0FEF752F97A
:102090006068401E606001D180F3118810BD0000AF
:1020A000C80000202E2E5C4672656552544F535C6A
:1020B000706F727461626C655C525644535C41523D
:1020C0004D5F434D34465C706F72742E63000000A8
:1020D0004572726F723A25732C25640D0A00000058
:1020E00070B500282AD0164DA0F108046068E96890
:1020F000084205D14FF4A07212A11CA0FEF71AF9F4
:10210000206828B140F241120EA118A0FEF712F982
:102110006068E968084211D02268002A0ED188431D
:10212000606000F00DFB60686968084468602046E4
:10213000FFF782FBBDE8704001F082B870BD00007F
:10214000E00000202E2E5C4672656552544F535CB1
:10215000706F727461626C655C4D656D4D616E6728
:102160005C686561705F342E630000004572726FB9
:10217000723A25732C25640D0A00000010B50E4834
:102180004FF47A730D4A00686FF07F44B0FBF3F1AF
:102190009160B4FBF1F1D160B0FBF0F12D24B4FB00
:1021A000F1F11161B0FBF3F14FF0E020491E416104
:1021B0000721016110BD000010000020C8000020B0
:1021C0002DE9F041374E0446F068844200D90446B8
:1021D0004FF0E027386920F001003861B969B26832
:1021E000601E02FB00153069854200D92D1A72B6B7
:1021F000BFF34F8FBFF36F8FFEF7D8FF48B37D61FA
:102200004FF00008C7F81880386940F001003861C5
:102210002046FEF7F6FC24B1BFF34F8F30BFBFF36B
:102220006F8F2046FEF7CEFC386920F0010139613E
:1022300062B6C00319D5B869B168281A081A32699C
:10224000401E904201D3884200D9481E7861641E26
:1022500015E0B8697861386940F001003861B0680C
:10226000401E786162B6BDE8F081B068B969444348
:10227000611AB1FBF0F4621C4243501A7861C7F84E
:102280001880FFF7BFFE386940F001003861204632
:1022900000F030FAB068401E7861BDE8F041FFF709
:1022A000EDBE0000C800002010B5FEF71DF8104C70
:1022B00010280CD300F1E02090F8F0032178884238
:1022C00005D24FF440720BA115A0FEF733F8184861
:1022D0000068616900F4E060884207D9BDE81040F9
:1022E0004FF4447203A10EA0FEF724B810BD000005
:1022F000C80000202E2E5C4672656552544F535C18
:10230000706F727461626C655C525644535C4152EA
:102310004D5F434D34465C706F72742E6300000055
:102320004572726F723A25732C25640D0A00000005
:102330000CED00E010B5074B002253F832401CB101
:10234000521C082AF9D310BD43F8321003EBC20126
:10235000486010BDC000012070B515460E46044609
:10236000FFF750FE94F944100020491C01D184F875
:10237000440094F94510491C01D184F84500FFF749
:102380007DFEA06B28B92A46314604F1240000F0F6
:10239000D1F82046BDE87040FFF764BC10B50400DA
:1023A00012D00E49096B29B140F2CF420CA111A005
:1023B000FDF7C0FF00F0C4F900212046FFF714F834
:1023C00000F03EFF002807D10E494FF08050086012
:1023D000BFF34F8FBFF36F8F10BD00007000002060
:1023E0002E2E5C4672656552544F535C7461736B5C
:1023F000732E63004572726F723A25732C25640D3B
:102400000A00000004ED00E070B50446FFF7FAFD95
:10241000234D04B92C68201DFFF7B0FD58B9E06AC0
:10242000204A00EB800152F8211021B9012181409E
:10243000286988432861A06A18B104F11800FFF7E1
:102440009DFD686A401C68622868844207D1211D8E
:102450001548FFF7CBFD6868401C686007E0A86876
:10246000401EA8602046FFF7FAF8FFF75BFBFFF776
:1024700005FE6869002812D0286884420FD1286BB5
:1024800028B140F2654209A10DA0FDF753FF1049A4
:102490004FF080500860BFF34F8FBFF36F8F70BD58
:1024A0007000002000010120BC0301202E2E5C469C
:1024B00072656552544F535C7461736B732E630085
:1024C0004572726F723A25732C25640D0A00000064
:1024D00004ED00E001490120C86170477000002050
:1024E00070B50D46040005D140F6063207A10CA0D8
:1024F000FDF720FF0E48016820461831FFF75EFD0A
:102500002846BDE870400121FEF76EBF2E2E5C46C6
:1025100072656552544F535C7461736B732E630024
:102520004572726F723A25732C25640D0A00000003
:102530007000002070B514460E46050005D140F627
:10254000313209A10DA0FDF7F5FE104801682846BB
:102550001831FFF74BFD0CB14FF0FF3621463046E6
:10256000BDE87040FEF740BF2E2E5C467265655296
:10257000544F535C7461736B732E63004572726FBA
:10258000723A25732C25640D0A00000070000020AB
:1025900070B5040039D01D4DE06A2968C96A8842C7
:1025A00033D2A069002804DB2868C06AC0F120008B
:1025B000A061E06A164E00EB8000616906EB8000C6
:1025C00081421FD1201DFFF7D9FC012150B9E06ADB
:1025D00000EB800256F8222022B92A6901FA00F0A5
:1025E00082432A612868C06AE0622A6981401143F7
:1025F000296100EB800006EB8000211DBDE87040E2
:10260000FFF7F4BC2868C06AE06270BD700000206B
:102610000001012010B5040005D140F6C13205A12A
:1026200009A0FDF787FE0C48016A2160C068606060
:1026300010BD00002E2E5C4672656552544F535CEF
:102640007461736B732E63004572726F723A2573F7
:102650002C25640D0A000000700000201CB51848ED
:102660000024CDE900402346822216A1174800F03D
:102670008BFC012803D100F08FFE01280AD0401CFA
:102680001DD102B040F28472BDE8104010A115A027
:10269000FDF750BE502080F31188BFF34F8FBFF37A
:1026A0006F8F07484FF0FF312C3881620121416163
:1026B000C460FEF72FF9BDE81C4000F097B81CBDC0
:1026C0009C00002049444C4500000000F51600081D
:1026D0002E2E5C4672656552544F535C7461736B69
:1026E000732E63004572726F723A25732C25640D48
:1026F0000A00000070B5084D0446E868A96A204445
:10270000884205D940F6711204A109A0FDF712FE16
:10271000E8682044E86070BD700000202E2E5C4602
:1027200072656552544F535C7461736B732E630012
:102730004572726F723A25732C25640D0A000000F1
:102740000248016B491C01637047000070000020C3
:1027500070B51A4C206B10B10120E06170BD0020F3
:10276000E061174908684968A063626B904204D928
:102770002168821A8B6D1A448A6560632069114E44
:10278000B0FA80F0C0F11F0000EB800556F825007C
:1027900028B940F6F6220CA110A0FDF7CBFD06EB00
:1027A000850000F10802416849684160914201D109
:1027B00049684160C868206070BD0000700000205A
:1027C00028000020000101202E2E5C467265655213
:1027D000544F535C7461736B732E63004572726F58
:1027E000723A25732C25640D0A0000007CB5304C2C
:1027F00020683049884205D140F259122EA139A0F3
:10280000FDF798FD20682B49491E884205D14FF4F9
:10281000AD7229A133A0FDF78DFD364D28780190CA
:10282000FF20287028788DF800009DF800009DF8A2
:10283000001000F0F000884205D040F273121EA193
:1028400028A0FDF777FD9DF800002B4C00F050000C
:1028500020700720606107E06069401E60619DF89C
:10286000000040008DF800009DF800000006F3D441
:10287000207D000200F4E0606061019828700C483F
:102880002030016841F470010160016841F070413D
:102890000160FFF773FC00206060FDF7EDFC174856
:1028A000016841F040410160FDF7D6FC00207CBD8D
:1028B00000ED00E071C20F412E2E5C46726565523C
:1028C000544F535C706F727461626C655C52564415
:1028D000535C41524D5F434D34465C706F72742EB1
:1028E000630000004572726F723A25732C25640DE7
:1028F0000A00000000E400E0C800002034EF00E01F
:1029000010B5502080F31188BFF34F8FBFF36F8F46
:1029100000F07AFB18B104494FF0805008600020A5
:1029200080F3118810BD000004ED00E02DE9F041B6
:1029300017460E46050005D14FF4C47210A115A02C
:10294000FDF7F8FCBEB105FB06F05430FFF7C6F901
:1029500004000ED004F154007EB12060C4E90F568B
:102960002046012100F0E0F884F850700021204654
:10297000A164BDE8F0810020E7E72460EEE70000F5
:102980002E2E5C4672656552544F535C71756575A9
:10299000652E63004572726F723A25732C25640DA3
:1029A0000A0000002DE9FF4F83B09B468A460400D1
:1029B0004FF0000605D140F2DC4251A155A0FDF7D1
:1029C000B9FCBAF1000F07D1206C28B140F2DD420A
:1029D0004BA150A0FDF7AEFC00F002FB38B9059802
:1029E00028B14FF49C6246A14AA0FDF7A3FC4FF02A
:1029F00000094FF08057DFF82C81FFF703FBA56B30
:102A000045B351462046E668FEF7E0FDBBF1000FF6
:102A100013D0E660606A50B104F1240000F0C2FBFC
:102A200028B1C8F80070BFF34F8FBFF36F8FFFF767
:102A300025FB012007B0BDE8F08F6D1EA56320685F
:102A400010B9FFF7D5F9606020690028EFD004F1D4
:102A50001000E3E7059808B11EB106E0FFF70EFB92
:102A600027E06846FFF7D6FD0126FFF707FBFFF7D3
:102A700067FEFFF7C7FA94F94400401C01D184F8BF
:102A8000449094F94500401C01D184F84590FFF72B
:102A9000F5FA05A9684600F033FA002820460AD066
:102AA000FFF7E0F800F0CCFB2046FEF707FF002818
:102AB000A3D00020BEE7FEF701FFD8B1206830B9EF
:102AC000FFF7A0FA6068FFF763FDFFF7D7FA04F19C
:102AD00024000599FFF704FD2046FFF7C3F800F036
:102AE000AFFB002889D1C8F80070BFF34F8FBFF348
:102AF0006F8F82E72046FFF7B5F800F0A1FB7CE777
:102B00002E2E5C4672656552544F535C7175657527
:102B1000652E63004572726F723A25732C25640D21
:102B20000A00000004ED00E070B50D46040005D178
:102B300040F21B121CA121A0FDF7FCFBFFF762FA7B
:102B4000D4E90F20216802FB001161600021A1631C
:102B50002168A1600A46D4E90F01401E00FB012153
:102B6000E16021464FF0FF3001F8440F487004F156
:102B700010004DB1FFF714FA04F12400FFF710FA2A
:102B8000FFF77CFA012070BD21690029F8D000F020
:102B900009FB0028F4D00D494FF080500860BFF3C6
:102BA0004F8FBFF36F8FEBE72E2E5C467265655239
:102BB000544F535C71756575652E63004572726F75
:102BC000723A25732C25640D0A00000004ED00E024
:102BD0002DE9FF4F83B099468B4604004FF0000665
:102BE00005D140F2D92252A156A0FDF7A3FBBBF1BB
:102BF000000F07D1206C28B140F2DA224CA151A07D
:102C0000FDF798FBB9F1020F08D1E06B012805D060
:102C100040F2DB2246A14BA0FDF78CFB00F0E0F96F
:102C200038B9059828B140F2DE2241A145A0FDF750
:102C300081FB4FF0000A4FF08057DFF81881FFF753
:102C4000E1F9A06BE16B884206D3B9F1020F03D022
:102C5000059800B316B325E04A4659462046FEF7CC
:102C6000C8FCA16C21B149462046FEF735FE05E0BF
:102C7000616A19B104F1240000F094FA28B1C8F88F
:102C80000070BFF34F8FBFF36F8FFFF7F7F901208D
:102C900007B0BDE8F08FFFF7F1F921E06846FFF7D4
:102CA000B9FC0126FFF7EAF9FFF74AFDFFF7AAF999
:102CB00094F94400401C01D184F844A094F94500E3
:102CC000401C01D184F845A0FFF7D8F905A9684652
:102CD00000F016F930B12046FEF7C4FF00F0B0FA5C
:102CE0000020D5E7FFF78EF9A06BE16B884201D198
:102CF000012500E00025FFF7C1F995B104F11000AE
:102D00000599FFF7EDFB2046FEF7ACFF00F098FABF
:102D1000002894D1C8F80070BFF34F8FBFF36F8FB6
:102D20008DE72046FEF79EFF00F08AFA87E7000055
:102D30002E2E5C4672656552544F535C71756575F5
:102D4000652E63004572726F723A25732C25640DEF
:102D50000A00000004ED00E02DE9F0479846154612
:102D60008946040005D140F29F322AA12EA0FDF72A
:102D7000E1FAB9F1000F07D1206C28B14FF4687265
:102D800024A129A0FDF7D6FAB8F1020F08D1E06B13
:102D9000012805D040F2A1321EA123A0FDF7CAFAF6
:102DA000FFF782FA5020EFF3118780F31188BFF309
:102DB0004F8FBFF36F8FA06BE16B884207D3B8F1E1
:102DC000020F04D0002087F31188BDE8F08794F942
:102DD0004560424649462046FEF70BFC701C04D075
:102DE000761C84F845600120EDE7A06C012620B137
:102DF00041462046FEF770FD06E0606A0028F2D0EA
:102E000004F1240000F0CEF90028ECD0002DEAD027
:102E10002E60E8E72E2E5C4672656552544F535C77
:102E200071756575652E63004572726F723A257310
:102E30002C25640D0A0000002DE9F0410D46040028
:102E400005D140F23C4225A129A0FDF773FA206C80
:102E500028B14FF4886221A125A0FDF76BFA206804
:102E600038B9606828B140F245421CA120A0FDF7A6
:102E700061FAFFF719FA5020EFF3118680F31188F9
:102E8000BFF34F8FBFF36F8FA16BE06B88421FD9E9
:102E900094F94500491CA163411C04D0401C84F8EE
:102EA0004500012015E0A06C012720B1002120463B
:102EB000FEF712FD06E0606A0028F2D004F124005B
:102EC00000F070F90028ECD0002DEAD02F60E8E780
:102ED000002086F31188BDE8F08100002E2E5C46AC
:102EE00072656552544F535C71756575652E63004C
:102EF0004572726F723A25732C25640D0A0000002A
:102F000070B50D46040005D140F6CB3214A119A0CE
:102F1000FDF710FA2DB940F6CC3211A115A0FDF73E
:102F200009FAFFF76FF8174AD06829684B1C0FD0D1
:102F30002368126A934202D0626882420AD96268A8
:102F4000801A884206D2081A28602046FFF762FBE2
:102F5000002400E00124FFF791F8204670BD000036
:102F60002E2E5C4672656552544F535C7461736BD0
:102F7000732E63004572726F723A25732C25640DAF
:102F80000A000000700000202DE9FF5F8346DDE9A4
:102F90000E87994616468A469000FEF79FFE05006A
:102FA0001AD06420FEF79AFE040012D02563002197
:102FB000CDE90241CDE900874B463246514658469D
:102FC000FEF7DAFB2046FEF747FA012004B0BDE821
:102FD000F09F2846FFF784F84FF0FF30F6E7000037
:102FE0000548416919B1006B18B1002070470120F4
:102FF0007047022070470000700000200148C06840
:1030000070470000700000202DE9F0412D4F002690
:10301000386B40B1B869401CB861F86900B101264D
:103020003046BDE8F081FD686D1CFD6011D1F86B84
:10303000006828B140F6D91223A128A0FDF77AF93B
:10304000F86B396CF9633864386A401C3862FEF7F3
:1030500069FDB86ADFF89480854209D3F86B00688F
:1030600080B1F86BC068C468606885420DD2B862F0
:103070003868C06A00EB800158F821000128CCD9DB
:103080000126CAE74FF0FF30F1E7201DFEF776FF7B
:10309000A06A18B104F11800FEF770FFE06A012180
:1030A0003A6981401143396100EB800108EB8100EE
:1030B000211DFEF79BFFE06A3968C96A8842CDD3BB
:1030C0000126CBE7700000202E2E5C46726565520B
:1030D000544F535C7461736B732E63004572726F4F
:1030E000723A25732C25640D0A00000000010120AE
:1030F00070B504004FF000063CD01F4D2868844294
:1031000005D040F6C7621DA121A0FDF713F9606D3F
:1031100028B940F6C96219A11DA0FDF70BF9606D31
:10312000401E6065226DE16A914223D010BB201DD4
:10313000FEF724FF1A49012250B9E06A00EB800330
:1031400051F8233023B92B6902FA00F083432B6135
:10315000206DE062C0F12000A061E06A2B6982402E
:103160001A432A6100EB800001EB8000211DFEF76D
:103170003DFF0126304670BD700000202E2E5C46BB
:1031800072656552544F535C7461736B732E6300A8
:103190004572726F723A25732C25640D0A00000087
:1031A000000101202DE9F041C068C4682CB940F647
:1031B000613217A11BA0FDF7BDF804F11800074606
:1031C000FEF7DCFE1B4D286B012658B139461A4824
:1031D000FEF70CFFE06A2968C96A884212D9012407
:1031E000EE6110E0201DFEF7C9FEE06A2A6906FACA
:1031F00000F111432961114900EB800001EB8000CF
:10320000211DE5E70024FEF78DFC2046BDE8F08196
:103210002E2E5C4672656552544F535C7461736B1D
:10322000732E63004572726F723A25732C25640DFC
:103230000A00000070000020A80301200001012006
:103240002DE9F0472B4D00242746286B28B94FF471
:10325000FD6229A12DA0FDF76DF8FEF7D3FE286BC6
:10326000401E2863286BE8BBA8682C490126C8B318
:10327000A1F52A798846D8F80010E9B1D8F80C00F1
:10328000C46804F11800FEF779FE201DFEF776FEF3
:10329000E06A2A6906FA00F11143296100EB800116
:1032A00009EB8100211DFEF7A1FEE06A2968C96AC9
:1032B0008842E0D3EE61DEE70CB1FEF733FCAC6987
:1032C0003CB1FFF7A1FE00B1EE61641EF9D1002010
:1032D000A861E86930B11249012738070860BFF3D7
:1032E0004F8F00E001E0BFF36F8FFEF7C7FE384657
:1032F000BDE8F087700000202E2E5C467265655296
:10330000544F535C7461736B732E63004572726F1C
:10331000723A25732C25640D0A000000A8030120D1
:1033200004ED00E02DE9F0470746994616460D46A4
:103330002C20DDF820A0FEF7D1FC040014D0B84604
:103340004F46D1462DB94FF4C67209A10EA0FCF725
:10335000F1FFFEF7E9F804F11801C4F8008081E8F4
:10336000E002201DFEF727FE2046BDE8F0870000A2
:103370002E2E5C4672656552544F535C74696D65C0
:1033800072732E63000000004572726F723A2573EB
:103390002C25640D0A0000001CB50024FEF7C4F8BB
:1033A0000C48006868B10B491F20091DCDE90001D8
:1033B00000234FF4827208A10948FFF7E5FD0400DD
:1033C00005D140F2331207A10CA0FCF7B3FF204651
:1033D0001CBD0000B4000020546D722053766300C1
:1033E0003D1C00082E2E5C4672656552544F535C9E
:1033F00074696D6572732E63000000004572726F10
:10340000723A25732C25640D0A0000002DE9FF4750
:10341000DDF830A0994690460D4606004FF00007B3
:1034200005D14FF4D37212A117A0FCF783FF1A4CF9
:10343000206880B1CDE900580296062D11DAFFF719
:10344000CFFD02284FF0000309D000226946206812
:10345000FFF7BEFB074604B03846BDE8F08752468A
:10346000F4E700234A466946FFF776FCF2E70000DE
:103470002E2E5C4672656552544F535C74696D65BF
:1034800072732E63000000004572726F723A2573EA
:103490002C25640D0A000000B40000204FF040709D
:1034A000E1EE100A7047000080070000007800007D
:1034B0008007000020000000200000002000000025
:1034C00000F0000000000F0000F00000EC340008E5
:1034D00000000020F8000000C4010008E4350008E6
:1034E000F800002078590100E00100080000000009
:1034F000000000000000000000000000007A030A45
:103500000000000000000000010203040607080993
:1035100000000000000000000000000000000000AB
:103520000000000000000000000000000102030491
:103530000102030406070809A51200086D1300081C
:10354000C00100200000006800000010C0F1002051
:1035500000000F6800F000100000000000000000F4
:10356000000000000000000000000000000000005B
:10357000000000000000000000000000000000004B
:10358000000000000000000000000000000000003B
:10359000000000000000000000000000000000002B
:1035A000000000000000000000000000000000001B
:1035B0000000000000000000AAAAAAAA0000000063
:1035C00000000000000000000000000000000000FB
:1035D00000000000000000000000000000000000EB
:0435E00000000000E7
:040000050800018965
:00000001FF
