:020000040800F2
:10000000305A0120F5020008874C00083B0A00081E
:10001000854C0008890800082553000800000000EE
:100020000000000000000000000000003D02000889
:10003000A10800080000000091020008BD4E000861
:100040000F0300080F0300080F0300080F03000848
:100050000F0300080F0300080F0300080F03000838
:100060000F0300080F0300080F0300080F03000828
:100070000F0300080F0300080F0300080F03000818
:100080000F0300080F0300080F0300080F03000808
:100090000F0300080F0300080F0300080F030008F8
:1000A0002D4F00080F0300080F0300080F0300087E
:1000B0000F030008A14F00080F0300080F030008FA
:1000C0000F0300080F0300080F0300080F030008C8
:1000D0000F0300084D5100080F0300080F0300082C
:1000E0000F0300080F0300080F0300080F030008A8
:1000F0000F0300080F0300080F0300080F03000898
:100100000F0300080F0300080F0300080F03000887
:100110000F0300080F0300080F0300080F03000877
:100120000F0300080F0300080F0300080F03000867
:100130000F0300080F0300080F0300080F03000857
:100140000F0300080F0300080F0300080F03000847
:100150000F0300080F0300080F0300080F03000837
:100160000F0300080F0300080F0300080F03000827
:100170000F0300080F0300080F0300080F03000817
:100180000F0300080F03000800F002F800F047F822
:100190000AA090E8000C82448344AAF10107DA45E2
:1001A00001D100F03CF8AFF2090EBAE80F0013F0ED
:1001B000010F18BFFB1A43F001031847AC90000071
:1001C000CC900000103A24BF78C878C1FAD8520702
:1001D00024BF30C830C144BF04680C6070470000C1
:1001E0000023002400250026103A28BF78C1FBD840
:1001F000520728BF30C148BF0B607047642900F028
:100200001981782900F05281732900F0768200204C
:1002100070471FB507F01CFC1FBD10B510BD00F0E6
:10022000E0FA1146FFF7F5FF05F0F2F900F0FEFAEB
:1002300003B4FFF7F2FF03BC05F075F82A4B196809
:100240000868B0E8F04F80F30988BFF36F8F4FF074
:10025000000080F311887047000000000648006825
:10026000006880F3088862B661B6BFF34F8FBFF3B2
:100270006F8F00DF00BF00BF08ED00E0DFF80C006B
:10028000016841F470010160704700BF88ED00E033
:10029000EFF30980BFF36F8F134B1A681EF0100F36
:1002A00008BF20ED108A20E9F04F106008B44FF02D
:1002B000500080F31188BFF34F8FBFF36F8F06F0AC
:1002C000EFFB4FF0000080F3118808BC1968086844
:1002D000B0E8F04F1EF0100F08BFB0EC108A80F3AA
:1002E0000988BFF36F8F7047AC000020EFF30580E3
:1002F000704700000948804709480047FEE7FEE7CD
:10030000FEE7FEE7FEE7FEE7FEE7FEE7FEE7FEE7C5
:1003100004480549054A064B70470000D14E0008C5
:100320008901000830540120305A01203056012044
:1003300030560120704700000FB4044910B503AADD
:10034000029800F0DFF910BC5DF814FB7400002087
:100350000FB41CB5074B06AA7B446946009005986C
:1003600000F0A1F90020694600F0B0F91CBC5DF86E
:1003700014FB0000710300002DE9F0410E46044615
:10038000002020622046E168884730B3252805D048
:10039000D4E901219047206A401CF2E7E168204639
:1003A00000278847050018D0A5F14100192802D878
:1003B00020354FF400673246294620462760FFF774
:1003C0001DFF40B1012804D0F61D26F007060836AF
:1003D000D8E7361DD6E72846DAE7206ABDE8F0817F
:1003E00070B50C460546012A05D02878800600D550
:1003F000EA69002302E0012305E05B1C934202D27C
:10040000E05C0028F9D1A869E618C01AA861286A3A
:10041000184428622846AFF3008004E0D5E90121A2
:1004200014F8010B9047B442F8D32846AFF300808C
:1004300070BD00002DE9F0410646002410687529C2
:10044000314616A510D0AFF30080002802DA4042F2
:1004500013A507E031688A0701D512A502E0490714
:1004600004D511A5012401E0AFF3008000210A2288
:1004700006F1240709E0B0FBF2FCB0FBF2F302FB4B
:100480001C00303078541846491C0028F3D123460C
:100490002A463046BDE8F04100F0A7B80000000051
:1004A0002D0000002B0000002000000070B5044665
:1004B0000D4621461068AFF300802188090502D55A
:1004C0000F4A7A4402E00E4A7A440E32002104F1C7
:1004D000240305E000F00F060009965D5E54491CF8
:1004E0000028F7D120780023000704D5702D02D012
:1004F00009B1022311322046BDE8704000F075B802
:100500007A8D0000032A40F2308010F0030C00F0D6
:10051000158011F8013BBCF1020F624498BF11F83D
:1005200001CB00F8013B38BF11F8013BA2F10402F6
:1005300098BF00F801CB38BF00F8013B11F003036E
:1005400000F0F280083AC0F0088051F8043B083A05
:1005500051F804CBA0E80810F5E7121D5CBF51F874
:10056000043B40F8043BAFF30080D20724BF11F8EE
:10057000013B11F801CB48BF11F8012B24BF00F853
:10058000013B00F801CB48BF00F8012B704702F097
:10059000FF0343EA032242EA024200F002B84FF0AE
:1005A00000020429C0F0128010F0030C00F0F0806B
:1005B000CCF1040CBCF1020F18BF00F8012BA8BF4E
:1005C00020F8022BA1EB0C0100F0E2B85FEAC17C3D
:1005D00024BF00F8012B00F8012B48BF00F8012BC5
:1005E000704770477047704770472DE9F0470D46D8
:1005F00099469246044600F124080168880604D50D
:10060000E06921F01001216000E00120A84201DD35
:10061000471B00E00027A1697A1902EB0900081ABC
:10062000A0612078C00602D42046AFF300800026E7
:1006300008E0D4E901211AF806009047206A401C1E
:10064000761C20624E45F4DB2078C0060AD5204691
:10065000AFF3008006E0D4E9012130209047206A02
:10066000401C2062381EA7F10107F4DC07E0D4E942
:10067000012118F805009047206A401C2062281EBE
:10068000A5F10105F3DC2046AFF3008020780006D9
:1006900002D50220BDE8F0870120FBE701694A1C72
:1006A00002610878704700B58FB0CDE901310021B3
:1006B000059105497944CDE9031011466846FFF7D5
:1006C0005BFE0FB000BD0000E5FFFFFF0A6802F807
:1006D000010B0A60704710B5436913B1AFF3008096
:1006E00001E0FFF77DFE012010BD127800F124012A
:1006F0000A7000224A700122EDE711684FF0FF32C4
:10070000E9E70000074B70B50D467B44FFF7CBFFD0
:100710000446284600F061F810B14FF0FF3070BD7C
:10072000204670BD7F4D000010B5203AC0F00B8010
:10073000B1E81850203AA0E81850B1E81850A0E8E5
:100740001850BFF4F5AF5FEA027C24BFB1E818503F
:10075000A0E8185044BF18C918C0BDE810405FEAAF
:10076000827C24BF51F8043B40F8043B08BF70472B
:10077000D20728BF31F8023B48BF11F8012B28BF30
:1007800020F8023B48BF00F8012B70474FF00002F1
:1007900000B5134694469646203922BFA0E80C5077
:1007A000A0E80C50B1F12001BFF4F7AF090728BF52
:1007B000A0E80C5048BF0CC05DF804EB890028BFCE
:1007C00040F8042B08BF704748BF20F8022B11F0F7
:1007D000804F18BF00F8012B7047007B00F08000AD
:1007E0007047754600F02CF8AE4605006946534642
:1007F00020F00700854618B020B5FFF789FDBDE859
:1008000020404FF000064FF000074FF000084FF077
:10081000000B21F00701AC46ACE8C009ACE8C00908
:10082000ACE8C009ACE8C0098D46704710B5044675
:10083000AFF300802046BDE81040FFF7F9BC000090
:1008400000487047CC5301207CB50121202004F0E2
:1008500057FA01208DF8040000208DF806000320CF
:100860008DF805000220074D4FF480748DF80700C5
:1008700000946946284600F089F82146284600F091
:10088000D8F87CBD00140240FEE7000003480022B7
:10089000026042605321312004F09CBB60000020C4
:1008A000704700008000A0F1C0400029016802D01C
:1008B00041F0010101E0024A11400160704700006F
:1008C000FEFF0F0010B5D0E901121143D0E9032358
:1008D0001A4311434269114382691143C2691143AA
:1008E000026A1143426A1143826A1143C26A114388
:1008F000026B114302689200A2F1C042116081684C
:10090000082907D101688900A1F1C0410A6842F0B5
:1009100040020A60416BD1E9002342EA03128B686E
:100920008C891B0243EA04431A430B8A42EA0352AE
:100930000B7D896942EA03620A4301688900A1F1DB
:10094000C0414A60C16AB1F5804F08D000686FF0BD
:1009500070418000A0F1C040C0F8041110BD816B4F
:10096000D1E9002342EA03128B680C8A1B0243EA96
:1009700004531A430B7D896942EA036200680A4303
:100980008000A0F1C040C0F8042110BDF0B50022E5
:1009900001274FF0030C0B6807FA02F52B40AB421E
:1009A0002CD1066853000CFA03F4A64306600E79B6
:1009B000D0F800E09E4046EA0E0606600E79012E51
:1009C00001D0022E12D18668A64386604E79D0F8F7
:1009D00008E09E4046EA0E0686604668AE434660E2
:1009E00045688E799640B6B235434560C568A543E3
:1009F000C560CC799C40C3681C43C460521C102A5B
:100A0000C9D3F0BD4B07DB0E9A40C90810B500EB07
:100A10008100016A0F249C40A1430162016A1143D5
:100A2000016210BD0246002012690A4200D0012076
:100A300070474183704701837047FEE71CB5012171
:100A4000112004F05DF91C20009000208DF80400B6
:100A500003208DF8050001248DF8074069460648FB
:100A6000FFF794FF02208DF80700009469460348C1
:100A7000FFF78CFF1CBD0000001002400000024088
:100A80002DE9F0412E4C2F4F2F4D012608B1267035
:100A900001E02078A0B110212846FFF7C3FFB0B1D4
:100AA00008212846FFF7BEFF88B104212846FFF73A
:100AB000B9FF60B101213846FFF7B4FF012806D025
:100AC00010212846FFF7AEFF012824D035E00A2088
:100AD00004F090FC0020207010212846FFF7A2FFB0
:100AE00080B108212846FFF79DFF70B104212846F8
:100AF000FFF798FF58B101213846FFF793FF01280F
:100B000007D01AE00120BDE8F0810220FBE70320B6
:100B1000F9E70420F7E708212846FFF783FF0128BB
:100B20000BD104212846FFF77DFF012805D10121C3
:100B30003846FFF777FF00B926700020E3E7000092
:100B40006C00002000000240001002401CB51E4E48
:100B50001E4DF06898B300235A1E01A906F0CAF88A
:100B600068B39DF80400012815D003280AD0042892
:100B700025D1D5F8A80218B10020C5F8A8021EE0BA
:100B80000120FAE7D5F8A00218B10020C5F8A002AC
:100B900015E00120FAE7641CE4B20E20B4FBF0F18A
:100BA00000FB1140084940F239131431E92231F8B1
:100BB00020006F2180B200907E2000F0D7F90A203B
:100BC00005F0BAFDC5E700000000002000804242A9
:100BD0002DE9F043184F0646002438887D884543A8
:100BE000B888A0F5D041043902D1B879012808D0DD
:100BF0000021084603F0C6FE04F014F84FF0D84078
:100C000016E00020B8714FF02A09A7F80A904FF0BB
:100C10002B08A7F80C80014603F0B4FE0120B87140
:100C2000A7F80A80A7F80C90E6E7A0F88060641C9B
:100C3000AC42FAD3BDE8F083280100202DE9F04F43
:100C40004A492A232B24898845F2105A4FF4305BF5
:100C50004FF4285E4FF448754FF0F00C49F24139DB
:100C60004FF4A07745F210364FF4F07280B13F4850
:100C70004FF00108494580F806800780A0F802C0BF
:100C800001D0B1423ED12C2505814381848157E0BA
:100C900036484FF00008494580F80680A0F800C0AB
:100CA000478006D0A1F5D04CBCF1040C01D0B14274
:100CB0000CD12C2505814381A1F5D0438481043BCF
:100CC00001D0B14244D10780428041E0514507D173
:100CD000A0F808B0A0F80AE04FF42C5181810EE092
:100CE000A1F5C856633E06D0222101812021418111
:100CF000212181812CE02C2101814481838102808A
:100D0000458025E0A1F5D04CBCF1040C09D051453B
:100D10000BD1A0F808B0A0F80AE04FF42C5383815F
:100D200021E02C250581448109E0A1F5C85CBCF1D6
:100D3000630C12D02223038121234381202383814A
:100D4000A1F5D043043B01D0B14201D102804780DC
:100D5000BDE8F04F002003F013BD4FF02C0CA0F8BD
:100D600008C04381848105804280E9E72801002092
:100D70002DE9FE4F0026A2EB000882465F1A701E86
:100D800035468946B8F1000F02DD4FF0010102E05F
:100D900003D14FF00001019102E0C8F10008019079
:100DA000002F02DD4FF0010002E003D14FF0000000
:100DB000009002E0C7F1000700904046B84501DD11
:100DC000044600E03C46601C4FF0000B029015E02A
:100DD0001FFA89F11FFA8AF000F016F846443D44E4
:100DE000A64202DD0199361B8A44A54202DD009924
:100DF0002D1B89440BF101001FFA80FB02998B45E2
:100E0000E6DDBDE8FE8F000000B503F0BBFD03F09A
:100E100009FF03484FF0D8410088A1F8800000BDC9
:100E200068000020F0B51C4615460E4607460B46E6
:100E3000FFF79EFF3A46234631461046FFF798FFDC
:100E400023462A4619463846FFF792FF2A4623468C
:100E50003146BDE8F0401046FFF78ABF2DE9F04368
:100E6000414D91460C460246060AA9882846A1F53E
:100E7000134340894FEA1428413B16D0A1F5A643FD
:100E8000103B12D0B3F5007313D02E46A1F5C8570E
:100E9000B3793688B61A761E633F23D0A1F5D047C2
:100EA000043F3AD0012B4DD04DE003F0AFFE304669
:100EB00039E003F0ABFE304603F09CFE6889401C2D
:100EC00080B203F0A3FED0B203F094FEA88903F031
:100ED0009DFE404603F08EFEA889401C80B203F0C0
:100EE00095FE2BE003B9B2B203F090FE160A30462D
:100EF00003F080FED0B203F07DFE304603F07AFEB0
:100F0000D0B203F077FEA88903F080FE404603F0DC
:100F100071FEE0B203F06EFE0DE0012B00D1B2B223
:100F200003F074FE100A03F065FED0B203F062FE17
:100F3000A88903F06BFE404603F05CFEE0B203F0CC
:100F400059FE07E0B2B2114603F076FEA8892146A9
:100F500003F072FE4FF0D840298920F87E1FA0F8D8
:100F60000290BDE8F0830000280100202DE9F8433D
:100F7000204D1F468046AB88089EA3F5D04004381C
:100F800002D1A879012807D0A2EB0800401C85B245
:100F90000C464FF0D84929E02B880846991A0024BE
:100FA000AC713A462A24A3EB08036C812B27491E17
:100FB0005B1EAF8189B29BB20096FFF7D7FF01207D
:100FC000A8716F81AC81BDE8F8832146404603F0EB
:100FD000D9FC03F027FE0020494603E0A1F8806019
:100FE000401C80B2A842F9D3641CA4B2BC42ECD924
:100FF000E9E70000280100202DE9F04FA1B000240E
:1010000001217A201F9403F07BFE0121084603F0A2
:1010100083FE4FF40040009001208DF804008DF80D
:10102000064002208DF8050001208DF80700694672
:10103000FE48FFF7ABFC4CF23370009002208DF8B5
:1010400004008DF8064003208DF8050001208DF87E
:1010500007006946F648FFF799FC4FF6807000904C
:1010600002208DF804008DF8064003208DF805005D
:101070000120F04D8DF8070069462846FFF786FCF1
:10108000A814009002208DF804008DF8064003207B
:101090008DF805000120E84E8DF8070069463046BE
:1010A000FFF774FCA814009002208DF804008DF85E
:1010B000064003208DF805000120E04F8DF8070061
:1010C00069463846FFF762FC0C220021D848FFF73A
:1010D00099FC0C220121D648FFF794FC0C22042134
:1010E000D348FFF78FFC0C220521D148FFF78AFC7B
:1010F0000C220821CE48FFF785FC0C220921CC48A0
:10110000FFF780FC0C220A21C948FFF77BFC0C2268
:101110000E21C748FFF776FC0C220F21C448FFF7C9
:1011200071FC0C2207212846FFF76CFC0C220821D9
:101130002846FFF767FC0C2209212846FFF762FCCE
:101140000C220A212846FFF75DFC0C220B212846C1
:10115000FFF758FC0C2211462846FFF753FC0C22DF
:101160000D212846FFF74EFC0C220E212846FFF7E2
:1011700049FC0C220F212846FFF744FC0C221146A3
:101180003046FFF73FFC0C2211463846FFF73AFC89
:101190000F20CDE911043C20CDE91304159409205A
:1011A0001694CDE917400820CDE919401B941C94F2
:1011B0000620CDE902041D941E941020CDE90440C0
:1011C00006940002CDE90A40089407948000CDE916
:1011D0000C40099411A8CDE90E4018A8109002A85F
:1011E000FFF770FB01210620FFF75CFB322004F0C3
:1011F00001F90121002003F01FFD322004F0FAF86C
:10120000002003F08AFA8E4A4FF0204A4FF6FF7B07
:10121000908049F2413545F2103645F2105441F6BE
:10122000631846F60407FF2804D3584502D0B0F5EA
:10123000134F74D1D32003F0E9FC03F064FA9080DB
:1012400003F061FA908003F05EFA0BEA0020D946C1
:10125000908003F058FA918808439080A8425ED0AD
:10126000BF2003F0D3FC03F04EFA908003F04BFA5A
:10127000908003F048FA908003F045FA09EA0020D4
:10128000908003F040FA918808439080B84246D09D
:10129000D42003F0BBFC03F036FA908003F033FA5D
:1012A000908003F030FA09EA0020908003F02BFAD6
:1012B000918808439080B04231D04FF45A4003F0F7
:1012C000A5FC03F020FA90804FF45B4003F09EFCF5
:1012D00003F019FA09EA002090804FF45C4003F013
:1012E00095FC03F010FA918808439080B0F5004F08
:1012F00039D0A04213D0A12003F088FC03F003FAF8
:10130000908003F000FA09EA0020908003F0FBF9D6
:1013100091880843A0F5AE419080613920D080B219
:10132000A84205D0B04203D0A04201D040451CD114
:10133000DAF81C11504621F00F01CAF81C11DAF836
:101340001C1121F47061CAF81C11DAF81C1141F06B
:101350000301CAF81C11DAF81C1141F4007121E0F4
:10136000A2F80480E4E79480E2E7B84203D0A0F555
:101370004541053918D1DAF81C11504621F00F010A
:10138000CAF81C11DAF81C1121F47061CAF81C119A
:10139000DAF81C1141F00A01CAF81C11DAF81C1124
:1013A00041F44061C0F81C119146918825A0FEF7D8
:1013B000C3FFB9F80400A8427DD1CF2003F026FC7A
:1013C000002003F017FCC12003F014FC302003F0D0
:1013D00011FCED2003F01AFC642003F00BFC032049
:1013E00003F008FC122003F005FC812003F002FC4E
:1013F000E82003F00BFC852003F0FCFB102003F039
:10140000F9FB7A2003F0F6FBCB2003F0FFFB392039
:1014100003F0F0FB2C2003F0EDFB002003F0EAFBCF
:10142000342003F0E7FB022014E000000004024037
:10143000000C02400010024000140240001802405C
:1014400028010020204C43442049443A25780D0AC5
:101450000000000003F0CEFBF72003F0D7FB2020B4
:1014600003F0C8FBEA2003F0D1FB002003F0C2FB2D
:10147000002003F0BFFBC02003F0C8FB1B2003F0DB
:10148000B9FBC12003F0C2FB012003F0B3FBC52070
:1014900003F0BCFB302003F0ADFB302003F0AAFBCF
:1014A000C72003F0B3FBB72003F0A4FB362003F002
:1014B000ADFB482000E0A7E003F09CFB3A2003F0DE
:1014C000A5FB552003F096FBB12003F09FFB002005
:1014D00003F090FB1A2003F08DFBB62003F096FB7F
:1014E0000A2003F087FBA22003F084FBF22003F024
:1014F0008DFB002003F07EFB262003F087FB0120FC
:1015000003F078FBE02003F081FB0F2003F072FB77
:101510002A2003F06FFB282003F06CFB082003F067
:1015200069FB0E2003F066FB082003F063FB5420E8
:1015300003F060FBA92003F05DFB432003F05AFB9E
:101540000A2003F057FB0F2003F054FB002003F0A8
:1015500051FB002003F04EFB002003F04BFB00206A
:1015600003F048FBE12003F051FB002003F042FBB5
:10157000152003F03FFB172003F03CFB072003F08E
:1015800039FB112003F036FB062003F033FB2B2040
:1015900003F030FB562003F02DFB3C2003F02AFB28
:1015A000052003F027FB102003F024FB0F2003F09D
:1015B00021FB3F2003F01EFB3F2003F01BFB0F200D
:1015C00003F018FB2B2003F021FB002003F012FB9B
:1015D000002003F00FFB012003F00CFB3F2003F081
:1015E00009FB2A2003F012FB002003F003FB00207C
:1015F00003F000FB002003F0FDFAEF2003F0FAFAFD
:10160000112003F003FBA5E0B8427CD1112003F0C8
:10161000FDFA142003F0EEFED02003F0F7FA0720C5
:1016200003F0E8FA422003F0E5FA1D2003F0E2FAA5
:10163000D12003F0EBFA002003F0DCFA1A2003F0CB
:10164000D9FA092003F0D6FAD22003F0DFFA0120FC
:1016500003F0D0FA222003F0CDFAC02003F0D6FA2E
:10166000102003F0C7FA3B2003F0C4FA002003F077
:10167000C1FA022003F0BEFA112003F0BBFAC52024
:1016800003F0C4FA032003F0B5FAC82003F0BEFA51
:10169000002003F0AFFA252003F0ACFA212003F07C
:1016A000A9FA052003F0A6FA002003F0A3FA0A2005
:1016B00003F0A0FA652003F09DFA252003F09AFAC2
:1016C000772003F097FA502003F094FA0F2003F0EC
:1016D00091FA002003F08EFAF82003F097FA012027
:1016E00003F088FAFE2003F091FA002003F082FA5A
:1016F000022003F07FFA202003F088FA362003F05E
:1017000085FA082000E02BE003F074FA3A2003F099
:101710007DFA552003F06EFA2B2003F077FA0020B3
:1017200003F068FA002003F065FA012003F062FA82
:101730003F2003F05FFA2A2003F068FA002003F04C
:1017400059FA002003F056FA012003F053FADF2083
:1017500003F050FA782003F04DFE292001F0FBBE83
:10176000B0427CD1ED2003F051FA012003F042FA9F
:10177000FE2003F03FFAEE2003F048FADE2003F0EB
:1017800039FA212003F036FAF12003F03FFA012064
:1017900003F030FADF2003F039FA102003F02AFAC0
:1017A000C42003F033FA8F2003F024FAC62003F09C
:1017B0002DFA002003F01EFAE22003F01BFAE220CB
:1017C00003F018FAE22003F015FABF2003F01EFA26
:1017D000AA2003F00FFAB02003F018FA0D2003F04E
:1017E00009FA002003F006FA0D2003F003FA0020A6
:1017F00003F000FA112003F0FDF9002003F0FAF9DC
:10180000192003F0F7F9002003F0F4F9212003F088
:10181000F1F9002003F0EEF92D2003F0EBF90020A0
:1018200003F0E8F93D2003F0E5F9002003F0E2F9C8
:101830005D2003F0DFF9002003F0DCF95D2003F008
:10184000D9F9002003F0D6F9B12003F0DFF98020A8
:1018500003F0D0F9002003F0CDF98B2000E0FCE389
:1018600003F0C8F9002003F0C5F9962003F0C2F98F
:10187000002003F0BFF9B22003F0C8F9002003F004
:10188000B9F9002003F0B6F9022003F0B3F9002003
:1018900003F0B0F9032003F0ADF9002003F0AAF93A
:1018A000B32003F0B3F9002003F0A4F9002003F003
:1018B000A1F9002003F09EF9002003F09BF900201D
:1018C00003F098F9002003F095F9002003F092F955
:1018D000002003F08FF9002003F08CF9002003F0C2
:1018E00089F9002003F086F9002003F083F9002035
:1018F00003F080F9002003F07DF9002003F07AF96D
:10190000002003F077F9002003F074F9002003F0C1
:1019100071F9002003F06EF9002003F06BF900204C
:1019200003F068F9002003F065F9002003F062F984
:10193000002003F05FF9B42003F068F98B2003F076
:1019400059F9002003F056F9962003F053F90020CE
:1019500003F050F9A12003F04DF9002003F04AF9FB
:10196000B52003F053F9022003F044F9002003F0FE
:1019700041F9032003F03EF9002003F03BF9042075
:1019800003F038F9002003F035F9B62003F03EF9F2
:10199000002003F02FF9002003F02CF9B72003F00A
:1019A00035F9002003F026F9002003F023F93F2049
:1019B00003F020F9002003F01DF95E2003F01AF96E
:1019C000002003F017F9642003F014F9002003F05D
:1019D00011F98C2003F00EF9002003F00BF9AC2074
:1019E00003F008F9002003F005F9DC2003F002F908
:1019F000002003F0FFF8702003F0FCF8002003F053
:101A0000F9F8902003F0F6F8002003F0F3F8EB204B
:101A100003F0F0F8002003F0EDF8DC2003F0EAF822
:101A2000002003F0E7F8B82003F0F0F8002003F0FE
:101A3000E1F8002003F0DEF8002003F0DBF80020DE
:101A400003F0D8F8002003F0D5F8002003F0D2F816
:101A5000002003F0CFF8002003F0CCF8BA2003F008
:101A6000D5F8242003F0C6F8002003F0C3F80020C6
:101A700003F0C0F8002003F0BDF8C12003F0C6F861
:101A8000202003F0B7F8002003F0B4F8542003F04E
:101A9000B1F8002003F0AEF8FF2003F0ABF800200F
:101AA00003F0A8F8C22003F0B1F80A2003F0A2F86E
:101AB000002003F09FF8042003F09CF8002003F0BE
:101AC00099F8C32003F0A2F83C2003F093F800201B
:101AD00003F090F83A2003F08DF8002003F08AF824
:101AE000392003F087F8002003F084F8372003F052
:101AF00081F8002003F07EF83C2003F07BF8002002
:101B000003F078F8362003F075F8002003F072F83F
:101B1000322003F06FF8002003F06CF82F2003F060
:101B200069F8002003F066F82C2003F063F8002029
:101B300003F060F8292003F05DF8002003F05AF864
:101B4000262003F057F8002003F054F8242003F077
:101B500051F8002003F04EF8242003F04BF8002049
:101B600003F048F8232003F045F8002003F042F882
:101B70003C2003F03FF8002003F03CF8362003F04F
:101B800039F8002003F036F8322003F033F8002053
:101B900003F030F82F2003F02DF8002003F02AF88E
:101BA0002C2003F027F8002003F024F8292003F06C
:101BB00021F8002003F01EF8262003F01BF8002077
:101BC00003F018F8242003F015F8002003F012F8B1
:101BD000242003F00FF8002003F00CF8232003F07A
:101BE00009F8002003F006F8C42003F00FF8622083
:101BF00003F000F8002002F0FDFF052002F0FAFFDC
:101C0000002002F0F7FF842002F0F4FF002002F031
:101C1000F1FFF02002F0EEFF002002F0EBFF1820B1
:101C200002F0E8FF002002F0E5FFA42002F0E2FF4E
:101C3000002002F0DFFF182002F0DCFF002002F09D
:101C4000D9FF502002F0D6FF002002F0D3FF0C2075
:101C500002F0D0FF002002F0CDFF172002F0CAFFF3
:101C6000002002F0C7FF952002F0C4FF002002F020
:101C7000C1FFF32002F0BEFF002002F0BBFFE62010
:101C800002F0B8FF002002F0B5FFC52002F0BEFF51
:101C9000322002F0AFFF002002F0ACFF442002F03F
:101CA000A9FF002002F0A6FF652002F0A3FF00209C
:101CB00002F0A0FF762002F09DFF002002F09AFFC4
:101CC000882002F097FF002002F094FFC62002F067
:101CD0009DFF202002F08EFF002002F08BFF1720D6
:101CE00002F088FF002002F085FF012002F082FF51
:101CF000002002F07FFFC72002F088FF002002F0E2
:101D000079FF002002F076FF002002F073FF002030
:101D100002F070FFC82002F079FF002002F06AFF95
:101D2000002002F067FF002002F064FF002002F0B4
:101D300061FFC92002F06AFF002002F05BFF002073
:101D400002F058FF002002F055FF002002F052FF81
:101D5000002002F04FFF002002F04CFF002002F0B4
:101D600049FF002002F046FF002002F043FF002060
:101D700002F040FF002002F03DFF002002F03AFF99
:101D8000002002F037FF002002F034FF002002F0B4
:101D900031FF002002F02EFFE02002F037FF162076
:101DA00002F028FF002002F025FF1C2002F022FF95
:101DB000002002F01FFF212002F01CFF002002F093
:101DC00019FF362002F016FF002002F013FF462014
:101DD00002F010FF002002F00DFF522002F00AFF77
:101DE000002002F007FF642002F004FF002002F050
:101DF00001FF7A2002F0FEFE002002F0FBFE8B20A5
:101E000002F0F8FE002002F0F5FE992002F0F2FE4A
:101E1000002002F0EFFEA82002F0ECFE002002F00D
:101E2000E9FEB92002F0E6FE002002F0E3FEC42045
:101E300002F0E0FE002002F0DDFECA2002F0DAFE31
:101E4000002002F0D7FED22002F0D4FE002002F0E3
:101E5000D1FED92002F0CEFE002002F0CBFEE02021
:101E600002F0C8FE002002F0C5FEF32002F0C2FE20
:101E7000002002F0BFFEE12002F0C8FE162002F0B2
:101E8000B9FE002002F0B6FE1C2002F0B3FE0020D6
:101E900002F0B0FE222002F0ADFE002002F0AAFE09
:101EA000362002F0A7FE002002F0A4FE452002F03A
:101EB000A1FE002002F09EFE522002F09BFE0020B8
:101EC00002F098FE642002F095FE002002F092FEDF
:101ED0007A2002F08FFE002002F08CFE8B2002F0B0
:101EE00089FE002002F086FE992002F083FE002089
:101EF00002F080FEA82002F07DFE002002F07AFEB3
:101F0000B92002F077FE002002F074FEC42002F037
:101F100071FE002002F06EFECA2002F06BFE00206F
:101F200002F068FED22002F065FE002002F062FEA0
:101F3000D82002F05FFE002002F05CFEE02002F0FC
:101F400059FE002002F056FEF32002F053FE00205E
:101F500002F050FEE22002F059FE052002F04AFE97
:101F6000002002F047FE0B2002F044FE002002F0A9
:101F700041FE1B2002F03EFE002002F03BFE34201A
:101F800002F038FE002002F035FE442002F032FE5E
:101F9000002002F02FFE4F2002F02CFE002002F065
:101FA00029FE612002F026FE002002F023FE7920A7
:101FB00002F020FE002002F01DFE882002F01AFE32
:101FC000002002F017FE972002F014FE002002F01D
:101FD00011FEA62002F00EFE002002F00BFEB7203C
:101FE00002F008FE002002F005FEC22002F002FE10
:101FF000002002F0FFFDC72002F0FCFD002002F0EF
:10200000F9FDD12002F0F6FD002002F0F3FDD6200C
:1020100002F0F0FD002002F0EDFDDD2002F0EAFD0F
:10202000002002F0E7FDF32002F0E4FD002002F0C2
:10203000E1FDE32002F0EAFD052002F0DBFD0020D7
:1020400002F0D8FD0A2002F0D5FD002002F0D2FDFA
:102050001C2002F0CFFD002000E0FDE202F0CAFDEE
:10206000332002F0C7FD002002F0C4FD442002F03E
:10207000C1FD002002F0BEFD502002F0BBFD00209B
:1020800002F0B8FD622002F0B5FD002002F0B2FDC2
:10209000782002F0AFFD002002F0ACFD882002F0B5
:1020A000A9FD002002F0A6FD972002F0A3FD00206C
:1020B00002F0A0FDA62002F09DFD002002F09AFD96
:1020C000B72002F097FD002002F094FDC22002F03C
:1020D00091FD002002F08EFDC72002F08BFD002054
:1020E00002F088FDD12002F085FD002002F082FD83
:1020F000D52002F07FFD002002F07CFDDD2002F003
:1021000079FD002002F076FDF32002F073FD00203F
:1021100002F070FDE42002F079FD012002F06AFD7A
:10212000002002F067FD012002F064FD002002F0B3
:1021300061FD022002F05EFD002002F05BFD2A201E
:1021400002F058FD002002F055FD3C2002F052FD47
:10215000002002F04FFD4B2002F04CFD002002F069
:1021600049FD5D2002F046FD002002F043FD742091
:1021700002F040FD002002F03DFD842002F03AFD17
:10218000002002F037FD932002F034FD002002F021
:1021900031FDA22002F02EFD002002F02BFDB32025
:1021A00002F028FD002002F025FDBE2002F022FDF5
:1021B000002002F01FFDC42002F01CFD002002F0F0
:1021C00019FDCD2002F016FD002002F013FDD320F2
:1021D00002F010FD002002F00DFDDD2002F00AFDEE
:1021E000002002F007FDF32002F004FD002002F0C1
:1021F00001FDE52002F00AFD002002F0FBFC0020BA
:1022000002F0F8FC002002F0F5FC002002F0F2FCE5
:10221000022002F0EFFC002002F0ECFC292002F08A
:10222000E9FC002002F0E6FC3C2002F0E3FC002088
:1022300002F0E0FC4B2002F0DDFC002002F0DAFCB2
:102240005D2002F0D7FC002002F0D4FC742002F0E4
:10225000D1FC002002F0CEFC842002F0CBFC002058
:1022600002F0C8FC932002F0C5FC002002F0C2FC82
:10227000A22002F0BFFC002002F0BCFCB32002F060
:10228000B9FC002002F0B6FCBE2002F0B3FC002036
:1022900002F0B0FCC42002F0ADFC002002F0AAFC69
:1022A000CD2002F0A7FC002002F0A4FCD32002F015
:1022B000A1FC002002F09EFCDC2002F09BFC002030
:1022C00002F098FCF32002F095FC002002F092FC52
:1022D000E62002F09BFC112002F08CFC002002F0B2
:1022E00089FC342002F086FC002002F083FC56209A
:1022F00002F080FC002002F07DFC762002F07AFCE7
:10230000002002F077FC772002F074FC002002F03D
:1023100071FC662002F06EFC002002F06BFC88204D
:1023200002F068FC002002F065FC992002F062FCDB
:10233000002002F05FFCBB2002F05CFC002002F0F9
:1023400059FC992002F056FC002002F053FC662054
:1023500002F050FC002002F04DFC552002F04AFC37
:10236000002002F047FC552002F044FC002002F05F
:1023700041FC452002F03EFC002002F03BFC4320E3
:1023800002F038FC002002F035FC442002F032FC60
:10239000002002F02FFCE72002F038FC322002F08F
:1023A00029FC002002F026FC552002F023FC00202E
:1023B00002F020FC762002F01DFC002002F01AFC46
:1023C000662002F017FC002002F014FC672002F0E7
:1023D00011FC002002F00EFC672002F00BFC002034
:1023E00002F008FC872002F005FC002002F002FC4D
:1023F000992002F0FFFB002002F0FCFBBB2002F062
:10240000F9FB002002F0F6FB992002F0F3FB00201C
:1024100002F0F0FB772002F0EDFB002002F0EAFB77
:10242000442002F0E7FB002002F0E4FB562002F01B
:10243000E1FB002002F0DEFB232002F0DBFB0020AA
:1024400002F0D8FB332002F0D5FB002002F0D2FBD3
:10245000452002F0CFFB002002F0CCFBE82002F088
:10246000D5FB002002F0C6FB002002F0C3FB992040
:1024700002F0C0FB002002F0BDFB872002F0BAFB97
:10248000002002F0B7FB882002F0B4FB002002F02D
:10249000B1FB772002F0AEFB002002F0ABFB662020
:1024A00002F0A8FB002002F0A5FB882002F0A2FBAE
:1024B000002002F09FFBAA2002F09CFB002002F00B
:1024C00099FBBB2002F096FB002002F093FB9920C1
:1024D00002F090FB002002F08DFB662002F08AFBE8
:1024E000002002F087FB552002F084FB002002F060
:1024F00081FB552002F07EFB002002F07BFB442094
:1025000002F078FB002002F075FB442002F072FB21
:10251000002002F06FFB552002F06CFB002002F05F
:1025200069FBE92002F072FBAA2002F063FB0020A5
:1025300002F060FB002002F05DFB002002F05AFB7D
:10254000002002F063FBAA2002F054FBCF2002F02F
:102550005DFB002002F04EFB002002F04BFB002050
:1025600002F048FB002002F045FB002002F042FB95
:10257000002002F03FFB002002F03CFB002002F0B4
:1025800039FB002002F036FB002002F033FB002074
:1025900002F030FB002002F02DFB002002F02AFBAD
:1025A000002002F027FB002002F024FB002002F0B4
:1025B00021FB002002F01EFBF02002F027FB002090
:1025C00002F018FB502002F015FB002002F012FB75
:1025D000002002F00FFB002002F00CFBF32002F0C1
:1025E00015FB002002F006FBF92002F00FFB06208D
:1025F00002F000FB102002F0FDFA292002F0FAFAA6
:10260000002002F0F7FA3A2002F000FB552002F019
:10261000F1FA112002F0FAFA642002F0EBFE292010
:1026200002F0F4FA352002F0F1FA002002F0E2FAAA
:10263000512002F0EBFAFF2002F0DCFA532002F006
:10264000E5FA2C2002F0D6FA552002F0DFFA8220BB
:1026500002F0D0FA2C20FCE3A0427DD14FF470436D
:102660005521184602F0E8FA4FF20104AA2120464B
:1026700002F0E2FA651C5221284602F0DDFAA61C9F
:102680000821304602F0D8FAE71C0121384602F052
:10269000D3FA0D214FF4304002F0CEFA0D214BF267
:1026A000010002F0C9FA0D214BF2020002F0C4FA57
:1026B0004FF436483421404602F0BEFA34214BF242
:1026C000016002F0B9FA34214BF2026002F0B4FA70
:1026D0004FF431490D21484602F0AEFA4BF2011A8F
:1026E0000D21504602F0A8FA0D214BF2021002F023
:1026F000A3FA34214FF4374002F09EFA34214BF212
:10270000017002F099FA34214BF2027002F094FA4F
:1027100000214FF4324002F08FFA00214BF20120E9
:1027200002F08AFA00214BF2022002F085FA2421FD
:102730004FF4384002F080FA24214BF6010002F0F9
:102740007BFA24214BF6020002F076FA01214FF4C5
:102750003F4002F071FA00E0FEE30F214FF43340F6
:1027600002F06AFA0F214BF2013002F065FA0F21F4
:102770004BF2023002F060FA34214FF4394002F09B
:102780005BFA34214BF6011002F056FA34214BF675
:10279000021002F051FA08214FF4354002F04CFAD1
:1027A00008214BF2015002F047FA08214BF2025087
:1027B00002F042FA03214FF4424002F03DFA242194
:1027C0004FF43A4002F038FA24214BF6012002F08F
:1027D00033FA24214BF6022002F02EFA00214FF4A6
:1027E0003C4002F029FA78214BF6014002F024FA2D
:1027F00000214BF6024002F01FFA00214FF43D4049
:1028000002F01AFA78214BF6015002F015FA002175
:102810004BF6025002F010FA00214FF43E4002F055
:102820000BFA64214BF6016002F006FA00214FF426
:10283000514002F001FA33214DF2011002F0FCF98F
:1028400000214DF2021002F0F7F934214DF203108D
:1028500002F0F2F900214DF2041002F0EDF93A21F4
:102860004DF2051002F0E8F900214DF2061002F0D9
:10287000E3F94A214DF2071002F0DEF900214DF292
:10288000081002F0D9F95C214DF2091002F0D4F9D8
:1028900000214DF20A1002F0CFF981214DF20B1008
:1028A00002F0CAF900214DF20C1002F0C5F9A62180
:1028B0004DF20D1002F0C0F900214DF20E1002F0A1
:1028C000BBF9E5214DF20F1002F0B6F901214DF2EE
:1028D000101002F0B1F913214DF2111002F0ACF911
:1028E00001214DF2121002F0A7F954214DF21310FC
:1028F00002F0A2F901214DF2141002F09DF982219B
:102900004DF2151002F098F901214DF2161002F067
:1029100093F9CA214DF2171002F08EF902214DF2FF
:10292000181002F089F900214DF2191002F084F913
:1029300002214DF21A1002F07FF901214DF21B1015
:1029400002F07AF902214DF21C1002F075F93421DF
:102950004DF21D1002F070F902214DF21E1002F02E
:102960006BF967214DF21F1002F066F902214DF25A
:10297000201002F061F984214DF2211002F05CF97F
:1029800002214DF2221002F057F9A4214DF223103A
:1029900002F052F902214DF2241002F04DF9B72154
:1029A0004DF2251002F048F902214DF2261002F0F6
:1029B00043F9CF214DF2271002F03EF902214DF2EA
:1029C000281002F039F9DE214DF2291002F034F915
:1029D00002214DF22A1002F02FF9F2214DF22B10B4
:1029E00002F02AF902214DF22C1002F025F9FE2105
:1029F0004DF22D1002F020F903214DF22E1002F0BD
:102A00001BF910214DF22F1002F016F903214DF29F
:102A1000301002F011F933214DF2311002F00CF9AF
:102A200003214DF2321002F007F96D214DF23310FF
:102A300002F002F900214FF4524002F0FDF8332178
:102A40004DF2012002F0F8F800214DF2022002F0D0
:102A5000F3F834214DF2032002F0EEF800214DF29C
:102A6000042002F0E9F83A214DF2052002F0E4F8E2
:102A700000214DF2062002F0DFF84A214DF2072036
:102A800002F0DAF800214DF2082002F0D5F85C21BE
:102A90004DF2092002F0D0F800214DF20A2002F098
:102AA000CBF881214DF20B2002F0C6F800214DF247
:102AB0000C2002F0C1F8A6214DF20D2002F0BCF866
:102AC00000214DF20E2002F0B7F8E5214DF20F2063
:102AD00002F0B2F801214DF2102002F0ADF81321FE
:102AE0004DF2112002F0A8F801214DF2122002F05F
:102AF000A3F854214DF2132002F09EF801214DF26B
:102B0000142002F099F882214DF2152002F094F879
:102B100001214DF2162002F08FF8CA214DF2172044
:102B200002F08AF802214DF2182002F085F8002107
:102B30004DF2192002F080F802214DF21A2002F025
:102B40007BF801214DF21B2002F076F802214DF2B4
:102B50001C2002F071F834214DF21D2002F06CF8B7
:102B600002214DF21E2002F067F867214DF21F206E
:102B700002F062F802214DF2202002F05DF884217B
:102B80004DF2212002F058F802214DF2222002F0ED
:102B900053F8A4214DF2232002F04EF802214DF209
:102BA000242002F049F8B7214DF2252002F044F824
:102BB00002214DF2262002F03FF8CF214DF22720CE
:102BC00002F03AF802214DF2282002F035F8DE2119
:102BD0004DF2292002F030F802214DF22A2002F0B5
:102BE0002BF8F2214DF22B2002F026F802214DF2B3
:102BF0002C2002F021F8FE214DF22D2002F01CF8CD
:102C000003214DF22E2002F017F810214DF22F2053
:102C100002F012F803214DF2302002F00DF83321BA
:102C20004DF2312002F008F803214DF2322002F07B
:102C300003F86D214DF2332001F0FEFF00214FF427
:102C4000534001F0F9FF33214DF2013001F0F4FF60
:102C500000214DF2023001F0EFFF34214DF203303C
:102C600001F0EAFF00214DF2043001F0E5FF3A21C6
:102C70004DF2053001F0E0FF00214DF2063001F089
:102C8000DBFF4A214DF2073001F0D6FF00214DF263
:102C9000083001F0D1FF5C214DF2093001F0CCFF8A
:102CA00000214DF20A3001F0C7FF81214DF20B30B7
:102CB00001F0C2FF00214DF20C3001F0BDFFA62152
:102CC0004DF20D3001F0B8FF00214DF20E3001F051
:102CD000B3FFE5214DF20F3001F0AEFF01214DF2BF
:102CE000103001F0A9FF13214DF2113001F0A4FFC3
:102CF00001214DF2123001F09FFF54214DF21330AB
:102D000001F09AFF01214DF2143001F095FF82216C
:102D10004DF2153001F090FF01214DF2163001F017
:102D20008BFFCA214DF2173001F086FF02214DF2D0
:102D3000183001F081FF00214DF2193001F07CFFC5
:102D400002214DF21A3001F077FF01214DF21B30C4
:102D500001F072FF02214DF21C3001F06DFF3421B1
:102D60004DF21D3001F068FF02214DF21E3001F0DE
:102D700063FF67214DF21F3001F05EFF02214DF22B
:102D8000203001F059FF84214DF2213001F054FF31
:102D900002214DF2223001F04FFFA4214DF22330E9
:102DA00001F04AFF02214DF2243001F045FFB72126
:102DB0004DF2253001F040FF02214DF2263001F0A6
:102DC0003BFFCF214DF2273001F036FF02214DF2BB
:102DD000283001F031FFDE214DF2293001F02CFFC7
:102DE00002214DF22A3001F027FFF2214DF22B3063
:102DF00001F022FF02214DF22C3001F01DFFFE21D7
:102E00004DF22D3001F018FF03214DF22E3001F06C
:102E100013FF10214DF22F3001F00EFF03214DF270
:102E2000303001F009FF33214DF2313001F004FF61
:102E300003214DF2323001F0FFFE6D214DF23330AF
:102E400001F0FAFE00214FF4544001F0F5FE332169
:102E500000E080E34DF2014001F0EEFE00214DF272
:102E6000024001F0E9FE34214DF2034001F0E4FE9E
:102E700000214DF2044001F0DFFE3A214DF2054001
:102E800001F0DAFE00214DF2064001F0D5FE4A21A4
:102E90004DF2074001F0D0FE00214DF2084001F054
:102EA000CBFE5C214DF2094001F0C6FE00214DF23F
:102EB0000A4001F0C1FE81214DF20B4001F0BCFE41
:102EC00000214DF20C4001F0B7FEA6214DF20D405D
:102ED00001F0B2FE00214DF20E4001F0ADFEE52101
:102EE0004DF20F4001F0A8FE01214DF2104001F01B
:102EF000A3FE13214DF2114001F09EFE01214DF27F
:102F0000124001F099FE54214DF2134001F094FE5D
:102F100001214DF2144001F08FFE82214DF2154047
:102F200001F08AFE01214DF2164001F085FECA2112
:102F30004DF2174001F080FE02214DF2184001F0E1
:102F40007BFE00214DF2194001F076FE02214DF288
:102F50001A4001F071FE00E000E301214DF21B4038
:102F600001F06AFE02214DF21C4001F065FE3421A1
:102F70004DF21D4001F060FE02214DF21E4001F0B5
:102F80005BFE67214DF21F4001F056FE02214DF21B
:102F9000204001F051FE84214DF2214001F04CFE11
:102FA00002214DF2224001F047FEA4214DF22340C0
:102FB00001F042FE02214DF2244001F03DFEB72116
:102FC0004DF2254001F038FE02214DF2264001F07D
:102FD00033FECF214DF2274001F02EFE02214DF2AB
:102FE000284001F029FEDE214DF2294001F024FEA7
:102FF00002214DF22A4001F01FFEF2214DF22B403A
:1030000001F01AFE02214DF22C4001F015FEFE21C6
:103010004DF22D4001F010FE03214DF22E4001F043
:103020000BFE10214DF22F4001F006FE03214DF260
:10303000304001F001FE33214DF2314001F0FCFD42
:1030400003214DF2324001F0F7FD6D214DF2334086
:1030500001F0F2FD00214FF4554001F0EDFD332168
:103060004DF2015001F0E8FD00214DF2025001F057
:10307000E3FD34214DF2035001F0DEFD00214DF25D
:10308000045001F0D9FD3A214DF2055001F0D4FD74
:1030900000214DF2065001F0CFFD4A214DF20750BC
:1030A00001F0CAFD00214DF2085001F0C5FD5C2180
:1030B0004DF2095001F0C0FD00214DF20A5001F01F
:1030C000BBFD81214DF20B5001F0B6FD00214DF208
:1030D0000C5001F0B1FDA6214DF20D5001F0ACFDF8
:1030E00000214DF20E5001F0A7FDE5214DF20F50E9
:1030F00001F0A2FD01214DF2105001F09DFD1321C0
:103100004DF2115001F098FD01214DF2125001F0E5
:1031100093FD54214DF2135001F08EFD01214DF22B
:10312000145001F089FD82214DF2155001F084FD0B
:1031300001214DF2165001F07FFDCA214DF21750CA
:1031400001F07AFD02214DF2185001F075FD0021C9
:103150004DF2195001F070FD02214DF21A5001F0AC
:103160006BFD01214DF21B5001F066FD02214DF275
:103170001C5001F061FD34214DF21D5001F05CFD49
:1031800002214DF21E5001F057FD67214DF21F50F4
:1031900001F052FD02214DF2205001F04DFD84213D
:1031A0004DF2215001F048FD02214DF2225001F074
:1031B00043FDA4214DF2235001F03EFD02214DF2CA
:1031C000245001F039FDB7214DF2255001F034FDB6
:1031D00002214DF2265001F02FFDCF214DF2275054
:1031E00001F02AFD02214DF2285001F025FDDE21DB
:1031F0004DF2295001F020FD02214DF22A5001F03C
:103200001BFDF2214DF22B5001F016FD02214DF273
:103210002C5001F011FDFE214DF22D5001F00CFD5E
:1032200003214DF22E5001F007FD10214DF22F50D9
:1032300001F002FD03214DF2305001F0FDFC33217D
:103240004DF2315001F0F8FC03214DF2325001F003
:10325000F3FC6D214DF2335001F0EEFC00214FF4F0
:10326000564001F0E9FC33214DF2016001F0E4FC2D
:1032700000214DF2026001F0DFFC34214DF20360C9
:1032800001F0DAFC00214DF2046001F0D5FC3A2196
:103290004DF2056001F0D0FC00214DF2066001F016
:1032A000CBFC4A214DF2076001F0C6FC00214DF233
:1032B000086001F0C1FC5C214DF2096001F0BCFC2A
:1032C00000214DF20A6001F0B7FC81214DF20B6044
:1032D00001F0B2FC00214DF20C6001F0ADFCA62122
:1032E0004DF20D6001F0A8FC00214DF20E6001F0DE
:1032F000A3FCE5214DF20F6001F09EFC01214DF28F
:10330000106001F099FC13214DF2116001F094FC62
:1033100001214DF2126001F08FFC54214DF2136037
:1033200001F08AFC01214DF2146001F085FC82213C
:103330004DF2156001F080FC01214DF2166001F0A4
:103340007BFCCA214DF2176001F076FC02214DF2A0
:10335000186001F071FC00214DF2196001F06CFC65
:1033600002214DF21A6001F067FC01214DF21B6051
:1033700001F062FC02214DF21C6001F05DFC342181
:103380004DF21D6001F058FC02214DF21E6001F06B
:1033900053FC67214DF21F6001F04EFC02214DF2FB
:1033A000206001F049FC84214DF2216001F044FCD1
:1033B00002214DF2226001F03FFCA4214DF2236076
:1033C00001F03AFC02214DF2246001F035FCB721F6
:1033D0004DF2256001F030FC02214DF2266001F033
:1033E0002BFCCF214DF2276001F026FC02214DF28B
:1033F000286001F021FCDE214DF2296001F01CFC67
:1034000002214DF22A6001F017FCF2214DF22B60EF
:1034100001F012FC02214DF22C6001F00DFCFE21A6
:103420004DF22D6001F008FC03214DF22E6001F0F9
:1034300003FC10214DF22F6001F0FEFB03214DF241
:10344000306001F0F9FB33214DF2316001F0F4FB03
:1034500003214DF2326001F0EFFB6D214DF233603C
:1034600001F0EAFB5521184601F0E6FBAA212046AF
:1034700001F0E2FB5221284601F0DEFB0821304634
:1034800001F0DAFB0021384601F0D6FBCC2148469A
:1034900001F0D2FB0021504601F0CEFB0521404651
:1034A00001F0CAFB70214FF4374001F0C5FB7021D9
:1034B0004BF2017001F0C0FB01214FF4384001F0E4
:1034C000BBFB03214BF6010001F0B6FB03214BF6D9
:1034D000020001F0B1FB03214BF6030001F0ACFB4D
:1034E00002214FF43C4001F0A7FB00214BF60140C4
:1034F00001F0A2FB00214BF6024001F09DFBD02120
:103500004FF4494001F098FB02214CF6011001F004
:1035100093FB50214CF6021001F08EFB50214CF62B
:10352000031001F089FB50214CF6041001F084FBDC
:1035300000214FF4545001F07FFB55214FF46850A7
:1035400001F07AFB4FF4885001F060FB782001F025
:103550006DFF4FF4245001F059FBF3E0A0F5134147
:103560004FF480744FF4E06940F2022A4FF427468A
:1035700025397CD040F20775C91E79D04FF4887781
:103580004FF41C56083174D0113973D0A0F5A841FE
:10359000083970D0A0F5A8514FF4407705396BD0A9
:1035A000B1F5204169D0B1F5805167D0A0F58A41CD
:1035B00031397CD0091F7BD04045CED1E22001F0CB
:1035C00025FB1D2001F016FB022001F013FB042057
:1035D00001F010FB642001F029FFE02001F016FB50
:1035E000012001F007FB0A2001F004FFE02001F0B8
:1035F0000DFB032001F0FEFA0C2001F0FBFE012080
:1036000001F004FB0A2001F0F5FEE62001F0FEFACD
:103610002F2001F0EFFAFF2001F0ECFAFF2001F07B
:10362000E9FAB02001F0F2FA202001F0E3FA0020DC
:1036300001F0E0FA032001F0DDFA40F21F3001F062
:10364000D9FA012001F0D6FA40F2DF1001F0D2FAE7
:10365000002001F0CFFAB42001F0D8FA042001F0E4
:10366000C9FA40F21F4001F0C5FA002007E076E0F9
:1036700041E1F9E1A0E275E3FEE3FEE3FEE301F0E0
:10368000B9FA2E2001F0B6FA002001F0B3FA0020BA
:1036900001F0B0FA002001F0ADFA002001F0AAFA22
:1036A000B62001F0B3FA022001F0A4FA01E0E6E34B
:1036B000E6E34FF4037001F09DFA002001F09AFA5E
:1036C000172001F097FA152001F094FA002001F07C
:1036D00091FA002001F08EFAF02001F097FA032011
:1036E00001F088FA292001F091FAD02001F08EFA39
:1036F000002001F07FFABE2001F088FA052001F0D9
:1037000079FAFE2001F076FA012001F073FA002028
:1037100001F070FA002001F06DFA002001F06AFA61
:10372000B82001F073FA032001F064FA012001F0DF
:1037300061FABA2001F06AFA012001F05BFA642014
:1037400000F0F6FF0020FDF779FAFF490120C1F8EB
:10375000BC025846FDF73CFA21B0BDE8F08F47F6B1
:10376000F001E52001F068FA2146012001F064FA39
:103770004946022001F060FA41F23001032001F0D5
:103780005BFA0021042001F057FA5146082001F0AD
:1037900053FA0021092001F04FFA00210A2001F01C
:1037A0004BFA00210C2001F047FA00210D2001F016
:1037B00043FA00210F2001F03FFA0021102001F010
:1037C0003BFA0721112001F037FA0021122001F005
:1037D00033FA0021132001F02FFA0021072001F015
:1037E0002BFA41F29061102001F026FA40F22721D5
:1037F000112001F021FA9D21122001F01DFA4FF451
:10380000C851132001F018FA2521292001F014FADB
:103810000D212B2001F010FA0721302001F00CFAC5
:1038200040F20331312001F007FA0321322001F088
:1038300003FA40F20621352001F0FEF90821362076
:1038400001F0FAF940F20641372001F0F5F94FF4A2
:103850004171382001F0F0F90721392001F0ECF92D
:1038600040F202613C2001F0E7F908213D2001F01F
:10387000E3F90021502001F0DFF9EF21512001F0A0
:10388000DBF90021522001F0D7F940F23F1153201B
:1038900001F0D2F93146602001F0CEF9012161201A
:1038A00001F0CAF900216A2001F0C6F90021802048
:1038B00001F0C2F90021812001F0BEF9002182202F
:1038C00001F0BAF90021832001F0B6F9002184202B
:1038D00001F0B2F90021852001F0AEF9102190200D
:1038E00001F0AAF94FF4C061922001F0A5F940F26D
:1038F00033110720FEE341F28F01EC2001F09CF927
:1039000041F23421EF2001F097F92146012001F026
:1039100093F94946022001F08FF941F2300103206A
:1039200001F08AF90021042001F086F951460820AF
:1039300001F082F90021092001F07EF900210A201E
:1039400001F07AF901210C2001F076F900210D2017
:1039500001F072F900210F2001F06EF90021102012
:1039600001F06AF90721112001F066F90021122007
:1039700001F062F90021132001F05EF90121072016
:1039800001F05AF9322001F035FD41F2904110204A
:1039900001F052F940F22721112001F04DF93220B7
:1039A00001F028FD8A21122001F046F9322001F0B1
:1039B00021FD4FF4D051132001F03EF906212920BA
:1039C00001F03AF90D212B2001F036F9322001F0F7
:1039D00011FD0021202001F02FF90021212001F00C
:1039E0002BF9322001F006FD0021302001F024F9EE
:1039F00040F20461312001F01FF940F2053132201C
:103A000001F01AF90021352001F016F940F60941BC
:103A1000362001F011F94FF40171372001F00CF953
:103A200040F20131382001F007F92946392001F030
:103A300003F900213C2001F0FFF840F60A213D2067
:103A400001F0FAF8322001F0D5FC0021502001F0FD
:103A5000F3F8EF21512001F0EFF80021522001F09E
:103A6000EBF840F23F114EE10021084601F0E4F886
:103A70002146012001F0E0F84946022001F0DCF87F
:103A800041F23001032001F0D7F80021042001F0B9
:103A9000D3F85146082001F0CFF80021092001F0A9
:103AA000CBF800210A2001F0C7F801210C2001F019
:103AB000C3F800210D2001F0BFF800210F2001F014
:103AC000BBF8322001F096FC40F20111072001F012
:103AD000B3F8322001F08EFC4FF48651102001F033
:103AE000ABF80721112001F0A7F83946122001F0A8
:103AF000A3F84FF43061132001F09EF80021292033
:103B000001F09AF844F210012B2001F095F8002101
:103B1000502001F091F8EF21512001F08DF80021A3
:103B2000522001F089F840F23F11532001F084F84F
:103B30003146602001F080F80121612001F07CF81D
:103B400000216A2002E000000080404201F074F889
:103B50000021802001F070F80021812001F06CF834
:103B60000021822001F068F80021832001F064F830
:103B70000021842001F060F80021852001F05CF82C
:103B80001021902001F058F80021922001F054F803
:103B90000121932001F050F83946952001F04CF8AE
:103BA0000021972001F048F80021982001F044F806
:103BB00040F27311072080E341F21401E72001F085
:103BC0003BF82146012001F037F84FF40071022044
:103BD00001F032F841F23801032001F02DF851468E
:103BE000082001F029F80021092001F025F8002122
:103BF0000A2001F021F800210C2001F01DF800211D
:103C00000D2001F019F800210F2001F015F8002116
:103C1000102001F011F80721112001F00DF800210A
:103C2000122001F009F80021132001F005F8C82046
:103C300001F0E0FB41F29061102000F0FDFF40F246
:103C40002721112000F0F8FF322001F0D3FB0C21D6
:103C5000122000F0F1FF322001F0CCFB4FF40061A4
:103C6000132000F0E9FF1121292000F0E5FF0B21CE
:103C70002B2000F0E1FF322001F0BCFB00212020CE
:103C800000F0DAFF40F23F131946212000F0D4FF84
:103C90000021302000F0D0FF4FF483742146312002
:103CA00000F0CAFF0021322000F0C6FF4FF401717E
:103CB000352000F0C1FF41F20A61362000F0BCFF60
:103CC0002946372000F0B8FF2146382000F0B4FF25
:103CD0002946392000F0B0FF40F202413C2000F0BC
:103CE000ABFF40F60F413D2000F0A6FF0021502021
:103CF00000F0A2FFEF21512000F09EFF0021522092
:103D000000F09AFF1946532000F096FF31466020DC
:103D100000F092FF0121612000F08EFF00216A2057
:103D200000F08AFF0021802000F086FF0021812022
:103D300000F082FF0021822000F07EFF002183201E
:103D400000F07AFF0021842000F076FF002185201A
:103D500000F072FF1021902000F06EFF4FF4C06160
:103D60009220FCE32146012000F066FF4946022034
:103D700000F062FF41F23001032000F05DFF0021FE
:103D8000042000F059FF40F20721082000F054FF02
:103D90000021092000F050FF00210A2000F04CFF14
:103DA00000210C2000F048FF00210D2000F044FF0E
:103DB00000210F2000F040FF142001F01BFB41F216
:103DC000B061102000F038FF0121112000F034FF15
:103DD0000121172000F030FF4FF49C71122000F0F9
:103DE0002BFF4FF40061132000F026FF092129204A
:103DF00000F022FF09212A2000F01EFF0021A4204C
:103E000000F01AFF0021502000F016FFEF21512092
:103E100000F012FF0021522000F00EFF40F23F118F
:103E2000532000F009FF3146602000F005FF01211A
:103E3000612000F001FF00216A2000F0FDFE00215A
:103E4000802000F0F9FE0021812000F0F5FE002125
:103E5000822000F0F1FE0021832000F0EDFE002121
:103E6000842000F0E9FE0021852000F0E5FE13210A
:103E7000902000F0E1FE04E016E022E11EE2E5E21F
:103E80009AE30021922000F0D7FE0321932000F056
:103E9000D3FE3946952000F0CFFE40F27311072083
:103EA00000F0CAFE322008E10021072000F0C4FE25
:103EB000322001F09FFA4FF48E71122000F0BCFE08
:103EC0000121A42000F0B8FE0F21082000F0B4FE6C
:103ED00008210A2000F0B0FE08210D2000F0ACFE01
:103EE0002B462946302000F0A7FE0721312000F0A4
:103EF000A3FE40F20361322000F09EFE4D4649468B
:103F0000332000F099FE5146342000F095FE022146
:103F1000352000F091FE41F60F71362000F08CFE46
:103F20001946372000F088FE0021382000F084FE7A
:103F30000021392000F080FE19463A2000F07CFE76
:103F400000213B2000F078FE07213C2000F074FEA9
:103F500000213D2000F070FE322001F04BFA0121DB
:103F6000072000F069FE0121172000F065FE3220D5
:103F700001F040FA4FF4BD51102000F05DFE40F218
:103F80001721112000F058FE4FF48F71122000F01D
:103F900053FE4FF47061132000F04EFE00212A20E2
:103FA00000F04AFE0A21292000F046FE4FF49F71DE
:103FB000122000F041FE0021502000F03DFEEF21D4
:103FC000512000F039FE0021522000F035FE40F271
:103FD0003F11532000F030FE3146602000F02CFEEF
:103FE0000121612000F028FE00216A2000F024FE5B
:103FF0000021802000F020FE0021812000F01CFE26
:104000000021822000F018FE0021832000F014FE21
:104010000021842000F010FE0021852000F00CFE1D
:104020001321902000F008FE3946922000F004FE93
:104030000521932000F000FE0021952000F0FCFDFA
:104040000021972000F0F8FD0021982000F0F4FDF9
:104050002146012000F0F0FD2946022000F0ECFD91
:1040600041F23801032000F0E7FD0021042000F0B8
:10407000E3FD00210C2000F0DFFD00210F2000F007
:10408000DBFD0021202000F0D7FD0021212000F0E1
:10409000D3FD2121072000F0CFFD142001F0AAF963
:1040A0006121072000F0C8FD142001F0A3F940F2BF
:1040B0007311072000F0C0FD142001F09BF9FFF7F9
:1040C00041BB0021084600F0B7FD0021084600F082
:1040D000B3FD0021084600F0AFFD0021084600F0C6
:1040E000ABFD0121A42000F0A7FD142001F082F90E
:1040F000314600E0DDE0602000F09EFD554651466F
:10410000082000F099FD4FF40571302000F094FD77
:1041100043F21571312000F08FFD40F2046132202E
:1041200000F08AFD40F61661332000F085FD42F272
:104130001121342000F080FD4FF4A851352000F00B
:104140007BFD48F20751362000F076FD41F2074131
:10415000372000F071FD41F20341382000F06CFD82
:104160002021392000F068FD1A21902000F064FD24
:104170000021102000F060FD0721112000F05CFDFF
:104180000021122000F058FD0021132000F054FD02
:10419000142001F02FF94FF4E661102000F04CFDDF
:1041A00040F23711112000F047FD142001F022F9F0
:1041B0004FF4DC71122000F03FFD142001F01AF9D9
:1041C0004FF47061132000F037FD80212A2000F0A9
:1041D00033FD4821292000F02FFD142001F00AF9B9
:1041E0002146012000F028FD4946022000F024FD70
:1041F00041F23801032000F01FFD2946082000F09D
:104200001BFD00210A2000F017FD00210C2000F00A
:1042100013FD00210D2000F00FFD30210E2000F0D5
:104220000BFD0021502000F007FDEF21512000F090
:1042300003FD0021522000F0FFFC40F23F1153200B
:1042400000F0FAFC3146602000F0F6FC012161200C
:1042500000F0F2FC00216A2000F0EEFC1121902019
:1042600000F0EAFC4FF4C061922000F0E5FC40F25F
:104270000241932000F0E0FC0221942000F0DCFCDD
:10428000142001F0B7F80121072000F0D5FC14201C
:1042900001F0B0F86121072000F0CEFC40F273116C
:1042A000072000F0C9FC0021202000F0C5FC0021FF
:1042B000212000F0C1FC222100207AE100210846E3
:1042C00000F0BAFC0021084600F0B6FC142001F012
:1042D00091F80021084600F0AFFC0021084600F0EC
:1042E000ABFC0021084600F0A7FC0021084600F0C6
:1042F000A3FC0121A42000F09FFC142001F07AF817
:104300003146602000F098FC40F60601082000F0DD
:1043100093FC40F203731946302000F08DFC01211C
:10432000312000F089FC0421322000F085FC4FF49C
:104330008171332000F080FC3946342000F07CFC91
:1043400040F20311352000F077FC1F21362000F0E9
:1043500073FC1946372000F06FFC0121382000F073
:104360006BFC0421392000F067FC1521902000F03F
:1043700063FC4FF48261102000F05EFC40F24721A4
:10438000112000F059FC4FF4DE71122000F054FCB3
:104390004FF46061132000F04FFC782001F02AF800
:1043A0002146012000F048FC4FF40071022000F08B
:1043B00043FC41F23001032000F03EFC08210A20BA
:1043C00000F03AFC00210C2000F036FC20210E20E9
:1043D00000F032FC00210F2000F02EFC00212020F4
:1043E00000F02AFC0021212000F026FC3D212A209B
:1043F00000F022FC142000F0FDFF2D21292000F008
:104400001BFC0021502000F017FC4DF2EF01512061
:1044100000F012FC0021522000F00EFC40F23F118F
:10442000532000F009FC0021612000F005FC002170
:104430006A2000F001FC3946922000F0FDFB0521C6
:10444000932000F0F9FB2146FFF7B4BB01210020C7
:1044500000F0F2FB0A2000F0CDFF41F228611020AD
:1044600000F0EAFB0E21122000F0E6FB40F63921B5
:10447000132000F0E1FB0A2000F0BCFF40211120D6
:1044800000F0DAFB5021152000F0D6FB0A2000F0E6
:10449000B1FF1E21122000F0CFFB0A2000F0AAFF7E
:1044A0004FF4B151102000F0C7FB42F63921132020
:1044B00000F0C2FB0A2000F09DFF2146012000F021
:1044C000BBFB3946022000F0B7FB41F23801032064
:1044D00000F0B2FB5146082000F0AEFB08210A2094
:1044E00000F0AAFB0021302000F0A6FB40F20241C0
:1044F000312000F0A1FB4FF48371322000F09CFBCF
:1045000040F20351332000F097FB4FF482713420C6
:1045100000F092FB40F20131352000F08DFB29467E
:10452000362000F089FB40F20531372000F084FB93
:104530004FF40271382000F07FFB40F60B713920F8
:1045400000F07AFB0221412000F076FB314660202A
:1045500000F072FB0121612000F06EFB00E0CDE075
:104560004FF40471902000F067FB4FF485719220A6
:1045700000F062FB0421932000F05EFB2146A020A6
:1045800000F05AFB0121072000F056FB21210720F3
:1045900000F052FB2321072000F04EFB33210720BF
:1045A00000F04AFB40F23311072000F045FB0021E8
:1045B000A02000F041FB82E53021152000F03CFBFB
:1045C00010219A2000F038FB2021112000F034FB4C
:1045D00043F22841102000F02FFB0221122000F0AE
:1045E0002BFB41F23801132000F026FB282000F0BD
:1045F00001FF1221084600F01FFB282000F0FAFE00
:1046000043F22041102000F017FB43F23801132041
:1046100000F012FB462000F0EDFE0021302000F0FB
:104620000BFB40F20241312000F006FB40F2073163
:10463000322000F001FB4FF44171332000F0FCFA0E
:104640000421342000F0F8FA40F20141352000F056
:10465000F3FA2946362000F0EFFA40F20531372010
:1046600000F0EAFA4FF4C2631946382000F0E4FA89
:104670001946392000F0E0FA2146012000F0DCFA6A
:104680003946022000F0D8FA41F23001032000F050
:10469000D3FA40F60801082000F0CEFA08210A20DB
:1046A00000F0CAFA3146602000F0C6FA012161200C
:1046B00000F0C2FA4FF49F71902000F0BDFA21463D
:1046C000922000F0B9FA2146932000F0B5FA4FF499
:1046D0004051A02000F0B0FA1021A32000F0ACFA65
:1046E0000121072000F0A8FA2121072000F0A4FAF8
:1046F0002321072000F0A0FA3321072000F09CFAC4
:1047000040F23311A0E608B54FF0D840B0F8800071
:10471000ADF80000BDF8000008BD10B500F076FA55
:10472000052000F083FEBDE81040FFF7ECBF00005D
:1047300010B50246BE2000F069FA052000F05AFAD2
:10474000104603F074F89FED0C1B53EC112B03F093
:1047500081F803F03FF880B200F04CFA012000F03D
:1047600049FAFF2000F046FA002000F043FABDE8C5
:104770001040002000F03EBA666666666666044039
:10478000F0B57F4D00232946AA79898846F60407AB
:1047900041F66314012A01D02AB11DE0B9421BD0B1
:1047A000A14202D118E0A14216D1082814D2DFE8B4
:1047B00000F00406080A0C0E101206200CE0072078
:1047C0000AE0042008E0052006E0012004E00020C3
:1047D00002E0032000E00220A1F5134C45F2103264
:1047E00045F21056BCF1410C07D0B94205D09142B8
:1047F00003D0B14201D0A1427BD1082812D2DFE818
:1048000000F0110406080A0C0E1080230AE0402371
:1048100008E0C02306E0202304E0602302E0A02398
:1048200000E0E023B14202D14FF4585000E03620BE
:10483000914205D0B14203D0A14201D043F0080318
:10484000B94201D143F00203194600F0F5F9AA88F4
:10485000A2420AD098062888698802D5884202D3E5
:1048600003E0884201D9298068806889B24241D139
:1048700000F0CCF9002000F0BDF96889401C80B23E
:1048800000F0C4F9002000F0B5F96889801C80B2FE
:1048900000F0BCF92888401EC0F30F2000F0AAF9F0
:1048A0006889C01C80B200F0B1F92878401EC0B2FF
:1048B00000F0A0F9A88900F0A9F9002000F09AF909
:1048C000A889401C80B200F0A1F9002000F092F904
:1048D000A889801C80B200F099F96888401EC0F356
:1048E0000F2000F087F9A889C01C80B200F08EF973
:1048F00022E028E000F08AF9002000F07BF9002097
:1049000000F078F92888401EC0F30F2000F072F9FB
:104910002878401EC0B200F06DF9A88900F076F941
:10492000002000F067F9002000F064F96888401E5C
:10493000C0F30F2000F05EF9A878BDE8F040401EFB
:10494000C0B200F057B9082812D2DFE800F0040620
:1049500008110A0C0E1030230AE0102308E020236F
:1049600006E0382304E0282302E0182300E00823AF
:10497000BDE8F040032043F4805100F05DB9000031
:10498000280100202DE9F043DFF844810C4602465F
:10499000050AB8F804104046A1F5134340894FEAD0
:1049A0001429413B17D0A1F5A643103B13D046462E
:1049B000A1F5D047B3793688B61A761E043F0ED0DB
:1049C000A1F5C857633F1ED0A1F5AA47103F57D0A5
:1049D000012B72D072E000F019F9284605E0012B96
:1049E00000D1B2B200F012F9100A00F003F9D0B20F
:1049F00000F000F9B8F80C0000F008F9484600F0A3
:104A0000F9F8E0B22AE06BB300F000F9284600F0B4
:104A1000F1F8D0B200F0EEF8B8F80000401EC0F394
:104A20000F2000F0E7F898F80000401EC0B200F038
:104A3000E1F8B8F80C0000F0E9F8484600F0DAF8C0
:104A4000E0B200F0D7F8B8F80200401EC0F30F2023
:104A500000F0D0F898F80200401EC0B2BDE8F04364
:104A600000F0C8B8B2B200F0D1F8002000F0C2F8EF
:104A7000002000F0BFF8100A00F0BCF8D0B2D6E772
:104A800000F0C4F8284600F0B5F8B8F80A00401C59
:104A900080B200F0BBF8D0B200F0ACF8B8F80C006F
:104AA00000F0B4F8484600F0A5F8B8F80C00401C37
:104AB00080B200F0ABF8A4E7FFE7B2B2114600F015
:104AC000BBF8B8F80C002146BDE8F04300F0B4B8DC
:104AD000280100202DE9F84F82461F460C468B46E0
:104AE000580700D0012000EBD700790810FB01F037
:104AF000203AC0B202F0FF090026009041E00C2FDE
:104B000010D0102F12D0182F3ED1204909EBC90028
:104B100001EB80004FF00008855D28060AD51C488F
:104B200002880BE009EB49001A49F1E71A4901EB49
:104B30000910EFE70A9828B91548428821465046DF
:104B4000FCF78CF96806050E1448641CA4B2408872
:104B5000A04219D9A4EB0B00B84209D10AF1010017
:104B60001FFA80FA0D485C46018851450CD906E0D1
:104B700008F1010000F0FF08B8F1080FCDD3761C52
:104B8000F6B200988642BAD3BDE8F88FBE8400081A
:104B9000680000205A7A0008CE7E00082801002014
:104BA0002DE9F84F044600F0FF0810190D46DDE925
:104BB0000A761FFA80FA58191FFA80F94FF0000B95
:104BC00011E0544502D3E819444685B24D450FD251
:104BD0003B4629462046CDF800B0FFF77BFF04EBAB
:104BE000570084B2761C3278A2F120005E28E8D902
:104BF000BDE8F88F01B5BDF80000ADF80000BDF8C4
:104C000000004FF0D841A1F8800008BD01B5BDF803
:104C10000000ADF80000BDF800004FF0D841A1F849
:104C20007E0008BD03484FF0D8410089A1F87E00FE
:104C300070470000280100204FF0D84222F87E0F74
:104C4000518070477CB50121202000F059F80120E7
:104C50008DF8040000228DF8062003218DF8051040
:104C6000074D4FF4C0648DF807000094694628464C
:104C7000FBF78CFE21462846FBF7DDFE7CBD0000DD
:104C800000140240FEE7704730B50F23C278017868
:104C90000125FAB1144A126801F1E02102F4E06240
:104CA000C2F5E062C2F30722C2F10404D3404278A5
:104CB000A24084781C401443220181F8002400782B
:104CC00000F01F018D404009800000F1E020C0F895
:104CD000005130BD01F01F0085404809800000F1FF
:104CE000E020C0F8805130BD0CED00E002490843DF
:104CF00002490860704700000000FA050CED00E072
:104D0000044A0029116801D0014300E08143116089
:104D10007047000030380240044A0029116801D071
:104D2000014300E0814311607047000038380240C1
:104D3000044A0029116801D0014300E08143116059
:104D40007047000040380240044A0029116801D031
:104D5000014300E081431160704700004438024085
:104D600070B5204B1968204C11F00C0104D066106E
:104D7000042903D0082903D004601BE0066019E071
:104D8000184A121F1168C1F38055116801F03F01E4
:104D900015B1B6FBF1F101E0B4FBF1F11468126852
:104DA000C4F388146143C2F30142521C5200B1FBA8
:104DB000F2F1016019680F2202EA11110B4A545CEA
:104DC0000168E14041601C68072505EA9424145DF0
:104DD00021FA04F484601B6805EA5333D25CD140A5
:104DE000C16070BD083802400024F4007800002043
:104DF0000CB50022274900920192086840F48030E7
:104E000008604FF4A043086800F400300190009857
:104E1000401C0090019810B900989842F3D108689E
:104E2000800334D5012001901A484030026842F0D6
:104E3000805202601848026842F4404202601548FD
:104E4000083002680260026842F4004202600268B0
:104E500042F4A0520260031F104A1A600A6842F02E
:104E600080720A600A689201FCD50D4940F2057211
:104E70000A60016821F003010160016841F002014C
:104E800001600168C1F381010229FAD10CBD0192D0
:104E90000CBD00000038024000700040085440077C
:104EA000003C02404FF0E0210428086903D020F0C4
:104EB00004000861704740F00400FAE710B502F002
:104EC0002DFA012803D0BDE8104001F0C1BE10BD8D
:104ED000124810B5016841F4700101601048016882
:104EE00041F0010101600E4A0021083211600268A0
:104EF0000C4B1A400260031D0B4A1A60026822F430
:104F00008022026006480C300160FFF771FF034900
:104F10004FF000608039086010BD000088ED00E0AF
:104F200000380240FFFFF6FE10300024F8B50020E4
:104F3000184D00900121284600F0B5F8012823D132
:104F40003221002000F054FC134E0446306868B152
:104F500032212046FBF723FB6A462146306802F0E7
:104F600013F9012802D1204600F07AFA21460020E8
:104F700000F032FC009838B108494FF080500860CA
:104F8000BFF34F8FBFF36F8F0121284600F07EF8EB
:104F9000F8BD0000004001401000002004ED00E0DA
:104FA00010B50A4C0121204600F07DF8012807D1F8
:104FB00007490A684868521C40F100000A604860CE
:104FC0002046BDE81040012100F060B80004004018
:104FD000600000207FB50D46044601210220FFF746
:104FE000A7FE0194ADF800500024104DADF802402A
:104FF000ADF808406946284600F06AF801221146DB
:10500000284600F05CF80121284600F042F81D20F7
:105010008DF80C0001208DF80D008DF80E408DF8F4
:105020000F0003A8FFF730FE7FBD00000004004022
:105030007FB50D46044601210804FFF785FE019463
:10504000ADF800500024104DADF80240ADF8084016
:105050006946284600F03CF801221146284600F037
:105060002EF80121284600F014F818208DF80C00C5
:1050700008208DF80D008DF80E4001208DF80F00EE
:1050800003A8FFF701FE7FBD00400140C943018234
:1050900070470029018802D041F0010101E021F0B0
:1050A00001010180704702460020138A92890B4259
:1050B00002EA010202D0002A00D001207047002A33
:1050C000828901D00A4300E08A4382817047000050
:1050D00030B50288164C174DA0420DD0A8420BD017
:1050E000B0F1804F08D0144B984205D0134B984232
:1050F00002D0134B984203D122F070034A881A431E
:10510000104B984206D0104B984203D022F44073C3
:105110000A891A4302804A68C2620A880285A0424C
:1051200001D0A84201D1897A01860121818230BD56
:10513000000001400004014000040040000800405D
:10514000000C00400010004000140040F8B5224E52
:1051500040F22551304600F053F8204C0025C8B1EC
:10516000304600F0DBF8C1B22088020415D44204B6
:1051700004D50A290DD140F400402AE00D2926D09B
:10518000C0F30D02164B401C80B299542080312888
:1051900000D925802088000418D51248006800280E
:1051A00014D000236A460E4901F07EFF258032218B
:1051B0000B48FBF7F4F90098002807D00A494FF094
:1051C00080500860BFF34F8FBFF36F8FF8BD40F47E
:1051D00080402080DEE700000010014072000020C7
:1051E000360100201000002004ED00E00029818934
:1051F00002D041F4005101E021F400518181704757
:1052000070B501F01F0501260024C1F3421306FA10
:1052100005F2012B0FD0022B0FD0838A4FEA112108
:105220000088134206FA01F600EA060001D000B138
:105230000124204670BD8389F0E7038AEEE710B5AC
:10524000C1F3421301F01F040121A140012B07D03B
:10525000022B07D01430002A026805D00A4304E06C
:105260000C30F8E71030F6E78A43026010BD00000A
:105270007FB50446008A0D46C98820F4405001439A
:105280002182A08941F20C618843A9882A891143AF
:105290006A8902431143A181A08A20F44071A88940
:1052A0000843A0826846FFF75BFD1A48844202D09B
:1052B0001948844201D1039800E00298A1890904A9
:1052C00000EBC00101EB0010296801D5490000E0A6
:1052D0008900B0FBF1F06422B0FBF2F109010B0987
:1052E0006FF018056B4300EB8300A3891D044FF09A
:1052F000320306D503EBC000B0FBF2F000F007006C
:1053000005E003EB0010B0FBF2F000F00F000843E3
:1053100020817FBD00100140001401408088C0F34F
:1053200008007047FEE770477CB501F0BFF81A4CE3
:10533000206901F065F8C5B2206901F03FF8064622
:10534000206901F05DF83044C6B21421002000F05D
:105350004FFA0446324611A1FAF7FAFF1026CDE9BA
:1053600000643346642296210A20FFF719FC2A467E
:105370000EA12046FAF7ECFFCDE900641023642269
:10538000BE210A20FFF70CFC2146002000F024FA81
:10539000BDE87C4001F0C6B800000020546F746185
:1053A0006C2053697A653A256400000052656D618E
:1053B000696E2053697A653A2564000010B5044689
:1053C0000420FFF76FFD0A484FF47A71047014FB54
:1053D00001F1012242804FF0E020026942F0020216
:1053E00002614161016941F00101016110BD0000EC
:1053F0006E00002070B5044601F090FF01280CD02B
:10540000094D6888844203D3B4FBF0F001F094F9AD
:105410006888B4FBF0F100FB11444FF47A706043EC
:10542000BDE8704000F002B86E00002070B54FF08B
:10543000E02500216C69094AAB6912785043AA69DA
:105440009A42FCD002D2A3EB020302E0A4EB0206D4
:105450003344194413468142F1D370BD6E000020DD
:105460001CB54FF6FF7104460091F5236E22E6212C
:105470000520FBF77BFD1020CDE9000403466422E4
:10548000E6210520FFF78CFB1CBD000003490A88BC
:105490005206FCD5C2B28A8070470000001001405D
:1054A0007CB5334D4FF4784610242E8031A0CDE9E1
:1054B00000400A212346C8220846FFF771FB32A0AC
:1054C000CDE900401023C8221E210A20FFF768FB07
:1054D00032A0CDE900401023C82232210A20FFF774
:1054E0005FFB32A0CDE900401023DC2246210A20D8
:1054F000FFF756FB35A0CDE900401023C8225A2102
:105500000A20FFF74DFB00206B232880EF2219466D
:10551000FBF72EFC772240F23F136B211046FBF77E
:1055200027FC4FF49D73EA226E217D20FBF77AFC65
:105530002E802CA0CDE9004010237822822100206B
:10554000FFF72EFB2BA0CDE9004010237822AA21E3
:105550000020FFF725FB2BA0CDE90040102364229B
:10556000D2210020FFF71CFB1F2028807CBD0000FB
:105570006800002041544B2053544D3332463130A3
:10558000332F3430370000004672656552544F5354
:10559000204578616D702031332D31004D65737376
:1055A0006167652051756575650000004B45595F61
:1055B00055503A4C454431204B4559303A52656676
:1055C00072657368204C4344000000004B4559311C
:1055D0003A53656E644D7367204B4559323A4245E4
:1055E00045500000444154415F4D73672053697A30
:1055F000653A0000444154415F4D73672072656D08
:10560000613A0000444154415F4D73673A00000025
:105610001CB54FF44070FFF769FBA820FFF7CEFEE2
:105620004FF4E13000F062FEFFF70CFBFBF706FAE7
:10563000FBF70AF9FBF7E0FC44F29F1141F28830D6
:10564000FFF7F6FC002000F047F8FFF729FF0749B5
:105650000120CDE900010202002305A1074801F065
:1056600031FE01F0C9F900201CBD0000000000203F
:1056700073746172745F7461736B0000D9610008A8
:1056800070B5134A131893F8203093B1114B53F8A7
:1056900020308B421AD90F4B02EB80020C3B53F89F
:1056A00020305069B1FBF3F130F81140002003467F
:1056B00008E011688847012070BD55690E18401C2C
:1056C00025F81630A042F8DB002070BD022070BD26
:1056D000880000203492000870B504460B480C4E38
:1056E000002150F8240006EB84054200686900F0B0
:1056F0008FF806480021183050F82420A86800F0E0
:1057000087F80120311981F8200070BD1C92000833
:10571000880000202DE9F0411F4E05460024701935
:105720000F4690F8200010B93168284688474FF09E
:10573000FF327FB3194B53F82510B7FBF1F0B7FBDD
:10574000F1FC01FB1C7101B1401C14490C3951F8EA
:105750002510491E1ED406EB8506776937F811C05F
:10576000BCF1000F05D00024844211D1002284B284
:1057700007E0641CF8E7776901EB020C521C27F87C
:105780001C408242F7D353F825004843BDE8F0811E
:10579000491EE3D51046F9E788000020289200084A
:1057A00010B50B4B0B4C002253F82030114604EB84
:1057B000800005E0446934F8114004B1521C491CD2
:1057C0008B42F7D864204243B2FBF3F0C0B210BD65
:1057D0001C92000888000020002906D0034A02EB32
:1057E00080029268891AFFF74BBF7047880000203B
:1057F00010B50446FFF78EFF411C05D0034901EBAD
:1058000084018968084410BD002010BD8800002074
:1058100001E000F8011B521EFBD270472DE9F04158
:10582000184E0F460446F5683068001D00F0B4FDC0
:1058300038B9306890F82C100120884031698143D4
:105840003161601C07D137B13168BDE8F0410E48C5
:10585000091D00F01FBE30682C44AC424460316822
:1058600005D2306CBDE8F041091D00F0FBBDF06BC6
:10587000091D00F0F7FDB06A844200D2B462BDE8B1
:10588000F0810000AC000020900301202DE9F041E0
:10589000054600F00BFE2D4EB068401CB06030682D
:1058A0002B4F10B1706930B32BE03560B068012820
:1058B00027D1002404EB840007EB800000F0C4FD36
:1058C000641C202CF6D3234800F0BEFD2148143080
:1058D00000F0BAFD1F48283000F0B6FD1D483C30EE
:1058E00000F0B2FD1B48503000F0AEFD1948F063E7
:1058F0001430306405E03068E96AC06A884200D834
:105900003560706A0121401C7062A864E86A3269DF
:1059100081401143316100EB800007EB8000291DBD
:1059200000F0B8FD00F0FEFD706900280CD0306872
:10593000E96AC06A884207D207494FF08050086080
:10594000BFF34F8FBFF36F8FBDE8F081AC00002035
:10595000C00001204003012004ED00E010B500F07C
:10596000A5FD0E4C2068A0B90D4800F06DFD0C4857
:10597000143000F069FD0A48E06014302061002214
:105980001021052001F07AF9206010B105A100F086
:105990009FFEBDE8104000F0C5BD0000F0000020F3
:1059A000A4030120546D72510000000070B5124E26
:1059B000124D1CE001F06CF8306820B1002401F0B9
:1059C000DBFDA4B901E00124F9E700F06FFDF06808
:1059D000C468201D00F0E0FCA868401EA86068684C
:1059E000401E686000F09EFD204600F052F8686896
:1059F0000028DFD170BD00007C030120AC00002036
:105A000030B4026C0B46002A0BD0C1681144C1604F
:105A10004468A14201D30168C16030BC1846FAF75E
:105A200071BD30BC70472DE9F041856B17460446C7
:105A30000026026C82B1C7B1E068FAF763FDE16845
:105A4000206C091AE1602268914202D26168081A4A
:105A5000E060022F16D017E02068A8B9606801F056
:105A6000E5FC0646002060600EE0A068FAF74AFDFB
:105A7000216CA0680844A0606168884204D3206853
:105A8000A06001E005B16D1E6D1CA5633046BDE848
:105A9000F08110B50446006B00F076FD2046BDE8AD
:105AA000104000F071BD000010484FF4A0414207C3
:105AB00006D0C01D0D4920F00700411AC1F5A041D4
:105AC0000B4A00230144C2E900030839103A21F0CF
:105AD000070111604B600B600B1AC0E90013936063
